:020000040000FA
:1000000088890010F90000000101000003010000D0
:100010000501000007010000090100009EF3FFEF49
:100020000000000000000000000000000B010000C4
:100030000D010000000000003903000055290000F8
:100040001301000013010000130100001301000060
:100050001301000013010000130100001301000050
:100060001301000013010000130100001301000040
:100070001301000000000000130100001301000044
:1000800013010000F54500001301000013010000FA
:100090001301000013010000130100001301000010
:1000A0001301000013010000130100001301000000
:1000B0004D0D0000130100001301000013010000AA
:1000C00013010000130100001301000013010000E0
:1000D00013010000130100001301000013010000D0
:1000E00013010000DFF80CD000F0C0F80048004712
:1000F000F5970000888900100648804706480047A9
:10010000FEE7FEE7FEE7FEE7FEE7FEE7FEE7FEE7C7
:10011000FEE7FEE7294C0000E500000072B67047DC
:1001200062B67047EFF3108072B6704780F31088A4
:10013000704730BF704720BF7047B0FA80F07047FB
:1001400090FAA0F0B0FA80F0704790FAA0F07047F3
:10015000002070472DE9F05F0546002092469B463F
:1001600088460646814640241BE0284641464746CD
:10017000224600F06AF853465A46C01A914110D3FD
:1001800011461846224600F051F82D1A67EB010877
:100190004F4622460120002100F048F817EB0009E5
:1001A0004E41201EA4F10104DFDC484631462A46B8
:1001B0004346BDE8F09F40EA01039B0703D009E0F6
:1001C00008C9121F08C0042AFAD203E011F8013B43
:1001D00000F8013B521EF9D27047D2B201E000F89C
:1001E000012B491EFBD270470022F6E710B51346DB
:1001F0000A4604461946FFF7F0FF204610BD10B529
:10020000002200E0521C835C8C5CA34201D1002BD5
:10021000F8D1D8B2E1B2401A10BD034611F8012B53
:1002200000F8012B002AF9D118467047202A04DB78
:10023000203A00FA02F1002070479140C2F12003F9
:1002400020FA03F3194390407047202A04DB203A38
:1002500021FA02F00021704721FA02F3D040C2F1E6
:10026000200291400843194670470000064C074D94
:1002700006E0E06840F0010394E807009847103476
:10028000AC42F6D3FFF732FFB41C0100D41C0100CE
:1002900070B58C1810F8015B15F0070301D110F848
:1002A000013B2A1106D110F8012B03E010F8016B75
:1002B00001F8016B5B1EF9D12B0705D40023521EF8
:1002C0000DD401F8013BFAE710F8013BCB1A921C60
:1002D00003E013F8015B01F8015B521EF9D5A1425E
:1002E000D8D3002070BD00EB8100008AC0F30B1052
:1002F00070477047002000F0CDB97047FFFFFFFF47
:10030000224C4FF6FF7525604FF0000484F30988F6
:100310001F4C4FF0010525701E4C4FF08055256095
:1003200062B6FEE71B484FF08051016070471948E4
:100330004FF080510160704772B6EFF3098050B101
:100340001EF0100F08BF20ED108A734620E9F80F49
:1003500011490968086000B5104880475DF804EB52
:100360000F4810490A7802700B480F490A6802606A
:100370001068B0E8F80F9E461EF0100F08BFB0ECF2
:10038000108A80F3098862B67047000022ED00E011
:10039000B800001004ED00E03C010010E52600006C
:1003A000D2000010D30000104001001001238B4048
:1003B000012A0BD0016811F0E06F03D0016821F031
:1003C000E061016001689943016070470168194369
:1003D0000160704700EB81000069002A02D000F044
:1003E000004001E000F0804008B10120704700208B
:1003F000704770B505460C460121080300F038F936
:10040000002028604FF40016012000F043F9C4EBEF
:10041000441101EB40004900B0FBF1F0401E46EAF8
:100420000020286070BD026822F0E062026002686D
:1004300042EA01610160704710B5FFF773FE0446A0
:1004400000F07CF910F036FF1A4809F0F5FB1A4A63
:1004500080230421A2F1C00010F000FD10F0BCFECA
:10046000164A80230D21A2F1C00010F013FB144A9C
:1004700080230E21A2F1C00010F054FF0521084690
:1004800010F096FE0F4A80231421A2F1C00011F053
:1004900047F80D4A64231521A2F1C00000F088F846
:1004A0000AA009F0C9FB00F05BF92046BDE8104046
:1004B000FFF73CBEE81A01009820001058230010F6
:1004C00018260010D8280010982B00104D61696E76
:1004D0005F50726F636573730A00000086B0002579
:1004E00005AE1A4FFFF71EFE044600F027F9002361
:1004F000CDE9005602221946184602F05FF905AB15
:1005000003AA04A9124802F03FF80399049A642050
:1005100048438B18B0FBF3F30EA009F08DFB05AB3D
:1005200003AA04A9384602F02FF80399049A64201C
:1005300048438B18B0FBF3F311A009F07DFB00F0EA
:100540000FF92046FFF7F2FDCCE70000243300103E
:10055000B85600105359535F5441534B5F544342B4
:100560002020757365642F667265653A25642F25B2
:1005700064202075736167653A252525640D0A009E
:1005800073536C617665506F6C6C544342202075D8
:100590007365642F667265653A25642F2564202093
:1005A00075736167653A252525640D0A0000000012
:1005B000F0B58BB000240A940A25B3FBF5F50327A8
:1005C000CDE906470AAE059408968DE82600CDE9E8
:1005D00003340023024A03A101F016FE0BB0F0BD64
:1005E000DD0400005461736B537461636B57617475
:1005F000636800000EB500250295FFF77EFEFFF749
:1006000079FE14490968B0FBF1F002F0BBF902A8C9
:1006100001F096FD00F074F8FFF76BFEFFF70CFF9A
:100620000D4F02AE0023CDE900560F2219461846A1
:1006300002F0C4F83D7000240022CDE90056642386
:100640001146104602F0BAF8641CE4B2112CF3D340
:10065000E7E70000D019010018000010FFF75EBDA9
:10066000292803D21030C0B200F092B870470000C1
:10067000074A012906D0002903D152F8C41F81433B
:100680001160704752F8C41F0143116070470000A9
:1006900000C00F40002806D0012807D0022808D04B
:1006A000032809D0FEE7064800687047054800683F
:1006B00070470548006870470448006870470000AC
:1006C0000000001004000010080000100C000010D2
:1006D00003490969884201D9401A704700207047D0
:1006E0008800001010B5FFF71DFD04494C69FFF7A5
:1006F0001DFD2046BDE81040FFF7EABF880000104E
:1007000010B5FFF7EFFF0446FFF70CFD034A002189
:100710005161FFF70BFD204610BD0000880000105E
:1007200010B5FFF7FFFC04498C69FFF7FFFC20467A
:10073000BDE81040FFF7CCBF8800001010B5074C93
:100740002088401C20806088002802D100F0C4F876
:10075000A0606088401C608010BD00008800001010
:1007600010B50A4C6088401E80B2608000280CD111
:1007700000F0B2F8E060A168401A6169814200D2DD
:100780006061A169814200D2A06110BD88000010A3
:1007900070B53A4C4FF0E025102849D2DFE800F060
:1007A0006C6C6C6C0818286C6C6C6C6C6C6C6C38B9
:1007B000FFF7B8FC0546FFF7C1FF216841F480311F
:1007C0002160FFF7CDFF2846BDE87040FFF7AEBCC3
:1007D000FFF7A8FC0546FFF7B1FF216841F400319F
:1007E0002160FFF7BDFF2846BDE87040FFF79EBCC3
:1007F000FFF798FC0546FFF7A1FF216841F480212F
:100800002160FFF7ADFF2846BDE87040FFF78EBCC2
:10081000FFF788FC0446FFF791FF296941F00101C9
:100820002961FFF79DFF2046BDE87040FFF77EBCC1
:100830006968491C102202EB4111C9B288421BD2DF
:100840001038C11700EBD161C1F3471521F01F012A
:10085000441AFFF767FC0646FFF770FF0121A1402D
:10086000AA0002F1E022C2F80011FFF779FF30463A
:10087000BDE87040FFF75ABC70BD000024ED00E0F9
:1008800070B505460C46002C18D0CDB11021284675
:1008900004F0B6F8102816D2FFF744FC0646FFF71E
:1008A0004DFF102229460A4804F08CF8FFF758FF44
:1008B0003046FFF73BFC0020208070BD00F00AF8B6
:1008C0000A20208070BD4FF47A70208070BD000037
:1008D00038390010FEE7000001484068704700000A
:1008E000001000E0F8B506460F46114804680025E0
:1008F000104B07E0009502E00098401C0090009823
:100900009842F9D3002000F017F80228F2D0E00056
:1009100000F10050026C761EC6F30A011FB141F0CF
:100920004041416402E041F0004141641046F8BD9D
:100930002841082040420F00104A002809D002F543
:100940008872916850681268521C814208D1002058
:10095000704702F59272916850681268521CF4E771
:1009600021B9521E904201D102207047401C8142A1
:1009700001D102207047012070470000004008208C
:1009800003480068C00000F1005000687047000094
:100990001841082004480068C00000F10050008C95
:1009A000C0F30A00401C7047184108200348006843
:1009B000C00000F10050006A704700001841082094
:1009C00003480068800000F10050806D704700000F
:1009D000284108202DE9FC4105462C2229464348A0
:1009E000FFF7E9FB4248016841F0804101600121C5
:1009F0000007FFF73DFE3F4C4FF44F40206078204A
:100A0000C4F800016426019602E0019A521E019288
:100A100001980028F9D10220206030206060A88968
:100A200060610020FFF736FE3349B0FBF1F0009023
:100A300000270197314A07E001980099105C88422D
:100A400005DA019B5B1C019301980F28F4D30198F0
:100A50000F2802D30020BDE8FC810198401C0190C2
:100A600001984FF4004100F00F0041EA800020623D
:100A7000206A20F40040206243F20F7020611220AF
:100A8000E0604001C4F800010811A061019602E095
:100A90000198401E019001980028F9D1A7612969A9
:100AA00059B128468847012805D000F093F800285E
:100AB00003DA0020CFE70020CDE7A8680BF046FC62
:100AC0000BF05EFB0FF0ECFC2620C4F800020121C5
:100AD000FF2000F017F80A494FF6FF70086000F099
:100AE00071F800F03FF80120B5E70000EC020010BB
:100AF000C4C00F4000400820A02526002018010097
:100B0000E84F0820054A012903D01168814311608C
:100B1000704711680143116070470000E44F0820DE
:100B200030B50E4A00F01F00127902F01F0240EAB1
:100B300002200B4A90620125556200204FF4A02448
:100B4000536BDB0702D0401CA042F9D3A04200D176
:100B50000D7000205062106B80B230BDEC020010AE
:100B6000004008200548D0F8001141F00101C0F80C
:100B70000011016841F00101016070470040082048
:100B8000094900280CD0486840F001004860D1F8BD
:100B9000000140F48060C1F80001152088607047B2
:100BA0001220886070470000004008200449002897
:100BB00002D04815886170470020886170470000A6
:100BC000004008200248016841F0020101607047BE
:100BD0000041082038B501200090850269460120B7
:100BE000FFF79EFF0446600703D51CA009F024F818
:100BF00003E0BDB16D1E002DF0D104F4804104F47A
:100C000080521B4851EA02030ED0436843F00103AF
:100C10004360D0F8003143F48063C0F800311523FD
:100C2000836009E0002038BD04F4005304F400653B
:100C30002B4301D01223836004F400430B4301D102
:100C4000A10403D54FF48071816105E004F40061D3
:100C50000A4301D000218161012038BD4450385F32
:100C600056414C49445F4C494E4B200A000000005D
:100C7000004008200449D1F81801401C042800D184
:100C80000020C1F818017047004008200649D1F83B
:100C90002801D1F82421401C521C904200D1002090
:100CA000C1F8280170470000004008202DE9F041FC
:100CB000456807681548D0F814807F1C4FF6FE7011
:100CC0000740B7FBF8F6002F1DD01AE001DD4446BF
:100CD00000E03C46002C16D026B1A0B20021FFF760
:100CE00001FE09E0A0B20121FFF7FCFD04E035F8A8
:100CF000021B20F8021BA41E002CF8D1761EFFF761
:100D0000C5FF002EE2DABDE8F081000000400820B7
:100D100010B50C4B00F01F001B7903F01F0340EAD5
:100D20000320094B9862D96200204FF4A024596B2C
:100D3000C90702D0401CA042F9D3A04201D1012032
:100D4000107010BDEC020010004008202DE9F047A3
:100D5000DFF86081DFF864910026574FA8F12C0579
:100D600009F1040A9CE0554808300460A00720D02F
:100D7000FFF71CFE102101EAD041082202EA50527E
:100D80000A43042101EAD0511143C0F3C062114368
:100D9000402202EA90520A43202101EA10611143E5
:100DA0004FF4805202EA10200843E8B3296A01B1E7
:100DB000884714F0300F1BD0FFF702FE4FF400718C
:100DC00001EA50414FF4807202EAD0420A43802186
:100DD00001EA505111434FF4806202EAD0420A43C3
:100DE0004FF4006101EAD0401043296A01B18847FD
:100DF000200746D50120FFF79FFD00B3FFF7CAFD8E
:100E000000283EDDC11EFFF7D1FD2D4A104238D12A
:100E100038787A6800EB400008EB802000EB420253
:100E2000FFF7AEFD7B6800E00AE00B447B60B3F5A2
:100E3000C06F0DD37E60296A09B10420884720E085
:100E400024F00204B5E730F8023B22F8023B891E89
:100E50000029F8DCFFF7AAFD400010D5AA6932B1DD
:100E60003878796800EB400008EB802090477E607E
:100E70003878401CC0B23870022800D33E70FFF7AB
:100E8000F9FE600602D5E86900B18047E00402D5AA
:100E9000A86A00B18047A00402D5686A00B1804703
:100EA000D9F80040DAF8000004407FF45CAFBDE8F8
:100EB000F08700001803001010000010E04F082019
:100EC0000000901B10B50B48012101714FF4C06167
:100ED0008181094981600021016008490161084957
:100EE0008161FFF777FD08B1002010BD6FF00E00A3
:100EF00010BD00004C85001060020010850F00003E
:100F0000050F00000148006805F0E6BF5C02001014
:100F100010B5044601220021104603F019F9012200
:100F20001146104603F014F901220421104603F083
:100F30000FF901220821104603F00AF901220921C4
:100F4000104603F005F901220A21104603F000F9CA
:100F500001220E21104603F0FBF801220F2110465A
:100F600003F0F6F801221021104603F0F1F80122F7
:100F70001121104603F0ECF82046BDE81040FFF7C1
:100F8000A1BF00000148006807F072BC5C020010BD
:100F900010B50C4600F004F8002800D0C46110BD64
:100FA00001460020062905D2DFE801F00305080B01
:100FB0000E110848704707482030704705484030F8
:100FC00070470448603070470248803070470148DD
:100FD000A0307047008009200121C803FFF748BBFB
:100FE00010B5FFF7DDFF08B1406910BD002010BD4E
:100FF00070B50C461546FFF7D3FF002803D01DB18E
:1010000001682143016070BD0168A143016070BDAA
:1010100010B50C46FFF7C4FF002800D0846110BD56
:1010200000B591B00BF02CFA08F06CFD09F092FEBF
:1010300016A008F001FE002104A80BF0A1FB00217E
:1010400019480FF0F1F8194810906FF07F400F9099
:10105000174803F0A5FC18490022CDE900211548E6
:1010600002900EAB0FAA10A9144809F00FFE134806
:1010700009F082FE114809F0E1FE1C20FFF7F0FAAA
:101080000FA008F0D9FD11B000BD00005443502F4F
:10109000495020696E697469616C697A696E672E5E
:1010A0002E2E200D0A000000C94C0000C0A801CA65
:1010B000E0010010F9020100116E000088560010D6
:1010C0005443502F495020696E697469616C697A84
:1010D00065642E200D0A00000EB50B490020086043
:1010E0000A4A012102A8CDE900108B0202F58061B5
:1010F00007A000F011F8BDF80800A0F51C51103948
:1011000001D0FFF7E7FB0EBDA40000104839001026
:1011100048656170000000002DE9F84F0646DDE9E2
:101120000A950F4690461C46FEF7FCFF8246FFF7E5
:1011300005FB4B46424639463046009400F00AF81B
:10114000FFF70EFB5046FEF7F1FF42F210702880C9
:10115000BDE8F88F00980A601044401E48608A601D
:1011600002480268CA600B6101607047A400001069
:1011700000E0401E0028FCDC7047704770B5044654
:1011800000F088F830480025057030480570304878
:1011900005703048056030480560304805703048BB
:1011A00005703048016831B12F48006801E0401EE9
:1011B00020C10028FBD12D48057001F01BFF01F074
:1011C000BDFF2B4805602B480580204601F03CFC04
:1011D0002088002836D1204601F042FC20880028D3
:1011E00030D12548056025480580254805602548FB
:1011F00005802548056025480580204602F0C4FA90
:10120000208800281ED1204601F0EAFB2088002813
:1012100018D1204602F036FE2088002812D1204640
:1012200002F0C8F9208800280CD1204602F086FE82
:101230002088002806D101F0B9FBFFF79EFF144972
:101240000120087070BD0000B0000010B800001050
:10125000DA0000103C01001040010010D200001024
:10126000D3000010A8190100AC19010006010010FC
:10127000BC000010C0000010CC000010D000001016
:10128000D4000010D8000010DC000010E0000010B6
:10129000B9000010054806490068096800EB8100A4
:1012A000044920F00700086070470000A8190100F9
:1012B000AC1901004401001010B522480078012843
:1012C0003ED1FEF72FFF04461F49087840B1401E6B
:1012D000C0B2087048B12046BDE81040FEF726BFF6
:1012E0002046BDE81040FEF721BF1848007820B125
:1012F0002046BDE81040FEF719BF01F071FE144909
:101300000870144900EB400051F8200012490860B1
:1013100012490968884204D12046BDE81040FEF712
:1013200005BF50F88C1F491C01600D480168491C1D
:101330000160FEF7FCFF2046BDE81040FEF7F6BE58
:1013400010BD0000B8000010B0000010DA0000105E
:10135000D3000010F84D0010400100103C010010B7
:10136000FC0000102DE9F04104460D4616461748D2
:101370000078002804D042F6E1603080BDE8F081BA
:10138000FCB1FEF7CFFE0746FFF7D8F91048206002
:10139000656000252562656284F82850E56204F1E5
:1013A000080001F0EDFC204601F028FC09490888FE
:1013B000401C0880FFF7D4F93846FEF7B7FE3580A9
:1013C000DCE745F6C3503080D8E70000B0000010DD
:1013D0004D555458D00000102DE9F04F89B0064605
:1013E000129D8A4690461C4661480078002805D028
:1013F00046F2AE10288009B0BDE8F08F4EB1B8F1CA
:10140000000F0AD0B8F5004F07D045F625602880B8
:10141000F1E745F6C3502880EDE756493068884229
:1014200003D045F6C4502880E5E7FEF77BFE8346EF
:10143000FFF784F996F82810DFF83C910027A9B14E
:10144000706AD9F8002090422ED1FF2923D0491C80
:1014500086F828100CB1F06A2060FFF781F9584631
:10146000FEF764FE45F282702880C4E7D9F80000D8
:101470007062012086F828000CB1F06A20603146C5
:10148000D9F8000001F0CCFBFFF76AF95846FEF7E7
:101490004DFE2F80AFE7FFF763F95846FEF746FE93
:1014A00045F284702880A6E75FEA08410AD5FFF775
:1014B00057F95846FEF73AFE04B1276046F2B010DD
:1014C000288098E72D49097851B1FFF749F9584626
:1014D000FEF72CFE04B1276046F6635028808AE7A9
:1014E00090F8373092F837108B4201D902F0DAF8D1
:1014F00053460422314601A801F0B2FBFFF730F950
:101500005846FEF713FE00F0E9FAFEF70BFE06461A
:10151000FFF714F9D9F8002092F8351071B10129BC
:1015200011D002291CD0032914D046F62E60288041
:10153000FFF716F93046FEF7F9FD5CE70CB1906C49
:1015400020602F80F4E70CB1906C206046F2A91067
:101550002880EDE704B1276047F2D9202880E7E72B
:101560000CB1906C206045F6C2502880E0E7000086
:10157000B00000104D5554583C010010DA00001026
:101580002DE9FC5F0446894615465448007800283A
:1015900004D046F20E202880BDE8FC9F4CB1B9F182
:1015A000000F0AD0B9F5004F07D045F62560288016
:1015B000F2E745F6C3502880EEE7494920688842A3
:1015C00003D045F6C4502880E6E7FEF7ABFD019056
:1015D000FFF7B4F8DFF80CA1606ADAF8001088426F
:1015E00008D0FFF7BDF80198FEF7A0FD45F2817025
:1015F0002880D1E7FFF770F98046C4F82C8094F872
:101600002800401EC0B284F8280040B1FFF7A8F8B7
:101610000198FEF78BFD45F283702880BCE72146D8
:10162000DAF8000001F011FB04F108074FF0000B9D
:101630003868E8B3DAF8000090F8371090F83820EE
:1016400091421DD001F0F0FADAF8001091F838203C
:10165000824200D21046064691F83700B0420FD2BF
:10166000084601F0CFFDDAF8000080F83760304618
:1016700001F0CCFCDAF8000001F0A6FD1A48067073
:10168000386886686662012084F828002146304662
:1016900001F0C6FA00231A4631462046CDF80080F4
:1016A00001F030FCFFF75CF80198FEF73FFD00E029
:1016B00007E05FEA094001D400F010FAA5F800B095
:1016C0006AE7C4F824B084F828B0FFF749F8019815
:1016D000FEF72CFDA5F800B05EE70000B00000109A
:1016E0004D5554583C010010D20000102DE9F04136
:1016F00004460F4616461D4619480078002804D0B7
:1017000042F6E1602880BDE8F08104B31EB3FEF725
:1017100009FD8046FFF712F81248206067603146E5
:1017200004F1200001F01AFA04F1080001F028FB8E
:10173000204601F09DFC0C490888401C0880FFF7FA
:101740000FF84046FEF7F2FC00202880DBE745F664
:10175000C3502880D7E746F294502880D3E7000092
:10176000B000001051554555D80000102DE9F05F2C
:1017700007468A4614463A480078002805D043F2C6
:10178000C92020800020BDE8F09F47B13549386866
:10179000884209D045F6C45020800020F3E745F682
:1017A000C35020800020EEE7FEF7BCFC8346FEF726
:1017B000C5FF07F108060025DFF8AC80A946BAF19D
:1017C000000F0CD0BAF1010F27D0FEF7C9FF584621
:1017D000FEF7ACFC45F6256020802846D3E730684C
:1017E00040B1FEF7BDFF5846FEF7A0FC47F25F1080
:1017F0002080F2E7384601F04DFCB8F80000401EAA
:10180000A8F80000384601F019FCFEF7A9FF584679
:10181000FEF78CFCA4F80090DFE7FFF75DF8824646
:1018200006E081685246384601F010FB6D1CADB2EF
:1018300030680028F5D1384601F02CFCB8F80000DB
:10184000401EA8F80000384601F0F8FBFEF788FFBC
:101850005846FEF76BFC00F041F9A4F80090BCE795
:10186000B000001051554555D800001070B5054620
:101870000C4615480078002804D04FF46C502080A6
:10188000002070BD45B111492868884209D045F64D
:10189000C4502080002070BD45F6C3502080002039
:1018A00070BDFEF73FFC0646FEF748FF05F120003D
:1018B00001F00CF90546FEF753FF3046FEF736FC03
:1018C00000202080284670BDB000001051554555BD
:1018D0002DE9F04F89B00746DDE912548A4691465A
:1018E0001E465A480078002806D046F2AE102080E6
:1018F000002009B0BDE8F08F5FB17EB1B9F1000FF3
:1019000011D0B9F5004F0ED045F62560208000209B
:10191000EFE745F6C35020800020EAE746F2D520E5
:1019200020800020E5E74A493868884204D045F61F
:10193000C45020800020DCE74FF000080DB1C5F84E
:101940000080FEF7EFFB0090FEF7F8FE23462A46E4
:10195000314607F1200001F0D5F88346208860B1B8
:101960005FEA094010D5FEF7FBFE0098FEF7DEFBAC
:1019700046F2B01020800020BBE7FEF7F1FE009891
:10198000FEF7D4FB5846B4E73248007848B1FEF77A
:10199000E7FE0098FEF7CAFB46F663502080002061
:1019A000A7E753460522394601A801F059F9FEF789
:1019B000D7FE0098FEF7BAFB00F090F8FEF7B2FBF6
:1019C0008146FEF7BBFE244A116891F8350090B1BC
:1019D00001281BD002282ED0032822D00027A6F8E9
:1019E000008046F62E602080FEF7BAFE4846FEF7DD
:1019F0009DFB38467DE78F6DB1F85C00308015B1F6
:101A00001068806C2860A4F80080EDE70027A6F835
:101A1000008015B11068806C286046F2A910208003
:101A2000E2E70027A6F800800DB1C5F8008047F274
:101A3000D9202080D8E70027A6F8008015B11068CB
:101A4000806C286045F6C2502080CDE7B0000010C1
:101A500051554555DA0000103C0100102DE9FC41BC
:101A60000546089C0F4690461E46002D0FD0334673
:101A70004FF40070B6F5004F17D00DDCABB1102B52
:101A800013D0834211D0B3F5047F16D10DE045F693
:101A9000C3502080BDE8FC81A3F50043103B04D077
:101AA000B3F5F87F01D0834207D10B4928688842FB
:101AB00007D045F6C4502080ECE745F6256020802D
:101AC000E8E7FEF709FFCDE9000433464246394610
:101AD000284601F0F5FADDE75155455510B5174890
:101AE0000078002829D116480078002825D1FEF773
:101AF00019FB044601F074FA12490870124900EB10
:101B0000400051F8200011490860114909688842D5
:101B100004D12046BDE81040FEF708BB50F88C1FEA
:101B2000491C01600B480168491C0160FEF7FAFB83
:101B30002046FEF7FBFABFF36F8F10BDB000001018
:101B4000DA000010D3000010F84D00104001001022
:101B50003C010010FC00001070B5044613480078EA
:101B6000002803D046F66250208070BD10480078EF
:101B7000012803D045F68960208070BD0D4D28787E
:101B8000FA2803D345F20920208070BDFEF7CAFA77
:101B90000646FEF7D3FD2878401C2870FEF7E0FDCE
:101BA0003046FEF7C3FA0020208070BDB000001060
:101BB000B8000010DA00001070B50446194800782B
:101BC000002803D046F66550208070BD1648007886
:101BD000012803D045F68960208070BD134D287818
:101BE00090B1FEF79FFA0646FEF7A8FD2878401E42
:101BF000C0B2287060B1FEF7B3FD3046FEF796FA2A
:101C000046F66350208070BD46F66450208070BD5B
:101C1000FEF7A6FD3046FEF789FAFFF75FFF0020CA
:101C2000208070BDB0000010B8000010DA00001075
:101C30002DE9F0410446884616461D4615480078B1
:101C4000002804D042F6E1602880BDE8F081ECB1C4
:101C5000FEF768FA0746FEF771FD0F48206026621E
:101C600000266662C4F8048004F1080001F088F8D8
:101C7000204601F001FB09490888401C0880FEF756
:101C80006FFD3846FEF752FA2E80DEE745F6C35068
:101C90002880DAE7B000001053454D41E000001005
:101CA0002DE9F05F07468A4614463A480078002836
:101CB00005D043F2C92020800020BDE8F09F47B145
:101CC00035493868884209D045F6C4502080002044
:101CD000F3E745F6C35020800020EEE7FEF722FA36
:101CE0008346FEF72BFD07F108060025DFF8AC80E0
:101CF000A946BAF1000F0CD0BAF1010F27D0FEF7B8
:101D00002FFD5846FEF712FA45F62560208028463A
:101D1000D3E7306840B1FEF723FD5846FEF706FAD8
:101D200047F25F102080F2E7384601F0B7FAB8F8C2
:101D30000000401EA8F80000384601F08DFAFEF7BA
:101D40000FFD5846FEF7F2F9A4F80090DFE7FEF722
:101D5000C3FD824606E081685246384601F076F8B7
:101D60006D1CADB230680028F5D1384601F096FA06
:101D7000B8F80000401EA8F80000384601F06CFAE0
:101D8000FEF7EEFC5846FEF7D1F9FFF7A7FEA4F8E0
:101D90000090BCE7B000001053454D41E00000103A
:101DA0002DE9F04788B00646109D894690461C46AE
:101DB00050480078002806D046F2AE102880002057
:101DC00008B0BDE8F08756B1B8F1000F0CD0B8F5F7
:101DD000004F09D045F6256028800020F0E745F641
:101DE000C35028800020EBE743493068884204D084
:101DF00045F6C45028800020E2E7FEF793F98246BA
:101E0000FEF79CFC306A002768B1401E30620CB1BE
:101E1000706A2060346AFEF7A3FC5046FEF786F92C
:101E20002F802046CCE75FEA08400CD504B127603C
:101E3000346AFEF795FC5046FEF778F946F2B0108A
:101E400028802046BCE72D48007858B104B12760AF
:101E5000FEF786FC5046FEF769F946F66350288087
:101E60000020ADE74B4606223146684600F0F8FEFA
:101E7000FEF776FC5046FEF759F9FFF72FFEFEF706
:101E800051F98046FEF75AFC1D48016891F835006B
:101E900078B1012812D002281DD0032815D046F6AB
:101EA0002E602880FEF75CFC4046FEF73FF90020DC
:101EB00086E70CB1886C20602F8012E00CB1886C32
:101EC000206046F2A91028800BE004B1276047F299
:101ED000D920288005E00CB1886C206045F6C250FE
:101EE0002880346AFEF73CFC4046FEF71FF9204686
:101EF00066E70000B000001053454D41DA000010C5
:101F00003C01001070B506460C461546002E0ED05A
:101F100094B1B4F5007F0FD0B4F5004F0CD0B4F5F8
:101F2000024F09D045F625602880002070BD45F697
:101F3000C3502880002070BD09493068884204D011
:101F400045F6C4502880002070BDFEF7C5FC02464F
:101F50002B4621463046BDE8704001F0B5B900007F
:101F600053454D412DE9F04104460E4615461848AB
:101F70000078002804D046F6C6502880BDE8F081DD
:101F80003CB114492068884207D045F6C4502880E7
:101F9000F4E745F6C3502880F0E700202880FEF7DC
:101FA000C1F80746FEF7CAFB206A08B1266205E0C1
:101FB0002046806848B147F25F102880FEF7D0FBCA
:101FC0003846BDE8F041FEF7B1B82662F6E70000FA
:101FD000B000001053454D4170B5044616480078D6
:101FE000012803D045F68B60208070BD0126134880
:101FF0000088042803D845F68C60208070BD104D01
:10200000287818B145F68A60208070BD00F0E8FF9E
:102010000C4908700C4908700C4900EB400051F85D
:1020200020000B4908600B4908602E70FEF768F924
:1020300043F69920208070BDB90000100401001003
:10204000B8000010D3000010D2000010F84D0010AE
:10205000400100103C0100102DE9F0410646FEF75A
:1020600061F80446FEF76AFB2D48002505802D48DF
:1020700005602D4805602D4805602D4805602D48F8
:102080000581FEF76DFB2046FEF750F8FEF74AF893
:102090000746FEF753FB28480468FEF761FB384605
:1020A000FEF744F81BE0FEF73DF80746FEF746FB57
:1020B0007434E56325602563A561A582E5826562C8
:1020C000A562FEF709FC2062743C2146A1F86C5021
:1020D000D4F8B840FEF744FB3846FEF727F8002C4A
:1020E000E1D1FEF71FF80746FEF728FB1348046806
:1020F000FEF736FB3846FEF719F80CE0FEF712F84B
:102100000746FEF71BFB21468D85A469FEF728FBD9
:102110003846FEF70BF8002CF0D13580BDE8F08191
:10212000E6000010F80000100C0100102C01001057
:10213000B4000010EC4D001000010010D40000109D
:10214000F8B504466946284800F0B6FABDF8000024
:1021500008B12080F8BD6A460021022000F0E2FAB2
:10216000BDF8000008B12080F8BDFDF7DBFF074691
:10217000FEF7E4FA1D4E00253560FEF7F1FA384609
:10218000FDF7D4FF00201A491A4A0B681768BB42B2
:1021900003D908681268B0FBF2F018B909680A2080
:1021A000B1FBF0F06A46002100F0BCFA69460E4827
:1021B00000F0F2F8BDF8000008B12080F8BDFDF78E
:1021C000B1FF0746FEF7BAFA0B4805600B493068C5
:1021D00008600B4901200870FEF7C2FA3846FDF787
:1021E000A5FF2580F8BD000028510010E800001070
:1021F000D0190100BC190100F8000010EC0000101B
:10220000F4000010704700002DE9FF4F83B0044632
:10221000DDE91097DDE91785139E9346584800784D
:10222000002805D047F24A10288007B0BDE8F08F9B
:102230005CB1BBF1000F0CD07FB152480068864200
:102240000FD246F630602880EFE747F2AD102880C5
:10225000EBE747F24F102880E7E746F62F6028802B
:10226000E3E71298B04203D346F631602880DCE7FA
:1022700046F27320B9F1200F01D32880D5E7B9F1D8
:102280001F0F04D140498C4201D02880CDE7204661
:1022900001F08AFA4FF0000AA5F800A008F001004A
:1022A00008F0020108430BD05FEA887008D5384671
:1022B000002103E0C0F800A0001D491CB142F9D381
:1022C000129807EB80000290CDE900683A46584624
:1022D000029B069900F0B8F9B84203D246F62C608A
:1022E0002880A2E7C4F828B00699E1620499A160A9
:1022F00084F8379084F8389020600298E06016984F
:10230000606067622664A4F84480002004EB8001CA
:10231000C1F878A0401CC0B20028F7D004F16000DA
:10232000149900F01BFC204600F034F8FDF7FAFE8B
:102330000546FEF703FA94F8370000F067FE2046E2
:1023400000F042FF204601F00DFA10490888401CB9
:1023500008800F480078012807D0FEF701FA07B07F
:102360002846BDE8F04FFDF7E1BEFEF7F9F9284633
:10237000FDF7DCFE07B0BDE8F04FFFF7AFBB000094
:10238000B0000010CC1901002C4D00100401001009
:10239000B80000107047000070B504460D461348A1
:1023A0000078002803D047F25510288070BDFDF753
:1023B000B9FE0646FEF7C2F91CB10D48006884421A
:1023C00008D1FEF7CDF93046FDF7B0FE47F25710C1
:1023D000288070BDFEF7C4F93046FDF7A7FE2946F8
:1023E0002046BDE8704001F037BA0000B000001090
:1023F0003C010010704700002DE9F05F83468A46DB
:1024000014461D4651480078002805D046F2AE100B
:1024100028800020BDE8F09FBAF1000F07D0BAF580
:10242000004F04D045F6256028800020F2E7FDF734
:1024300079FE8146FEF782F9454F00263868D0F8CC
:102440004C80B8F1000F1CD0A8F10108C0F84C80F6
:102450000CB1806C2060FEF73FFA01463868826C50
:10246000891AC0F8A010D0F8A4208A4201D2C0F87E
:10247000A410FEF775F94846FDF758FE2E80404639
:10248000C8E75FEA0A400BD5FEF76AF94846FDF750
:102490004DFE04B1266046F2B01028800020B9E756
:1024A0002C48007858B104B12660FEF759F9484627
:1024B000FDF73CFE46F6635028800020AAE7002185
:1024C0005B460722084600F0CBFBFEF749F9484679
:1024D000FDF72CFEFFF702FBFDF724FE8046FEF71A
:1024E0002DF9396891F8350078B1012820D00328FA
:1024F00025D046F62E6028803868C46CFEF730F987
:102500004046FDF713FE204684E77CB1886C2060CE
:10251000FEF7E2F901463868826C891AC0F8A0100B
:10252000D0F8A4208A4201D2C0F8A4102E80E3E79C
:102530000CB1886C206046F2A9102880DCE704B159
:10254000266047F2D9202880D6E70000B0000010AE
:102550003C010010DA00001070B506460C46154626
:10256000002C07D0B4F5004F04D045F62560288034
:10257000002070BDFEF7B0F902462B4621463046DA
:10258000BDE8704001F0E4B92DE9F0470646884601
:1025900091461F462A480078002804D047F2591077
:1025A0003880BDE8F08746F2D520B8F1000F09D099
:1025B000B9F1000F08D0FDF7B5FD0446FEF7BEF8EF
:1025C00026B105E03880ECE73880EAE71D48066868
:1025D0004FF0000A306858B196F84400C00714D094
:1025E000FEF7BEF82046FDF7A1FD0024756A1BE04A
:1025F000FEF7B6F82046FDF799FDC8F800A0C9F827
:1026000000A047F252103880CBE7FEF7A9F8204629
:10261000FDF78CFDC8F800A0C9F800A047F25410DF
:102620003880BEE72D1D641C28680028FAD0C8F841
:102630000040306C001BC9F80000A7F800A0B0E70C
:10264000B00000103C01001010B5029C02EB8402A7
:1026500022F007024FF0807442F8044C42F8080C54
:102660000C3A14481060A2F134004FF012340463A5
:102670004FF00332C2624FF0023282624362016263
:102680004FF01131C161D100816161104161910050
:1026900001614FF00731C1604FF0063181604FF0AA
:1026A00005314160510040F804196FF002010160EA
:1026B00010BD000031390000084A1278002A03D00A
:1026C00047F25D1008807047054A904203D147F2F7
:1026D0005B100880704701F0A5B90000B000001041
:1026E0002C4D001070B5FEF7F7F80C4C0C4A216821
:1026F0001368994206D090314A68821A0A608D6840
:102700002A448A60C3F89400FDF7FAFF2168D1F8E3
:10271000B020824201D2C1F8B00070BD3C0100106F
:10272000400100102DE9F04106460D4614462048B0
:102730000078002804D047F275202080BDE8F081A1
:102740001C48007818B146F663502080F6E74DB17A
:10275000022D07D0042D06D0082D03D045F62560A4
:102760002080EBE7A6B1FDF7DDFC0746FDF7E6FFAD
:102770002A46114D23463146286801F01FFA208869
:1027800050B1FDF7EDFF3846BDE8F041FDF7CEBC96
:1027900047F27E202080D1E7286800F033FDFDF766
:1027A000DFFF3846FDF7C2FCBDE8F041FFF796B900
:1027B000B0000010DA0000103C0100102DE9F047D5
:1027C0001646DDE908244B4D2D78002D04D047F244
:1027D00075202080BDE8F087474D2D781DB146F665
:1027E00063502080F6E702F00E0547F27E2C45F696
:1027F000256845B1022D06D0042D08D0082D02D041
:10280000A4F80080E6E713B90EB901B920B132F09F
:102810001E0704D0012703E0A4F800C0DAE7002770
:10282000012F0FD0C2F3001247F2792847F278291E
:102830004FF47A774AB142F20F7291421BD9A4F851
:102840000080C7E7A4F80080C4E7BB4203D347F287
:102850007B202080BEE73B2E03D947F27A202080E0
:10286000B8E73B2902D9A4F80080B3E7632807D969
:10287000A4F80090AEE7B84202D3A4F80090A9E70C
:102880001E4A12684FF4FA78B8FBF2F843445343F7
:10289000B3FBF7F34FF461677843C1EB011100EB31
:1028A0008100304400FB02360EB3FDF73BFC0746C7
:1028B000FDF744FF2A46124D23463146286801F0B1
:1028C0007DF9218831B1FDF74BFF3846BDE8F0476F
:1028D000FDF72CBC286800F095FCFDF741FF384659
:1028E000FDF724FCFFF7FAF80020208072E7A4F837
:1028F00000C06FE7B0000010DA000010D01901002E
:102900003C01001008B50D480078012814D100F0F2
:102910001FF86A4600210A48FFF71EFE09490868A9
:10292000401E0860002807D10748006808606A4612
:1029300000210648FFF710FE08BD0000B800001097
:1029400038500010380100103401001028510010D8
:102950007047000010B5FDF7E5FB0446FDF7EEFEFD
:10296000074A1178491C1170FDF7FAFE2046FDF761
:10297000DDFBFFF7C7FFBDE81040FEF79DBC000080
:10298000B00000104FF0E021401E4861064A106878
:1029900020F07F401060086940F005000861086978
:1029A00040F002000861704720ED00E07047000031
:1029B000094C0A4DFDF7B6FB0646FDF7BFFE216840
:1029C000491C21602968491C2960FDF7C9FE304671
:1029D000FDF7ACFBEEE70000AC000010E8000010D3
:1029E00000B589B00D4A002111600B22CDE9061215
:1029F00008900C4A05910A480B4B126800681B6846
:102A0000CDE90132CDE903011F2000900023074AE0
:102A100007A10C48FFF7F8FB09B000BDAC0000109F
:102A2000A4190100A01901009C190100B12900009E
:102A300075432F4F532D4949492049646C652054F3
:102A400061736B002C4D0010034A00211160034A92
:102A50001180018070470000C4000010C800001001
:102A6000F0B5174E316800290BD0164F398861B187
:102A70003168326810323B885B1E9DB2002300240F
:102A80000FE045F21E710180F0BD45F21D7101801D
:102A9000F0BD0A604C600C81CC60103110325B1CC0
:102AA0009BB2AB42F5D30C604C600C81CC60064904
:102AB00032680A603A888A80CC800C810480F0BD3C
:102AC000B4190100B0190100EC4D001010B5428995
:102AD000002A12D003680A490C681C6043680B6026
:102AE000CB8844891B1BCB808B88448923448B80F3
:102AF00000214181818101604160104610BD0000CC
:102B0000EC4D0010F0B544890025002C19D0446824
:102B1000666827890F800AB1E16811602168416009
:102B2000B9B14189491E41810B48016821600460A7
:102B30008188491C8180C188491EC1801D80304622
:102B4000F0BD0D8002B1156046F292501880002051
:102B5000F0BD05604581E7E7EC4D001001810021E3
:102B60004181818101604160704700002DE9F041A1
:102B7000DDE906C744890589AC4204D346F2935087
:102B80003880BDE8F0811C4EB588CDB13468D4F8EA
:102B90000080C6F800806D1EB580F5886D1CADB252
:102BA000F580B6F80880A84500D235814689002511
:102BB00056B1DB060ED403681C60046025600CE08F
:102BC00045F21D703880DCE70460446001234381D6
:102BD000256005E043682360446043895B1C4381B2
:102BE000868943899E4200D2838161602281C4F834
:102BF0000CC03D80C5E70000EC4D001006A1C1618E
:102C000000224261054B1968002903D081614861A7
:102C1000186070478261FBE720000000CC000010C4
:102C2000C26B0A62C16370471F213C3008E08268B2
:102C30002AB1926892F837208A4200D21146203099
:102C400000680028F3D1084670473C3001E002F1EB
:102C5000200002688A42FAD10168096A016070475F
:102C60002DE9F0410C4607461946104D286880F8BA
:102C70003420002680F8356000F0FCFC64B104F1DB
:102C80000806FC6001223946286800F011F8394630
:102C9000304600F07AF803E02868A0F84660066342
:102CA00020462968BDE8F04100F016B83C0100104C
:102CB00010B5A0F8462001630024002309E04B6012
:102CC0000B600B614B610B83CB6188602031641C0E
:102CD000A4B29442F3D310BD002809D04268C1F8D1
:102CE000BC2000F10801096889688968C1617047E2
:102CF00091F83400022805D0072807D005A0C1F8B4
:102D0000BC00704704A0C1F8BC00704704A0C1F823
:102D1000BC007047200000005461736B205100001C
:102D20005461736B2053656D0000000007A2C1F869
:102D3000BC2000F108010968002903D0896889686E
:102D4000C161704701A1C16170470000200000000F
:102D500070B5056BB0F846400FE0EE680836306895
:102D6000406838B12946304600F054F829463046CC
:102D700000F00BF82035641EA4B2002CEDD170BD1C
:102D80000021016041600181704730B58A6892F886
:102D9000374002680025002A03D003895B1C0381A9
:102DA0000CE0012202814D600D600160416030BD88
:102DB000936893F83730A34202D85268002AF7D1BB
:102DC00032B1136853B10B604A605960116030BD75
:102DD0004D6042680A605160416030BD11600D6015
:102DE0004A60016030BD70B50646346B002C10D0CF
:102DF000B6F8465007E0E0680830214600F00AF8CF
:102E000020346D1EADB2002DF5D10020A6F846008D
:102E1000306370BD10B5026800245268002A0BD0E0
:102E20000A6862B14B6873B153601A600289521E1E
:102E300002814C600C6010BD04604460F6E74A6893
:102E400014600260F2E754604260EFE72DE9F04160
:102E50000C46154694F8361002270026082922D27F
:102E6000DFE801F0212104042121232394F8341008
:102E7000032903D12A46214600F033F8A665A4F8B9
:102E80005C60A5642046FFF7AEFF94F83600032887
:102E900002D1204600F0DAFE204600F05FF934341B
:102EA000A67067702670BDE8F08194F8341003298D
:102EB00003D12A46214600F014F8A665A4F85C6008
:102EC000A5642046FFF78FFF94F83600072802D14B
:102ED000204600F0BBFE04203434A07067702670DA
:102EE000E1E710B50B6BB1F8461008E0DC688442EE
:102EF00002D11861DA6110BD2033491E89B2002960
:102F0000F4D110BDF8B5064606980C46002594F895
:102F1000361008292AD2DFE801F0292904042929DA
:102F20002A2A94F83410032910D0A265A4F85C3042
:102F3000A06436B12046FFF756FF21463046FFF722
:102F4000F5FE94F83600032806D008E000902146EC
:102F5000304600F030F8ECE7204600F077FE2046DF
:102F600000F0FCF83434A57065702570F8BD94F855
:102F70003410032910D0A265A4F85C30A06436B1E7
:102F80002046FFF730FF21463046FFF7CFFE94F88A
:102F90003600072806D008E000902146304600F0B1
:102FA0000AF8ECE7204600F051FE04203434A0700B
:102FB00065702570F8BD70B5049D0C6BB1F84610B6
:102FC0000AE0E668864204D1206162612383E561FC
:102FD00070BD2034491E89B20029F2D170BD0000B5
:102FE00010B503480068FDF7A8F8C0B210BD000096
:102FF000A80000100020044A002142F82010401CC4
:103000000028FAD070470000A80000100121C0F18C
:103010001F008140024A106808431060704700009A
:10302000A80000100121C0F11F008140024A106871
:103030008843106070470000A800001070B5044677
:1030400004F120000546FFF741FD0748206007A076
:10305000606000212846FFF781FD04F10800BDE80B
:103060007040FFF78DBE00004E4F4E453F510000AF
:1030700006A1C16100224261054B1968002903D0F5
:1030800081614861186070478261FBE720000000A1
:10309000D4000010426981690023002A05D051B193
:1030A00091614A61836143617047044A116001B1D3
:1030B0004B6183617047936143617047D400001096
:1030C0002DE9FC5F0746DDE90C68894692461D46FE
:1030D000FDF728F88346FDF731FB38468468ECB9E4
:1030E000E80601D4002300E01023CDE90068524631
:1030F000494607F12000FFF739FDFDF731FB58463F
:10310000BDE8FC5FFDF712B8A168646853464A4603
:1031100038460096FFF7F6FEA80501D5002CF3D13E
:10312000FDF71EFB5846FDF701F8280401D4FEF711
:10313000D5FC0020A8F80000BDE8FC9F0020064B4D
:10314000002200EB400103EB81010A810A604A6022
:10315000401C2028F5D37047F84D001010B50446E8
:1031600094F83700FFF752FF074994F837000978C1
:10317000884204D12046BDE8104000F025B8204622
:10318000BDE8104000F002B8D200001090F83710EF
:103190000C4A01EB410102EB810100220B68002B7C
:1031A00009D00B895B1C0B810B68036142610A68C3
:1031B00050610860704701230B8102614261086021
:1031C00048607047F84D001090F837100C4A01EB3A
:1031D000410102EB810100220B68002B08D00B8912
:1031E0005B1C0B8102614A68426110614860704754
:1031F00001230B8102614261086048607047000052
:10320000F84D001070B50446124994F8370000EBF1
:10321000400001EB8001606922690025002808D088
:103220000B895B1E0B81026192B150616561256162
:1032300070BD2AB10889401E088155610A60F5E712
:103240000D810D604D6094F83700FFF7EBFEEDE760
:103250004860EBE7F84D001004490160002101626D
:10326000416203A141600830FFF78ABD4E4F4E45D1
:103270003F53454D0000000006A1C161002242619C
:10328000054B1968002903D08161486118607047B7
:103290008261FBE720000000DC00001042698169C8
:1032A0000023002A05D051B191614A6183614361D5
:1032B0007047044A116001B14B61836170479361AB
:1032C00043617047DC0000102DE9F84F05460F46BA
:1032D00090461E46FCF726FF8246FDF72FFA284649
:1032E0004FF0000984682CBB2C6A601C0DD0641C54
:1032F0002C62C5F82480FDF733FA5046FCF716FF20
:10330000A6F800902046BDE8F88FFDF729FA504650
:10331000FCF70CFF46F6C55030800020F3E7A168AB
:10332000646800231A462846CDF80080FFF7EAFDBE
:10333000B80501D5002CF2D1FDF712FA5046FCF782
:10334000F5FE380401D4FEF7C9FBA6F80090002072
:10335000D9E700000EB5874E874D3068440004E081
:10336000204602AA0021FFF7DDF928780128F7D1CD
:1033700002A8FEF771FE4FF0000A8048326801682B
:10338000914203D901683268B1FBF2FABAF1000F39
:1033900003D100680A21B0FBF1FA4FF47A7842F2C7
:1033A00010774FF00009C6E07548824202D23846D5
:1033B000012113E07348824202D240460A210DE007
:1033C0007148824202D26420642107E06F48824241
:1033D00002D20A20414601E001203946B2FBF1F158
:1033E0005843B0FBF1F06A49381A80B20880694945
:1033F0000A88824204D2088002E06548A0F8009062
:10340000FEF700FF0025FCF78DFE0646FDF796F956
:10341000DFF884B1DBF80040FDF7A2F93046FCF795
:1034200085FE1BE0FCF77EFE0646FDF787F954F8A3
:10343000980F6060C4F80090FDF792F93046FCF7F1
:1034400075FE60680544FCF76DFE0646FDF776F9EB
:10345000246AFDF785F93046FCF768FE002CE1D1BF
:10346000E5B14748854202D23E46012013E0454877
:10347000854202D246460A200DE04348854202D2E8
:103480006426642007E04148854202D20A2640466D
:1034900001E001263846B5FBF0F501E000260125E4
:1034A000FCF740FE0090FDF749F9DBF80040FDF71E
:1034B00057F90098FCF73AFE23E0D4F89C007043DB
:1034C000B0FBF5F080B2B84200D93846A4F88800C5
:1034D000B4F88A10814201D2A4F88A0004F1A8024B
:1034E00002AB111D2046FFF74FF8FCF71BFE834689
:1034F000FDF724F9D4F8B840FDF732F95846FCF747
:1035000015FE002CD9D125480178012904D180F875
:10351000009002A8FEF7A0FDFDF7DEF90146019834
:10352000081A1F490A68824200D2086002AA0021D4
:103530005046FFF7F7F8FDF7CFF90190FDF7F0F8E7
:1035400018490860FCF7EEFD0546FDF7F7F8164848
:10355000164C01682160C0F80090FDF701F928467B
:10356000FCF7E4FD1248236802689A427FF645AFF3
:103570001AE70000BC190100F4000010D019010086
:10358000801A060000093D00005A62020084D71725
:10359000E4000010E600001000010010E20000103E
:1035A000F8000010B4000010E8000010F000001057
:1035B000EC00001030B589B01D4A002111601D4A91
:1035C00011601D4A11601D4A11701D4A11701D4A7B
:1035D0001368002B0AD01C4C1C4D23682D68AB428D
:1035E00008D246F62C61018009B030BD46F62B6149
:1035F0000180F9E7164B1D781F2D03D346F62A618B
:103600000180F1E70325CDE90615089005911148E1
:10361000246812680068CDE90341CDE901201878DB
:10362000009000230C4A0DA11148FEF7EDFDDBE7E9
:10363000E8000010F0000010EC000010F400001092
:10364000E2000010C0190100C8190100CC190100E6
:10365000B8190100C41901005533000075432F4FFC
:10366000532D4949492053746174205461736B0090
:10367000784F001010B50446002908D00A462146AC
:10368000074800F05FFA032084F8360002E00220C9
:1036900084F836002046BDE81040FFF7B3BD0000B7
:1036A000180100102DE9F04104460E46002594F85B
:1036B000377094F8360008284FD2DFE800F004187D
:1036C0001B1B18181B1B2046FFF79CFD84F8376056
:1036D0003046FFF79BFC22480068844203D1204615
:1036E000FFF754FD36E02046FFF76EFD32E084F828
:1036F00037602FE084F8376094F83400072829D227
:10370000DFE800F028042804080404002046FFF73E
:103710001FFB1FE02046FFF71BFB206BC068456ABC
:10372000B74205D995F83700B04213D8002511E00B
:1037300095F83700B8420DD12846FFF775FA95F88D
:103740003810814200D20846064695F83700B0424C
:1037500000D100252C46002CA8D1BDE8F081000046
:103760003C0100100023C0F8B430064A116800295B
:1037700005D0C0F8B810C1F8B40010607047C0F8A8
:10378000B830FAE700010010044A00211160044A31
:103790001180044A11600180704700000001001090
:1037A00004010010FC00001070B5044600252560DF
:1037B000E560656025616561A561E561256223A01D
:1037C000A0606562A562E5622563A4F84650A56421
:1037D000A565A4F85C50002104F16000FFF7BEF974
:1037E00025676567E567A4F88450C4F88050002019
:1037F00004EB80018D67401CC0B20028F8D034343F
:10380000A561E5662567E56084F85250A5676567A0
:103810002582E5612562A4F85450A4F85650A565A8
:10382000E565FDF759F820666566E5672570657002
:10383000A5702020E0702071A560C4F88050C4F805
:10384000845004A0C4F8880070BD00003F54617328
:103850006B0000002000000070B504460D46FCF728
:1038600061FC0646FCF76AFF0021298094F83600C7
:10387000082853D2DFE800F0040404040D1F2F3F92
:10388000FCF76EFF3046FCF751FC47F253102880DE
:1038900040E094F88600401EC0B284F8860020B94B
:1038A00084F836102046FFF759FCFCF759FF3046E4
:1038B000FCF73CFC2EE094F88600401EC0B284F871
:1038C000860010B9012084F83600FCF749FF304625
:1038D000FCF72CFC1EE094F88600401EC0B284F871
:1038E000860010B9022084F83600FCF739FF304614
:1038F000FCF71CFC0EE094F88600401EC0B284F871
:10390000860010B9032084F83600FCF729FF304602
:10391000FCF70CFCBDE87040FEF7E0B8FCF720FFB8
:103920003046FCF703FC46F62D60288070BD000091
:1039300008B505480068FEF75DFD044C6A460021A5
:103940002068FEF7EFFEF9E73C010010D0190100F6
:103950002DE9F8430446894615461E46FCF7E2FB6E
:103960000746FCF7EBFE0CB92D480468A56400205F
:10397000308094F8360046F6C558082845D2DFE86E
:1039800000F00404191904041919E56C681C07D027
:103990006D1CE564FCF7E4FE3846FCF7C7FB3DE030
:1039A000FCF7DEFE3846FCF7C1FBA6F800800020DD
:1039B000BDE8F88394F8340007280AD0E56C681C49
:1039C0001AD06D1CE564FCF7CBFE3846FCF7AEFB65
:1039D00024E000231A46214618460095FFF792FA84
:1039E000E56CFCF7BDFE3846FCF7A0FB5FEA09403A
:1039F00014D4FEF773F811E0FCF7B2FE3846FCF77A
:103A000095FBA6F800800020D2E7FCF7A9FE384617
:103A1000FCF78CFB46F62D60308000252846C7E772
:103A20003C0100102DE9F04104460D46FCF77AFBFD
:103A30000746FCF783FE404E40486CB931780129B7
:103A400009D0FCF78DFE3846FCF770FB45F689601F
:103A50002880BDE8F0810468006884420BD13848B2
:103A6000007840B1FCF77CFE3846FCF75FFB46F679
:103A700063502880EDE70020288094F8361001205C
:103A8000082950D2DFE801F004121D283333333304
:103A9000042184F8361084F886002046FFF7B2FB34
:103AA000FCF75EFE3846FCF741FB2CE0052184F86C
:103AB000361084F88600FCF753FE3846FCF736FBD8
:103AC00021E0062184F8361084F88600FCF748FED1
:103AD0003846FCF72BFB16E0072184F8361084F8F3
:103AE0008600FCF73DFE3846FCF720FB0BE094F81F
:103AF0008600FF280ED0401C84F88600FCF730FEBC
:103B00003846FCF713FB30780128A2D1BDE8F0411C
:103B1000FDF7E4BFFCF724FE3846FCF707FB47F24D
:103B20006010288095E7FCF71BFE3846FCF7FEFA8C
:103B300046F62D6028808CE7B80000103C0100108C
:103B4000DA00001030B503680025002B01D01C46B8
:103B500029E00A658D61CD610862016001218180E3
:103B600030BD1C6D94421BD3DC6964B10A65CC6125
:103B70008B6108621D6DAA1A1A65D961A1618188DD
:103B8000491C818030BD0A65CD618B6108621C6D66
:103B9000A21A1A65D96101608188491C818030BDF3
:103BA000121B1C469B69002BDBD10A65CC618D6121
:103BB0000862A1618188491C818030BD2DE9F00334
:103BC000DFF87CC0DCF80040DFF87890002747F28F
:103BD0007E28042A10D0082A19D00A461F80012105
:103BE00080F83610DCF80010611ABDE8F0030A44D2
:103BF00001461548FFF7A6BF0A1B4A4501D8002A0F
:103C0000ECD10765A3F80080BDE8F0037047456D6F
:103C1000661B8E4203D90A4621444165DEE78A1BB2
:103C20004A4503D812B129444165D7E7B6FBF1F202
:103C300001FB0252114441650765A3F80080E3E7E8
:103C4000080100100000FFFF1001001030B5026AEB
:103C5000C36981690024002B0ED0996121B1CB6129
:103C60000B6D056D2B440B65C4619188491E9180D5
:103C700084610465046230BD61B1CC610B6D056D7A
:103C80002B440B6511609188491E91808461046505
:103C9000046230BD146094800465046230BD00008D
:103CA0002DE9F0470546FCF717FE814600271F4E19
:103CB00034686CB3206DB846A84203D82D1AC4F8F6
:103CC000508028E0401B206525E07F1CBFB294F89F
:103CD0003600012802D0052806D008E084F8368096
:103CE0002046FFF73BFA02E0042084F83600A4697E
:103CF00034605CB1B088401EB080C4F81C80206D78
:103D0000A84206D82D1AC4F8508004E0A6F8048012
:103D100004E0401B2065206D0028D6D0F780FCF71A
:103D2000DBFDA0EB0900BDE8F087000010010010EA
:103D30002DE9F0470646FCF7CFFD82464FF000081C
:103D4000394F3C68002C67D0206DC146B04203D883
:103D5000361AC4F850905CE0801B206559E008F1E9
:103D600001081FFA88F8002594F83400042802D1CD
:103D7000206BC068456AC4F85890A4F85C90FCF7C2
:103D8000ABFDA0642046FFF72EF894F83600032818
:103D900002D0072806D008E02046FFF7DFF984F8B4
:103DA000369002E0042084F83600032084F83500C1
:103DB00084F83490CDB195F8370095F838108842E2
:103DC00013D094F8371088420FD12846FEF72CFF05
:103DD00095F83810814200D20846014695F8370020
:103DE000884202D02846FFF75DFCA4693C605CB1C4
:103DF000B888401EB880C4F81C90206DB04206D828
:103E0000361AC4F8509004E0A7F8049004E0801B30
:103E10002065206D0028A2D0A7F80680FCF75CFD85
:103E2000A0EB0A00BDE8F0871801001008B5134D9B
:103E300000226B4611461046FEF7DEFABDF8000080
:103E40000028F5D1FCF76EF90646FCF777FC012453
:103E50000B490868401C08602046FFF721FF074611
:103E60002046FFF765FF38442968814200D2286068
:103E7000FCF776FC3046FCF759F9D9E70C01001045
:103E80000801001030B589B01D4A002111601D4A9B
:103E900011601D4B19609180D1809980D9801B4B96
:103EA0001A68002A0AD01A4C1A4D22682D68AA42B4
:103EB00008D247F21321018009B030BD47F2122128
:103EC0000180F9E7144A15781F2D03D347F2112119
:103ED0000180F1E70B25CDE90615059108902068D2
:103EE0000E4C1B682468CDE90134CDE9030110783C
:103EF000009000230A4A0BA10F48FEF785F9DBE783
:103F0000080100101001001018010010D81901005C
:103F1000E0190100CC190100D4190100DC190100DD
:103F20002D3E000075432F4F532D494949205469B8
:103F3000636B205461736B003850001030B589B04A
:103F400004462B48002505602A4805602A4805805C
:103F50002A4A2B492B481368002B05D009681268A0
:103F6000B1FBF2F1016004E009680A22B1FBF2F151
:103F70000160254900680860244805602448056000
:103F8000224624A12748FDF7EDF9208800280BD10F
:103F90002548016851B1254A254B11681B68994293
:103FA00008D247F24830208009B030BD47F2473090
:103FB0002080F9E71F490B781F2B03D347F24630C7
:103FC0002080F1E70B23CDE90653059508941A4BA1
:103FD000126800681B68CDE90325CDE90103087864
:103FE00000900023154A16A11B48FEF70DF9DBE7E8
:103FF000200100102801001024010010E819010020
:10400000D0190100340100103801001030010010F7
:104010002C0100104F5320546D72204D757465783B
:1040200000000000F8500010EC190100F419010024
:10403000CC190100E4190100F019010075400000DD
:1040400075432F4F532D4949492054696D6572209E
:104050005461736B00000000285100100EB502A8D7
:104060000022009001AB11460148FDF7B5F90EBDE5
:10407000F85000101CB51F4EDFF87C801F4F002148
:1040800001AB6A460846FEF7B7F9FFF7E7FFFCF712
:1040900023FC81463068401C3060D8F8004019E0AD
:1040A00001A8FDF759FD2569A069401EA06168B906
:1040B000A08C02281BD0204600F022F8032084F8B0
:1040C0002600A26812B12046E16890472C4601A85C
:1040D000FDF772FD002CE3D1FCF7FEFBA0EB09001D
:1040E0003968814200D2386000F028F8C7E7206ABA
:1040F000A061E6E730010010280100102C0100103B
:1041000010B50C4A002301691468844203D1116080
:1041100029B14B6103E04269116101B14A6101219A
:1041200080F826100361436103480188491E01801D
:1041300010BD0000280100102401001008B56A46D7
:1041400000210248FDF71CFA08BD0000F8500010DD
:1041500070B505460E4614463146284600F014F860
:1041600005280CD03146284600F07EF8016821F081
:10417000070104F0070211430160002070BD0148EF
:1041800070BD00000100001002460520062A0ED274
:10419000DFE802F0032E3838383A062906D9A1F1B3
:1041A0000A02012A02D9121F082A01D800207047EA
:1041B0000C2905D00D2903D0A1F11702032A01D83B
:1041C000012070471D290FD01E290DD01F290BD0AB
:1041D0001B290BD01C2909D0072903D0082901D09D
:1041E0000929EED104207047022070470320704750
:1041F0001D2901D8002070471E2901D01F29FAD19E
:104200000120704700207047012907D9042905D0F3
:10421000022901D00329F6D10320704700207047FE
:1042200070B505460E46144631462846FFF7ACFFEA
:10423000052803D0012804D00A4870BD0948401E53
:1042400070BD3146284600F00FF824B1016821F016
:104250008001016003E0016841F0800101600020FD
:1042600070BD00000200001001EB4010014901EB9D
:104270008000704700C0024070B50C46154600F043
:10428000ABF8012104F108039940012D03D0C26C61
:10429000630707D007E0C26C630700D100210A431F
:1042A000C26470BD002147F67C638B431A40C26430
:1042B00070BD70B50C46154600F08EF80123A34082
:1042C00004F0070135B1C26C022900D200231A4361
:1042D000C26470BDC26C022900D2002347F67C6123
:1042E00099430A40C26470BD10B50C4600F074F8E2
:1042F000012C04D0416801F00301416010BD416808
:1043000041F00801416010BD70B50C4600F064F842
:1043100062780121274B012A2AD0227802F0070275
:1043200002EB420201FA02F523EA050245692A403E
:104330004261E278012A26D0227802F0070202EBDD
:104340004202521C01FA02F523EA050245692A409D
:104350004261A278012A22D0227802F0070202EB01
:104360004202921C91408B4341690B40436170BDF6
:104370002278456902F0070202EB420201FA02F2DA
:104380002A434261D5E72278456902F0070202EB31
:104390004202521C01FA02F22A434261D9E7227812
:1043A00002F0070202EB4202921C91404269114363
:1043B000416170BDFFFF1F0010B50C4600F00CF806
:1043C000012C04D0416801F00A01416010BD416830
:1043D00041F00101416010BD002803D0012803D045
:1043E0000020704701487047014870470040014075
:1043F000008001402DE9F0410546884617462846D1
:10440000FFF7EAFF044615B1012D05D0FEE70121B3
:104410002020FCF72DF903E001214020FCF728F9CA
:104420000120FCF737F9054600263F202060666032
:1044300026676661A662E6642665B8F1000F0DD0B6
:10444000B8F1010F08D1787800F00301387861F3F2
:104450009F00216F08432067BDE8F081387870B174
:104460007968A1FB050306FB053201FB0621064A1C
:104470000023FBF76FFE05466D1EE560ECE77868EC
:10448000401EE060E8E7000040420F0070B50D46B6
:1044900014461E46FFF7A0FF072D12D2DFE805F0F5
:1044A0000406080A0C0E100084610AE0C46108E0EA
:1044B000046206E0446204E0046402E0446400E054
:1044C0008464026D072D02D20121A94000E0002181
:1044D0000A430265002E07D1416841F002014160A4
:1044E000416801F00901416070BD10B5FFF774FF2C
:1044F000416841F002014160416801F009014160F9
:1045000010BD02780A4302707047012904D0017A75
:1045100001F0120101727047017A41F0010101724C
:104520007047012A07D0082911D2DFE801F0343999
:104530003E43484D5257082909D2DFE801F00409EB
:104540000E13181D2227017B41F0010101737047F2
:10455000017B41F0020101737047017B41F00401CE
:1045600001737047017B41F0100101737047017BBB
:1045700041F0080101737047017B41F02001017394
:104580007047017B41F0400101737047017B41F0AE
:10459000800101737047017B01F0FE0101737047D8
:1045A000017B01F0FD0101737047017B01F0FB010C
:1045B00001737047017B01F0EF0101737047017BCC
:1045C00001F0F70101737047017B01F0DF01017316
:1045D0007047017B01F0BF0101737047017B01F05F
:1045E0007F01017370470078084201D001207047B5
:1045F0000020704710B5074C01212046FFF7F3FF5C
:10460000002805D02046BDE810400121FFF779BF02
:1046100010BD00000040024010B5044601214802D0
:10462000FCF726F80020207020722073FF212174EF
:10463000206410BD017A41F002010172017A01F09B
:1046400011010172704770B5531E02F03F0402F071
:104650001F05082909D2DFE801F004090E131A1F0B
:10466000262D3B2A01D880F8204070BD3B2AFCD87B
:1046700080F8244070BD172AFCD880F8285070BDFF
:10468000062AFCD802F0070180F8301070BD1E2BFE
:10469000FCD880F82C5070BDB3F5B77FFBD2C2F3C5
:1046A0000801818670BD0B2BFCD802F00F0180F849
:1046B000381070BDB2F5805FFBD2C2F30B01818769
:1046C00070BD00002DE9F04104460F46154600F08C
:1046D00063FB244804EB440100EBC104E16A01F0F0
:1046E000030002280CD0A06A626A801A401E0028CB
:1046F00001DA226A1044854202DD89072DD0054681
:104700006DB34FF00008A06A616A461A761E002E4B
:1047100001DA206A0644D4E90801411AB14201DCF9
:10472000616A461AAE4200DB2E46616AE069324693
:1047300008443946FBF73FFDB0443744AD1B606A7F
:1047400030446062606A216A884201D10020606260
:10475000002DD8D14046BDE8F0810020FBE70020C5
:10476000F9E70000480100102DE9F04198B08046BB
:104770000C46164603A81390402014900027159766
:10478000CDF85C80169714F8011B39B1252917D094
:1047900013A800F0DBFB16980028F4DA169800281E
:1047A0000ADD159820B103A94046159AFFF78AFF44
:1047B000DDE9151008441690169818B0BDE8F08190
:1047C00000212278232A1CD02B2A16D02D2A0CD087
:1047D000302A0ED000202578A5F130020A2A14D301
:1047E000002322782E2A17D023E041F00101641C17
:1047F000E7E741F00201641CE3E741F00401641CB7
:10480000DFE741F00801641CDBE7641C00EB80007B
:1048100005EB40003038DEE7641C2578A5F1300256
:104820000A2A06D2641C03EB830205EB4203303BE9
:10483000F3E76C2D0DD0682D0BD0702D4ED00BDC16
:10484000252D58D0582D2FD0632D0CD0642D56D146
:1048500012E014F8015BECE7732D31D0752D17D001
:10486000782D4CD120E03068011D31600078C1B254
:1048700013A800F06BFB42E03268151D3560156827
:10488000CDE900010A22294613A800F086FA36E095
:104890003268151D35601568CDE900010A222946E8
:1048A00013A800F0E5FA2AE03268151D3560156896
:1048B000CDE900011022294613A800F0D9FA1EE024
:1048C0003068011D3160056815F8011BB9B113A8E6
:1048D00000F03CFB16980028F6DA10E03068011D65
:1048E000316001680820CDE900070346102213A8B3
:1048F00000F0BEFA03E0252113A800F027FB641C9A
:1049000049E7012904D0416801F00D014160704779
:10491000416841F0020141607047000000214160A0
:104920008160034A426107220260C16001617047F1
:1049300040420F0070B505460C461548854204D12B
:1049400001214805FBF794FE0EE01248854204D190
:1049500001210015FBF78CFE06E00F48854216D1B9
:1049600001210805FBF784FEA088218922880843DD
:10497000218A1143084380B22860207B00F00F0099
:10498000686028466169BDE8704007F0F3BC70BDFF
:10499000008008400000034000C00A40816070476A
:1049A000074902780A7042784A7082788A70C27821
:1049B000CA7002790A7140794871084607F0C6BC8E
:1049C0006002001030B5002803D021B10346002456
:1049D00007E0002030BD002030BD03F8015B491C1A
:1049E000641C23B119B10D780DB19442F5D32BB1EC
:1049F00021B19442F0D20021197030BD002030BDA9
:104A0000002201E0401C521C18B103780BB18A420D
:104A1000F8D3104670470000F0B57F4DD5F804017B
:104A20004FF00002C1057D4853D4D5F80C11C907D9
:104A300007D0D5F8A011490627D4026042608260F1
:104A4000A0E0D5F80411764BC9061AD0D5F80411A8
:104A500001F01F01B3FBF1F10160D5F8A841E406B4
:104A600011D0D5F8A84104F01F04B3FBF4F3436060
:104A7000D5F8003103F001035B1CB1FBF3F1816059
:104A800080E00021E8E70023F1E7D5F80411654B49
:104A9000C9061AD0D5F8041101F01F01B3FBF1F1DA
:104AA0000160D5F8A841E40611D0D5F8A84104F07A
:104AB0001F04B3FBF4F34360D5F8003103F00103A6
:104AC0005B1CB1FBF3F181605CE00021E8E70023AF
:104AD000F1E7D5F88810C90503D40260426082600E
:104AE00050E0D5F80C11C90707D0D5F8A011490638
:104AF00028D402604260826044E055F8881F01F0CB
:104B00001F035B1CE96F01F01F01D5F8204104F081
:104B10001F04AE6F883D06F00106761C71B1404F50
:104B20005F43B7FBF1F1016054B13D4F7B43B3FBF1
:104B3000F4F34360B1FBF6F1816023E00021F2E77A
:104B40000023F6E755F8881F01F01F035B1CE96F8F
:104B500001F01F01D5F8204104F01F04AE6F883D1D
:104B600006F00106761CE1B12E4F5F43B7FBF1F171
:104B70000160C4B12B4F7B43B3FBF4F34360B1FB43
:104B8000F6F18160D5F80811C90528D5D5F80811C6
:104B900011F01F0109D0042909D0062907D0C260ED
:104BA000F0BD0021E4E70023E8E7C260F0BD9035E6
:104BB00055F8081C01F01F01491CAA6F02F01F02E2
:104BC000EB6FDB0705D0174B5943B1FBF2F1C16026
:104BD000F0BD134B5943B1FBF2F1C160F0BDD5F804
:104BE0000811890515D5D5F80C11C90708D0D5F8D5
:104BF000A8100C4A01F01F01491C5143C160F0BDCF
:104C0000D5F88810064A01F01F01491C5143C160C4
:104C1000F0BDC260F0BD000000C00F4000000010F9
:104C2000001BB7008096980010B502F05DFB23488A
:104C30002021C0F8A011D0F8A0114906FBD501220F
:104C40008030C0F88C20092141600260AA24C46031
:104C50005523C3608038D0F888104905FBD523213F
:104C6000A03041600260C460C360A038D0F8A810D2
:104C70004905FBD58C3040F20111816740F20121DA
:104C8000C16742670221C0F82811C0F81C110C4905
:104C900081634FF48071C0F83C11D0F8241141F0C9
:104CA0000301C0F8241145F23A0140F88C1C054973
:104CB00000200860BDE81040FFF7AEBE00C00F4006
:104CC000DE87280408ED00E070474FF0804101289E
:104CD00004D0087820F0010008707047087840F090
:104CE0000100087000F00EB84FF08041012804D098
:104CF000087820F0010008707047087840F0010043
:104D00000870704700B572B600F002F862B600BDD8
:104D1000AA214807017255210172704700F01EB8A0
:104D20004FF08042002808D0012805D1012910D079
:104D3000107820F0020010707047012904D010781C
:104D400020F0100010707047107840F010001070C4
:104D50007047107840F0020010707047C008AFF341
:104D6000008000214A1EFF2802D2FF20114605E0E4
:104D7000B0F1807F02D36FF07F4011464FF0804248
:104D800050600846704700B5FFF7E8FF0246012073
:104D9000FFF79BFF104600BD70472DE9FC5F804682
:104DA000DDE90C470E4692469946C6F1000B002EEF
:104DB00001DA584600E03046012502E0B0FBFAF087
:104DC0006D1C5045FAD2A94500D94D4624B1002E9C
:104DD00001DB780700D5641EB80702D5B9F1000FD2
:104DE00010D0F8070ED144B90CE02021404600F065
:104DF000ADF8D8F80C00002838DB1CB12046641E42
:104E0000A842F2D8002E09DA5E462D21404600F075
:104E10009DF8D8F80C00002828DB09E0780707D5B2
:104E20002B21404600F092F8D8F80C0000281DDB3A
:104E300007F00300022811D1B9F1000F0ED144B9D7
:104E40000CE03021404600F081F8D8F80C00002832
:104E50000CDB1CB12046641EA842F2D8CDE9004705
:104E60004B4652463146404600F002F8BDE8FC9FF2
:104E70002DE9F84F8246DDE90A4B884617469946E8
:104E800001254046012602E0B0FBF7F0761CB8424F
:104E9000FAD2B14500D94E465FEACB701BD1D4B1EE
:104EA0005FEA8B7002D5B9F1000F02D0202000908C
:104EB0000AE03020009007E05046009900F046F8E4
:104EC000DAF80C0000282EDB2CB12046641EB0421C
:104ED000F2D800E07D43B8FBF5F0B84201D30120E1
:104EE00000E000204946A9F10109012901DD012165
:104EF00000E000210843EDD1DFF84C90B8FBF5F05D
:104F000000FB158819F80010504600F01FF8DAF879
:104F10000C00002803DBB5FBF7F5002DEED15FEAAE
:104F2000CB7000D04CB9BDE8F88F2021504600F07E
:104F30000DF8DAF80C000028F5DB002CF3D0204641
:104F4000641EB042F1D8EEE7F819010010B504462E
:104F5000A0686368421C934205DB23681954A26071
:104F6000E068401CE060D4E90102824209D1216876
:104F70002069FFF7A7FBA168884203D04FF0FF30FC
:104F8000E06010BD0020A06010BD02E008C8121F44
:104F900008C1002AFAD170477047002001E001C122
:104FA000121F002AFBD170472DE9F04705460E4637
:104FB000174605F16400804607F08EFB18B3287889
:104FC000D5F8A81004F0AEFF04464FF0FF39ECB15D
:104FD0006660204607F0F2F92772AC22214640466F
:104FE00007F064FBA0B10020606004F134000546C6
:104FF00007F048FA284607F04BFB204605F0DEF89C
:105000004846BDE8F0876FF00500FAE74846F8E744
:10501000D5F8A8301BB10022114628469847002039
:10502000EFE7000030B504460020114A00EB4003D2
:1050300052F833302BB1401C0428F7DB4FF0FF301F
:1050400030BD00EB400342F8334002EBC3020025C1
:105050005560158155812378102B05D00121918150
:10506000D5811561556130BD0029F8D00121F6E7E1
:10507000F855001010B501F031FEBDE810400022D7
:10508000024941F2883007F055BC0000755000001D
:1050900004F0D2BD10B50446206890F9081011F153
:1050A000090F01DA217116E0FA212171436893B1E9
:1050B000007800F0F000102807D040280BD11846E7
:1050C000A16806F04FFE207105E0A2891846A1688C
:1050D00007F014FE20712068BDE810400C3007F086
:1050E000A9BB00002DE9F0410446002C0ED0207829
:1050F000102817D066A340F2E9226EA175A004F033
:105100009BFD0020002000BFAFF3008060A34FF4A0
:105110003A727AA16FA004F08FFD0020002000BF3A
:10512000AFF30080607804280BD059A340F2EA2244
:1051300076A168A004F080FD0020002000BFAFF33E
:105140000080606800284CD0D4F8A410002954D006
:105150000D7A05F0010705F00208032D59D000264D
:1051600016B1002107F0C8FD6068017C012952D00A
:10517000390006D0002109F0CDFE0021606807F05B
:1051800060FD5FEA080003D0002160680AF0A1F822
:1051900046B104220021606809F0E6F80021606849
:1051A00008F0B4F8032D3AD04246394660680AF058
:1051B00093F8002837D06068017C01295BD05C49F6
:1051C0000AF087F804225B49606809F0CDF85A4973
:1051D000606808F09BF821466068BDE8F04107F080
:1051E0008BBD2BA340F2EB2254A13AA004F024FD86
:1051F0000020002000BFAFF3008025A34FF43B72D6
:1052000053A134A004F018FD0020002000BFAFF32C
:1052100000800126A4E7002107F013FDC2E76068C3
:1052200007F0F0FDC5E7D4F8A41000200871C4F819
:10523000A4006070606036B1D4F8A8301BB10022C1
:1052400004212046984737B1D4F8A8301BB100227A
:10525000114620469847B8F1000F06D0D4F8A83080
:105260001BB1002202212046984704F10C00BDE842
:10527000F04107F0DFBA06A340F225323BA115A0AA
:1052800004F0DAFC0020002000BFAFF30080000033
:105290004C5749505C6C7769702D312E342E305C40
:1052A0007372635C6170695C6170695F6D73672EB6
:1052B000630000007468697320697320666F722050
:1052C000746370206E6574636F6E6E73206F6E6CA6
:1052D00079000000417373657274696F6E20222536
:1052E0007322206661696C6564206174206C696E4C
:1052F0006520256420696E2025730A00696E766139
:105300006C696420636F6E6E00000000636F6E6EE8
:10531000206D75737420626520696E2073746174EA
:1053200065204E4554434F4E4E5F434C4F5345000E
:1053300081C200003DBC000069640000706362200F
:10534000616C726561647920636C6F7365640000E1
:10535000636F6E6E2D3E63757272656E745F6D73F2
:105360006720213D204E554C4C000000436C6F736C
:10537000696E672061206C697374656E207063626A
:10538000206D6179206E6F74206661696C21000068
:1053900010B5044620684178002915D0022913D0A1
:1053A000032911D0007810280BD036A340F23F32E9
:1053B0003DA145A004F040FC0020002000BFAFF359
:1053C0000080FB20207131E003290FD190F89E105E
:1053D00049070BD42BA340F2423245A13AA004F076
:1053E0002BFC0020002000BFAFF3008004F04AFE39
:1053F0002068416861B1027802F0F002102A21D0E1
:10540000402A02D1084606F009FD216800204860C4
:105410002068D0F8A83013B10022114698472068C0
:10542000D0F8A83013B100220221984720680C3030
:1054300007F046FA002823D02068BDE810400C3061
:1054400007F0F8B9D0F8A41011B9D0F8A01059B1EC
:105450000CA340F257322EA11BA004F0EDFB00205C
:10546000002000BFAFF300800421417003202072B0
:105470002068C0F8A4402068BDE81040FFF732BEA5
:1054800010BD00004C5749505C6C7769702D312E6F
:10549000342E305C7372635C6170695C6170695F4B
:1054A0006D73672E630000006D73672D3E636F6E32
:1054B0006E2D3E74797065203D3D204E4554434F1E
:1054C0004E4E5F5443500000417373657274696FB0
:1054D0006E2022257322206661696C6564206174E8
:1054E000206C696E6520256420696E2025730A0092
:1054F000626C6F636B696E6720636F6E6E65637459
:1055000020696E2070726F6772657373000000000F
:10551000616C72656164792077726974696E672065
:105520006F7220636C6F73696E67000010B501685D
:105530006FF00C034968002931D0027C1AB18268EF
:105540000968116002E082684968116000210171F8
:1055500001680A7802F0F002102A16D0402A0BD017
:1055600012A340F281521AA11FA004F065FB002093
:10557000002000BFAFF30080027C22B14968C268FE
:10558000097C11800CE003710AE0027C12B14968C9
:10559000898B01E04968C98BC268118000E0037102
:1055A0000068BDE810400C3007F044B94C57495032
:1055B0005C6C7769702D312E342E305C7372635CB5
:1055C0006170695C6170695F6D73672E63000000D4
:1055D000696E76616C6964206E6574636F6E6E5F70
:1055E0007479706500000000417373657274696FAF
:1055F0006E2022257322206661696C6564206174C7
:10560000206C696E6520256420696E2025730A0070
:1056100070B50446206890F9081011F1090F01DAFD
:10562000217133E0F321217142680AB30178102916
:105630002CD14078E0B9FF21104608F04BFA05461E
:10564000A5B12068343007F047F838B1206834300D
:1056500006F018FF2068343007F01AF8002626718B
:105660002068643007F038F818B108E0FF20207196
:105670000CE020681421643006F05EFF2071207970
:1056800050B1284607F0BEFB206846602068BDE8A0
:1056900070400C3007F0CEB82168022048702068B6
:1056A00045602846216807F027FB206802494068CA
:1056B00007F0C7FAEAE70000A94F000010B504465A
:1056C0000020207120684068002802D1204606F0A2
:1056D00043FA2068BDE810400C3007F0ABB82DE964
:1056E000F04105460020287128684168002914D03F
:1056F0000078102811D1AC684FF480384FF6FF774E
:10570000444501D33E4600E0A6B2286831464068D1
:1057100009F016FCA41B002CF2D12868BDE8F0416A
:105720000C3007F087B810B50446206890F90810CF
:1057300011F1090F01DA217115E0F321217143689C
:105740008BB1007800F0F00040280CD1A06810F177
:10575000080F0ED0816861B100F108020168184697
:1057600006F076FB20712068BDE810400C3007F091
:1057700061B80168184606F067FB2071F3E7000086
:1057800010B5016891F9082012F1090F01DA0271D0
:1057900004E00A78102A07D0FA220271BDE810400E
:1057A00001F10C0007F046B84A7812B1FB220271F1
:1057B000F4E74A68002A2DD001224A700168D1F826
:1057C000A42012B9D1F8A0205AB114A340F2325249
:1057D0001BA122A004F030FA0020002000BFAFF38C
:1057E0000080C26852B1C1F8A40002680021C2F86A
:1057F000A0100068BDE8104000F04EB807A340F2CA
:10580000345220A115A004F017FA0020002000BF98
:10581000AFF30080F3220271C0E700004C574950FB
:105820005C6C7769702D312E342E305C7372635C42
:105830006170695C6170695F6D73672E6300000061
:10584000616C72656164792077726974696E672032
:105850006F7220636C6F73696E67000041737365CC
:105860007274696F6E2022257322206661696C65EF
:1058700064206174206C696E6520256420696E2047
:1058800025730A006D73672D3E6D73672E772E6C3E
:10589000656E20213D2030002DE9F04704460025AB
:1058A0000027D4F8A41094F89E000B7C800701D444
:1058B000580702D54FF0010801E04FF00008002C16
:1058C0000ED06078012817D065A340F2BA426DA1CE
:1058D00074A004F0B1F90020002000BFAFF30080F5
:1058E0005FA340F2B94279A16EA004F0A5F90020AF
:1058F000002000BFAFF30080002915D0D4F8049039
:10590000B9F1000F1CD0D4F8A000CA68904223D38C
:1059100053A340F2BD4271A162A004F08DF90020B2
:10592000002000BFAFF300804DA340F2BB4278A13E
:105930005CA004F081F90020002000BFAFF30080DC
:1059400047A340F2BC4279A156A004F075F90020AB
:10595000002000BFAFF3008089680144161AB6F535
:10596000803F04D34FF6FF7643F0020300E0B6B267
:10597000B9F86EC0B44502D2664643F00203B8F1EE
:10598000000F03D0B24201D94FF0FF359DB930442A
:1059900090420BD932A340F2D9426AA141A004F04F
:1059A0004BF90020002000BFAFF30080324648468C
:1059B00009F0DEFF05464FF00009B8F1000F01D0F5
:1059C000681C03D09DB1681C11D021E001276FF045
:1059D000060594F89E0040F0100084F89E00D4F86C
:1059E000A830CBB1324603212046984714E06068C6
:1059F000B0F86E10B1F5027F03D9B0F870000C2832
:105A000006D3D4F8A8301BB132460321204698476C
:105A10008DB1681C1FD0012757B1D4F8A4000571BF
:105A2000C4F8A49084F8019004F10C0006F002FF81
:105A30000020BDE8F08754F8A00F30442060616872
:105A4000A03CC968884202D10127C4F8A0906068D0
:105A500008F0FAF8E0E7606808F0F6F8DCE7000024
:105A60004C5749505C6C7769702D312E342E305C68
:105A70007372635C6170695C6170695F6D73672EDE
:105A800063000000636F6E6E2D3E73746174652059
:105A90003D3D204E4554434F4E4E5F57524954456D
:105AA00000000000417373657274696F6E202225D7
:105AB0007322206661696C6564206174206C696E74
:105AC0006520256420696E2025730A00636F6E6E61
:105AD00020213D204E554C4C00000000636F6E6E3F
