:020000040000FA
:10000000E0D10010F9000000010100000301000030
:100010000501000007010000090100009EF3FFEF49
:100020000000000000000000000000000B010000C4
:100030000D010000000000009103000019300000D5
:100040001301000013010000130100001301000060
:100050001301000013010000130100001301000050
:100060001301000013010000130100001301000040
:100070001301000000000000130100001301000044
:10008000130100002D4D00001301000013010000BA
:100090001301000013010000130100001301000010
:1000A0001301000013010000130100001301000000
:1000B000490E0000130100001301000013010000AD
:1000C00013010000130100001301000013010000E0
:1000D00013010000130100001301000013010000D0
:1000E00013010000DFF80CD000F0CEF80048004704
:1000F0008DAA0000E0D1001006488047064800475E
:10010000FEE7FEE7FEE7FEE7FEE7FEE7FEE7FEE7C7
:10011000FEE7FEE799530000E500000072B6704765
:1001200062B67047EFF3108072B6704780F31088A4
:10013000704730BF704720BF7047B0FA80F07047FB
:1001400090FAA0F0B0FA80F0704790FAA0F07047F3
:10015000002070472DE9F05F0546002092469B463F
:1001600088460646814640241BE0284641464746CD
:10017000224600F078F853465A46C01A914110D3EF
:1001800011461846224600F05FF82D1A67EB010869
:100190004F4622460120002100F056F817EB0009D7
:1001A0004E41201EA4F10104DFDC484631462A46B8
:1001B0004346BDE8F09F40EA01039B0703D009E0F6
:1001C00008C9121F08C0042AFAD203E011F8013B43
:1001D00000F8013B521EF9D27047D2B201E000F89C
:1001E000012B491EFBD270470022F6E710B51346DB
:1001F0000A4604461946FFF7F0FF204610BD10B529
:10020000002200E0521C835C8C5CA34201D1002BD5
:10021000F8D1D8B2E1B2401A10BD034611F8012B53
:1002200000F8012B002AF9D11846704710B5484351
:1002300004460AF063FC002805D00021002C02D0FF
:10024000641E0155FAE710BD202A04DB203A00FAAB
:1002500002F1002070479140C2F1200320FA03F31D
:10026000194390407047202A04DB203A21FA02F01B
:100270000021704721FA02F3D040C2F120029140E0
:100280000843194670470000064C074D06E0E06839
:1002900040F0010394E8070098471034AC42F6D3CD
:1002A000FFF724FF18A1010038A1010001238B40B2
:1002B000012A0BD0016811F0E06F03D0016821F032
:1002C000E06101600168994301607047016819436A
:1002D0000160704700EB8100008AC0F30B1070478B
:1002E000026822F0E0620260026842EA0161016095
:1002F000704700F074BB704713F05EBBFFFFFFFF59
:1003000070B58C1810F8015B15F0070301D110F8D7
:10031000013B2A1106D110F8012B03E010F8016B04
:1003200001F8016B5B1EF9D12B0705D40023521E87
:100330000DD401F8013BFAE710F8013BCB1A921CEF
:1003400003E013F8015B01F8015B521EF9D5A142ED
:10035000D8D3002070BD0000224C4FF6FF752560F9
:100360004FF0000484F309881F4C4FF001052570FD
:100370001E4C4FF08055256062B6FEE71B484FF0DB
:1003800080510160704719484FF0805101607047FB
:1003900072B6EFF3098050B11EF0100F08BF20EDC8
:1003A000108A734620E9F80F11490968086000B502
:1003B000104880475DF804EB0F4810490A78027036
:1003C0000B480F490A6802601068B0E8F80F9E46B3
:1003D0001EF0100F08BFB0EC108A80F3098862B6D7
:1003E0007047000022ED00E02801001004ED00E05D
:1003F000B0010010312A000042010010430100103A
:10040000B401001000EB81000069002A02D000F066
:10041000004001E000F0804008B10120704700205A
:10042000704770B505460C460121080300F06AF9D3
:10043000002028604FF40016012000F075F9C4EB8D
:10044000441101EB40004900B0FBF1F0401E46EAC8
:100450000020286070BD10B50C210120FFF7E6FEDA
:10046000044624B12046FFF744FF204610BD00207B
:1004700010BD00007FB5FFF755FE054600F0CCF932
:1004800015F01CF824480AF04BFE244A802304216E
:10049000A2F1C00014F09CF814F0A2FF204A8023BF
:1004A0000D21A2F1C00013F0AFFE1E4A80230E21E1
:1004B000A2F1C00015F040F80521084614F078FAC2
:1004C000194A8021A2F1C0040C23CDE90221CDE913
:1004D00000434B00A2F598620421A2F1C00015F080
:1004E00065F904F5607280231421A2F1C00018F0B0
:1004F00031F804F5C86264231521A2F1C00000F0B0
:1005000087F80AA00AF00CFE00F098F904B028461B
:10051000BDE87040FFF70ABEDC9D01008C21001091
:100520004C2400100C2700108C2E00104D61696EB9
:100530005F50726F636573730A00000086B0002518
:1005400005AE1A4FFFF7EEFD044600F065F90023F3
:10055000CDE9005602221946184602F0D5FA05AB3D
:1005600003AA04A9124802F0B5F90399049A642079
:1005700048438B18B0FBF3F30EA00AF0D1FD05AB96
:1005800003AA04A9384602F0A5F90399049A642045
:1005900048438B18B0FBF3F311A00AF0C1FD00F043
:1005A0004DF92046FFF7C2FDCCE7000014400010D3
:1005B000687600105359535F5441534B5F54434284
:1005C0002020757365642F667265653A25642F2552
:1005D00064202075736167653A252525640D0A003E
:1005E00073536C617665506F6C6C54434220207578
:1005F0007365642F667265653A25642F2564202033
:1006000075736167653A252525640D0A00000000B1
:10061000F0B58BB000240A940A25B3FBF5F5032747
:10062000CDE906470AAE059408968DE82600CDE987
:1006300003340023024A03A101F0D2FE0BB0F0BD47
:100640003D0500005461736B537461636B576174B3
:10065000636800000EB50025029500F051F800F027
:1006600043F814490968B0FBF1F002F0EDFC02A870
:1006700001F052FE00F0B2F8FFF73DFEFFF7FAFE80
:100680000D4F02AE0023CDE900560F221946184641
:1006900002F03AFA3D7000240022CDE900566423AE
:1006A0001146104602F030FA641CE4B2112CF3D368
:1006B000E7E70000A89C01001800001010B5084CE6
:1006C0002068002809D10748206004F0B5FE0146E3
:1006D000206810B109B111F077FC206810BD00004E
:1006E000AC030010548A0010002000F01DB8FFF782
:1006F00015BD292803D21030C0B200F0B7B870473A
:1007000070470000074A012906D0002903D152F89A
:10071000C41F81431160704752F8C41F0143116028
:100720007047000000C00F40002806D0012807D005
:10073000022808D0032809D0FEE706480068704761
:10074000054800687047054800687047044800681D
:1007500070470000000000100400001008000010A6
:100760000C00001010B50446204604F0B5FC044807
:10077000C4F824010348E0600348C4F8280110BD10
:10078000B93A0100453A0100F53A010010B54FF4BD
:10079000BC710120FFF74AFD044624B12046FFF753
:1007A000E1FF204610BD002010BD0000034909698B
:1007B000884201D9401A704700207047F8000010A5
:1007C00010B5FFF7AFFC04494C69FFF7AFFC2046BA
:1007D000BDE81040FFF7EABFF800001010B5FFF7C2
:1007E000EFFF0446FFF79EFC034A00215161FFF72B
:1007F0009DFC204610BD0000F800001010B5FFF76A
:1008000091FC04498C69FFF791FC2046BDE810403B
:10081000FFF7CCBFF800001010B5074C2088401C33
:1008200020806088002802D100F0C4F8A0606088B1
:10083000401C608010BD0000F800001010B50A4C8C
:100840006088401E80B2608000280CD100F0B2F8B1
:10085000E060A168401A6169814200D26061A169CB
:10086000814200D2A06110BDF800001070B53A4C72
:100870004FF0E025102849D2DFE800F06C6C6C6C7A
:100880000818286C6C6C6C6C6C6C6C38FFF74AFC4C
:100890000546FFF7C1FF216841F480312160FFF771
:1008A000CDFF2846BDE87040FFF740BCFFF73AFC9B
:1008B0000546FFF7B1FF216841F400312160FFF7E1
:1008C000BDFF2846BDE87040FFF730BCFFF72AFCAB
:1008D0000546FFF7A1FF216841F480212160FFF761
:1008E000ADFF2846BDE87040FFF720BCFFF71AFCBB
:1008F0000446FFF791FF296941F001012961FFF7E3
:100900009DFF2046BDE87040FFF710BC6968491C98
:10091000102202EB4111C9B288421BD21038C11714
:1009200000EBD161C1F3471521F01F01441AFFF715
:10093000F9FB0646FFF770FF0121A140AA0002F172
:10094000E022C2F80011FFF779FF3046BDE87040A1
:10095000FFF7ECBB70BD000024ED00E070B505466C
:100960000C46002C18D0CDB11021284604F0F0FB25
:10097000102816D2FFF7D6FB0646FFF74DFF1022D0
:1009800029460A4804F0C6FBFFF758FF3046FFF738
:10099000CDFB0020208070BD00F00AF80A202080E6
:1009A00070BD4FF47A70208070BD0000E8580010D0
:1009B000FEE700000148406870470000001000E0BA
:1009C000704710B50C210120FFF730FC014621B122
:1009D0000846FFF7F5FF084610BD002010BD704720
:1009E000F8B506460F46114804680025104B07E08D
:1009F000009502E00098401C009000989842F9D3BE
:100A0000002000F017F80228F2D0E00000F10050BA
:100A1000026C761EC6F30A011FB141F040414164E9
:100A200002E041F0004141641046F8BD2841082031
:100A300040420F00104A002809D002F588729168E0
:100A400050681268521C814208D10020704702F59C
:100A50009272916850681268521CF4E721B9521ED4
:100A6000904201D102207047401C814201D10220F6
:100A700070470120704700000040082003480068CC
:100A8000C00000F1005000687047000018410820C5
:100A900004480068C00000F10050008CC0F30A0058
:100AA000401C70471841082003480068C00000F14E
:100AB0000050006A70470000184108200348006891
:100AC000800000F10050806D704700002841082030
:100AD0002DE9FC4105462C2229464348FFF76BFBD4
:100AE0004248016841F08041016001210007FFF7A1
:100AF00009FE3F4C4FF44F4020607820C4F80001BD
:100B00006426019602E0019A521E01920198002883
:100B1000F9D10220206030206060A8896061002047
:100B2000FFF702FE3349B0FBF1F000900027019778
:100B3000314A07E001980099105C884205DA019B70
:100B40005B1C019301980F28F4D301980F2802D35E
:100B50000020BDE8FC810198401C019001984FF4F1
:100B6000004100F00F0041EA80002062206A20F47A
:100B70000040206243F20F7020611220E0604001CB
:100B8000C4F800010811A061019602E00198401E1E
:100B9000019001980028F9D1A761296959B1284627
:100BA0008847012805D000F093F8002803DA0020D8
:100BB000CFE70020CDE7A8680CF060FF0CF078FECE
:100BC00011F006F82620C4F800020121FF2000F0F1
:100BD00017F80A494FF6FF70086000F071F800F04E
:100BE0003FF80120B5E70000E0030010C4C00F404B
:100BF00000400820A0252600F69A0100E84F0820B2
:100C0000054A012903D011688143116070471168BA
:100C10000143116070470000E44F082030B50E4AD0
:100C200000F01F00127902F01F0240EA02200B4A76
:100C300090620125556200204FF4A024536BDB071E
:100C400002D0401CA042F9D3A04200D10D70002078
:100C50005062106B80B230BDE003001000400820ED
:100C60000548D0F8001141F00101C0F800110168F9
:100C700041F0010101607047004008200949002847
:100C80000CD0486840F001004860D1F8000140F401
:100C90008060C1F8000115208860704712208860CC
:100CA00070470000004008200449002802D0481581
:100CB000886170470020886170470000004008206C
:100CC0000248016841F002010160704700410820BC
:100CD00038B501200090850269460120FFF79EFF8C
:100CE0000446600703D51CA00AF01AFA03E0BDB160
:100CF0006D1E002DF0D104F4804104F480521B4895
:100D000051EA02030ED0436843F001034360D0F878
:100D1000003143F48063C0F800311523836009E09B
:100D2000002038BD04F4005304F400652B4301D0C7
:100D30001223836004F400430B4301D1A10403D5C3
:100D40004FF48071816105E004F400610A4301D031
:100D500000218161012038BD4450385F56414C4923
:100D6000445F4C494E4B200A000000000040082020
:100D70000449D1F81801401C042800D10020C1F812
:100D800018017047004008200649D1F82801D1F821
:100D90002421401C521C904200D10020C1F828019F
:100DA00070470000004008202DE9F04145680768C1
:100DB0001548D0F814807F1C4FF6FE700740B7FB33
:100DC000F8F6002F1DD01AE001DD444600E03C4655
:100DD000002C16D026B1A0B20021FFF701FE09E0D9
:100DE000A0B20121FFF7FCFD04E035F8021B20F85A
:100DF000021BA41E002CF8D1761EFFF7C5FF002EA3
:100E0000E2DABDE8F08100000040082010B50C4B8C
:100E100000F01F001B7903F01F0340EA0320094B79
:100E20009862D96200204FF4A024596BC90702D000
:100E3000401CA042F9D3A04201D10120107010BD86
:100E4000E0030010004008202DE9F047DFF8608142
:100E5000DFF864910026574FA8F12C0509F1040A28
:100E60009CE0554808300460A00720D0FFF71CFE26
:100E7000102101EAD041082202EA50520A4304211B
:100E800001EAD0511143C0F3C0621143402202EA8B
:100E900090520A43202101EA106111434FF480521D
:100EA00002EA10200843E8B3296A01B1884714F028
:100EB000300F1BD0FFF702FE4FF4007101EA5041E2
:100EC0004FF4807202EAD0420A43802101EA505175
:100ED00011434FF4806202EAD0420A434FF40061AA
:100EE00001EAD0401043296A01B18847200746D55E
:100EF0000120FFF79FFD00B3FFF7CAFD00283EDD8C
:100F0000C11EFFF7D1FD2D4A104238D138787A68DA
:100F100000EB400008EB802000EB4202FFF7AEFD43
:100F20007B6800E00AE00B447B60B3F5C06F0DD333
:100F30007E60296A09B10420884720E024F0020479
:100F4000B5E730F8023B22F8023B891E0029F8DCA5
:100F5000FFF7AAFD400010D5AA6932B13878796848
:100F600000EB400008EB802090477E603878401C02
:100F7000C0B23870022800D33E70FFF7F9FE600659
:100F800002D5E86900B18047E00402D5A86A00B143
:100F90008047A00402D5686A00B18047D9F80040B4
:100FA000DAF8000004407FF45CAFBDE8F087000091
:100FB0000C04001010000010E04F08200000901BEF
:100FC00010B50B48012101714FF4C06181810949BD
:100FD0008160002101600849016108498161FFF7D2
:100FE00077FD08B1002010BD6FF00E0010BD0000AD
:100FF000188A00102003001081100000011000006A
:101000000148006806F054BB1C03001010B50446EC
:1010100001220021104603F037FC01221146104640
:1010200003F032FC01220421104603F02DFC0122C2
:101030000821104603F028FC01220921104603F084
:1010400023FC01220A21104603F01EFC01220E217E
:10105000104603F019FC01220F21104603F014FC86
:1010600001221021104603F00FFC0122112110462D
:1010700003F00AFC2046BDE81040FFF7A1BF0000C6
:101080000148006808F008B81C03001010B50446B9
:101090002046FFF7A4FC0748C4F8A4000648C4F89B
:1010A000A8000648E06006482061064860610648DE
:1010B000A06110BD653E01002D3E0100C140010050
:1010C000FD4001005D3F0100493F010010B5AC212A
:1010D0000120FFF7ABF8044624B12046FFF7D6FF06
:1010E000204610BD002010BD10B50C4600F004F8DD
:1010F000002800D0C46110BD01460020062905D299
:10110000DFE801F00305080B0E1108487047074897
:1011100020307047054840307047044860307047C1
:101120000248803070470148A03070470080092095
:101130000121C803FFF7E6BA10B5FFF7DDFF08B1DC
:10114000406910BD002010BD70B50C461546FFF774
:10115000D3FF002803D01DB101682143016070BD99
:101160000168A143016070BD10B50C46FFF7C4FFD4
:10117000002800D0846110BD00B591B00CF018FDBE
:1011800009F08AFD0BF058F816A009F0C9FF0021FC
:1011900004A80CF08DFE0021194810F0DFFB19485F
:1011A00010906FF07F400F90174803F0A1FF18498F
:1011B0000022CDE90021154802900EAB0FAA10A91C
:1011C00014480AF0D5FF13480BF048F811480BF00B
:1011D000A7F81C20FFF78DFA0FA009F0A1FF11B0AE
:1011E00000BD00005443502F495020696E69746956
:1011F000616C697A696E672E2E2E200D0A00000040
:1012000059540000C0A801CA940200102D1A010010
:10121000E9750000387600105443502F495020697A
:101220006E697469616C697A65642E200D0A00002C
:101230000EB50B49002008600A4A012102A8CDE939
:1012400000108B0202F5806107A000F011F8BDF8D4
:101250000800A0F51C51103901D0FFF7A9FB0EBD05
:1012600014010010F858001048656170000000007B
:101270002DE9F84F0646DDE90A950F4690461C46D3
:10128000FEF750FF8246FFF7C7FA4B464246394603
:101290003046009400F00AF8FFF7D0FA5046FEF707
:1012A00045FF42F210702880BDE8F88F00980A6070
:1012B0001044401E48608A6002480268CA600B61A0
:1012C000016070471401001010B504462046FFF776
:1012D00086FB0548C4F828060448E06004482061FD
:1012E0000448C4F82C0610BDD94901009D520100E4
:1012F0008D5201008952010010B54FF4C6610120E2
:10130000FEF794FF044624B12046FFF7DDFF204698
:1013100010BD002010BD000010B504462046FFF7A8
:101320005EFB0149216210BDFD52010010B5242170
:101330000120FEF77BFF044624B12046FFF7ECFFB7
:10134000204610BD002010BD00E0401E0028FCDC3F
:101350007047704770B5044600F088F830480025A3
:1013600005703048057030480570304805603048D9
:10137000056030480570304805703048016831B16B
:101380002F48006801E0401E20C10028FBD12D48F5
:10139000057002F091F902F033FA2B4805602B48F2
:1013A0000580204601F0B2FE2088002836D1204674
:1013B00001F0B8FE2088002830D125480560254876
:1013C0000580254805602548058025480560254895
:1013D0000580204602F03AFD208800281ED12046D4
:1013E00001F060FE2088002818D1204603F0ACF8F8
:1013F0002088002812D1204602F03EFC20880028D8
:101400000CD1204603F036F92088002806D101F0DF
:101410002FFEFFF79EFF14490120087070BD0000E9
:1014200020010010280100104A010010B001001036
:10143000B40100104201001043010010809C010023
:10144000849C0100760100102C0100103001001076
:101450003C01001040010010440100104801001040
:101460004C010010500100102901001005480649E8
:101470000068096800EB8100044920F0070008605B
:1014800070470000809C0100849C0100B80100109E
:1014900010B52248007801283ED1FEF743FE0446ED
:1014A0001F49087840B1401EC0B2087048B12046BC
:1014B000BDE81040FEF73ABE2046BDE81040FEF7FA
:1014C00035BE1848007820B12046BDE81040FEF730
:1014D0002DBE02F0E7F814490870144900EB4000F3
:1014E00051F820001249086012490968884204D165
:1014F0002046BDE81040FEF719BE50F88C1F491C6D
:1015000001600D480168491C0160FEF73CFF204660
:10151000BDE81040FEF70ABE10BD00002801001013
:10152000200100104A01001043010010A86D0010B6
:10153000B4010010B00100106C0100102DE9F04161
:1015400004460D46164617480078002804D042F697
:10155000E1603080BDE8F081FCB1FEF7E3FD0746B5
:10156000FFF75AF910482060656000252562656222
:1015700084F82850E56204F1080001F063FF20467A
:1015800001F09EFE09490888401C0880FFF756F9C3
:101590003846FEF7CBFD3580DCE745F6C35030809A
:1015A000D8E70000200100104D55545840010010AC
:1015B0002DE9F04F89B00646129D8A4690461C469A
:1015C00061480078002805D046F2AE10288009B0A6
:1015D000BDE8F08F4EB1B8F1000F0AD0B8F5004F5A
:1015E00007D045F625602880F1E745F6C3502880EE
:1015F000EDE756493068884203D045F6C45028804C
:10160000E5E7FEF78FFD8346FFF706F996F8281009
:10161000DFF83C910027A9B1706AD9F80020904208
:101620002ED1FF2923D0491C86F828100CB1F06A6E
:101630002060FFF703F95846FEF778FD45F2827007
:101640002880C4E7D9F800007062012086F82800DD
:101650000CB1F06A20603146D9F8000001F042FE7A
:10166000FFF7ECF85846FEF761FD2F80AFE7FFF774
:10167000E5F85846FEF75AFD45F284702880A6E743
:101680005FEA08410AD5FFF7D9F85846FEF74EFD44
:1016900004B1276046F2B010288098E72D490978F8
:1016A00051B1FFF7CBF85846FEF740FD04B1276073
:1016B00046F6635028808AE790F8373092F8371062
:1016C0008B4201D902F050FB53460422314601A857
:1016D00001F028FEFFF7B2F85846FEF727FD00F0AC
:1016E000E9FAFEF71FFD0646FFF796F8D9F8002045
:1016F00092F8351071B1012911D002291CD00329AB
:1017000014D046F62E602880FFF798F83046FEF792
:101710000DFD5CE70CB1906C20602F80F4E70CB1FC
:10172000906C206046F2A9102880EDE704B1276094
:1017300047F2D9202880E7E70CB1906C206045F68D
:10174000C2502880E0E70000200100104D55545899
:10175000B00100104A0100102DE9FC5F04468946E3
:10176000154654480078002804D046F20E20288000
:10177000BDE8FC9F4CB1B9F1000F0AD0B9F5004F9C
:1017800007D045F625602880F2E745F6C35028804B
:10179000EEE749492068884203D045F6C4502880C6
:1017A000E6E7FEF7BFFC0190FFF736F8DFF80CA183
:1017B000606ADAF80010884208D0FFF73FF8019815
:1017C000FEF7B4FC45F281702880D1E7FFF7F2F80C
:1017D0008046C4F82C8094F82800401EC0B284F8DB
:1017E000280040B1FFF72AF80198FEF79FFC45F268
:1017F00083702880BCE72146DAF8000001F087FDFD
:1018000004F108074FF0000B3868E8B3DAF800007D
:1018100090F8371090F8382091421DD001F066FD05
:10182000DAF8001091F83820824200D210460646BD
:1018300091F83700B0420FD2084602F045F8DAF8C6
:10184000000080F83760304601F042FFDAF800000F
:1018500002F01CF81A480670386886686662012033
:1018600084F828002146304601F03CFD00231A464A
:1018700031462046CDF8008001F0A6FEFEF7DEFFDF
:101880000198FEF753FC00E007E05FEA094001D44D
:1018900000F010FAA5F800B06AE7C4F824B084F8A4
:1018A00028B0FEF7CBFF0198FEF740FCA5F800B08A
:1018B0005EE70000200100104D555458B0010010A3
:1018C000420100102DE9F04104460F4616461D4620
:1018D00019480078002804D042F6E1602880BDE86D
:1018E000F08104B31EB3FEF71DFC8046FEF794FFA3
:1018F000124820606760314604F1200001F090FC3E
:1019000004F1080001F09EFD204601F013FF0C4990
:101910000888401C0880FEF791FF4046FEF706FC51
:1019200000202880DBE745F6C3502880D7E746F241
:1019300094502880D3E700002001001051554555F0
:10194000480100102DE9F05F07468A4614463A48E0
:101950000078002805D043F2C92020800020BDE88F
:10196000F09F47B135493868884209D045F6C450E0
:1019700020800020F3E745F6C35020800020EEE7EA
:10198000FEF7D0FB8346FEF747FF07F10806002568
:10199000DFF8AC80A946BAF1000F0CD0BAF1010F04
:1019A00027D0FEF74BFF5846FEF7C0FB45F62560F3
:1019B00020802846D3E7306840B1FEF73FFF584605
:1019C000FEF7B4FB47F25F102080F2E7384601F0E3
:1019D000C3FEB8F80000401EA8F80000384601F029
:1019E0008FFEFEF72BFF5846FEF7A0FBA4F80090F1
:1019F000DFE7FEF7DFFF824606E0816852463846A1
:101A000001F086FD6D1CADB230680028F5D1384676
:101A100001F0A2FEB8F80000401EA8F80000384609
:101A200001F06EFEFEF70AFF5846FEF77FFB00F05E
:101A300041F9A4F80090BCE720010010515545552C
:101A40004801001070B505460C461548007800287E
:101A500004D04FF46C502080002070BD45B1114976
:101A60002868884209D045F6C4502080002070BD07
:101A700045F6C3502080002070BDFEF753FB06469C
:101A8000FEF7CAFE05F1200001F082FB0546FEF7D5
:101A9000D5FE3046FEF74AFB00202080284670BD68
:101AA00020010010515545552DE9F04F89B00746EA
:101AB000DDE912548A4691461E465A4800780028AD
:101AC00006D046F2AE102080002009B0BDE8F08FAD
:101AD0005FB17EB1B9F1000F11D0B9F5004F0ED052
:101AE00045F6256020800020EFE745F6C3502080B2
:101AF0000020EAE746F2D52020800020E5E74A49A9
:101B00003868884204D045F6C45020800020DCE7C5
:101B10004FF000080DB1C5F80080FEF703FB009000
:101B2000FEF77AFE23462A46314607F1200001F0EF
:101B30004BFB8346208860B15FEA094010D5FEF771
:101B40007DFE0098FEF7F2FA46F2B01020800020E9
:101B5000BBE7FEF773FE0098FEF7E8FA5846B4E7D5
:101B60003248007848B1FEF769FE0098FEF7DEFAC9
:101B700046F6635020800020A7E7534605223946E9
:101B800001A801F0CFFBFEF759FE0098FEF7CEFA50
:101B900000F090F8FEF7C6FA8146FEF73DFE244AB3
:101BA000116891F8350090B101281BD002282ED081
:101BB000032822D00027A6F8008046F62E60208059
:101BC000FEF73CFE4846FEF7B1FA38467DE78F6DDA
:101BD000B1F85C00308015B11068806C2860A4F802
:101BE0000080EDE70027A6F8008015B11068806C32
:101BF000286046F2A9102080E2E70027A6F80080BE
:101C00000DB1C5F8008047F2D9202080D8E7002721
:101C1000A6F8008015B11068806C286045F6C250A7
:101C20002080CDE720010010515545554A01001094
:101C3000B00100102DE9FC410546089C0F46904676
:101C40001E46002D0FD033464FF40070B6F5004FFE
:101C500017D00DDCABB1102B13D0834211D0B3F5EC
:101C6000047F16D10DE045F6C3502080BDE8FC810D
:101C7000A3F50043103B04D0B3F5F87F01D08342B5
:101C800007D10B492868884207D045F6C450208008
:101C9000ECE745F625602080E8E7FEF78BFECDE90E
:101CA0000004334642463946284601F06BFDDDE725
:101CB0005155455510B517480078002829D11648C8
:101CC0000078002825D1FEF72DFA044601F0EAFC41
:101CD00012490870124900EB400051F820001149E8
:101CE000086011490968884204D12046BDE81040C7
:101CF000FEF71CBA50F88C1F491C01600B480168A4
:101D0000491C0160FEF73AFB2046FEF70FFABFF3CD
:101D10006F8F10BD200100104A0100104301001018
:101D2000A86D0010B4010010B00100106C0100108B
:101D300070B5044613480078002803D046F6625078
:101D4000208070BD10480078012803D045F68960D6
:101D5000208070BD0D4D2878FA2803D345F2092064
:101D6000208070BDFEF7DEF90646FEF755FD2878A7
:101D7000401C2870FEF762FD3046FEF7D7F90020C0
:101D8000208070BD20010010280100104A010010C1
:101D900070B5044619480078002803D046F665500F
:101DA000208070BD16480078012803D045F6896070
:101DB000208070BD134D287890B1FEF7B3F9064628
:101DC000FEF72AFD2878401EC0B2287060B1FEF7E9
:101DD00035FD3046FEF7AAF946F66350208070BD07
:101DE00046F66450208070BDFEF728FD3046FEF7B1
:101DF0009DF9FFF75FFF0020208070BD20010010DB
:101E0000280100104A0100102DE9F04104468846DF
:101E100016461D4615480078002804D042F6E160B9
:101E20002880BDE8F081ECB1FEF77CF90746FEF7AB
:101E3000F3FC0F482060266200266662C4F8048026
:101E400004F1080001F0FEFA204601F077FD09498F
:101E50000888401C0880FEF7F1FC3846FEF766F95A
:101E60002E80DEE745F6C3502880DAE72001001017
:101E700053454D41500100102DE9F05F07468A4659
:101E800014463A480078002805D043F2C920208043
:101E90000020BDE8F09F47B135493868884209D035
:101EA00045F6C45020800020F3E745F6C35020805B
:101EB0000020EEE7FEF736F98346FEF7ADFC07F1AA
:101EC00008060025DFF8AC80A946BAF1000F0CD057
:101ED000BAF1010F27D0FEF7B1FC5846FEF726F9FC
:101EE00045F6256020802846D3E7306840B1FEF7EC
:101EF000A5FC5846FEF71AF947F25F102080F2E77A
:101F0000384601F02DFDB8F80000401EA8F800008A
:101F1000384601F003FDFEF791FC5846FEF706F93E
:101F2000A4F80090DFE7FEF745FD824606E08168F1
:101F30005246384601F0ECFA6D1CADB2306800280C
:101F4000F5D1384601F00CFDB8F80000401EA8F8A5
:101F50000000384601F0E2FCFEF770FC5846FEF740
:101F6000E5F8FFF7A7FEA4F80090BCE720010010F9
:101F700053454D41500100102DE9F04788B0064609
:101F8000109D894690461C4650480078002806D08F
:101F900046F2AE102880002008B0BDE8F08756B1A8
:101FA000B8F1000F0CD0B8F5004F09D045F6256008
:101FB00028800020F0E745F6C35028800020EBE79A
:101FC00043493068884204D045F6C4502880002038
:101FD000E2E7FEF7A7F88246FEF71EFC306A00270C
:101FE00068B1401E30620CB1706A2060346AFEF73E
:101FF00025FC5046FEF79AF82F802046CCE75FEA92
:1020000008400CD504B12760346AFEF717FC50462F
:10201000FEF78CF846F2B01028802046BCE72D4829
:10202000007858B104B12760FEF708FC5046FEF76F
:102030007DF846F6635028800020ADE74B46062227
:102040003146684601F06EF9FEF7F8FB5046FEF7A0
:102050006DF8FFF72FFEFEF765F88046FEF7DCFB14
:102060001D48016891F8350078B1012812D0022886
:102070001DD0032815D046F62E602880FEF7DEFB23
:102080004046FEF753F8002086E70CB1886C2060CC
:102090002F8012E00CB1886C206046F2A9102880D5
:1020A0000BE004B1276047F2D920288005E00CB18D
:1020B000886C206045F6C2502880346AFEF7BEFB6B
:1020C0004046FEF733F8204666E700002001001086
:1020D00053454D414A010010B001001070B506464D
:1020E0000C461546002E0ED094B1B4F5007F0FD0EB
:1020F000B4F5004F0CD0B4F5024F09D045F6256079
:102100002880002070BD45F6C3502880002070BD97
:1021100009493068884204D045F6C4502880002020
:1021200070BDFEF747FC02462B4621463046BDE80F
:10213000704001F02BBC000053454D412DE9F041AA
:1021400004460E46154618480078002804D046F686
:10215000C6502880BDE8F0813CB11449206888420F
:1021600007D045F6C4502880F4E745F6C3502880D0
:10217000F0E700202880FDF7D5FF0746FEF74CFB6F
:10218000206A08B1266205E02046806848B147F21F
:102190005F102880FEF752FB3846BDE8F041FDF79E
:1021A000C5BF2662F6E700002001001053454D41EF
:1021B00070B5044616480078012803D045F68B60B8
:1021C000208070BD012613480088042803D845F6F6
:1021D0008C60208070BD104D287818B145F68A605B
:1021E000208070BD01F05EFA0C4908700C4908703F
:1021F0000C4900EB400051F820000B4908600B49E6
:1022000008602E70FEF7A8F843F69920208070BD74
:102210002901001074010010280100104301001072
:1022200042010010A86D0010B4010010B0010010B0
:102230002DE9F0410646FDF775FF0446FEF7ECFA7E
:102240002D48002505802D4805602D4805602D4846
:1022500005602D4805602D480581FEF7EFFA204600
:10226000FDF764FFFDF75EFF0746FEF7D5FA284845
:102270000468FEF7E3FA3846FDF758FF1BE0FDF768
:1022800051FF0746FEF7C8FA7434E56325602563FD
:10229000A561A582E5826562A562FEF78BFB2062DF
:1022A000743C2146A1F86C50D4F8B840FEF7C6FA49
:1022B0003846FDF73BFF002CE1D1FDF733FF074621
:1022C000FEF7AAFA13480468FEF7B8FA3846FDF795
:1022D0002DFF0CE0FDF726FF0746FEF79DFA21468D
:1022E0008D85A469FEF7AAFA3846FDF71FFF002C7A
:1022F000F0D13580BDE8F081560100106801001072
:102300007C010010A0010010240100109C6D001041
:102310007001001044010010F8B5044669462848D1
:1023200000F070FBBDF8000008B12080F8BD6A46DF
:102330000021022000F09CFBBDF8000008B12080C5
:10234000F8BDFDF7EFFE0746FEF766FA1D4E0025C5
:102350003560FEF773FA3846FDF7E8FE00201A49AB
:102360001A4A0B681768BB4203D908681268B0FBA9
:10237000F2F018B909680A20B1FBF0F06A460021B2
:1023800000F076FB69460E4800F0ACF9BDF800009D
:1023900008B12080F8BDFDF7C5FE0746FEF73CFA00
:1023A0000B4805600B49306808600B490120087034
:1023B000FEF744FA3846FDF7B9FE2580F8BD000067
:1023C000D870001058010010A89C0100949C0100D6
:1023D000680100105C0100106401001070470000EB
:1023E0002DE9FF4F83B00446DDE91097DDE917853D
:1023F000139E934658480078002805D047F24A10AB
:10240000288007B0BDE8F08F5CB1BBF1000F0CD0A5
:102410007FB15248006886420FD246F6306028806D
:10242000EFE747F2AD102880EBE747F24F10288026
:10243000E7E746F62F602880E3E71298B04203D31F
:1024400046F631602880DCE746F27320B9F1200FB0
:1024500001D32880D5E7B9F11F0F04D140498C4240
:1024600001D02880CDE7204601F000FD4FF0000AA2
:10247000A5F800A008F0010008F0020108430BD005
:102480005FEA887008D53846002103E0C0F800A054
:10249000001D491CB142F9D3129807EB800002904D
:1024A000CDE900683A465846029B069900F072FA58
:1024B000B84203D246F62C602880A2E7C4F828B0C0
:1024C0000699E1620499A16084F8379084F8389005
:1024D00020600298E0601698606067622664A4F845
:1024E0004480002004EB8001C1F878A0401CC0B2F9
:1024F0000028F7D004F16000149900F091FE204606
:1025000000F034F8FDF70EFE0546FEF785F994F865
:10251000370001F0DDF8204601F0B8F9204601F05F
:1025200083FC10490888401C08800F480078012867
:1025300007D0FEF783F907B02846BDE8F04FFDF756
:10254000F5BDFEF77BF92846FDF7F0FD07B0BDE8C5
:10255000F04FFFF7AFBB000020010010A49C01006A
:10256000DC6C00107401001028010010704700009E
:102570002DE9F84F83460A9D894616461C46564863
:102580000078002805D046F2AE1028800020BDE873
:10259000F88F56B1B9F1000F0CD0B9F5004F09D042
:1025A00045F6256028800020F1E746F2D5202880F6
:1025B0000020ECE74FF000080CB1C4F80080FDF7F4
:1025C000B1FD0090FEF728F9DFF810A1DAF800005D
:1025D00060302B462246314600F0F6FD074628883B
:1025E00060B15FEA09401CD546F2B0102880FEF7C2
:1025F00025F90098FDF79AFD0020C8E754B1FEF7D1
:10260000D9F92168401ADAF8001008674A6F824247
:1026100000D24867FEF712F90098FDF787FD3846AB
:10262000B5E72F48007848B1FEF708F90098FDF7A4
:102630007DFD46F6635028800020A8E700215B4618
:102640000222084600F06EFEFEF7F8F80098FDF74B
:102650006DFDFFF72FFBFDF765FD8146FEF7DCF80A
:10266000DAF8000090F8351099B1012929D0002737
:10267000A6F800801CB1DAF80000806C206047F2F8
:10268000D9202880FEF7DAF84846FDF74FFD384696
:102690007DE7876DB0F85C0030807CB1DAF800002F
:1026A000806C2060FEF786F90146DAF80000826C43
:1026B000891A0167426F8A4200D24167A5F80080FB
:1026C000E0E70027A6F800800CB1C4F8008046F2CD
:1026D000A9102880D6E7000020010010B0010010EA
:1026E0004A01001070B504460D46134800780028D2
:1026F00003D047F25510288070BDFDF713FD064644
:10270000FEF78AF81CB10D480068844208D1FEF734
:1027100095F83046FDF70AFD47F25710288070BD46
:10272000FEF78CF83046FDF701FD29462046BDE84E
:10273000704001F0F3BB000020010010B001001058
:10274000704700002DE9F05F83468A4614461D4617
:1027500051480078002805D046F2AE1028800020AD
:10276000BDE8F09FBAF1000F07D0BAF5004F04D0D2
:1027700045F6256028800020F2E7FDF7D3FC81466E
:10278000FEF74AF8454F00263868D0F84C80B8F17B
:10279000000F1CD0A8F10108C0F84C800CB1806C6F
:1027A0002060FEF707F901463868826C891AC0F884
:1027B000A010D0F8A4208A4201D2C0F8A410FEF7DD
:1027C0003DF84846FDF7B2FC2E804046C8E75FEA78
:1027D0000A400BD5FEF732F84846FDF7A7FC04B1D6
:1027E000266046F2B01028800020B9E72C48007817
:1027F00058B104B12660FEF721F84846FDF796FC73
:1028000046F6635028800020AAE700215B46072295
:10281000084600F087FDFEF711F84846FDF786FCF4
:10282000FFF748FAFDF77EFC8046FDF7F5FF3968B3
:1028300091F8350078B1012820D0032825D046F63C
:102840002E6028803868C46CFDF7F8FF4046FDF71D
:102850006DFC204684E77CB1886C2060FEF7AAF806
:1028600001463868826C891AC0F8A010D0F8A420FC
:102870008A4201D2C0F8A4102E80E3E70CB1886C24
:10288000206046F2A9102880DCE704B1266047F2F8
:10289000D9202880D6E7000020010010B0010010E8
:1028A0004A01001070B506460C461546002C07D0AC
:1028B000B4F5004F04D045F625602880002070BD97
:1028C000FEF778F802462B4621463046BDE87040B8
:1028D00001F0A0BB2DE9F0470646884691461F4609
:1028E0002A480078002804D047F259103880BDE803
:1028F000F08746F2D520B8F1000F09D0B9F1000FEA
:1029000008D0FDF70FFC0446FDF786FF26B105E071
:102910003880ECE73880EAE71D4806684FF0000A87
:10292000306858B196F84400C00714D0FDF786FF10
:102930002046FDF7FBFB0024756A1BE0FDF77EFFD8
:102940002046FDF7F3FBC8F800A0C9F800A047F245
:1029500052103880CBE7FDF771FF2046FDF7E6FB0C
:10296000C8F800A0C9F800A047F254103880BEE7AC
:102970002D1D641C28680028FAD0C8F80040306C6F
:10298000001BC9F80000A7F800A0B0E72001001064
:10299000B001001010B5029C02EB840222F0070285
:1029A0004FF0807442F8044C42F8080C0C3A14487A
:1029B0001060A2F134004FF0123404634FF0033280
:1029C000C2624FF002328262436201624FF0113103
:1029D000C161D100816161104161910001614FF0DD
:1029E0000731C1604FF0063181604FF00531416021
:1029F000510040F804196FF00201016010BD0000A1
:102A0000F53F0000084A1278002A03D047F25D1013
:102A100008807047054A904203D147F25B10088056
:102A2000704701F061BB000020010010DC6C001059
:102A300070B5FDF7BFFF0C4C0C4A21681368994232
:102A400006D090314A68821A0A608D682A448A60EA
:102A5000C3F89400FDF7C2FE2168D1F8B02082428D
:102A600001D2C1F8B00070BDB0010010B401001077
:102A70002DE9F04106460D4614462048007800280E
:102A800004D047F275202080BDE8F0811C48007812
:102A900018B146F663502080F6E74DB1022D07D0FD
:102AA000042D06D0082D03D045F625602080EBE7E5
:102AB000A6B1FDF737FB0746FDF7AEFE2A46114DDE
:102AC00023463146286801F0DBFB208850B1FDF732
:102AD000B5FE3846BDE8F041FDF728BB47F27E2041
:102AE0002080D1E7286800F0EFFEFDF7A7FE38460A
:102AF000FDF71CFBBDE8F041FFF7DCB8200100103A
:102B00004A010010B00100102DE9F0471646DDE93A
:102B100008244B4D2D78002D04D047F275202080DD
:102B2000BDE8F087474D2D781DB146F663502080F3
:102B3000F6E702F00E0547F27E2C45F6256845B112
:102B4000022D06D0042D08D0082D02D0A4F8008054
:102B5000E6E713B90EB901B920B132F01E0704D06F
:102B6000012703E0A4F800C0DAE70027012F0FD007
:102B7000C2F3001247F2792847F278294FF47A77A6
:102B80004AB142F20F7291421BD9A4F80080C7E704
:102B9000A4F80080C4E7BB4203D347F27B20208027
:102BA000BEE73B2E03D947F27A202080B8E73B29C5
:102BB00002D9A4F80080B3E7632807D9A4F80090ED
:102BC000AEE7B84202D3A4F80090A9E71E4A126803
:102BD0004FF4FA78B8FBF2F843445343B3FBF7F3EE
:102BE0004FF461677843C1EB011100EB8100304481
:102BF00000FB02360EB3FDF795FA0746FDF70CFE13
:102C00002A46124D23463146286801F039FB2188B7
:102C100031B1FDF713FE3846BDE8F047FDF786BA3F
:102C2000286800F051FEFDF709FE3846FDF77EFAF0
:102C3000FFF740F80020208072E7A4F800C06FE79B
:102C4000200100104A010010A89C0100B0010010F2
:102C500008B50D480078012814D100F01FF86A4625
:102C600000210A48FFF71EFE09490868401E086057
:102C7000002807D10748006808606A460021064816
:102C8000FFF710FE08BD000028010010E86F0010DB
:102C9000AC010010A8010010D870001070470000AF
:102CA0002DE9F05F0446DDE90A690D9D8A46174665
:102CB00098462A480078002804D047F243302880FC
:102CC000BDE8F09F3CB1012E18D0022E07D045F68A
:102CD00025602880F4E745F6C3502880F0E7B8F176
:102CE000000F03D0B9F1000F04D008E047F24030E4
:102CF0002880E5E747F24A302880E1E737B1DFF87E
:102D000060B09BF80000012804D005E047F23F3096
:102D10002880D5E701F03EFD012084F82600114807
:102D20002060C4F804A0E7610027A761C4F82080F0
:102D3000A684C4F808900C98E0602761676120467B
:102D400001F074FC08490888401C08809BF80000CA
:102D5000012801D101F08EFD2F80B1E72001001084
:102D600028010010544D52209C0100102DE9F04123
:102D700005460C4625480078002805D047F2433028
:102D800020800020BDE8F08145B1214928688842B3
:102D900009D045F6C45020800020F3E747F24230C6
:102DA00020800020EEE701F0F5FC284601F04CFC05
:102DB00095F8261021B30027164E012917D00229B5
:102DC00009D0032913D047F241302080002401F0BC
:102DD00051FD2046D6E7284601F02EFD284601F099
:102DE0000FFC3088401E308027800124EFE7284602
:102DF00001F006FC3088401E308027800124E6E781
:102E000047F23D3020800024E1E70000200100105F
:102E1000544D52209C01001070B504460D462A48BE
:102E20000078002804D047F243302880002070BD8D
:102E300044B126492068884209D045F6C45028800C
:102E4000002070BD47F242302880002070BD01F0A4
:102E5000A1FC94F8260080B30021012810D002289C
:102E600009D003280CD047F241302880002401F01B
:102E700001FD204670BDE069A06129800124F6E7CC
:102E8000022084F82600E06970B1A061104A114B5D
:102E9000106860B120616161446114601888401C51
:102EA000188029800124E2E7206AA061EEE7216111
:102EB0006161146001201880F3E7FFE747F23D30BD
:102EC00028800024D3E7000020010010544D522038
:102ED000980100109401001070B505460C46164884
:102EE0000078002804D047F243302080002070BDD5
:102EF00045B112492868884209D045F6C45020805F
:102F0000002070BD47F242302080002070BD01F0EB
:102F100041FC95F8265065B1012D0AD0022D08D04C
:102F2000032D06D047F24130208001F0A3FC284653
:102F300070BD00202080F8E720010010544D522081
:102F40002DE9F04105460E4690461C463048007873
:102F5000002805D047F2433020800020BDE8F081F2
:102F600045B12C492868884209D045F6C4502080D4
:102F70000020F3E747F2423020800020EEE701F026
:102F800009FC95F8260088B3012837D0022809D01B
:102F9000032833D047F241302080002401F06AFC3E
:102FA0002046DBE7002020801EB347F24437032E83
:102FB00008D0042E11D001F05DFC45F6256020807C
:102FC0000020CBE7284601F037FCAA681AB1284652
:102FD000E968904710E027800EE0284601F02CFCBD
:102FE000AB6823B141462846984705E00BE02780AF
:102FF00002E0284601F020FC0124CFE747F24930E7
:1030000020800124CAE747F23D3020800024C5E734
:1030100020010010544D522010B5FDF783F80446EE
:10302000FDF7FAFB074A1178491C1170FDF706FC01
:103030002046FDF77BF8FFF70BFEBDE81040FEF7DA
:1030400027BA0000200100104FF0E021401E486127
:10305000064A106820F07F401060086940F00500C3
:103060000861086940F002000861704720ED00E047
:1030700070470000094C0A4DFDF754F80646FDF76D
:10308000CBFB2168491C21602968491C2960FDF798
:10309000D5FB3046FDF74AF8EEE700001C010010B2
:1030A0005801001000B589B00D4A002111600B22B3
:1030B000CDE9061208900C4A05910A480B4B12689C
:1030C00000681B68CDE90132CDE903011F200090A3
:1030D0000023074A07A10C48FFF782F909B000BD99
:1030E0001C0100107C9C0100789C0100749C010074
:1030F0007530000075432F4F532D494949204964CD
:103100006C65205461736B00DC6C0010034A002175
:103110001160034A118001807047000034010010E3
:1031200038010010F0B5174E316800290BD0164F4A
:10313000398861B13168326810323B885B1E9DB2BC
:10314000002300240FE045F21E710180F0BD45F21E
:103150001D710180F0BD0A604C600C81CC601031A3
:1031600010325B1C9BB2AB42F5D30C604C600C81FF
:10317000CC60064932680A603A888A80CC800C812B
:103180000480F0BD8C9C0100889C01009C6D0010A7
:1031900010B54289002A12D003680A490C681C60E5
:1031A00043680B60CB8844891B1BCB808B88448988
:1031B00023448B8000214181818101604160104660
:1031C00010BD00009C6D0010F0B544890025002C56
:1031D00019D04468666827890F800AB1E1681160D8
:1031E00021684160B9B14189491E41810B4801689C
:1031F000216004608188491C8180C188491EC1808A
:103200001D803046F0BD0D8002B1156046F292502F
:1032100018800020F0BD05604581E7E79C6D001037
:10322000018100214181818101604160704700007E
:103230002DE9F041DDE906C744890589AC4204D394
:1032400046F293503880BDE8F0811C4EB588CDB170
:103250003468D4F80080C6F800806D1EB580F5880B
:103260006D1CADB2F580B6F80880A84500D2358156
:103270004689002556B1DB060ED403681C60046045
:1032800025600CE045F21D703880DCE70460446086
:1032900001234381256005E043682360446043893E
:1032A0005B1C4381868943899E4200D28381616091
:1032B0002281C4F80CC03D80C5E700009C6D001061
:1032C00006A1C16100224261054B1968002903D0A3
:1032D00081614861186070478261FBE7200000004F
:1032E0003C010010C26B0A62C16370471F213C3071
:1032F00008E082682AB1926892F837208A4200D2A8
:103300001146203000680028F3D1084670473C3051
:1033100001E002F1200002688A42FAD10168096ADC
:10332000016070472DE9F0410C4607461946104DE3
:10333000286880F83420002680F8356000F0FCFC16
:1033400064B104F10806FC6001223946286800F0E7
:1033500011F83946304600F07AF803E02868A0F802
:103360004660066320462968BDE8F04100F016B8C3
:10337000B001001010B5A0F846200163002400231E
:1033800009E04B600B600B614B610B83CB61886084
:103390002031641CA4B29442F3D310BD002809D09C
:1033A0004268C1F8BC2000F1080109688968896891
:1033B000C161704791F83400022805D0072807D072
:1033C00005A0C1F8BC00704704A0C1F8BC0070475C
:1033D00004A0C1F8BC007047200000005461736B6A
:1033E000205100005461736B2053656D0000000094
:1033F00007A2C1F8BC2000F108010968002903D028
:1034000089688968C161704701A1C1617047000086
:103410002000000070B5056BB0F846400FE0EE6884
:1034200008363068406838B12946304600F054F814
:103430002946304600F00BF82035641EA4B2002C5B
:10344000EDD170BD0021016041600181704730B550
:103450008A6892F8374002680025002A03D0038961
:103460005B1C03810CE0012202814D600D60016054
:10347000416030BD936893F83730A34202D8526858
:10348000002AF7D132B1136853B10B604A6059601A
:10349000116030BD4D6042680A605160416030BDCE
:1034A00011600D604A60016030BD70B50646346B36
:1034B000002C10D0B6F8465007E0E06808302146EE
:1034C00000F00AF820346D1EADB2002DF5D10020B9
:1034D000A6F84600306370BD10B50268002452683B
:1034E000002A0BD00A6862B14B6873B153601A604E
:1034F0000289521E02814C600C6010BD0460446061
:10350000F6E74A6814600260F2E754604260EFE751
:103510002DE9F0410C46154694F836100227002696
:10352000082922D2DFE801F02121040421212323EC
:1035300094F83410032903D12A46214600F033F8C9
:10354000A665A4F85C60A5642046FFF7AEFF94F87A
:103550003600032802D1204600F0DAFE204600F0B3
:103560005FF93434A67067702670BDE8F08194F876
:103570003410032903D12A46214600F014F8A66529
:10358000A4F85C60A5642046FFF78FFF94F836002E
:10359000072802D1204600F0BBFE04203434A0707E
:1035A00067702670E1E710B50B6BB1F8461008E0C4
:1035B000DC68844202D11861DA6110BD2033491EF3
:1035C00089B20029F4D110BDF8B5064606980C461C
:1035D000002594F8361008292AD2DFE801F02929BD
:1035E000040429292A2A94F83410032910D0A2654A
:1035F000A4F85C30A06436B12046FFF756FF2146A0
:103600003046FFF7F5FE94F83600032806D008E0B0
:1036100000902146304600F030F8ECE7204600F0FC
:1036200077FE204600F0FCF83434A57065702570F4
:10363000F8BD94F83410032910D0A265A4F85C30CA
:10364000A06436B12046FFF730FF21463046FFF731
:10365000CFFE94F83600072806D008E000902146F7
:10366000304600F00AF8ECE7204600F051FE042056
:103670003434A07065702570F8BD70B5049D0C6B76
:10368000B1F846100AE0E668864204D12061626122
:103690002383E56170BD2034491E89B20029F2D12F
:1036A00070BD000010B503480068FCF746FDC0B2CD
:1036B00010BD0000180100100020044A002142F84B
:1036C0002010401C0028FAD070470000180100109C
:1036D0000121C0F11F008140024A106808431060B8
:1036E00070470000180100100121C0F11F00814047
:1036F000024A1068884310607047000018010010EB
:1037000070B5044604F120000546FFF741FD074867
:10371000206007A0606000212846FFF781FD04F1CA
:103720000800BDE87040FFF78DBE00004E4F4E45CB
:103730003F51000006A1C16100224261054B19689A
:10374000002903D081614861186070478261FBE7FE
:103750002000000044010010426981690023002A12
:1037600005D051B191614A61836143617047044A58
:10377000116001B14B618361704793614361704790
:10378000440100102DE9FC5F0746DDE90C6889461D
:1037900092461D46FCF7C6FC8346FDF73DF83846C9
:1037A0008468ECB9E80601D4002300E01023CDE9D9
:1037B00000685246494607F12000FFF739FDFDF742
:1037C0003DF85846BDE8FC5FFCF7B0BCA1686468F2
:1037D00053464A4638460096FFF7F6FEA80501D53F
:1037E000002CF3D1FDF72AF85846FCF79FFC28047B
:1037F00001D4FEF75FFA0020A8F80000BDE8FC9FA6
:103800000020064B002200EB400103EB81010A81FE
:103810000A604A60401C2028F5D37047A86D00104C
:1038200010B5044694F83700FFF752FF074994F8A3
:1038300037000978884204D12046BDE8104000F0E6
:1038400025B82046BDE8104000F002B84201001043
:1038500090F837100C4A01EB410102EB8101002284
:103860000B68002B09D00B895B1C0B810B68036173
:1038700042610A6850610860704701230B81026150
:103880004261086048607047A86D001090F83710DA
:103890000C4A01EB410102EB810100220B68002B75
:1038A00008D00B895B1C0B8102614A684261106180
:1038B0004860704701230B810261426108604860E3
:1038C00070470000A86D001070B50446124994F8C6
:1038D000370000EB400001EB8001606922690025A0
:1038E000002808D00B895B1E0B81026192B15061E8
:1038F0006561256170BD2AB10889401E0881556146
:103900000A60F5E70D810D604D6094F83700FFF710
:10391000EBFEEDE74860EBE7A86D0010044901609D
:1039200000210162416203A141600830FFF78ABDB6
:103930004E4F4E453F53454D0000000006A1C1616A
:1039400000224261054B1968002903D0816148615A
:10395000186070478261FBE7200000004C010010F6
:10396000426981690023002A05D051B191614A6101
:10397000836143617047044A116001B14B61836107
:1039800070479361436170474C0100102DE9F84F77
:1039900005460F4690461E46FCF7C4FB8246FCF7E0
:1039A0003BFF28464FF0000984682CBB2C6A601C42
:1039B0000DD0641C2C62C5F82480FCF73FFF5046F4
:1039C000FCF7B4FBA6F800902046BDE8F88FFCF7A2
:1039D00035FF5046FCF7AAFB46F6C5503080002064
:1039E000F3E7A168646800231A462846CDF80080F2
:1039F000FFF7EAFDB80501D5002CF2D1FCF71EFF58
:103A00005046FCF793FB380401D4FEF753F9A6F8AF
:103A100000900020D9E700000EB5874E874D306832
:103A2000440004E0204602AA0021FFF721F828788C
:103A30000128F7D102A8FEF7FBFB4FF0000A8048EF
:103A400032680168914203D901683268B1FBF2FA29
:103A5000BAF1000F03D100680A21B0FBF1FA4FF46C
:103A60007A7842F210774FF00009C6E0754882423A
:103A700002D23846012113E07348824202D2404606
:103A80000A210DE07148824202D26420642107E0DD
:103A90006F48824202D20A20414601E001203946A5
:103AA000B2FBF1F15843B0FBF1F06A49381A80B229
:103AB000088069490A88824204D2088002E0654889
:103AC000A0F80090FEF78AFC0025FCF72BFB0646C9
:103AD000FCF7A2FEDFF884B1DBF80040FCF7AEFE95
:103AE0003046FCF723FB1BE0FCF71CFB0646FCF70B
:103AF00093FE54F8980F6060C4F80090FCF79EFEA7
:103B00003046FCF713FB60680544FCF70BFB0646E8
:103B1000FCF782FE246AFCF791FE3046FCF706FBB8
:103B2000002CE1D1E5B14748854202D23E46012052
:103B300013E04548854202D246460A200DE043483C
:103B4000854202D26426642007E04148854202D2C1
:103B50000A26404601E001263846B5FBF0F501E0B3
:103B600000260125FCF7DEFA0090FCF755FEDBF895
:103B70000040FCF763FE0098FCF7D8FA23E0D4F885
:103B80009C007043B0FBF5F080B2B84200D93846D3
:103B9000A4F88800B4F88A10814201D2A4F88A00FF
:103BA00004F1A80202AB111D2046FEF793FEFCF7BC
:103BB000B9FA8346FCF730FED4F8B840FCF73EFE75
:103BC0005846FCF7B3FA002CD9D1254801780129D1
:103BD00004D180F8009002A8FEF72AFBFCF7EAFE69
:103BE00001460198081A1F490A68824200D20860FB
:103BF00002AA00215046FEF73BFFFCF7DBFE0190D6
:103C0000FCF7FCFD18490860FCF78CFA0546FCF748
:103C100003FE1648164C01682160C0F80090FCF7BE
:103C20000DFE2846FCF782FA1248236802689A4281
:103C30007FF645AF1AE70000949C01006401001074
:103C4000A89C0100801A060000093D00005A62028B
:103C50000084D717540100105601001070010010A5
:103C600052010010680100102401001058010010DA
:103C7000600100105C01001030B589B01D4A0021C0
:103C800011601D4A11601D4A11601D4A11701D4AC4
:103C900011701D4A1368002B0AD01C4C1C4D236860
:103CA0002D68AB4208D246F62C61018009B030BDC8
:103CB00046F62B610180F9E7164B1D781F2D03D3C3
:103CC00046F62A610180F1E70325CDE90615089043
:103CD00005911148246812680068CDE90341CDE9D7
:103CE00001201878009000230C4A0DA11148FEF71E
:103CF00077FBDBE758010010600100105C01001049
:103D00006401001052010010989C0100A09C010069
:103D1000A49C0100909C01009C9C0100193A0000A9
:103D200075432F4F532D49494920537461742054D2
:103D300061736B00286F001010B50446002908D08D
:103D40000A462146074800F05FFA032084F836004F
:103D500002E0022084F836002046BDE81040FFF75C
:103D6000B3BD0000880100102DE9F04104460E4665
:103D7000002594F8377094F8360008284FD2DFE811
:103D800000F004181B1B18181B1B2046FFF79CFD96
:103D900084F837603046FFF79BFC22480068844275
:103DA00003D12046FFF754FD36E02046FFF76EFDB5
:103DB00032E084F837602FE084F8376094F83400FC
:103DC000072829D2DFE800F02804280408040400AA
:103DD0002046FFF71FFB1FE02046FFF71BFB206B71
:103DE000C068456AB74205D995F83700B04213D884
:103DF000002511E095F83700B8420DD12846FFF7AD
:103E000075FA95F83810814200D20846064695F8B2
:103E10003700B04200D100252C46002CA8D1BDE8C7
:103E2000F0810000B00100100023C0F8B430064A51
:103E30001168002905D0C0F8B810C1F8B4001060AE
:103E40007047C0F8B830FAE770010010044A00214A
:103E50001160044A1180044A11600180704700001B
:103E600070010010740100106C01001070B5044660
:103E700000252560E560656025616561A561E561F6
:103E8000256223A0A0606562A562E5622563A4F8AF
:103E90004650A564A565A4F85C50002104F16000BB
:103EA000FFF7BEF925676567E567A4F88450C4F895
:103EB0008050002004EB80018D67401CC0B20028B8
:103EC000F8D03434A561E5662567E56084F8525082
:103ED000A56765672582E5612562A4F85450A4F8BA
:103EE0005650A565E565FCF765FD20666566E567E6
:103EF00025706570A5702020E0702071A560C4F861
:103F00008050C4F8845004A0C4F8880070BD00003C
:103F10003F5461736B0000002000000070B5044640
:103F20000D46FCF7FFF80646FCF776FC00212980D9
:103F300094F83600082853D2DFE800F004040404A3
:103F40000D1F2F3FFCF77AFC3046FCF7EFF847F2E5
:103F50005310288040E094F88600401EC0B284F8D8
:103F6000860020B984F836102046FFF759FCFCF78C
:103F700065FC3046FCF7DAF82EE094F88600401E27
:103F8000C0B284F8860010B9012084F83600FCF72E
:103F900055FC3046FCF7CAF81EE094F88600401E37
:103FA000C0B284F8860010B9022084F83600FCF70D
:103FB00045FC3046FCF7BAF80EE094F88600401E47
:103FC000C0B284F8860010B9032084F83600FCF7EC
:103FD00035FC3046FCF7AAF8BDE87040FDF76ABE34
:103FE000FCF72CFC3046FCF7A1F846F62D60288043
:103FF00070BD000008B505480068FEF7A1FB044C41
:104000006A4600212068FEF733FDF9E7B001001091
:10401000A89C01002DE9F8430446894615461E4632
:10402000FCF780F80746FCF7F7FB0CB92D4804684D
:10403000A5640020308094F8360046F6C55808285C
:1040400045D2DFE800F00404191904041919E56CDD
:10405000681C07D06D1CE564FCF7F0FB3846FCF7E4
:1040600065F83DE0FCF7EAFB3846FCF75FF8A6F898
:1040700000800020BDE8F88394F8340007280AD0B7
:10408000E56C681C1AD06D1CE564FCF7D7FB38465C
:10409000FCF74CF824E000231A4621461846009508
:1040A000FFF792FAE56CFCF7C9FB3846FCF73EF8DF
:1040B0005FEA094014D4FDF7FDFD11E0FCF7BEFBFB
:1040C0003846FCF733F8A6F800800020D2E7FCF76A
:1040D000B5FB3846FCF72AF846F62D6030800025FF
:1040E0002846C7E7B00100102DE9F04104460D460F
:1040F000FCF718F80746FCF78FFB404E40486CB9B8
:104100003178012909D0FCF799FB3846FCF70EF805
:1041100045F689602880BDE8F08104680068844223
:104120000BD13848007840B1FCF788FB3846FBF7E4
:10413000FDFF46F663502880EDE70020288094F8C4
:1041400036100120082950D2DFE801F004121D28A2
:1041500033333333042184F8361084F88600204644
:10416000FFF7B2FBFCF76AFB3846FBF7DFFF2CE0FA
:10417000052184F8361084F88600FCF75FFB38468A
:10418000FBF7D4FF21E0062184F8361084F886007E
:10419000FCF754FB3846FBF7C9FF16E0072184F80B
:1041A000361084F88600FCF749FB3846FBF7BEFF63
:1041B0000BE094F88600FF280ED0401C84F886009F
:1041C000FCF73CFB3846FBF7B1FF30780128A2D161
:1041D000BDE8F041FDF76EBDFCF730FB3846FBF75C
:1041E000A5FF47F26010288095E7FCF727FB3846CB
:1041F000FBF79CFF46F62D6028808CE72801001015
:10420000B00100104A01001030B503680025002BF2
:1042100001D01C4629E00A658D61CD61086201600C
:104220000121818030BD1C6D94421BD3DC6964B1D7
:104230000A65CC618B6108621D6DAA1A1A65D96185
:10424000A1618188491C818030BD0A65CD618B6187
:1042500008621C6DA21A1A65D96101608188491C27
:10426000818030BD121B1C469B69002BDBD10A6587
:10427000CC618D610862A1618188491C818030BD5B
:104280002DE9F003DFF87CC0DCF80040DFF878901F
:10429000002747F27E28042A10D0082A19D00A469F
:1042A0001F80012180F83610DCF80010611ABDE88B
:1042B000F0030A4401461548FFF7A6BF0A1B4A450A
:1042C00001D8002AECD10765A3F80080BDE8F0030F
:1042D0007047456D661B8E4203D90A4621444165ED
:1042E000DEE78A1B4A4503D812B129444165D7E766
:1042F000B6FBF1F201FB0252114441650765A3F8D8
:104300000080E3E7780100100000FFFF800100104B
:1043100030B5026AC36981690024002B0ED099610F
:1043200021B1CB610B6D056D2B440B65C461918888
:10433000491E918084610465046230BD61B1CC6125
:104340000B6D056D2B440B6511609188491E9180A2
:1043500084610465046230BD146094800465046265
:1043600030BD00002DE9F0470546FCF723FB8146F0
:1043700000271F4E34686CB3206DB846A84203D89E
:104380002D1AC4F8508028E0401B206525E07F1CD2
:10439000BFB294F83600012802D0052806D008E004
:1043A00084F836802046FFF73BFA02E0042084F8C8
:1043B0003600A46934605CB1B088401EB080C4F897
:1043C0001C80206DA84206D82D1AC4F8508004E045
:1043D000A6F8048004E0401B2065206D0028D6D09C
:1043E000F780FCF7E7FAA0EB0900BDE8F0870000D2
:1043F000800100102DE9F0470646FCF7DBFA824603
:104400004FF00008394F3C68002C67D0206DC14642
:10441000B04203D8361AC4F850905CE0801B206587
:1044200059E008F101081FFA88F8002594F83400D3
:10443000042802D1206BC068456AC4F85890A4F8DB
:104440005C90FCF7B7FAA0642046FFF72EF894F8CA
:104450003600032802D0072806D008E02046FFF7E0
:10446000DFF984F8369002E0042084F83600032057
:1044700084F8350084F83490CDB195F8370095F87C
:104480003810884213D094F8371088420FD128464C
:10449000FEF72CFF95F83810814200D208460146FD
:1044A00095F83700884202D02846FFF75DFCA469E2
:1044B0003C605CB1B888401EB880C4F81C90206D88
:1044C000B04206D8361AC4F8509004E0A7F8049019
:1044D00004E0801B2065206D0028A2D0A7F806808C
:1044E000FCF768FAA0EB0A00BDE8F087880100102D
:1044F00008B5134D00226B4611461046FEF722F90F
:10450000BDF800000028F5D1FBF70CFE0646FCF7CD
:1045100083F901240B490868401C08602046FFF716
:1045200021FF07462046FFF765FF3844296881428E
:1045300000D22860FCF782F93046FBF7F7FDD9E797
:104540007C0100107801001030B589B01D4A0021AF
:1045500011601D4A11601D4B19609180D1809980B6
:10456000D9801B4B1A68002A0AD01A4C1A4D2268AF
:104570002D68AA4208D247F21321018009B030BD4C
:1045800047F212210180F9E7144A15781F2D03D351
:1045900047F211210180F1E70B25CDE906150591C0
:1045A000089020680E4C1B682468CDE90134CDE9E1
:1045B00003011078009000230A4A0BA10F48FDF771
:1045C0000FFFDBE778010010800100108801001068
:1045D000B09C0100B89C0100A49C0100AC9C0100AF
:1045E000B49C0100F144000075432F4F532D4949FD
:1045F00049205469636B205461736B00E86F0010AD
:10460000002180F82610064A026006A24260C161BD
:104610008161016281848160C16001614161704793
:104620004E4F4E453F544D52000000000023836220
:10463000044A1168002903D0C16288621060704783
:10464000C362FBE790010010826AC16A0023002A5E
:1046500005D051B1D1628A62C36283627047044A55
:10466000116001B18B62C3627047D362836270478D
:104670009001001030B589B004462B480025056034
:104680002A4805602A4805802A4A2B492B48136886
:10469000002B05D009681268B1FBF2F1016004E05B
:1046A00009680A22B1FBF2F101602549006808603F
:1046B0002448056024480560224624A12748FCF7C9
:1046C0003DFF208800280BD12548016851B1254ABB
:1046D000254B11681B68994208D247F24830208068
:1046E00009B030BD47F247302080F9E71F490B7809
:1046F0001F2B03D347F246302080F1E70B23CDE98F
:104700000653059508941A4B126800681B68CDE99A
:104710000325CDE90103087800900023154A16A16E
:104720001B48FDF75DFEDBE79001001098010010CB
:1047300094010010C09C0100A89C0100A801001079
:10474000AC010010A4010010A00100104F53205430
:104750006D72204D7574657800000000A87000101F
:10476000C49C0100CC9C0100A49C0100BC9C0100E5
:10477000C89C0100AD47000075432F4F532D494998
:10478000492054696D6572205461736B000000000C
:10479000D87000100EB502A80022009001AB11469F
:1047A0000148FCF705FF0EBDA87000101CB51F4E98
:1047B000DFF87C801F4F002101AB6A460846FDF7F9
:1047C000C1FFFFF7E7FFFCF7F5F881463068401CB2
:1047D0003060D8F8004019E001A8FDF7A9FA256972
:1047E000A069401EA06168B9A08C02281BD0204699
:1047F00000F022F8032084F82600A26812B12046B7
:10480000E16890472C4601A8FDF7C2FA002CE3D1DD
:10481000FCF7D0F8A0EB09003968814200D238607B
:1048200000F028F8C7E7206AA061E6E7A4010010BD
:1048300098010010A001001010B50C4A0023016976
:104840001468844203D1116029B14B6103E04269CD
:10485000116101B14A61012180F8261003614361B1
:1048600003480188491E018010BD00009801001016
:104870009401001008B56A4600210248FCF76CFF5D
:1048800008BD0000A870001070B505460E4614461D
:104890003146284600F014F805280CD03146284649
:1048A00000F07EF8016821F0070104F007021143CF
:1048B0000160002070BD014870BD000001000010C3
:1048C00002460520062A0ED2DFE802F0032E383811
:1048D000383A062906D9A1F10A02012A02D9121F83
:1048E000082A01D8002070470C2905D00D2903D0D3
:1048F000A1F11702032A01D8012070471D290FD00A
:104900001E290DD01F290BD01B290BD01C2909D023
:10491000072903D0082901D00929EED104207047C6
:1049200002207047032070471D2901D800207047DE
:104930001E2901D01F29FAD101207047002070479D
:10494000012907D9042905D0022901D00329F6D16C
:10495000032070470020704770B505460E46144688
:1049600031462846FFF7ACFF052803D0012804D0C4
:104970000A4870BD0948401E70BD3146284600F007
:104980000FF824B1016821F08001016003E00168A3
:1049900041F080010160002070BD000002000010A5
:1049A00001EB4010014901EB8000704700C002405C
:1049B00070B50C46154600F0ABF8012104F1080370
:1049C0009940012D03D0C26C630707D007E0C26C89
:1049D000630700D100210A43C26470BD002147F67D
:1049E0007C638B431A40C26470BD70B50C4615469B
:1049F00000F08EF80123A34004F0070135B1C26C2A
:104A0000022900D200231A43C26470BDC26C02297D
:104A100000D2002347F67C6199430A40C26470BD0E
:104A200010B50C4600F074F8012C04D0416801F078
:104A30000301416010BD416841F00801416010BDB3
:104A400070B50C4600F064F862780121274B012A0A
:104A50002AD0227802F0070202EB420201FA02F5A4
:104A600023EA050245692A404261E278012A26D0FC
:104A7000227802F0070202EB4202521C01FA02F510
:104A800023EA050245692A404261A278012A22D020
:104A9000227802F0070202EB4202921C91408B4303
:104AA00041690B40436170BD2278456902F00702FD
:104AB00002EB420201FA02F22A434261D5E7227870
:104AC000456902F0070202EB4202521C01FA02F2AF
:104AD0002A434261D9E7227802F0070202EB420240
:104AE000921C914042691143416170BDFFFF1F005C
:104AF00010B50C4600F00CF8012C04D0416801F010
:104B00000A01416010BD416841F00101416010BDE2
:104B1000002803D0012803D00020704701487047C7
:104B20000148704700400140008001402DE9F041FC
:104B30000546884617462846FFF7EAFF044615B1A2
:104B4000012D05D0FEE701212020FBF7DBFD03E06E
:104B500001214020FBF7D6FD0120FBF7E5FD0546CE
:104B600000263F202060666026676661A662E664D4
:104B70002665B8F1000F0DD0B8F1010F08D1787893
:104B800000F00301387861F39F00216F084320672C
:104B9000BDE8F081387870B17968A1FB050306FBA8
:104BA000053201FB0621064A0023FBF7D3FA05462E
:104BB0006D1EE560ECE77868401EE060E8E7000005
:104BC00040420F0070B50D4614461E46FFF7A0FF89
:104BD000072D12D2DFE805F00406080A0C0E1000BB
:104BE00084610AE0C46108E0046206E0446204E013
:104BF000046402E0446400E08464026D072D02D284
:104C00000121A94000E000210A430265002E07D1DE
:104C1000416841F002014160416801F009014160D1
:104C200070BD10B5FFF774FF416841F002014160AB
:104C3000416801F00901416010BD02780A43027029
:104C40007047012904D0017A01F012010172704706
:104C5000017A41F0010101727047012A07D0082949
:104C600011D2DFE801F034393E43484D525708294C
:104C700009D2DFE801F004090E13181D2227017B79
:104C800041F0010101737047017B41F002010173A2
:104C90007047017B41F0040101737047017B41F0D3
:104CA000100101737047017B41F0080101737047E7
:104CB000017B41F0200101737047017B41F040010D
:104CC00001737047017B41F0800101737047017BE4
:104CD00001F0FE0101737047017B01F0FD010173DA
:104CE0007047017B01F0FB0101737047017B01F00C
:104CF000EF0101737047017B01F0F7010173704709
:104D0000017B01F0DF0101737047017B01F0BF01FE
:104D100001737047017B01F07F01017370470078D8
:104D2000084201D0012070470020704710B5074CA1
:104D300001212046FFF7F3FF002805D02046BDE8FB
:104D400010400121FFF779BF10BD00000040024074
:104D500010B5044601214802FBF7D4FC0020207066
:104D600020722073FF212174206410BD017A41F06C
:104D700002010172017A01F011010172704770B5F0
:104D8000531E02F03F0402F01F05082909D2DFE894
:104D900001F004090E131A1F262D3B2A01D880F8B2
:104DA000204070BD3B2AFCD880F8244070BD172AF3
:104DB000FCD880F8285070BD062AFCD802F0070104
:104DC00080F8301070BD1E2BFCD880F82C5070BDC0
:104DD000B3F5B77FFBD2C2F30801818670BD0B2B00
:104DE000FCD802F00F0180F8381070BDB2F5805F7A
:104DF000FBD2C2F30B01818770BD00002DE9F041A9
:104E000004460F46154600F0B3FB244804EB44016A
:104E100000EBC104E16A01F0030002280CD0A06A93
:104E2000626A801A401E002801DA226A1044854214
:104E300002DD89072DD005466DB34FF00008A06A4A
:104E4000616A461A761E002E01DA206A0644D4E909
:104E50000801411AB14201DC616A461AAE4200DB28
:104E60002E46616AE069324608443946FBF7A3F9E9
:104E7000B0443744AD1B606A30446062606A216AA6
:104E8000884201D100206062002DD8D14046BDE8A3
:104E9000F0810020FBE70020F9E70000BC010010D2
:104EA0002DE9F04198B080460C46164603A81390B1
:104EB0004020149000271597CDF85C80169714F8C1
:104EC000011B39B1252917D013A800F02BFC169827
:104ED0000028F4DA169800280ADD159820B103A9F5
:104EE0004046159AFFF78AFFDDE915100844169031
:104EF000169818B0BDE8F08100212278232A1CD032
:104F00002B2A16D02D2A0CD0302A0ED0002025783E
:104F1000A5F130020A2A14D3002322782E2A17D0B2
:104F200023E041F00101641CE7E741F00201641C49
:104F3000E3E741F00401641CDFE741F00801641C71
:104F4000DBE7641C00EB800005EB40003038DEE757
:104F5000641C2578A5F130020A2A06D2641C03EBF2
:104F6000830205EB4203303BF3E76C2D0DD0682D37
:104F70000BD0702D4ED00BDC252D58D0582D2FD0B6
:104F8000632D0CD0642D56D112E014F8015BECE7D0
:104F9000732D31D0752D17D0782D4CD120E030688D
:104FA000011D31600078C1B213A800F0BBFB42E0E4
:104FB0003268151D35601568CDE900010A222946C1
:104FC00013A800F0D6FA36E03268151D3560156872
:104FD000CDE900010A22294613A800F035FB2AE09A
:104FE0003268151D35601568CDE90001102229468B
:104FF00013A800F029FB1EE03068011D3160056830
:1050000015F8011BB9B113A800F08CFB1698002805
:10501000F6DA10E03068011D316001680820CDE942
:1050200000070346102213A800F00EFB03E0252121
:1050300013A800F077FB641C49E7012904D04168FC
:1050400001F00D0141607047416841F0020141608B
:1050500070470000002141608160034A42610722DD
:105060000260C1600161704740420F0070B50546A3
:105070000C461548854204D101214805FBF742FB47
:105080000EE01248854204D101210015FBF73AFBDE
:1050900006E00F48854216D101210805FBF732FBD7
:1050A000A088218922880843218A1143084380B2BD
:1050B0002860207B00F00F00686028466169BDE829
:1050C000704008F0EFBC70BD008008400000034055
:1050D00000C00A408160704710B504462046FBF7C7
:1050E0007EFC0249C4F8201110BD0000ED560100FD
:1050F000074902780A7042784A7082788A70C278CA
:10510000CA7002790A7140794871084608F0B6BC45
:105110002003001030B5002803D021B1034600243D
:1051200007E0002030BD002030BD03F8015B491CC2
:10513000641C23B119B10D780DB19442F5D32BB194
:1051400021B19442F0D20021197030BD002030BD51
:10515000002201E0401C521C18B103780BB18A42B6
:10516000F8D310467047FBF73ABC10B50C2101206C
:10517000FBF75CF8044624B12046FFF7F4FF204615
:1051800010BD002010BD0000F0B57F4DD5F8040122
:105190004FF00002C1057D4853D4D5F80C11C90762
:1051A00007D0D5F8A011490627D40260426082607A
:1051B000A0E0D5F80411764BC9061AD0D5F8041131
:1051C00001F01F01B3FBF1F10160D5F8A841E4063D
:1051D00011D0D5F8A84104F01F04B3FBF4F34360E9
:1051E000D5F8003103F001035B1CB1FBF3F18160E2
:1051F00080E00021E8E70023F1E7D5F80411654BD2
:10520000C9061AD0D5F8041101F01F01B3FBF1F162
:105210000160D5F8A841E40611D0D5F8A84104F002
:105220001F04B3FBF4F34360D5F8003103F001032E
:105230005B1CB1FBF3F181605CE00021E8E7002337
:10524000F1E7D5F88810C90503D402604260826096
:1052500050E0D5F80C11C90707D0D5F8A0114906C0
:1052600028D402604260826044E055F8881F01F053
:105270001F035B1CE96F01F01F01D5F8204104F00A
:105280001F04AE6F883D06F00106761C71B1404FD9
:105290005F43B7FBF1F1016054B13D4F7B43B3FB7A
:1052A000F4F34360B1FBF6F1816023E00021F2E703
:1052B0000023F6E755F8881F01F01F035B1CE96F18
:1052C00001F01F01D5F8204104F01F04AE6F883DA6
:1052D00006F00106761CE1B12E4F5F43B7FBF1F1FA
:1052E0000160C4B12B4F7B43B3FBF4F34360B1FBCC
:1052F000F6F18160D5F80811C90528D5D5F808114F
:1053000011F01F0109D0042909D0062907D0C26075
:10531000F0BD0021E4E70023E8E7C260F0BD90356E
:1053200055F8081C01F01F01491CAA6F02F01F026A
:10533000EB6FDB0705D0174B5943B1FBF2F1C160AE
:10534000F0BD134B5943B1FBF2F1C160F0BDD5F88C
:105350000811890515D5D5F80C11C90708D0D5F85D
:10536000A8100C4A01F01F01491C5143C160F0BD57
:10537000D5F88810064A01F01F01491C5143C1604D
:10538000F0BDC260F0BD000000C00F400000001082
:10539000001BB7008096980010B502F091FB2348DF
:1053A0002021C0F8A011D0F8A0114906FBD5012298
:1053B0008030C0F88C20092141600260AA24C460BA
:1053C0005523C3608038D0F888104905FBD52321C8
:1053D000A03041600260C460C360A038D0F8A8105B
:1053E0004905FBD58C3040F20111816740F2012163
:1053F000C16742670221C0F82811C0F81C110C498E
:1054000081634FF48071C0F83C11D0F8241141F051
:105410000301C0F8241145F23A0140F88C1C0549FB
:1054200000200860BDE81040FFF7AEBE00C00F408E
:10543000DE87280408ED00E010B5054C6068002800
:1054400003D10448606011F065FF606810BD000082
:10545000B00300109C9900107047000010B504467E
:105460002046FFF739FE0448C4F824010348E060F1
:105470000348C4F8280110BDA5830100E1820100A2
:10548000F983010010B54FF4C8710120FAF7CEFE80
:10549000044624B12046FFF7E1FF204610BD00205E
:1054A00010BD4FF08041012804D0087820F00100A1
:1054B00008707047087840F00100087000F00EB8DE
:1054C0004FF08041012804D0087820F001000870D6
:1054D0007047087840F001000870704700B572B658
:1054E00000F002F862B600BDAA21480701725521FA
:1054F0000172704700F01EB84FF08042002808D0BB
:10550000012805D1012910D0107820F00200107078
:105510007047012904D0107820F0100010707047F7
:10552000107840F0100010707047107840F00200C2
:1055300010707047C008AFF3008000214A1EFF289A
:1055400002D2FF20114605E0B0F1807F02D36FF058
:105550007F4011464FF0804250600846704700B5CA
:10556000FFF7E8FF02460120FFF79BFF104600BD52
:1055700070472DE9FC5F8046DDE90C470E469246F8
:105580009946C6F1000B002E01DA584600E030467D
:10559000012502E0B0FBFAF06D1C5045FAD2A94596
:1055A00000D94D4624B1002E01DB780700D5641EDA
:1055B000B80702D5B9F1000F10D0F8070ED144B9E1
:1055C0000CE02021404600F0ADF8D8F80C0000288F
:1055D00038DB1CB12046641EA842F2D8002E09DA3E
:1055E0005E462D21404600F09DF8D8F80C000028BA
:1055F00028DB09E0780707D52B21404600F092F818
:10560000D8F80C0000281DDB07F00300022811D198
:10561000B9F1000F0ED144B90CE03021404600F042
:1056200081F8D8F80C0000280CDB1CB12046641E61
:10563000A842F2D8CDE900474B4652463146404693
:1056400000F002F8BDE8FC9F2DE9F84F8246DDE945
:105650000A4B88461746994601254046012602E036
:10566000B0FBF7F0761CB842FAD2B14500D94E46ED
:105670005FEACB701BD1D4B15FEA8B7002D5B9F170
:10568000000F02D0202000900AE03020009007E0B8
:105690005046009900F046F8DAF80C0000282EDB9E
:1056A0002CB12046641EB042F2D800E07D43B8FB26
:1056B000F5F0B84201D3012000E000204946A9F1ED
:1056C0000109012901DD012100E000210843EDD19C
:1056D000DFF84C90B8FBF5F000FB158819F80010C6
:1056E000504600F01FF8DAF80C00002803DBB5FB89
:1056F000F7F5002DEED15FEACB7000D04CB9BDE8D4
:10570000F88F2021504600F00DF8DAF80C00002840
:10571000F5DB002CF3D02046641EB042F1D8EEE752
:10572000D09C010010B50446A0686368421C9342F7
:1057300005DB23681954A260E068401CE060D4E9EE
:105740000102824209D121682069FFF757FBA16855
:10575000884203D04FF0FF30E06010BD0020A06011
:1057600010BD02E008C8121F08C1002AFAD1704714
:105770007047002001E001C1121F002AFBD17047D1
:105780002DE9F04705460E46174605F164008046B0
:1057900008F03AFB18B32878D5F8A81005F036FEC3
:1057A00004464FF0FF39ECB16660204608F09EF9E0
:1057B0002772AC222146404608F010FBA0B1002021
:1057C000606004F13400054608F0F4F9284608F05A
:1057D000F7FA204605F066FF4846BDE8F0876FF00F
:1057E0000500FAE74846F8E7D5F8A8301BB10022D3
:1057F0001146284698470020EFE7000030B50446E0
:105800000020114A00EB400352F833302BB1401C0A
:105810000428F7DB4FF0FF3030BD00EB400342F8C7
:10582000334002EBC3020025556015815581237872
:10583000102B05D001219181D5811561556130BDB5
:105840000029F8D00121F6E7A875001010B501F085
:1058500031FEBDE810400022024941F2883008F0D4
:1058600001BC00004D58000005F05ABC10B50446BC
:10587000206890F9081011F1090F01DA217116E082
:10588000FA212171436893B1007800F0F0001028EC
:1058900007D040280BD11846A16807F0F4FD20710D
:1058A00005E0A2891846A16808F0C2FD20712068B1
:1058B000BDE810400C3008F055BB00002DE9F04168
:1058C0000446002C0ED02078102817D066A340F292
:1058D000E9226EA175A005F023FC0020002000BF86
:1058E000AFF3008060A34FF43A727AA16FA005F085
:1058F00017FC0020002000BFAFF300806078042870
:105900000BD059A340F2EA2276A168A005F008FC6A
:105910000020002000BFAFF30080606800284CD05A
:10592000D4F8A410002954D00D7A05F0010705F031
:105930000208032D59D0002616B1002108F076FD8B
:105940006068017C012952D0390006D000210AF09C
:105950007BFE0021606808F00CFD5FEA080003D0C0
:10596000002160680BF04EF846B104220021606807
:105970000AF094F80021606809F062F8032D3AD02B
:105980004246394660680BF040F8002837D060681E
:10599000017C01295BD05C490BF034F804225B499F
:1059A00060680AF07BF85A49606809F049F82146B6
:1059B0006068BDE8F04108F039BD2BA340F2EB224E
:1059C00054A13AA005F0ACFB0020002000BFAFF3CB
:1059D000008025A34FF43B7253A134A005F0A0FB37
:1059E0000020002000BFAFF300800126A4E70021C3
:1059F00008F0BFFCC2E7606808F09EFDC5E7D4F878
:105A0000A41000200871C4F8A4006070606036B172
:105A1000D4F8A8301BB1002204212046984737B1A2
:105A2000D4F8A8301BB10022114620469847B8F19F
:105A3000000F06D0D4F8A8301BB100220221204666
:105A4000984704F10C00BDE8F04108F08BBA06A3BA
:105A500040F225323BA115A005F062FB002000209A
:105A600000BFAFF3008000004C5749505C6C776971
:105A7000702D312E342E305C7372635C6170695C02
:105A80006170695F6D73672E6300000074686973ED
:105A900020697320666F7220746370206E65746372
:105AA0006F6E6E73206F6E6C7900000041737365CA
:105AB0007274696F6E2022257322206661696C659D
:105AC00064206174206C696E6520256420696E20F5
:105AD00025730A00696E76616C696420636F6E6E6F
