:020000040000FA
:1000000010FA0010F90000000101000003010000D7
:100010000501000007010000090100009EF3FFEF49
:100020000000000000000000000000000B010000C4
:100030000D01000000000000910300003D320000AF
:100040001301000013010000130100001301000060
:100050001301000085570000130100001301000088
:100060001301000013010000130100001301000040
:100070001301000000000000130100001301000044
:10008000130100000D5000001301000013010000D7
:100090001301000013010000130100001301000010
:1000A0001301000013010000130100001301000000
:1000B000DD0F000013010000130100001301000018
:1000C00013010000130100001301000013010000E0
:1000D00013010000130100001301000013010000D0
:1000E00013010000DFF80CD000F0CEF80048004704
:1000F00061BE000010FA001006488047064800471D
:10010000FEE7FEE7FEE7FEE7FEE7FEE7FEE7FEE7C7
:10011000FEE7FEE779560000E500000072B6704782
:1001200062B67047EFF3108072B6704780F31088A4
:10013000704730BF704720BF7047B0FA80F07047FB
:1001400090FAA0F0B0FA80F0704790FAA0F07047F3
:10015000002070472DE9F05F0546002092469B463F
:1001600088460646814640241BE0284641464746CD
:10017000224600F078F853465A46C01A914110D3EF
:1001800011461846224600F05FF82D1A67EB010869
:100190004F4622460120002100F056F817EB0009D7
:1001A0004E41201EA4F10104DFDC484631462A46B8
:1001B0004346BDE8F09F40EA01039B0703D009E0F6
:1001C00008C9121F08C0042AFAD203E011F8013B43
:1001D00000F8013B521EF9D27047D2B201E000F89C
:1001E000012B491EFBD270470022F6E710B51346DB
:1001F0000A4604461946FFF7F0FF204610BD10B529
:10020000002200E0521C835C8C5CA34201D1002BD5
:10021000F8D1D8B2E1B2401A10BD034611F8012B53
:1002200000F8012B002AF9D11846704710B5484351
:1002300004460BF04DFE002805D00021002C02D012
:10024000641E0155FAE710BD202A04DB203A00FAAB
:1002500002F1002070479140C2F1200320FA03F31D
:10026000194390407047202A04DB203A21FA02F01B
:100270000021704721FA02F3D040C2F120029140E0
:100280000843194670470000064C074D06E0E06839
:1002900040F0010394E8070098471034AC42F6D3CD
:1002A000FFF724FFD8D20100F8D2010001238B40D0
:1002B000012A0BD0016811F0E06F03D0016821F032
:1002C000E06101600168994301607047016819436A
:1002D0000160704700EB8100008AC0F30B1070478B
:1002E000026822F0E0620260026842EA0161016095
:1002F000704700F000BB704714F066BFFFFFFFFFC0
:1003000070B58C1810F8015B15F0070301D110F8D7
:10031000013B2A1106D110F8012B03E010F8016B04
:1003200001F8016B5B1EF9D12B0705D40023521E87
:100330000DD401F8013BFAE710F8013BCB1A921CEF
:1003400003E013F8015B01F8015B521EF9D5A142ED
:10035000D8D3002070BD0000224C4FF6FF752560F9
:100360004FF0000484F309881F4C4FF001052570FD
:100370001E4C4FF08055256062B6FEE71B484FF0DB
:1003800080510160704719484FF0805101607047FB
:1003900072B6EFF3098050B11EF0100F08BF20EDC8
:1003A000108A734620E9F80F11490968086000B502
:1003B000104880475DF804EB0F4810490A78027036
:1003C0000B480F490A6802601068B0E8F80F9E46B3
:1003D0001EF0100F08BFB0EC108A80F3098862B6D7
:1003E0007047000022ED00E05801001004ED00E02D
:1003F000E0010010552C0000720100107301001084
:10040000E401001000EB81000069002A02D000F036
:10041000004001E000F0804008B10120704700205A
:10042000704770B505460C460121080300F0F6F848
:10043000002028604FF40016012000F001F9C4EB01
:10044000441101EB40004900B0FBF1F0401E46EAC8
:100450000020286070BD10B50C210120FFF7E6FEDA
:10046000044624B12046FFF744FF204610BD00207B
:1004700010BD00007FB5FFF755FE054600F058F9A6
:1004800017F088F82E480CF01DF92E4A802304211D
:10049000A2F1C00015F026FD17F00EF82A4A8023BD
:1004A0000D21A2F1C00015F039FB284A80230E214E
:1004B000A2F1C00017F00EFA254AA0230A21A2F1EA
:1004C000C00015F0EFF8234AA0230B21A2F1C000D1
:1004D00016F048FF07220821062016F019FA052118
:1004E000084616F07DFA1C4A8021A2F1C0040C23B4
:1004F000CDE90221CDE900434B00A2F59862042129
:10050000A2F1C00017F020FBA4F5546280230F2154
:10051000A2F1C00015F0AEF804F56072802314213A
:10052000A2F1C0001AF0E8F90CA00CF0CBF800F032
:1005300011F904B02846BDE87040FFF7F7BD000090
:10054000BCD0010000220010C02400108027001041
:10055000002D001040300010403800104D61696ED1
:100560005F50726F636573730A0000000EB500255B
:10057000029500F051F800F043F814490968B0FB07
:10058000F1F002F073FE02A801F0B6FF00F0B2F83D
:10059000FFF7B1FEFFF76EFF0D4F02AE0023CDE96E
:1005A00000560F221946184602F0C0FB3D70002489
:1005B0000022CDE9005664231146104602F0B6FB36
:1005C000641CE4B2112CF3D3E7E7000070CD010006
:1005D0001800001010B5084C2068002809D1074801
:1005E000206005F099F80146206810B109B113F0B8
:1005F000F3F8206810BD00002004001084B2001041
:10060000002000F01DB8FFF789BD292803D2103063
:10061000C0B200F0B7B8704770470000074A012920
:1006200006D0002903D152F8C41F814311607047DE
:1006300052F8C41F014311607047000000C00F4012
:10064000002806D0012807D0022808D0032809D0A6
:10065000FEE706480068704705480068704705488F
:1006600000687047044800687047000000000010F0
:1006700004000010080000100C00001010B5044623
:10068000204604F099FE0448C4F800010348E060E5
:100690000348C4F8040110BDC952010055520100BD
:1006A0000553010010B54FF4AA710120FFF7BEFDFC
:1006B000044624B12046FFF7E1FF204610BD00208C
:1006C00010BD000003490969884201D9401A7047EA
:1006D000002070472801001010B5FFF723FD0449E2
:1006E0004C69FFF723FD2046BDE81040FFF7EABF45
:1006F0002801001010B5FFF7EFFF0446FFF712FDC9
:10070000034A00215161FFF711FD204610BD000092
:100710002801001010B5FFF705FD04498C69FFF7AB
:1007200005FD2046BDE81040FFF7CCBF28010010B2
:1007300010B5074C2088401C20806088002802D11A
:1007400000F0C4F8A0606088401C608010BD00000C
:100750002801001010B50A4C6088401E80B26080ED
:1007600000280CD100F0B2F8E060A168401A61697D
:10077000814200D26061A169814200D2A06110BDB6
:100780002801001070B53A4C4FF0E025102849D2EE
:10079000DFE800F06C6C6C6C0818286C6C6C6C6C8E
:1007A0006C6C6C38FFF7BEFC0546FFF7C1FF216893
:1007B00041F480312160FFF7CDFF2846BDE870404D
:1007C000FFF7B4BCFFF7AEFC0546FFF7B1FF2168A9
:1007D00041F400312160FFF7BDFF2846BDE87040BD
:1007E000FFF7A4BCFFF79EFC0546FFF7A1FF2168B9
:1007F00041F480212160FFF7ADFF2846BDE870403D
:10080000FFF794BCFFF78EFC0446FFF791FF2969C0
:1008100041F001012961FFF79DFF2046BDE87040CE
:10082000FFF784BC6968491C102202EB4111C9B270
:1008300088421BD21038C11700EBD161C1F34715B4
:1008400021F01F01441AFFF76DFC0646FFF770FF09
:100850000121A140AA0002F1E022C2F80011FFF735
:1008600079FF3046BDE87040FFF760BC70BD000006
:1008700024ED00E070B505460C46002C18D0CDB133
:100880001021284604F0D4FD102816D2FFF74AFCA8
:100890000646FFF74DFF102229460A4804F0AAFD3C
:1008A000FFF758FF3046FFF741FC0020208070BD65
:1008B00000F00AF80A20208070BD4FF47A70208082
:1008C00070BD000098700010FEE70000014840680D
:1008D00070470000001000E0704710B50C210120A7
:1008E000FFF7A4FC014621B10846FFF7F5FF0846D3
:1008F00010BD002010BD704770B5164C0020A060E0
:10090000FFF79EFE1449B0FBF1F1491E6160134BE5
:100910004FF47A72B0FBF3F1C1EB0111B1FBF2F5C8
:100920006D1CB0FBF3F101EBC106C6EB8111B1FB0D
:10093000F2F1491C45EA0121B0FBF3F0C0EBC00025
:1009400000EB8000B0FBF2F0401C41EA0040206068
:1009500070BD000090002000D8B8050040420F0094
:100960002DE9F04FDDF8249015461646384C4FF02F
:10097000A057276001F03F07044667F39F144FF428
:100980000017C7F884404FF0080A4FF0090B4FF0EA
:100990000A0E002B07D0012B08D0C7F880E084078F
:1009A0003CD1002438E0C7F880A0FAE7C7F880B04F
:1009B000C40733D1F5E79BB3012B3AD0D7F88CC0ED
:1009C000C6F800C0361D001D80B2DFF884C0ACF14F
:1009D000080CDCF800804FEA98685FEAC878F8D025
:1009E000DFF86CC04FF08068CCF80080402812D34C
:1009F000A9F1010C64450ED20020491C89B201F016
:100A00003F08844668F39F1CC7F884C0CBB1012B14
:100A10001AD0C7F880E0641C4C45CCD3BDE8F08FF9
:100A2000FFE7D7F88CC082F800C0521C401C80B28F
:100A3000CBE7D7F88CC0A5F800C0AD1C801C80B2F5
:100A4000C3E7C7F880A0E6E7C7F880B0E3E7000097
:100A5000E80F20002DE9F04FDDF8248015461646FA
:100A6000DFF80CA14FF0A054CAF80040012B02D0CF
:100A7000022B03D005E0C40703D0FEE7840700D0B3
:100A8000FEE74FF4001700F03F04C7F8844000244D
:100A9000DFF8DCC04FF0805BACF1080C64E0E3B140
:100AA000012B26D04FF00509C7F88090D6F80090AA
:100AB000C7F88890361D001D80B2DCF800904FEA20
:100AC00099695FEAC979F8D04FF08069CAF8009057
:100AD00040281AD34FF0010919E04FF00309C7F875
:100AE000809092F80090C7F88890521C401C80B209
:100AF000E3E74FF00409C7F88090B5F80090C7F815
:100B00008890AD1C801C80B2D7E74FF00009A8F197
:100B1000010E744502D14FF0010E01E04FF0000EBE
:100B200059EA0E0914D0CAF800B04FEA81694FEAB9
:100B30001959C7F884904FF00609C7F88090DCF87F
:100B400000904FEA19795FEAC979F8D0CAF800B085
:100B5000402808D30020491C89B28146C7F88490F8
:100B60003E2900D90021641C444598D3BDE8F08F8C
:100B7000E80F2000F8B506460F4611480468002526
:100B8000104B07E0009502E00098401C0090009890
:100B90009842F9D3002000F017F80228F2D0E000C4
:100BA00000F10050026C761EC6F30A011FB141F03D
:100BB0004041416402E041F0004141641046F8BD0B
:100BC0002841082040420F00104A002809D002F5B1
:100BD0008872916850681268521C814208D10020C6
:100BE000704702F59272916850681268521CF4E7DF
:100BF00021B9521E904201D102207047401C81420F
:100C000001D10220704701207047000000400820F9
:100C100003480068C00000F1005000687047000001
:100C20001841082004480068C00000F10050008C02
:100C3000C0F30A00401C70471841082003480068B0
:100C4000C00000F10050006A704700001841082001
:100C500003480068800000F10050806D704700007C
:100C6000284108202DE9FC4105462C22294643480D
:100C7000FFF7A1FA4248016841F08041016001217B
:100C80000007FFF7CBFC3F4C4FF44F40206078202B
:100C9000C4F800016426019602E0019A521E0192F6
:100CA00001980028F9D10220206030206060A889D6
:100CB00060610020FFF7C4FC3349B0FBF1F0009005
:100CC00000270197314A07E001980099105C88429B
:100CD00005DA019B5B1C019301980F28F4D301985E
:100CE0000F2802D30020BDE8FC810198401C019030
:100CF00001984FF4004100F00F0041EA80002062AB
:100D0000206A20F40040206243F20F70206112201C
:100D1000E0604001C4F800010811A061019602E002
:100D20000198401E019001980028F9D1A761296916
:100D300059B128468847012805D000F093F80028CB
:100D400003DA0020CFE70020CDE7A8680EF0B6F95F
:100D50000EF0CEF812F05CFA2620C4F80002012151
:100D6000FF2000F017F80A494FF6FF70086000F006
:100D700071F800F03FF80120B5E7000054040010BE
:100D8000C4C00F4000400820A0252600B6CB0100BB
:100D9000E84F0820054A012903D0116881431160FA
:100DA000704711680143116070470000E44F08204C
:100DB00030B50E4A00F01F00127902F01F0240EA1F
:100DC00002200B4A90620125556200204FF4A024B6
:100DD000536BDB0702D0401CA042F9D3A04200D1E4
:100DE0000D7000205062106B80B230BD54040010B2
:100DF000004008200548D0F8001141F00101C0F87A
:100E00000011016841F001010160704700400820B5
:100E1000094900280CD0486840F001004860D1F82A
:100E2000000140F48060C1F800011520886070471F
:100E30001220886070470000004008200449002804
:100E400002D0481588617047002088617047000013
:100E5000004008200248016841F00201016070472B
:100E60000041082038B50120009085026946012024
:100E7000FFF79EFF0446600703D51CA00BF022FC81
:100E800003E0BDB16D1E002DF0D104F4804104F4E7
:100E900080521B4851EA02030ED0436843F001031D
:100EA0004360D0F8003143F48063C0F8003115236B
:100EB000836009E0002038BD04F4005304F40065A9
:100EC0002B4301D01223836004F400430B4301D170
:100ED000A10403D54FF48071816105E004F4006141
:100EE0000A4301D000218161012038BD4450385FA0
:100EF00056414C49445F4C494E4B200A00000000CB
:100F0000004008200449D1F81801401C042800D1F1
:100F10000020C1F818017047004008200649D1F8A8
:100F20002801D1F82421401C521C904200D10020FD
:100F3000C1F8280170470000004008202DE9F04169
:100F4000456807681548D0F814807F1C4FF6FE707E
:100F50000740B7FBF8F6002F1DD01AE001DD44462C
:100F600000E03C46002C16D026B1A0B20021FFF7CD
:100F700001FE09E0A0B20121FFF7FCFD04E035F815
:100F8000021B20F8021BA41E002CF8D1761EFFF7CE
:100F9000C5FF002EE2DABDE8F08100000040082025
:100FA00010B50C4B00F01F001B7903F01F0340EA43
:100FB0000320094B9862D96200204FF4A024596B9A
:100FC000C90702D0401CA042F9D3A04201D10120A0
:100FD000107010BD54040010004008202DE9F047A7
:100FE000DFF86081DFF864910026574FA8F12C05E7
:100FF00009F1040A9CE0554808300460A00720D09D
:10100000FFF71CFE102101EAD041082202EA5052EB
:101010000A43042101EAD0511143C0F3C0621143D5
:10102000402202EA90520A43202101EA1061114352
:101030004FF4805202EA10200843E8B3296A01B154
:10104000884714F0300F1BD0FFF702FE4FF40071F9
:1010500001EA50414FF4807202EAD0420A438021F3
:1010600001EA505111434FF4806202EAD0420A4330
:101070004FF4006101EAD0401043296A01B188476A
:10108000200746D50120FFF79FFD00B3FFF7CAFDFB
:1010900000283EDDC11EFFF7D1FD2D4A104238D198
:1010A00038787A6800EB400008EB802000EB4202C1
:1010B000FFF7AEFD7B6800E00AE00B447B60B3F510
:1010C000C06F0DD37E60296A09B10420884720E0F3
:1010D00024F00204B5E730F8023B22F8023B891EF7
:1010E0000029F8DCFFF7AAFD400010D5AA6932B14B
:1010F0003878796800EB400008EB802090477E60EC
:101100003878401CC0B23870022800D33E70FFF718
:10111000F9FE600602D5E86900B18047E00402D517
:10112000A86A00B18047A00402D5686A00B1804770
:10113000D9F80040DAF8000004407FF45CAFBDE865
:10114000F08700008004001010000010E04F08201D
:101150000000901B10B50B48012101714FF4C061D4
:1011600081810949816000210160084901610849C4
:101170008161FFF777FD08B1002010BD6FF00E0010
:1011800010BD000048B2001010030010151200003E
:10119000951100000148006808F0D2B90C03001056
:1011A00010B5044601220021104603F0DDFC0122A7
:1011B0001146104603F0D8FC01220421104603F02A
:1011C000D3FC01220821104603F0CEFC01220921A4
:1011D000104603F0C9FC01220A21104603F0C4FCAA
:1011E00001220E21104603F0BFFC01220F21104600
:1011F00003F0BAFC01221021104603F0B5FC0122D5
:101200001121104603F0B0FC2046BDE81040FFF766
:10121000A1BF00000148006809F05EBE0C03001089
:1012200010B504462046FFF766FB0748C4F8A40043
:101230000648C4F8A8000648E06006482061064851
:1012400060610648A06110BD795701004157010057
:10125000D5590100115A0100715801005D58010073
:1012600010B5AC210120FEF7E1FF044624B1204671
:10127000FFF7D6FF204610BD002010BD10B50C466C
:1012800000F004F8002800D0C46110BD0146002021
:10129000062905D2DFE801F00305080B0E11084806
:1012A0007047074820307047054840307047044871
:1012B000603070470248803070470148A030704766
:1012C000008009200121C803FFF7A8B910B5FFF776
:1012D000DDFF08B1406910BD002010BD70B50C469F
:1012E0001546FFF7D3FF002803D01DB10168214345
:1012F000016070BD0168A143016070BD10B50C466E
:10130000FFF7C4FF002800D0846110BD00B591B084
:101310000DF06EFF0AF0AAFE0BF03AF90CF060FA3D
:1013200016A00BF0CFF9002104A80EF0E1F800217F
:10133000194811F031FE194810906FF07F400F905E
:10134000174804F045F818490022CDE90021154856
:1013500002900EAB0FAA10A914480CF0DDF9134847
:101360000CF050FA11480CF0AFFA1C20FFF74DF9C1
:101370000FA00BF0A7F911B000BD00005443502F8F
:10138000495020696E697469616C697A696E672E6B
:101390002E2E200D0A00000039570000C0A801CAF7
:1013A000840200106930010079940000E88D00107B
:1013B0005443502F495020696E697469616C697A91
:1013C00065642E200D0A000070B504460E46A06824
:1013D00001254278007805FA02F12A46FFF77EFFE0
:1013E000012E0AD0002E11D1A0684178007805FAAC
:1013F00001F1BDE87040FFF741BFA0684178007877
:1014000005FA01F1BDE87040FFF778BF70BD00003C
:101410000EB50B49002008600A4A012102A8CDE957
:1014200000108B0202F5806107A000F011F8BDF8F2
:101430000800A0F51C51103901D0FFF745FA0EBD88
:1014400044010010A87000104865617000000000A1
:101450002DE9F84F0646DDE90A950F4690461C46F1
:10146000FEF760FE8246FFF763F94B464246394677
:101470003046009400F00AF8FFF76CF95046FEF78A
:1014800055FE42F210702880BDE8F88F00980A607F
:101490001044401E48608A6002480268CA600B61BE
:1014A000016070474401001010B504462046FFF764
:1014B00022FA0548C4F804060448E06004482061A4
:1014C0000448C4F8080610BD116A0100D572010075
:1014D000C5720100C172010010B540F20C6101201B
:1014E000FEF7A4FE044624B12046FFF7DDFF2046A8
:1014F00010BD002010BD000010B504462046FFF7C7
:10150000FAF90149216210BD3573010010B524219B
:101510000120FEF78BFE044624B12046FFF7ECFFC6
:10152000204610BD002010BD00E0401E0028FCDC5D
:101530007047704770B5044600F088F830480025C1
:1015400005703048057030480570304805603048F7
:10155000056030480570304805703048016831B189
:101560002F48006801E0401E20C10028FBD12D4813
:10157000057002F0B3F902F055FA2B4805602B48CC
:101580000580204601F0D4FE2088002836D1204670
:1015900001F0DAFE2088002830D125480560254872
:1015A00005802548056025480580254805602548B3
:1015B0000580204602F05CFD208800281ED12046D0
:1015C00001F082FE2088002818D1204603F02CF973
:1015D0002088002812D1204602F060FC20880028D4
:1015E0000CD1204603F0B6F92088002806D101F07E
:1015F00051FEFFF79EFF14490120087070BD0000E6
:1016000050010010580100107A010010E001001094
:10161000E4010010720100107301001048CD0100B8
:101620004CCD0100A60100105C010010600100100B
:101630006C0100107001001074010010780100109E
:101640007C01001080010010590100100548064976
:101650000068096800EB8100044920F00700086079
:101660007047000048CD01004CCD0100E80100109A
:1016700010B52248007801283ED1FEF753FD0446FC
:101680001F49087840B1401EC0B2087048B12046DA
:10169000BDE81040FEF74ABD2046BDE81040FEF709
:1016A00045BD1848007820B12046BDE81040FEF73F
:1016B0003DBD02F009F914490870144900EB4000DF
:1016C00051F820001249086012490968884204D183
:1016D0002046BDE81040FEF729BD50F88C1F491C7C
:1016E00001600D480168491C0160FEF74CFE204670
:1016F000BDE81040FEF71ABD10BD000058010010F3
:10170000500100107A01001073010010588500107C
:10171000E4010010E00100109C0100102DE9F041EF
:1017200004460D46164617480078002804D042F6B5
:10173000E1603080BDE8F081FCB1FEF7F3FC0746C4
:10174000FEF7F6FF1048206065600025256265629F
:1017500084F82850E56204F1080001F085FF204676
:1017600001F0C0FE09490888401C0880FEF7F2FF1E
:101770003846FEF7DBFC3580DCE745F6C3503080A9
:10178000D8E70000500100104D555458700100106A
:101790002DE9F04F89B00646129D8A4690461C46B8
:1017A00061480078002805D046F2AE10288009B0C4
:1017B000BDE8F08F4EB1B8F1000F0AD0B8F5004F78
:1017C00007D045F625602880F1E745F6C35028800C
:1017D000EDE756493068884203D045F6C45028806A
:1017E000E5E7FEF79FFC8346FEF7A2FF96F8281078
:1017F000DFF83C910027A9B1706AD9F80020904227
:101800002ED1FF2923D0491C86F828100CB1F06A8C
:101810002060FEF79FFF5846FEF788FC45F2827075
:101820002880C4E7D9F800007062012086F82800FB
:101830000CB1F06A20603146D9F8000001F064FE76
:10184000FEF788FF5846FEF771FC2F80AFE7FEF7E2
:1018500081FF5846FEF76AFC45F284702880A6E7AF
:101860005FEA08410AD5FEF775FF5846FEF75EFCB1
:1018700004B1276046F2B010288098E72D49097816
:1018800051B1FEF767FF5846FEF750FC04B12760E0
:1018900046F6635028808AE790F8373092F8371080
:1018A0008B4201D902F072FB53460422314601A853
:1018B00001F04AFEFEF74EFF5846FEF737FC00F0F7
:1018C000E9FAFEF72FFC0646FEF732FFD9F80020B2
:1018D00092F8351071B1012911D002291CD00329C9
:1018E00014D046F62E602880FEF734FF3046FEF70F
:1018F0001DFC5CE70CB1906C20602F80F4E70CB10C
:10190000906C206046F2A9102880EDE704B12760B2
:1019100047F2D9202880E7E70CB1906C206045F6AB
:10192000C2502880E0E70000500100104D55545887
:10193000E00100107A0100102DE9FC5F04468946A1
:10194000154654480078002804D046F20E2028801E
:10195000BDE8FC9F4CB1B9F1000F0AD0B9F5004FBA
:1019600007D045F625602880F2E745F6C350288069
:10197000EEE749492068884203D045F6C4502880E4
:10198000E6E7FEF7CFFB0190FEF7D2FEDFF80CA1F1
:10199000606ADAF80010884208D0FEF7DBFE019892
:1019A000FEF7C4FB45F281702880D1E7FEF78EFF79
:1019B0008046C4F82C8094F82800401EC0B284F8F9
:1019C000280040B1FEF7C6FE0198FEF7AFFB45F2D6
:1019D00083702880BCE72146DAF8000001F0A9FDF9
:1019E00004F108074FF0000B3868E8B3DAF800009C
:1019F00090F8371090F8382091421DD001F088FD02
:101A0000DAF8001091F83820824200D210460646DB
:101A100091F83700B0420FD2084602F067F8DAF8C2
:101A2000000080F83760304601F064FFDAF800000B
:101A300002F03EF81A48067038688668666201202F
:101A400084F828002146304601F05EFD00231A4646
:101A500031462046CDF8008001F0C8FEFEF77AFE40
:101A60000198FEF763FB00E007E05FEA094001D45C
:101A700000F010FAA5F800B06AE7C4F824B084F8C2
:101A800028B0FEF767FE0198FEF750FBA5F800B0FE
:101A90005EE70000500100104D555458E001001061
:101AA000720100102DE9F04104460F4616461D460E
:101AB00019480078002804D042F6E1602880BDE88B
:101AC000F08104B31EB3FEF72DFB8046FEF730FE17
:101AD000124820606760314604F1200001F0B2FC3A
:101AE00004F1080001F0C0FD204601F035FF0C496B
:101AF0000888401C0880FEF72DFE4046FEF716FBC6
:101B000000202880DBE745F6C3502880D7E746F25F
:101B100094502880D3E700005001001051554555DE
:101B2000780100102DE9F05F07468A4614463A48CE
:101B30000078002805D043F2C92020800020BDE8AD
:101B4000F09F47B135493868884209D045F6C450FE
:101B500020800020F3E745F6C35020800020EEE708
:101B6000FEF7E0FA8346FEF7E3FD07F108060025DD
:101B7000DFF8AC80A946BAF1000F0CD0BAF1010F22
:101B800027D0FEF7E7FD5846FEF7D0FA45F6256068
:101B900020802846D3E7306840B1FEF7DBFD584689
:101BA000FEF7C4FA47F25F102080F2E7384601F0F2
:101BB000E5FEB8F80000401EA8F80000384601F025
:101BC000B1FEFEF7C7FD5846FEF7B0FAA4F8009044
:101BD000DFE7FEF77BFE824606E081685246384624
:101BE00001F0A8FD6D1CADB230680028F5D1384673
:101BF00001F0C4FEB8F80000401EA8F80000384606
:101C000001F090FEFEF7A6FD5846FEF78FFA00F0B1
:101C100041F9A4F80090BCE750010010515545551A
:101C20007801001070B505460C461548007800286C
:101C300004D04FF46C502080002070BD45B1114994
:101C40002868884209D045F6C4502080002070BD25
:101C500045F6C3502080002070BDFEF763FA0646AB
:101C6000FEF766FD05F1200001F0A4FB0546FEF736
:101C700071FD3046FEF75AFA00202080284670BDDC
:101C800050010010515545552DE9F04F89B00746D8
:101C9000DDE912548A4691461E465A4800780028CB
:101CA00006D046F2AE102080002009B0BDE8F08FCB
:101CB0005FB17EB1B9F1000F11D0B9F5004F0ED070
:101CC00045F6256020800020EFE745F6C3502080D0
:101CD0000020EAE746F2D52020800020E5E74A49C7
:101CE0003868884204D045F6C45020800020DCE7E4
:101CF0004FF000080DB1C5F80080FEF713FA009010
:101D0000FEF716FD23462A46314607F1200001F072
:101D10006DFB8346208860B15FEA094010D5FEF76D
:101D200019FD0098FEF702FA46F2B010208000205C
:101D3000BBE7FEF70FFD0098FEF7F8F95846B4E749
:101D40003248007848B1FEF705FD0098FEF7EEF93D
:101D500046F6635020800020A7E753460522394607
:101D600001A801F0F1FBFEF7F5FC0098FEF7DEF9A3
:101D700000F090F8FEF7D6F98146FEF7D9FC244A28
:101D8000116891F8350090B101281BD002282ED09F
:101D9000032822D00027A6F8008046F62E60208077
:101DA000FEF7D8FC4846FEF7C1F938467DE78F6D4F
:101DB000B1F85C00308015B11068806C2860A4F820
:101DC0000080EDE70027A6F8008015B11068806C50
:101DD000286046F2A9102080E2E70027A6F80080DC
:101DE0000DB1C5F8008047F2D9202080D8E7002740
:101DF000A6F8008015B11068806C286045F6C250C6
:101E00002080CDE750010010515545557A01001052
:101E1000E00100102DE9FC410546089C0F46904664
:101E20001E46002D0FD033464FF40070B6F5004F1C
:101E300017D00DDCABB1102B13D0834211D0B3F50A
:101E4000047F16D10DE045F6C3502080BDE8FC812B
:101E5000A3F50043103B04D0B3F5F87F01D08342D3
:101E600007D10B492868884207D045F6C450208026
:101E7000ECE745F625602080E8E7FEF727FDCDE991
:101E80000004334642463946284601F08DFDDDE721
:101E90005155455510B517480078002829D11648E6
:101EA0000078002825D1FEF73DF9044601F00CFD2D
:101EB00012490870124900EB400051F82000114906
:101EC000086011490968884204D12046BDE81040E5
:101ED000FEF72CB950F88C1F491C01600B480168B3
:101EE000491C0160FEF74AFA2046FEF71FF9BFF3CE
:101EF0006F8F10BD500100107A01001073010010A7
:101F000058850010E4010010E00100109C01001051
:101F100070B5044613480078002803D046F6625096
:101F2000208070BD10480078012803D045F68960F4
:101F3000208070BD0D4D2878FA2803D345F2092082
:101F4000208070BDFEF7EEF80646FEF7F1FB28781C
:101F5000401C2870FEF7FEFB3046FEF7E7F8002035
:101F6000208070BD50010010580100107A0100104F
:101F700070B5044619480078002803D046F665502D
:101F8000208070BD16480078012803D045F689608E
:101F9000208070BD134D287890B1FEF7C3F8064637
:101FA000FEF7C6FB2878401EC0B2287060B1FEF76D
:101FB000D1FB3046FEF7BAF846F66350208070BD7C
:101FC00046F66450208070BDFEF7C4FB3046FEF735
:101FD000ADF8FFF75FFF0020208070BD50010010BA
:101FE000580100107A0100102DE9F041044688469E
:101FF00016461D4615480078002804D042F6E160D8
:102000002880BDE8F081ECB1FEF78CF80746FEF7BA
:102010008FFB0F482060266200266662C4F80480A9
:1020200004F1080001F020FB204601F099FD094968
:102030000888401C0880FEF78DFB3846FEF776F8CE
:102040002E80DEE745F6C3502880DAE75001001005
:1020500053454D41800100102DE9F05F07468A4647
:1020600014463A480078002805D043F2C920208061
:102070000020BDE8F09F47B135493868884209D053
:1020800045F6C45020800020F3E745F6C350208079
:102090000020EEE7FEF746F88346FEF749FB07F11E
:1020A00008060025DFF8AC80A946BAF1000F0CD075
:1020B000BAF1010F27D0FEF74DFB5846FEF736F870
:1020C00045F6256020802846D3E7306840B1FEF70A
:1020D00041FB5846FEF72AF847F25F102080F2E7EE
:1020E000384601F04FFDB8F80000401EA8F8000087
:1020F000384601F025FDFEF72DFB5846FEF716F891
:10210000A4F80090DFE7FEF7E1FB824606E0816875
:102110005246384601F00EFB6D1CADB23068002807
:10212000F5D1384601F02EFDB8F80000401EA8F8A1
:102130000000384601F004FDFEF70CFB5846FDF7A1
:10214000F5FFFFF7A7FEA4F80090BCE750010010D0
:1021500053454D41800100102DE9F04788B00646F7
:10216000109D894690461C4650480078002806D0AD
:1021700046F2AE102880002008B0BDE8F08756B1C6
:10218000B8F1000F0CD0B8F5004F09D045F6256026
:1021900028800020F0E745F6C35028800020EBE7B8
:1021A00043493068884204D045F6C4502880002056
:1021B000E2E7FDF7B7FF8246FEF7BAFA306A00277A
:1021C00068B1401E30620CB1706A2060346AFEF75C
:1021D000C1FA5046FDF7AAFF2F802046CCE75FEA00
:1021E00008400CD504B12760346AFEF7B3FA5046B4
:1021F000FDF79CFF46F2B01028802046BCE72D4832
:10220000007858B104B12760FEF7A4FA5046FDF7F4
:102210008DFF46F6635028800020ADE74B4606222E
:102220003146684601F090F9FEF794FA5046FDF702
:102230007DFFFFF72FFEFDF775FF8046FEF778FA6A
:102240001D48016891F8350078B1012812D00228A4
:102250001DD0032815D046F62E602880FEF77AFAA6
:102260004046FDF763FF002086E70CB1886C2060D4
:102270002F8012E00CB1886C206046F2A9102880F3
:102280000BE004B1276047F2D920288005E00CB1AB
:10229000886C206045F6C2502880346AFEF75AFAEE
:1022A0004046FDF743FF204666E70000500100105E
:1022B00053454D417A010010E001001070B506460B
:1022C0000C461546002E0ED094B1B4F5007F0FD009
:1022D000B4F5004F0CD0B4F5024F09D045F6256097
:1022E0002880002070BD45F6C3502880002070BDB6
:1022F00009493068884204D045F6C450288000203F
:1023000070BDFEF7E3FA02462B4621463046BDE893
:10231000704001F04DBC000053454D412DE9F041A6
:1023200004460E46154618480078002804D046F6A4
:10233000C6502880BDE8F0813CB11449206888422D
:1023400007D045F6C4502880F4E745F6C3502880EE
:10235000F0E700202880FDF7E5FE0746FEF7E8F9E4
:10236000206A08B1266205E02046806848B147F23D
:102370005F102880FEF7EEF93846BDE8F041FDF722
:10238000D5BE2662F6E700005001001053454D41CE
:1023900070B5044616480078012803D045F68B60D6
:1023A000208070BD012613480088042803D845F614
:1023B0008C60208070BD104D287818B145F68A6079
:1023C000208070BD01F080FA0C4908700C4908703B
:1023D0000C4900EB400051F820000B4908600B4904
:1023E00008602E70FDF7B8FF43F69920208070BD7D
:1023F00059010010A40100105801001073010010D1
:102400007201001058850010E4010010E001001076
:102410002DE9F0410646FDF785FE0446FEF788F9F2
:102420002D48002505802D4805602D4805602D4864
:1024300005602D4805602D480581FEF78BF9204683
:10244000FDF774FEFDF76EFE0746FEF771F92848AA
:102450000468FEF77FF93846FDF768FE1BE0FDF7DC
:1024600061FE0746FEF764F97434E5632560256371
:10247000A561A582E5826562A562FEF727FA206262
:10248000743C2146A1F86C50D4F8B840FEF762F9CC
:102490003846FDF74BFE002CE1D1FDF743FE074621
:1024A000FEF746F913480468FEF754F93846FDF77D
:1024B0003DFE0CE0FDF736FE0746FEF739F92146F2
:1024C0008D85A469FEF746F93846FDF72FFE002CEE
:1024D000F0D13580BDE8F081860100109801001030
:1024E000AC010010D0010010540100104C85001008
:1024F000A001001074010010F8B504466946284890
:1025000000F092FBBDF8000008B12080F8BD6A46DB
:102510000021022000F0BEFBBDF8000008B12080C1
:10252000F8BDFDF7FFFD0746FEF702F91D4E002539
:102530003560FEF70FF93846FDF7F8FD00201A491F
:102540001A4A0B681768BB4203D908681268B0FBC7
:10255000F2F018B909680A20B1FBF0F06A460021D0
:1025600000F098FB69460E4800F0CEF9BDF8000077
:1025700008B12080F8BDFDF7D5FD0746FEF7D8F875
:102580000B4805600B49306808600B490120087052
:10259000FEF7E0F83846FDF7C9FD2580F8BD0000DC
:1025A000888800108801001070CD01005CCD01000A
:1025B000980100108C010010940100107047000079
:1025C0002DE9FF4F83B00446DDE91097DDE917855B
:1025D000139E934658480078002805D047F24A10C9
:1025E000288007B0BDE8F08F5CB1BBF1000F0CD0C4
:1025F0007FB15248006886420FD246F6306028808C
:10260000EFE747F2AD102880EBE747F24F10288044
:10261000E7E746F62F602880E3E71298B04203D33D
:1026200046F631602880DCE746F27320B9F1200FCE
:1026300001D32880D5E7B9F11F0F04D140498C425E
:1026400001D02880CDE7204601F022FD4FF0000A9E
:10265000A5F800A008F0010008F0020108430BD023
:102660005FEA887008D53846002103E0C0F800A072
:10267000001D491CB142F9D3129807EB800002906B
:10268000CDE900683A465846029B069900F094FA54
:10269000B84203D246F62C602880A2E7C4F828B0DE
:1026A0000699E1620499A16084F8379084F8389023
:1026B00020600298E0601698606067622664A4F863
:1026C0004480002004EB8001C1F878A0401CC0B217
:1026D0000028F7D004F16000149900F0B3FE204602
:1026E00000F034F8FDF71EFD0546FEF721F894F8DA
:1026F000370001F0FFF8204601F0DAF9204601F03A
:10270000A5FC10490888401C08800F480078012863
:1027100007D0FEF71FF807B02846BDE8F04FFDF7D9
:1027200005BDFEF717F82846FDF700FD07B0BDE828
:10273000F04FFFF7AFBB0000500100106CCD01005F
:102740008C840010A4010010580100107047000094
:102750002DE9F84F83460A9D894616461C46564881
:102760000078002805D046F2AE1028800020BDE891
:10277000F88F56B1B9F1000F0CD0B9F5004F09D060
:1027800045F6256028800020F1E746F2D520288014
:102790000020ECE74FF000080CB1C4F80080FDF712
:1027A000C1FC0090FDF7C4FFDFF810A1DAF80000CB
:1027B00060302B462246314600F018FE0746288836
:1027C00060B15FEA09401CD546F2B0102880FDF7E1
:1027D000C1FF0098FDF7AAFC0020C8E754B1FEF73E
:1027E00075F82168401ADAF8001008674A6F8242CB
:1027F00000D24867FDF7AEFF0098FDF797FC38461A
:10280000B5E72F48007848B1FDF7A4FF0098FDF721
:102810008DFC46F6635028800020A8E700215B4627
:102820000222084600F090FEFDF794FF0098FDF7A5
:102830007DFCFFF72FFBFDF775FC8146FDF778FF68
:10284000DAF8000090F8351099B1012929D0002755
:10285000A6F800801CB1DAF80000806C206047F216
:10286000D9202880FDF776FF4846FDF75FFC384603
:102870007DE7876DB0F85C0030807CB1DAF800004D
:10288000806C2060FEF722F80146DAF80000826CC6
:10289000891A0167426F8A4200D24167A5F8008019
:1028A000E0E70027A6F800800CB1C4F8008046F2EB
:1028B000A9102880D6E7000050010010E0010010A8
:1028C0007A0100102DE9FC410646089D0F4690460E
:1028D0001C46002C0DD0102C0BD0B4F5004F08D0A6
:1028E000A4F50040103804D045F625602880BDE8E6
:1028F000FC81FDF7EBFFCDE9000523464246394652
:10290000304601F01DFCF2E770B504460D46134851
:102910000078002803D047F25510288070BDFDF7DD
:1029200001FC0646FDF704FF1CB10D480068844217
:1029300008D1FDF70FFF3046FDF7F8FB47F25710BF
:10294000288070BDFDF706FF3046FDF7EFFB2946F6
:102950002046BDE8704001F051BC0000500100105D
:10296000E0010010704700002DE9F05F83468A46C1
:1029700014461D4651480078002805D046F2AE1096
:1029800028800020BDE8F09FBAF1000F07D0BAF50B
:10299000004F04D045F6256028800020F2E7FDF7BF
:1029A000C1FB8146FDF7C4FE454F00263868D0F8CC
:1029B0004C80B8F1000F1CD0A8F10108C0F84C8081
:1029C0000CB1806C2060FDF781FF01463868826C95
:1029D000891AC0F8A010D0F8A4208A4201D2C0F809
:1029E000A410FDF7B7FE4846FDF7A0FB2E80404639
:1029F000C8E75FEA0A400BD5FDF7ACFE4846FDF795
:102A000095FB04B1266046F2B01028800020B9E79B
:102A10002C48007858B104B12660FDF79BFE48466B
:102A2000FDF784FB46F6635028800020AAE70021CA
:102A30005B460722084600F087FDFDF78BFE4846FF
:102A4000FDF774FBFFF726FAFDF76CFB8046FDF7F8
:102A50006FFE396891F8350078B1012820D003283D
:102A600025D046F62E6028803868C46CFDF772FECB
:102A70004046FDF75BFB204684E77CB1886C206014
:102A8000FDF724FF01463868826C891AC0F8A0104F
:102A9000D0F8A4208A4201D2C0F8A4102E80E3E727
:102AA0000CB1886C206046F2A9102880DCE704B1E4
:102AB000266047F2D9202880D6E700005001001098
:102AC000E00100107A01001070B506460C4615466C
:102AD000002C07D0B4F5004F04D045F625602880BF
:102AE000002070BDFDF7F2FE02462B46214630461F
:102AF000BDE8704001F0FEBB2DE9F0470646884670
:102B000091461F462A480078002804D047F2591001
:102B10003880BDE8F08746F2D520B8F1000F09D023
:102B2000B9F1000F08D0FDF7FDFA0446FDF700FEED
:102B300026B105E03880ECE73880EAE71D480668F2
:102B40004FF0000A306858B196F84400C00714D01E
:102B5000FDF700FE2046FDF7E9FA0024756A1BE048
:102B6000FDF7F8FD2046FDF7E1FAC8F800A0C9F826
:102B700000A047F252103880CBE7FDF7EBFD20466E
:102B8000FDF7D4FAC8F800A0C9F800A047F2541025
:102B90003880BEE72D1D641C28680028FAD0C8F8CC
:102BA0000040306C001BC9F80000A7F800A0B0E797
:102BB00050010010E001001010B5029C02EB8402ED
:102BC00022F007024FF0807442F8044C42F8080CDF
:102BD0000C3A14481060A2F134004FF01234046330
:102BE0004FF00332C2624FF00232826243620162EE
:102BF0004FF01131C161D1008161611041619100DB
:102C000001614FF00731C1604FF0063181604FF034
:102C100005314160510040F804196FF00201016074
:102C200010BD0000D5420000084A1278002A03D0E7
:102C300047F25D1008807047054A904203D147F281
:102C40005B100880704701F0BFBB0000500100100E
:102C50008C84001070B5FDF739FE0C4C0C4A2168CD
:102C60001368994206D090314A68821A0A608D68CA
:102C70002A448A60C3F89400FDF73CFD2168D1F82E
:102C8000B020824201D2C1F8B00070BDE001001056
:102C9000E40100102DE9F04106460D461446204897
:102CA0000078002804D047F275202080BDE8F0812C
:102CB0001C48007818B146F663502080F6E74DB105
:102CC000022D07D0042D06D0082D03D045F625602F
:102CD0002080EBE7A6B1FDF725FA0746FDF728FDB2
:102CE0002A46114D23463146286801F039FC2088D8
:102CF00050B1FDF72FFD3846BDE8F041FDF716BA9B
:102D000047F27E202080D1E7286800F0EFFEFDF733
:102D100021FD3846FDF70AFABDE8F041FFF7BAB8E1
:102D2000500100107A010010E00100102DE9F04779
:102D30001646DDE908244B4D2D78002D04D047F2CE
:102D400075202080BDE8F087474D2D781DB146F6EF
:102D500063502080F6E702F00E0547F27E2C45F620
:102D6000256845B1022D06D0042D08D0082D02D0CB
:102D7000A4F80080E6E713B90EB901B920B132F02A
:102D80001E0704D0012703E0A4F800C0DAE70027FB
:102D9000012F0FD0C2F3001247F2792847F27829A9
:102DA0004FF47A774AB142F20F7291421BD9A4F8DC
:102DB0000080C7E7A4F80080C4E7BB4203D347F212
:102DC0007B202080BEE73B2E03D947F27A2020806B
:102DD000B8E73B2902D9A4F80080B3E7632807D9F4
:102DE000A4F80090AEE7B84202D3A4F80090A9E797
:102DF0001E4A12684FF4FA78B8FBF2F84344534382
:102E0000B3FBF7F34FF461677843C1EB011100EBBB
:102E10008100304400FB02360EB3FDF783F907460C
:102E2000FDF786FC2A46124D23463146286801F0FC
:102E300097FB218831B1FDF78DFC3846BDE8F0479E
:102E4000FDF774B9286800F051FEFDF783FC3846A1
:102E5000FDF76CF9FFF71EF80020208072E7A4F858
:102E600000C06FE7500100107A01001070CD010022
:102E7000E001001008B50D480078012814D100F0D9
:102E80001FF86A4600210A48FFF71EFE0949086834
:102E9000401E0860002807D10748006808606A469D
:102EA00000210648FFF710FE08BD00005801001081
:102EB00098870010DC010010D801001088880010ED
:102EC000704700002DE9F05F0446DDE90A690D9DB9
:102ED0008A46174698462A480078002804D047F2C8
:102EE00043302880BDE8F09F3CB1012E18D0022E5F
:102EF00007D045F625602880F4E745F6C3502880C2
:102F0000F0E7B8F1000F03D0B9F1000F04D008E0EA
:102F100047F240302880E5E747F24A302880E1E771
:102F200037B1DFF860B09BF80000012804D005E05D
:102F300047F23F302880D5E701F09CFD012084F85E
:102F4000260011482060C4F804A0E7610027A761AB
:102F5000C4F82080A684C4F808900C98E06027612B
:102F60006761204601F0D2FC08490888401C0880AF
:102F70009BF80000012801D101F0ECFD2F80B1E7A2
:102F80005001001058010010544D5220CC01001087
:102F90002DE9F04105460C4625480078002805D06B
:102FA00047F2433020800020BDE8F08145B121493F
:102FB0002868884209D045F6C45020800020F3E7F5
:102FC00047F2423020800020EEE701F053FD284612
:102FD00001F0AAFC95F8261021B30027164E01290E
:102FE00017D0022909D0032913D047F2413020809D
:102FF000002401F0AFFD2046D6E7284601F08CFD05
:10300000284601F06DFC3088401E30802780012466
:10301000EFE7284601F064FC3088401E30802780AE
:103020000124E6E747F23D3020800024E1E700007C
:1030300050010010544D5220CC01001070B50446D0
:103040000D462A480078002804D047F243302880F3
:10305000002070BD44B126492068884209D045F659
:10306000C4502880002070BD47F2423028800020E4
:1030700070BD01F0FFFC94F8260080B30021012808
:1030800010D0022809D003280CD047F24130288004
:10309000002401F05FFD204670BDE069A061298039
:1030A0000124F6E7022084F82600E06970B1A061EF
:1030B000104A114B106860B1206161614461146075
:1030C0001888401C188029800124E2E7206AA0614A
:1030D000EEE721616161146001201880F3E7FFE7EA
:1030E00047F23D3028800024D3E700005001001053
:1030F000544D5220C8010010C401001070B505469F
:103100000C4616480078002804D047F2433020804F
:10311000002070BD45B112492868884209D045F6A3
:10312000C4502080002070BD47F242302080002033
:1031300070BD01F09FFC95F8265065B1012D0AD0B5
:10314000022D08D0032D06D047F24130208001F037
:1031500001FD284670BD00202080F8E750010010D6
:10316000544D52202DE9F04105460E4690461C462E
:1031700030480078002805D047F2433020800020F6
:10318000BDE8F08145B12C492868884209D045F650
:10319000C45020800020F3E747F242302080002016
:1031A000EEE701F067FC95F8260088B3012837D0D8
:1031B000022809D0032833D047F241302080002470
:1031C00001F0C8FC2046DBE7002020801EB347F258
:1031D0004437032E08D0042E11D001F0BBFC45F675
:1031E000256020800020CBE7284601F095FCAA68E6
:1031F0001AB12846E968904710E027800EE028467B
:1032000001F08AFCAB6823B141462846984705E0A7
:103210000BE0278002E0284601F07EFC0124CFE786
:1032200047F2493020800124CAE747F23D30208030
:103230000024C5E750010010544D522010B5FCF792
:1032400071FF0446FDF774FA074A1178491C1170A2
:10325000FDF780FA2046FCF769FFFFF70BFEBDE89B
:103260001040FEF705BA0000500100104FF0E021B9
:10327000401E4861064A106820F07F4010600869CF
:1032800040F005000861086940F0020008617047DD
:1032900020ED00E070470000094C0A4DFCF742FFAA
:1032A0000646FDF745FA2168491C21602968491C3A
:1032B0002960FDF74FFA3046FCF738FFEEE70000D3
:1032C0004C0100108801001000B589B00D4A0021A2
:1032D00011600B22CDE9061208900C4A05910A48AC
:1032E0000B4B126800681B68CDE90132CDE9030180
:1032F0001F2000900023074A07A10C48FFF760F940
:1033000009B000BD4C01001044CD010040CD0100CA
:103310003CCD01009932000075432F4F532D494990
:10332000492049646C65205461736B008C840010E3
:10333000034A00211160034A118001807047000098
:103340006401001068010010F0B5174E31680029C3
:103350000BD0164F398861B13168326810323B8822
:103360005B1E9DB2002300240FE045F21E71018018
:10337000F0BD45F21D710180F0BD0A604C600C810A
:10338000CC60103110325B1C9BB2AB42F5D30C60A9
:103390004C600C81CC60064932680A603A888A80A9
:1033A000CC800C810480F0BD54CD010050CD0100D3
:1033B0004C85001010B54289002A12D003680A49D2
:1033C0000C681C6043680B60CB8844891B1BCB8056
:1033D0008B88448923448B80002141818181016055
:1033E0004160104610BD00004C850010F0B54489C6
:1033F0000025002C19D04468666827890F800AB11F
:10340000E168116021684160B9B14189491E41817B
:103410000B480168216004608188491C8180C18853
:10342000491EC1801D803046F0BD0D8002B115607F
:1034300046F2925018800020F0BD05604581E7E714
:103440004C85001001810021418181810160416032
:10345000704700002DE9F041DDE906C74489058980
:10346000AC4204D346F293503880BDE8F0811C4E44
:10347000B588CDB13468D4F80080C6F800806D1EE0
:10348000B580F5886D1CADB2F580B6F80880A8450A
:1034900000D235814689002556B1DB060ED403687B
:1034A0001C60046025600CE045F21D703880DCE78C
:1034B0000460446001234381256005E04368236084
:1034C000446043895B1C4381868943899E4200D2C4
:1034D000838161602281C4F80CC03D80C5E7000093
:1034E0004C85001006A1C16100224261054B19689C
:1034F000002903D081614861186070478261FBE751
:10350000200000006C010010C26B0A62C1637047AA
:103510001F213C3008E082682AB1926892F8372077
:103520008A4200D21146203000680028F3D10846B4
:1035300070473C3001E002F1200002688A42FAD173
:103540000168096A016070472DE9F0410C460746A1
:103550001946104D286880F83420002680F8356020
:1035600000F0FCFC64B104F10806FC60012239465D
:10357000286800F011F83946304600F07AF803E088
:103580002868A0F84660066320462968BDE8F04137
:1035900000F016B8E001001010B5A0F84620016355
:1035A0000024002309E04B600B600B614B610B832F
:1035B000CB6188602031641CA4B29442F3D310BD67
:1035C000002809D04268C1F8BC2000F10801096850
:1035D00089688968C161704791F83400022805D074
:1035E000072807D005A0C1F8BC00704704A0C1F8A7
:1035F000BC00704704A0C1F8BC0070472000000068
:103600005461736B205100005461736B2053656DDE
:103610000000000007A2C1F8BC2000F10801096801
:10362000002903D089688968C161704701A1C1611F
:10363000704700002000000070B5056BB0F84640F0
:103640000FE0EE6808363068406838B129463046E9
:1036500000F054F82946304600F00BF82035641E7F
:10366000A4B2002CEDD170BD002101604160018148
:10367000704730B58A6892F8374002680025002A02
:1036800003D003895B1C03810CE0012202814D60A1
:103690000D600160416030BD936893F83730A342FC
:1036A00002D85268002AF7D132B1136853B10B60C7
:1036B0004A605960116030BD4D6042680A605160D7
:1036C000416030BD11600D604A60016030BD70B571
:1036D0000646346B002C10D0B6F8465007E0E06880
:1036E0000830214600F00AF820346D1EADB2002DDE
:1036F000F5D10020A6F84600306370BD10B5026811
:1037000000245268002A0BD00A6862B14B6873B17A
:1037100053601A600289521E02814C600C6010BD19
:1037200004604460F6E74A6814600260F2E754609F
:103730004260EFE72DE9F0410C46154694F836104B
:1037400002270026082922D2DFE801F02121040403
:103750002121232394F83410032903D12A4621463A
:1037600000F033F8A665A4F85C60A5642046FFF776
:10377000AEFF94F83600032802D1204600F038FF4F
:10378000204600F05FF93434A67067702670BDE8FB
:10379000F08194F83410032903D12A46214600F021
:1037A00014F8A665A4F85C60A5642046FFF78FFFB7
:1037B00094F83600072802D1204600F019FF0420B3
:1037C0003434A07067702670E1E710B50B6BB1F868
:1037D000461008E0DC68844202D11861DA6110BD4D
:1037E0002033491E89B20029F4D110BDF8B5064630
:1037F00006980C46002594F8361008292AD2DFE8EE
:1038000001F02929040429292A2A94F834100329CB
:1038100010D0A265A4F85C30A06436B12046FFF752
:1038200056FF21463046FFF7F5FE94F83600032890
:1038300006D008E000902146304600F030F8ECE772
:10384000204600F0D5FE204600F0FCF83434A57088
:1038500065702570F8BD94F83410032910D0A26566
:10386000A4F85C30A06436B12046FFF730FF214653
:103870003046FFF7CFFE94F83600072806D008E060
:1038800000902146304600F00AF8ECE7204600F0B0
:10389000AFFE04203434A07065702570F8BD70B59B
:1038A000049D0C6BB1F846100AE0E668864204D12C
:1038B000206162612383E56170BD2034491E89B2B5
:1038C0000029F2D170BD000010B503480068FCF774
:1038D00034FCC0B210BD0000480100100020044AB2
:1038E000002142F82010401C0028FAD07047000048
:1038F000480100100121C0F11F008140024A1068F8
:103900000843106070470000480100100121C0F119
:103910001F008140024A1068884310607047000011
:103920004801001070B5044604F120000546FFF779
:1039300041FD0748206007A0606000212846FFF78E
:1039400081FD04F10800BDE87040FFF78DBE000066
:103950004E4F4E453F51000006A1C1610022426119
:10396000054B1968002903D08161486118607047D0
:103970008261FBE720000000740100104269816948
:103980000023002A05D051B191614A6183614361EE
:103990007047044A116001B14B61836170479361C4
:1039A00043617047740100102DE9FC5F0746DDE9B3
:1039B0000C68894692461D46FCF7B4FB8346FCF72B
:1039C000B7FE38468468ECB9E80601D4002300E06D
:1039D0001023CDE900685246494607F12000FFF761
:1039E00039FDFCF7B7FE5846BDE8FC5FFCF79EBB0F
:1039F000A168646853464A4638460096FFF7F6FECB
:103A0000A80501D5002CF3D1FCF7A4FE5846FCF71D
:103A10008DFB280401D4FEF73DFA0020A8F8000031
:103A2000BDE8FC9F0020064B002200EB400103EBA9
:103A300081010A810A604A60401C2028F5D3704742
:103A40005885001010B5044694F83700FFF752FF70
:103A5000074994F837000978884204D12046BDE828
:103A6000104000F025B82046BDE8104000F002B834
:103A70007201001090F837100C4A01EB410102EB83
:103A8000810100220B68002B09D00B895B1C0B8184
:103A90000B68036142610A68506108607047012346
:103AA0000B810261426108604860704758850010D0
:103AB00090F837100C4A01EB410102EB8101002222
:103AC0000B68002B08D00B895B1C0B8102614A68D4
:103AD000426110614860704701230B8102614261BD
:103AE00008604860704700005885001070B50446B3
:103AF000124994F8370000EB400001EB8001606947
:103B000022690025002808D00B895B1E0B81026109
:103B100092B150616561256170BD2AB10889401E6E
:103B2000088155610A60F5E70D810D604D6094F8DC
:103B30003700FFF7EBFEEDE74860EBE75885001034
:103B40000449016000210162416203A14160083023
:103B5000FFF78ABD4E4F4E453F53454D00000000D4
:103B600006A1C16100224261054B1968002903D0FA
:103B700081614861186070478261FBE720000000A6
:103B80007C010010426981690023002A05D051B1EF
:103B900091614A61836143617047044A116001B1D8
:103BA0004B61836170479361436170477C010010F2
:103BB0002DE9F84F05460F4690461E46FCF7B2FA2F
:103BC0008246FCF7B5FD28464FF0000984682CBBFF
:103BD0002C6A601C0DD0641C2C62C5F82480FCF794
:103BE000B9FD5046FCF7A2FAA6F800902046BDE8C1
:103BF000F88FFCF7AFFD5046FCF798FA46F6C55033
:103C000030800020F3E7A168646800231A46284644
:103C1000CDF80080FFF7EAFDB80501D5002CF2D100
:103C2000FCF798FD5046FCF781FA380401D4FEF702
:103C300031F9A6F800900020D9E700000EB5874EB4
:103C4000874D3068440004E0204602AA0021FFF7B7
:103C500021F828780128F7D102A8FEF7D9FB4FF008
:103C6000000A804832680168914203D901683268CD
:103C7000B1FBF2FABAF1000F03D100680A21B0FBE0
:103C8000F1FA4FF47A7842F210774FF00009C6E06B
:103C90007548824202D23846012113E073488242BD
:103CA00002D240460A210DE07148824202D26420CD
:103CB000642107E06F48824202D20A20414601E0B7
:103CC00001203946B2FBF1F15843B0FBF1F06A49EB
:103CD000381A80B2088069490A88824204D2088072
:103CE00002E06548A0F80090FEF768FC0025FCF7AC
:103CF00019FA0646FCF71CFDDFF884B1DBF800403A
:103D0000FCF728FD3046FCF711FA1BE0FCF70AFA35
:103D10000646FCF70DFD54F8980F6060C4F800905B
:103D2000FCF718FD3046FCF701FA60680544FCF723
:103D3000F9F90646FCF7FCFC246AFCF70BFD30465B
:103D4000FCF7F4F9002CE1D1E5B14748854202D2F5
:103D50003E46012013E04548854202D246460A20ED
:103D60000DE04348854202D26426642007E04148C2
:103D7000854202D20A26404601E001263846B5FBBC
:103D8000F0F501E000260125FCF7CCF90090FCF7E6
:103D9000CFFCDBF80040FCF7DDFC0098FCF7C6F92F
:103DA00023E0D4F89C007043B0FBF5F080B2B84239
:103DB00000D93846A4F88800B4F88A10814201D2AC
:103DC000A4F88A0004F1A80202AB111D2046FEF7F8
:103DD00093FEFCF7A7F98346FCF7AAFCD4F8B84099
:103DE000FCF7B8FC5846FCF7A1F9002CD9D12548BE
:103DF0000178012904D180F8009002A8FEF708FBA1
:103E0000FCF764FD01460198081A1F490A688242BE
:103E100000D2086002AA00215046FEF73BFFFCF7E3
:103E200055FD0190FCF776FC18490860FCF77AF91B
:103E30000546FCF77DFC1648164C01682160C0F869
:103E40000090FCF787FC2846FCF770F912482368BD
:103E500002689A427FF645AF1AE700005CCD010088
:103E60009401001070CD0100801A060000093D0089
:103E7000005A62020084D7178401001086010010E6
:103E8000A0010010820100109801001054010010E0
:103E900088010010900100108C01001030B589B02D
:103EA0001D4A002111601D4A11601D4A11601D4A02
:103EB00011701D4A11701D4A1368002B0AD01C4C4A
:103EC0001C4D23682D68AB4208D246F62C61018058
:103ED00009B030BD46F62B610180F9E7164B1D781D
:103EE0001F2D03D346F62A610180F1E70325CDE9B2
:103EF0000615089005911148246812680068CDE9FC
:103F00000341CDE901201878009000230C4A0DA14F
:103F10001148FEF755FBDBE7880100109001001007
:103F20008C010010940100108201001060CD01008E
:103F300068CD01006CCD010058CD010064CD0100B9
:103F40003D3C000075432F4F532D49494920537480
:103F50006174205461736B00D886001010B504465C
:103F6000002908D00A462146074800F0BDFA032080
:103F700084F8360002E0022084F836002046BDE8CE
:103F80001040FFF7B3BD0000B80100102DE9F0416B
:103F900004460E46002594F8377094F83600082839
:103FA0004FD2DFE800F004181B1B18181B1B20461B
:103FB000FFF79CFD84F837603046FFF79BFC2248F2
:103FC0000068844203D12046FFF754FD36E02046C6
:103FD000FFF76EFD32E084F837602FE084F8376039
:103FE00094F83400072829D2DFE800F028042804D8
:103FF000080404002046FFF71FFB1FE02046FFF7E0
:104000001BFB206BC068456AB74205D995F837009D
:10401000B04213D8002511E095F83700B8420DD111
:104020002846FFF775FA95F83810814200D2084605
:10403000064695F83700B04200D100252C46002CEA
:10404000A8D1BDE8F0810000E00100100023C0F815
:10405000B430064A1168002905D0C0F8B810C1F87C
:10406000B40010607047C0F8B830FAE7A001001043
:10407000044A00211160044A1180044A1160018041
:1040800070470000A0010010A40100109C01001066
:1040900070B5044600252560E560656025616561B1
:1040A000A561E561256223A0A0606562A562E56265
:1040B0002563A4F84650A564A565A4F85C500021CA
:1040C00004F16000FFF7BEF925676567E567A4F8AE
:1040D0008450C4F88050002004EB80018D67401CA0
:1040E000C0B20028F8D03434A561E5662567E560E4
:1040F00084F85250A56765672582E5612562A4F8BA
:104100005450A4F85650A565E565FCF7DFFB206622
:104110006566E56725706570A5702020E0702071E8
:10412000A560C4F88050C4F8845004A0C4F8880086
:1041300070BD00003F5461736B0000002000000060
:104140002DE9FC470446DDE90A65884692461F468C
:1041500000202880FBF7E6FF8146FCF7E9FA0CB95E
:104160002548046894F8360008283BD2DFE800F0C0
:104170000404141404041414CDE900653B465246AB
:10418000414604F16000FFF765F9FCF7E3FA4846A1
:10419000BDE8FC47FBF7CABF94F8340002280FD0F3
:1041A000CDE900653B465246414604F16000FFF709
:1041B00051F9FCF7CFFA4846BDE8FC47FBF7B6BF1C
:1041C00053464246214600200096FFF70FFBFCF7BE
:1041D000C1FA4846FBF7AAFF38040BD4BDE8FC47F8
:1041E000FDF758BEFCF7B6FA4846FBF79FFF46F6C8
:1041F0002D602880BDE8FC87E001001070B5044602
:104200000D46FBF78FFF0646FCF792FA0021298046
:1042100094F83600082853D2DFE800F004040404C0
:104220000D1F2F3FFCF796FA3046FBF77FFF47F252
:104230005310288040E094F88600401EC0B284F8F5
:10424000860020B984F836102046FFF7FBFBFCF708
:1042500081FA3046FBF76AFF2EE094F88600401E94
:10426000C0B284F8860010B9012084F83600FCF74B
:1042700071FA3046FBF75AFF1EE094F88600401EA4
:10428000C0B284F8860010B9022084F83600FCF72A
:1042900061FA3046FBF74AFF0EE094F88600401EB4
:1042A000C0B284F8860010B9032084F83600FCF709
:1042B00051FA3046FBF73AFFBDE87040FDF7EABD22
:1042C000FCF748FA3046FBF731FF46F62D602880B0
:1042D00070BD000008B505480068FEF743FB044CBC
:1042E0006A4600212068FEF7D5FCF9E7E0010010DE
:1042F00070CD01002DE9F8430446894615461E4657
:10430000FBF710FF0746FCF713FA0CB92D480468B9
:10431000A5640020308094F8360046F6C558082879
:1043200045D2DFE800F00404191904041919E56CFA
:10433000681C07D06D1CE564FCF70CFA3846FBF7E7
:10434000F5FE3DE0FCF706FA3846FBF7EFFEA6F86F
:1043500000800020BDE8F88394F8340007280AD0D4
:10436000E56C681C1AD06D1CE564FCF7F3F938465F
:10437000FBF7DCFE24E000231A4621461846009590
:10438000FFF734FAE56CFCF7E5F93846FBF7CEFEAB
:104390005FEA094014D4FDF77DFD11E0FCF7DAF97E
:1043A0003846FBF7C3FEA6F800800020D2E7FCF7F2
:1043B000D1F93846FBF7BAFE46F62D60308000256D
:1043C0002846C7E7E00100102DE9F04104460D46FC
:1043D000FBF7A8FE0746FCF7ABF9404E40486CB926
:1043E0003178012909D0FCF7B5F93846FBF79EFE74
:1043F00045F689602880BDE8F08104680068844241
:104400000BD13848007840B1FCF7A4F93846FBF7E7
:104410008DFE46F663502880EDE70020288094F852
:1044200036100120082950D2DFE801F004121D28BF
:1044300033333333042184F8361084F88600204661
:10444000FFF754FBFCF786F93846FBF76FFE2CE0CC
:10445000052184F8361084F88600FCF77BF938468D
:10446000FBF764FE21E0062184F8361084F886000C
:10447000FCF770F93846FBF759FE16E0072184F87F
:10448000361084F88600FCF765F93846FBF74EFED7
:104490000BE094F88600FF280ED0401C84F88600BC
:1044A000FCF758F93846FBF741FE30780128A2D1D5
:1044B000BDE8F041FDF7EEBCFCF74CF93846FBF7E0
:1044C00035FE47F26010288095E7FCF743F938463F
:1044D000FBF72CFE46F62D6028808CE75801001073
:1044E000E00100107A01001030B503680025002BB0
:1044F00001D01C4629E00A658D61CD61086201602A
:104500000121818030BD1C6D94421BD3DC6964B1F4
:104510000A65CC618B6108621D6DAA1A1A65D961A2
:10452000A1618188491C818030BD0A65CD618B61A4
:1045300008621C6DA21A1A65D96101608188491C44
:10454000818030BD121B1C469B69002BDBD10A65A4
:10455000CC618D610862A1618188491C818030BD78
:104560002DE9F003DFF87CC0DCF80040DFF878903C
:10457000002747F27E28042A10D0082A19D00A46BC
:104580001F80012180F83610DCF80010611ABDE8A8
:10459000F0030A4401461548FFF7A6BF0A1B4A4527
:1045A00001D8002AECD10765A3F80080BDE8F0032C
:1045B0007047456D661B8E4203D90A46214441650A
:1045C000DEE78A1B4A4503D812B129444165D7E783
:1045D000B6FBF1F201FB0252114441650765A3F8F5
:1045E0000080E3E7A80100100000FFFFB001001009
:1045F00030B5026AC36981690024002B0ED099612D
:1046000021B1CB610B6D056D2B440B65C4619188A5
:10461000491E918084610465046230BD61B1CC6142
:104620000B6D056D2B440B6511609188491E9180BF
:1046300084610465046230BD146094800465046282
:1046400030BD00002DE9F0470546FCF73FF98146F3
:1046500000271F4E34686CB3206DB846A84203D8BB
:104660002D1AC4F8508028E0401B206525E07F1CEF
:10467000BFB294F83600012802D0052806D008E021
:1046800084F836802046FFF7DDF902E0042084F844
:104690003600A46934605CB1B088401EB080C4F8B4
:1046A0001C80206DA84206D82D1AC4F8508004E062
:1046B000A6F8048004E0401B2065206D0028D6D0B9
:1046C000F780FCF703F9A0EB0900BDE8F0870000D4
:1046D000B00100102DE9F0470646FCF7F7F88246D6
:1046E0004FF00008394F3C68002C67D0206DC14660
:1046F000B04203D8361AC4F850905CE0801B2065A5
:1047000059E008F101081FFA88F8002594F83400F0
:10471000042802D1206BC068456AC4F85890A4F8F8
:104720005C90FCF7D3F8A0642046FEF7D0FF94F825
:104730003600032802D0072806D008E02046FFF7FD
:1047400081F984F8369002E0042084F836000320D2
:1047500084F8350084F83490CDB195F8370095F899
:104760003810884213D094F8371088420FD1284669
:10477000FEF7CEFE95F83810814200D20846014679
:1047800095F83700884202D02846FFF7FFFBA4695E
:104790003C605CB1B888401EB880C4F81C90206DA5
:1047A000B04206D8361AC4F8509004E0A7F8049036
:1047B00004E0801B2065206D0028A2D0A7F80680A9
:1047C000FCF784F8A0EB0A00BDE8F087B801001000
:1047D00008B5134D00226B4611461046FEF7C4F88B
:1047E000BDF800000028F5D1FBF79CFC0646FBF75E
:1047F0009FFF01240B490868401C08602046FFF712
:1048000021FF07462046FFF765FF384429688142AB
:1048100000D22860FBF79EFF3046FBF787FCD9E704
:10482000AC010010A801001030B589B01D4A00216C
:1048300011601D4A11601D4B19609180D1809980D3
:10484000D9801B4B1A68002A0AD01A4C1A4D2268CC
:104850002D68AA4208D247F21321018009B030BD69
:1048600047F212210180F9E7144A15781F2D03D36E
:1048700047F211210180F1E70B25CDE906150591DD
:10488000089020680E4C1B682468CDE90134CDE9FE
:1048900003011078009000230A4A0BA10F48FDF78E
:1048A0008FFEDBE7A8010010B0010010B801001076
:1048B00078CD010080CD01006CCD010074CD0100E8
:1048C0007CCD0100D147000075432F4F532D49493E
:1048D00049205469636B205461736B009887001002
:1048E000002180F82610064A026006A24260C161DB
:1048F0008161016281848160C160016141617047B1
:104900004E4F4E453F544D5200000000002383623D
:10491000044A1168002903D0C162886210607047A0
:10492000C362FBE7C0010010826AC16A0023002A4B
:1049300005D051B1D1628A62C36283627047044A72
:10494000116001B18B62C3627047D36283627047AA
:10495000C001001030B589B004462B480025056021
:104960002A4805602A4805802A4A2B492B481368A3
:10497000002B05D009681268B1FBF2F1016004E078
:1049800009680A22B1FBF2F101602549006808605C
:104990002448056024480560224624A12748FCF7E6
:1049A000BDFE208800280BD12548016851B1254A59
:1049B000254B11681B68994208D247F24830208085
:1049C00009B030BD47F247302080F9E71F490B7826
:1049D0001F2B03D347F246302080F1E70B23CDE9AC
:1049E0000653059508941A4B126800681B68CDE9B8
:1049F0000325CDE90103087800900023154A16A18C
:104A00001B48FDF7DDFDDBE7C0010010C801001009
:104A1000C401001088CD010070CD0100D801001044
:104A2000DC010010D4010010D00100104F532054BD
:104A30006D72204D75746578000000005888001074
:104A40008CCD010094CD01006CCD010084CD01001E
:104A500090CD01008D4A000075432F4F532D4949D9
:104A6000492054696D6572205461736B0000000029
:104A7000888800100EB502A80022009001AB1146F4
:104A80000148FCF785FE0EBD588800101CB51F4E6E
:104A9000DFF87C801F4F002101AB6A460846FDF716
:104AA00063FFFFF7E7FFFBF711FF81463068401C0B
:104AB0003060D8F8004019E001A8FDF729FA25690F
:104AC000A069401EA06168B9A08C02281BD02046B6
:104AD00000F022F8032084F82600A26812B12046D4
:104AE000E16890472C4601A8FDF742FA002CE3D17B
:104AF000FBF7ECFEA0EB09003968814200D2386078
:104B000000F028F8C7E7206AA061E6E7D4010010AA
:104B1000C8010010D001001010B50C4A0023016933
:104B20001468844203D1116029B14B6103E04269EA
:104B3000116101B14A61012180F8261003614361CE
:104B400003480188491E018010BD0000C801001003
:104B5000C401001008B56A4600210248FCF7ECFECB
:104B600008BD00005888001070B505460E46144672
:104B70003146284600F014F805280CD03146284666
:104B800000F07EF8016821F0070104F007021143EC
:104B90000160002070BD014870BD000001000010E0
:104BA00002460520062A0ED2DFE802F0032E38382E
:104BB000383A062906D9A1F10A02012A02D9121FA0
:104BC000082A01D8002070470C2905D00D2903D0F0
:104BD000A1F11702032A01D8012070471D290FD027
:104BE0001E290DD01F290BD01B290BD01C2909D041
:104BF000072903D0082901D00929EED104207047E4
:104C000002207047032070471D2901D800207047FB
:104C10001E2901D01F29FAD10120704700207047BA
:104C2000012907D9042905D0022901D00329F6D189
:104C3000032070470020704770B505460E461446A5
:104C400031462846FFF7ACFF052803D0012804D0E1
:104C50000A4870BD0948401E70BD3146284600F024
:104C60000FF824B1016821F08001016003E00168C0
:104C700041F080010160002070BD000002000010C2
:104C800001EB4010014901EB8000704700C0024079
:104C900070B50C46154600F0ABF8012104F108038D
:104CA0009940012D03D0C26C630707D007E0C26CA6
:104CB000630700D100210A43C26470BD002147F69A
:104CC0007C638B431A40C26470BD70B50C461546B8
:104CD00000F08EF80123A34004F0070135B1C26C47
:104CE000022900D200231A43C26470BDC26C02299B
:104CF00000D2002347F67C6199430A40C26470BD2C
:104D000010B50C4600F074F8012C04D0416801F095
:104D10000301416010BD416841F00801416010BDD0
:104D200070B50C4600F064F862780121274B012A27
:104D30002AD0227802F0070202EB420201FA02F5C1
:104D400023EA050245692A404261E278012A26D019
:104D5000227802F0070202EB4202521C01FA02F52D
:104D600023EA050245692A404261A278012A22D03D
:104D7000227802F0070202EB4202921C91408B4320
:104D800041690B40436170BD2278456902F007021A
:104D900002EB420201FA02F22A434261D5E722788D
:104DA000456902F0070202EB4202521C01FA02F2CC
:104DB0002A434261D9E7227802F0070202EB42025D
:104DC000921C914042691143416170BDFFFF1F0079
:104DD00010B50C4600F00CF8012C04D0416801F02D
:104DE0000A01416010BD416841F00101416010BD00
:104DF000002803D0012803D00020704701487047E5
:104E00000148704700400140008001402DE9F04119
:104E10000546884617462846FFF7EAFF044615B1BF
:104E2000012D05D0FEE701212020FBF7F7FB03E071
:104E300001214020FBF7F2FB0120FBF701FC0546B6
:104E400000263F202060666026676661A662E664F1
:104E50002665B8F1000F0DD0B8F1010F08D17878B0
:104E600000F00301387861F39F00216F0843206749
:104E7000BDE8F081387870B17968A1FB050306FBC5
:104E8000053201FB0621064A0023FBF763F90546BC
:104E90006D1EE560ECE77868401EE060E8E7000022
:104EA00040420F0070B50D4614461E46FFF7A0FFA6
:104EB000072D12D2DFE805F00406080A0C0E1000D8
:104EC00084610AE0C46108E0046206E0446204E030
:104ED000046402E0446400E08464026D072D02D2A1
:104EE0000121A94000E000210A430265002E07D1FC
:104EF000416841F002014160416801F009014160EF
:104F000070BD10B5FFF774FF416841F002014160C8
:104F1000416801F00901416010BD02780A43027046
:104F20007047012904D0017A01F012010172704723
:104F3000017A41F0010101727047012A07D0082966
:104F400011D2DFE801F034393E43484D5257082969
:104F500009D2DFE801F004090E13181D2227017B96
:104F600041F0010101737047017B41F002010173BF
:104F70007047017B41F0040101737047017B41F0F0
:104F8000100101737047017B41F008010173704704
:104F9000017B41F0200101737047017B41F040012A
:104FA00001737047017B41F0800101737047017B01
:104FB00001F0FE0101737047017B01F0FD010173F7
:104FC0007047017B01F0FB0101737047017B01F029
:104FD000EF0101737047017B01F0F7010173704726
:104FE000017B01F0DF0101737047017B01F0BF011C
:104FF00001737047017B01F07F01017370470078F6
:10500000084201D0012070470020704710B5074CBE
:1050100001212046FFF7F3FF002805D02046BDE818
:1050200010400121FFF779BF10BD00000040024091
:1050300010B5044601214802FBF7F0FA0020207069
:1050400020722073FF212174206410BD017A41F089
:1050500002010172017A01F011010172704770B50D
:10506000531E02F03F0402F01F05082909D2DFE8B1
:1050700001F004090E131A1F262D3B2A01D880F8CF
:10508000204070BD3B2AFCD880F8244070BD172A10
:10509000FCD880F8285070BD062AFCD802F0070121
:1050A00080F8301070BD1E2BFCD880F82C5070BDDD
:1050B000B3F5B77FFBD2C2F30801818670BD0B2B1D
:1050C000FCD802F00F0180F8381070BDB2F5805F97
:1050D000FBD2C2F30B01818770BD00002DE9F041C6
:1050E00004460F46154600F02EFE244804EB44010A
:1050F00000EBC104E16A01F0030002280CD0A06AB1
:10510000626A801A401E002801DA226A1044854231
:1051100002DD89072DD005466DB34FF00008A06A67
:10512000616A461A761E002E01DA206A0644D4E926
:105130000801411AB14201DC616A461AAE4200DB45
:105140002E46616AE069324608443946FBF733F877
:10515000B0443744AD1B606A30446062606A216AC3
:10516000884201D100206062002DD8D14046BDE8C0
:10517000F0810020FBE70020F9E70000EC010010BF
:105180002DE9F04198B080460C46164603A81390CE
:105190004020149000271597CDF85C80169714F8DE
:1051A000011B39B1252917D013A800F0A7FE1698C6
:1051B0000028F4DA169800280ADD159820B103A912
:1051C0004046159AFFF78AFFDDE91510084416904E
:1051D000169818B0BDE8F08100212278232A1CD04F
:1051E0002B2A16D02D2A0CD0302A0ED0002025785C
:1051F000A5F130020A2A14D3002322782E2A17D0D0
:1052000023E041F00101641CE7E741F00201641C66
:10521000E3E741F00401641CDFE741F00801641C8E
:10522000DBE7641C00EB800005EB40003038DEE774
:10523000641C2578A5F130020A2A06D2641C03EB0F
:10524000830205EB4203303BF3E76C2D0DD0682D54
:105250000BD0702D4ED00BDC252D58D0582D2FD0D3
:10526000632D0CD0642D56D112E014F8015BECE7ED
:10527000732D31D0752D17D0782D4CD120E03068AA
:10528000011D31600078C1B213A800F037FE42E082
:105290003268151D35601568CDE900010A222946DE
:1052A00013A800F051FD36E03268151D3560156811
:1052B000CDE900010A22294613A800F0B1FD2AE039
:1052C0003268151D35601568CDE9000110222946A8
:1052D00013A800F0A5FD1EE03068011D31600568CF
:1052E00015F8011BB9B113A800F008FE16980028A4
:1052F000F6DA10E03068011D316001680820CDE960
:1053000000070346102213A800F08AFD03E02521C0
:1053100013A800F0F3FD641C49E7012904D041689B
:1053200001F00D0141607047416841F002014160A8
:1053300070470000002141608160034A42610722FA
:105340000260C1600161704740420F0070B50546C0
:105350000C461548854204D101214805FBF75EF94A
:105360000EE01248854204D101210015FBF756F9E1
:1053700006E00F48854216D101210805FBF74EF9DA
:10538000A088218922880843218A1143084380B2DA
:105390002860207B00F00F00686028466169BDE846
:1053A000704009F09FBE70BD0080084000000340BF
:1053B00000C00A408160704710B504462046FBF7E4
:1053C0009AFA0249C4F8FC1010BD0000897A010065
:1053D000074902780A7042784A7082788A70C278E7
:1053E000CA7002790A7140794871084609F066BEB0
:1053F0001003001030B5002803D021B1034600246B
:1054000007E0002030BD002030BD03F8015B491CDF
:10541000641C23B119B10D780DB19442F5D32BB1B1
:1054200021B19442F0D20021197030BD002030BD6E
:10543000002201E0401C521C18B103780BB18A42D3
:10544000F8D310467047FBF756BA10B50C2101206F
:10545000FAF7ECFE044624B12046FFF7F4FF20469D
:1054600010BD002010BD0000F0B57F4DD5F804013F
:105470004FF00002C1057D4853D4D5F80C11C9077F
:1054800007D0D5F8A011490627D402604260826097
:10549000A0E0D5F80411764BC9061AD0D5F804114E
:1054A00001F01F01B3FBF1F10160D5F8A841E4065A
:1054B00011D0D5F8A84104F01F04B3FBF4F3436006
:1054C000D5F8003103F001035B1CB1FBF3F18160FF
:1054D00080E00021E8E70023F1E7D5F80411654BEF
:1054E000C9061AD0D5F8041101F01F01B3FBF1F180
:1054F0000160D5F8A841E40611D0D5F8A84104F020
:105500001F04B3FBF4F34360D5F8003103F001034B
:105510005B1CB1FBF3F181605CE00021E8E7002354
:10552000F1E7D5F88810C90503D4026042608260B3
:1055300050E0D5F80C11C90707D0D5F8A0114906DD
:1055400028D402604260826044E055F8881F01F070
:105550001F035B1CE96F01F01F01D5F8204104F027
:105560001F04AE6F883D06F00106761C71B1404FF6
:105570005F43B7FBF1F1016054B13D4F7B43B3FB97
:10558000F4F34360B1FBF6F1816023E00021F2E720
:105590000023F6E755F8881F01F01F035B1CE96F35
:1055A00001F01F01D5F8204104F01F04AE6F883DC3
:1055B00006F00106761CE1B12E4F5F43B7FBF1F117
:1055C0000160C4B12B4F7B43B3FBF4F34360B1FBE9
:1055D000F6F18160D5F80811C90528D5D5F808116C
:1055E00011F01F0109D0042909D0062907D0C26093
:1055F000F0BD0021E4E70023E8E7C260F0BD90358C
:1056000055F8081C01F01F01491CAA6F02F01F0287
:10561000EB6FDB0705D0174B5943B1FBF2F1C160CB
:10562000F0BD134B5943B1FBF2F1C160F0BDD5F8A9
:105630000811890515D5D5F80C11C90708D0D5F87A
:10564000A8100C4A01F01F01491C5143C160F0BD74
:10565000D5F88810064A01F01F01491C5143C1606A
:10566000F0BDC260F0BD000000C00F40000000109F
:10567000001BB7008096980010B504F069F9234824
:105680002021C0F8A011D0F8A0114906FBD50122B5
:105690008030C0F88C20092141600260AA24C460D7
:1056A0005523C3608038D0F888104905FBD52321E5
:1056B000A03041600260C460C360A038D0F8A81078
:1056C0004905FBD58C3040F20111816740F2012180
:1056D000C16742670221C0F82811C0F81C110C49AB
:1056E00081634FF48071C0F83C11D0F8241141F06F
:1056F0000301C0F8241145F23A0140F88C1C054919
:1057000000200860BDE81040FFF7AEBE00C00F40AB
:10571000DE87280408ED00E010B5054C606800281D
:1057200003D10448606013F0C3FF606810BD00003F
:1057300024040010CCC100107047000010B50446CE
:105740002046FFF739FE0448C4F800010348E06032
:105750000348C4F8040110BD49A7010085A6010053
:105760009DA7010010B54FF4B6710120FAF75EFD58
:10577000044624B12046FFF7E1FF204610BD00207B
:1057800010BD000010B5002000F07CF800F00E0104
:105790000B4802290ED0042903D0062905D00C2974
:1057A0000CD1BDE8104009F003B9BDE8104000205D
:1057B00000F092B8BDE8104009F004B910BD000037
:1057C000504200100122CB78002B04D0012B06D0D0
:1057D000022B06D0C1224B78012B04D005E04122D8
:1057E000F9E78122F7E742F004020B78012B01D19F
:1057F00042F002028978012901D142F0080205280D
:1058000008D2DFE800F003080D1217000C4902F07F
:10581000CF00087270470B4902F0CF000872704742
:10582000094902F0CF0008727047084902F0CF0022
:1058300008727047064902F0CF0088607047000088
:1058400000C00040000001400080094000C0094045
:1058500000400A4010B501F0CF04052807D2DFE868
:1058600000F0030703030A000DF0F6FC047210BDFC
:105870000248047210BD0248846010BD000001405F
:1058800000400A4040F2CF31052818D2DFE800F08E
:1058900003070B0F13000B488068084070470A4845
:1058A0008068084070470948806808407047084889
:1058B00080680840704707488068084070470020AB
:1058C0007047000000C00040000001400080094017
:1058D00000C0094000400A40052814D2DFE800F06B
:1058E0000306090C0F000948007D70470848007D39
:1058F00070470848007D70470748007D704707489B
:105900004069C0B2704700207047000000C00040EE
:10591000000001400080094000C0094000400A40EA
:105920002DE9F05F05460E460027DFF8C881DFF855
:10593000C8914FF0070A4FF0800B052D35D2DFE8F4
:1059400005F0033503035F0028460DF085FC04468F
:1059500025B1022D07D0032D0AD00DE0012108202A
:10596000FAF75CFE08E001210806FAF757FE03E0AB
:1059700001214806FAF752FE84F808A0277200E0D9
:105980002078207DC007FBD184F830B0207D8006D0
:10599000FCD584F8307067602773276284F84C70F8
:1059A00084F8547084F85070207D51E0012110205B
:1059B000FAF734FE88F808A088F8087001E098F833
:1059C000000098F81400C007F9D188F830B098F8B2
:1059D00014008006FBD588F83070C8F8047088F889
:1059E0000C70C8F8207088F84C7088F8547088F8EB
:1059F000507098F8140088F8107098F8180027E094
:105A000001210802FAF70AFEC9F808A0C9F80870CF
:105A100001E0D9F80000D9F81400C007F9D101203D
:105A2000C9F85C00D9F814008006FBD5C9F85C7091
:105A3000C9F80470C9F80C70C9F82070C9F84C7026
:105A4000C9F85470C9F85070D9F81400C9F8247016
:105A5000284631680DF014FC012D1CD0042D1FD0F8
:105A600028460DF0F9FB007B00F0C004707928B1E6
:105A700001281AD002281BD044F003043079F8B171
:105A800044F0080401281ED0022814D0032815D0A1
:105A9000042818D115E098F80C0000F0C004E5E7E0
:105AA000D9F80C0000F0C004E0E744F00104E5E799
:105AB00044F00204E2E744F0100404E044F020045F
:105AC00001E044F03004B079012801D144F004042D
:105AD000012D07D0042D08D028460DF0BDFB04731E
