:020000040000FA
:10000000183A0010CD010000D5010000D701000012
:10001000D9010000DB010000DD0100009EF3FFEFCD
:10002000000000000000000000000000DF010000F0
:10003000E101000000000000F5070000B91A00000F
:10004000E7010000E7010000E7010000E701000010
:10005000E7010000B5350000F9350000E7010000B8
:10006000E7010000E7010000E7010000E7010000F0
:10007000E701000000000000E7010000E7010000C8
:10008000E701000065310000E7010000E701000022
:10009000E7010000E7010000E7010000E7010000C0
:1000A000E7010000E7010000E7010000E7010000B0
:1000B000E7010000E7010000E7010000E7010000A0
:1000C000E7010000E7010000E7010000E701000090
:1000D000E7010000E7010000E7010000E701000080
:1000E000E701000000F002F800F060F80AA090E8D4
:1000F000000C82448344AAF10107DA4501D100F0E3
:1001000055F8AFF2090EBAE80F0013F0010F18BF4F
:10011000FB1A43F001031847A4570000C45700001E
:100120000A444FF0000C10F8013B13F0070408BF1D
:1001300010F8014B1D1108BF10F8015B641E05D0BB
:1001400010F8016B641E01F8016BF9D113F0080F70
:100150001EBF10F8014BAD1C0C1B09D16D1E58BF02
:1001600001F801CBFAD505E014F8016B01F8016B39
:100170006D1EF9D59142D6D37047000000230024AC
:1001800000250026103A28BF78C1FBD8520728BFA7
:1001900030C148BF0B6070471FB505F0A6FA9DE857
:1001A000030000F01FFA1FBD10B510BD00F08CFA5F
:1001B0001146FFF7F1FF04F0D7FB00F0AAFA03B4F1
:1001C000FFF7F2FF03BC00F0D3FA000009488047B4
:1001D00009480047FEE7FEE7FEE7FEE7FEE7FEE729
:1001E000FEE7FEE7FEE7FEE704480549054A064B41
:1001F00070470000DD340000E500000018320010F8
:10020000183A0010183600101836001072B67047F1
:1002100062B67047EFF3108072B6704780F31088B3
:10022000704730BF704720BF7047B0FA80F070470A
:1002300090FAA0F0B0FA80F0704790FAA0F0704702
:1002400070B5A0FB0140B4F1805170F1000024BFF3
:10025000002070BD204600F007F805001CBF2146B5
:1002600000F0EFF9284670BD70B5064600F02EF894
:10027000056806F10B0020F00704B4429CBF002083
:1002800070BD2B466A68BAB11068A04210D304F161
:10029000080188423CBF5068586007D35168101964
:1002A00041601168091B016058601460101D70BD29
:1002B00013465268002AE7D12146284600F07EF90D
:1002C0000028DED170BD7047704770470048704706
:1002D000BC3100107047704700210160C0E9011077
:1002E000704710207047000000487047B43100107C
:1002F0007047002801D000F03BBA7047FFFFFFFFB6
:1003000070B50446051FFFF7E1FF0068002C14BF1D
:10031000446870BD002C18BFAC423CBF20466468E6
:10032000F8D301680A18AA4218BF456003D12A68A9
:1003300005461144016028684119A1421CBF6C6048
:1003400070BD6168696021680844286070BD53EA27
:10035000020C00F069802DE9F04B4FF00006002BF5
:100360001FBFB3FA83F503FA05F424FA05F65E40DD
:1003700012BF1643B2FA82F502FA05F4C5F1200560
:100380001EBF22FA05FC44EA0C04203556EA044C50
:100390004FEA144418BF641C4FF000084FF00009E6
:1003A000904271EB030C39D3002919BFB1FA81F7E0
:1003B00001FA07F6B0FA80F700FA07F6C7F120074E
:1003C0001EBF20FA07FC46EA0C062037B6FBF4FCF9
:1003D000A7EB0507103F07F01F0BCBF120060CFA27
:1003E0000BFB2CFA06F644BFB3460026202FA4BF11
:1003F0005E464FF0000B5BEA060C08BF4FF0010BA6
:1004000019EB0B09ABFB027C48EB0608C01B06FB93
:1004100002CC0BFB03CC71EB0C01C1E70B4602468F
:1004200041464846BDE8F08B13B54FF000004FF051
:100430000001AFF30080BDE81C40704740EA0103B3
:10044000024630B59B0710D14FF0013400E008C2DE
:1004500008C91D1B9D4315EAC41FF8D013F0FF0106
:1004600002F8011B0DD01B0AF8E711F8013B002B25
:1004700002F8013B05D011F8013B002B02F8013BCB
:10048000F3D130BD10B5203AC0F00B80B1E8185060
:10049000203AA0E81850B1E81850A0E81850BFF46E
:1004A000F5AF5FEA027C24BFB1E81850A0E818500D
:1004B00044BF18C918C0BDE810405FEA827C24BF61
:1004C00051F8043B40F8043B08BF7047D20728BFEF
:1004D00031F8023B48BF11F8012B28BF20F8023B3E
:1004E00048BF00F8012B70474FF0000200B51346DB
:1004F00094469646203922BFA0E80C50A0E80C5044
:10050000B1F12001BFF4F7AF090728BFA0E80C50F4
:1005100048BF0CC05DF804EB890028BF40F8042BED
:1005200008BF704748BF20F8022B11F0804F18BF5A
:1005300000F8012B704700004FF0013C50F8042BED
:1005400051F8043B9A4221D1A2EB0C03934313EAE6
:10055000CC1317D150F8042B51F8043B9A4215D113
:10056000A2EB0C03934313EACC130BD150F8042BEA
:1005700051F8043B9A4209D1A2EB0C03934313EACE
:10058000CC13DBD04FF00000704700BFD01A01BA87
:10059000B1FA81F101F0180122FA01F0CB40C1F16A
:1005A0002001DBB2C0B2C01A2CFA01F3D11A914378
:1005B00011EAC311E6D170477047704738B5044659
:1005C0000A4600206946AFF30080002808BF38BD06
:1005D00002460099204600F056F8012038BD01205F
:1005E00000F06BB8F8B5AFF30080054600200C466C
:1005F000102000BF0646A819A0420DD93246694610
:100600000020AFF30080070008BF00F056F8009804
:10061000A04218BF0546C419FFF758FE05600746FB
:10062000F01D20F0070046192846FFF755FEB4429A
:1006300008BFF8BDA21B31463868BDE8F84000F09D
:1006400022B84FF000020429C0F0128010F0030C11
:100650003FF44CAFCCF1040CBCF1020F18BF00F812
:10066000012BA8BF20F8022BA1EB0C01FFF73EBF26
:100670005FEAC17C24BF00F8012B00F8012B48BFC2
:1006800000F8012B7047034640688C46002818BFCD
:1006900088423CBF03464068F8D318681844884233
:1006A00007D00CF1030020F00700001D411A521A78
:1006B0000146081D0A60FFF723BE10B500F030F8B0
:1006C000BDE81040FFF715BE7546FFF70DFEAE46BC
:1006D00005006946534620F00700854618B020B54E
:1006E000FFF782FDBDE820404FF000064FF0000705
:1006F0004FF000084FF0000B21F00701AC46ACE8CA
:10070000C009ACE8C009ACE8C009ACE8C0098D4636
:1007100070470446AFF300802046FFF750FD00000D
:1007200010B5012805D0002103A000F027F8012012
:1007300010BD09A1F8E7000053494752544D454DFB
:100740003A204F7574206F662068656170206D6572
:100750006D6F7279000000003A2048656170206D6D
:10076000656D6F727920636F727275707465640065
:1007700001491820ABBEFEE72600020070B5054611
:100780000C460A2000E06D1C00F011F835B1287805
:100790000028F8D102E0641C00F009F814B12078B8
:1007A0000028F8D1BDE870400A20AFF3008008B5FA
:1007B00069468DF800000320ABBE08BD224C4FF601
:1007C000FF7525604FF0000484F309881F4C4FF03B
:1007D000010525701E4C4FF08055256062B6FEE77E
:1007E0001B484FF080510160704719484FF080510D
:1007F0000160704772B6EFF3098050B11EF0100F20
:1008000008BF20ED108A734620E9F80F11490968E6
:10081000086000B5104880475DF804EB0F481049A8
:100820000A7802700B480F490A6802601068B0E845
:10083000F80F9E461EF0100F08BFB0EC108A80F330
:10084000098862B67047000022ED00E00801001040
:1008500004ED00E084010010791800001A01001076
:100860001B0100108801001001238B400168012A40
:100870000AD011F0E06F03D0016821F0E06101605F
:1008800001689943016070471943FBE700EB810061
:10089000008AC0F30B10704700EB8100006912B1B1
:1008A00000F0004001E000F08040002800D001206E
:1008B000704770B50C4605460121080300F0A4F806
:1008C000002028604FF40016012000F0ADF8C4EBC2
:1008D000441101EB40004900B0FBF1F0401E46EA34
:1008E0000020286070BD026822F0E06202600268A9
:1008F00042EA01610160704710B504F083FDFFF723
:1009000089FC044600F0E0F804F00EFD184A80234C
:100910000421A2F1B80004F053FB164A80230521FC
:10092000A2F1B80004F0A6FD134A80230821A2F129
:10093000B80004F011FB114A80230721A2F1B8008E
:1009400004F00AFB0E4AA0230C21A2F1B80004F027
:1009500079FE0C4A80230D21A2F1B80004F0A0FE1C
:1009600000F0C2F82046BDE81040FFF757BC000079
:1009700070080010280B0010E00D001098100010F7
:1009800050130010881600100EB50026ADF8086050
:1009900000F038F800F02AF812490968B0FBF1F0CD
:1009A00001F0A2F802A800F001FC00F06FF8FFF7D8
:1009B000A3FF0D4F02AD0023CDE900650F221946BC
:1009C000184600F0C3FF3E7000240022CDE9006508
:1009D00064231146104600F0B9FF641CE4B2112CE8
:1009E000F3D3E7E79458000010000010002000F057
:1009F0001BB8FFF70BBC292803D21030C0B200F09F
:100A00008BB8704770470000064A012906D00029BC
:100A100003D152F8C41F81431160704752F8C41FBC
:100A20000143F9E700C00F4030B1012806D0022889
:100A300006D0032806D0FEE7044804E0044802E09C
:100A4000044800E0044800687047000000000010FF
:100A500004000010080000100C0000100349096990
:100A6000884201D9401A704700207047D800001012
:100A700010B5FFF7CFFB04494C69FFF7CFFB2046C9
:100A8000BDE81040FFF7EABFD800001010B5FFF72F
:100A9000EFFF0446FFF7BEFB034A00215161FFF759
:100AA000BDFB204610BD0000D800001010B5FFF7B8
:100AB000B1FB04498C69FFF7B1FB2046BDE810404B
:100AC000FFF7CCBFD800001010B5064C2088401CA2
:100AD0002080608810B900F0ABF8A0606088401CEE
:100AE000608010BDD800001010B50A4C6088401E10
:100AF0000004000C60800CD100F09AF8E060A1685E
:100B0000401A6169814200D26061A169814200D2CC
:100B1000A06110BDD800001070B5304C4FF0E0253A
:100B2000102835D2DFE800F05858585808111E58E0
:100B30005858585858585827FFF76CFB0546FFF788
:100B4000C3FF206840F4803007E0FFF763FB0546F1
:100B5000FFF7BAFF206840F400302060FFF7C4FFC1
:100B6000284635E0FFF756FB0546FFF7ADFF206846
:100B700040F48020F1E7FFF74DFB0446FFF7A4FFA8
:100B8000286940F001002861FFF7AEFF20461FE012
:100B900069681022491C02EB4111C9B288421BD27C
:100BA0001038C11700EBD161C1F3471421F01F01C8
:100BB000451AFFF72FFB0646FFF786FF0120A840E6
:100BC000A10001F1E021C1F80001FFF78DFF3046DF
:100BD000BDE87040FFF722BB70BD000024ED00E0CF
:100BE00070B50C00054616D0B5B1102102F09EFB81
:100BF000102814D2FFF70EFB0646FFF765FF102200
:100C00002946094802F07AFBFFF76EFF3046FFF7EE
:100C100005FB002005E0FEE70A20088070BD4FF4C8
:100C20007A70208070BD000054190010FEE70000AB
:100C30000148406870470000001000E010B50C4605
:100C400000F004F8002800D0C46110BD0146002067
:100C5000062905D2DFE801F00305080B0E1108484C
:100C600070470748203070470548403070470448B7
:100C7000603070470248803070470148A0307047AC
:100C8000008009200121C803FFF7BEBE10B5FFF7A1
:100C9000DDFF002800D0406910BD70B515460C4638
:100CA000FFF7D4FF002805D001680DB1214300E013
:100CB000A143016070BD10B50C46FFF7C7FF0028C7
:100CC00000D0846110BD00000EB50B4900200B4A16
:100CD0000860012002A9CDE90001830202F58061CC
:100CE00007A000F011F8BDF80800A0F51C5110395C
:100CF00001D0FFF79BFF0EBDF40000106419001037
:100D000048656170000000002DE9F84F1C46DDE9E0
:100D10000A5A164688468146FFF77CFA0746FFF7CF
:100D2000D3FE2B46324641464846009400F00CF86C
:100D3000FFF7DAFE3846FFF771FA42F21071AAF8AF
:100D40000010BDE8F88F000000981044401EC1E973
:100D5000002003488A600268C1E9032301607047EC
:100D6000F40000107047000070B5044600F080F8F1
:100D70002E48002505702E4805702E4805702E4817
:100D800005602E4805602E4805702E4805702E48D7
:100D9000016831B12D48006801E020C1401E0028E3
:100DA000FBD12B48057001F0FFF801F01FF929482D
:100DB000056029480580204600F0F8FE20880028BC
:100DC00032D1204600F0FEFE208800282CD1234896
:100DD0000560234805802348056023480580204698
:100DE00001F038FB208800281ED1204600F0AAFE22
:100DF0002088002818D1204601F066FE20880028AF
:100E000012D1204601F0A2FA208800280CD12046F9
:100E100001F0B4FE2088002806D100F079FEFFF72B
:100E2000A1FF12490120087070BD000000010010F0
:100E30000801001022010010840100108801001038
:100E40001A0100101B0100106C58000070580000BF
:100E50004E0100100C010010100100101C010010C8
:100E600020010010240100102801001009010010C9
:100E7000054806490068096800EB8100044920F034
:100E800007000860704700006C58000070580000B0
:100E90008C010010184810B5007801282BD1FFF7FD
:100EA000B9F916490446087800B3401E10F0FF0057
:100EB00008701BD112480078C0B901F06BF81149D5
:100EC0000870114900EB400051F820000F490860FC
:100ED0000F490968884209D050F8841F491C0160F5
:100EE0000C480168491C0160FFF77FFC2046BDE803
:100EF0001040FFF793B910BD080100100001001069
:100F0000220100101B0100100C2E0010880100109F
:100F10008401001044010010174810B50078002823
:100F200029D116480078002825D1FFF773F9044627
:100F300001F030F812490870124900EB400051F8F6
:100F400020001149086011490968884204D12046EF
:100F5000BDE81040FFF762B950F8841F491C0160DA
:100F60000B480168491C0160FFF73AFC2046FFF777
:100F700055F9BFF36F8F10BD000100102201001062
:100F80001B0100100C2E00108801001084010010BD
:100F90004401001070B504461148007810B146F6BF
:100FA00062501BE00F480078012802D045F68960A6
:100FB00014E00D4D2878FA2802D345F209200DE0FF
:100FC000FFF728F90646FFF77FFD2878401C2870B8
:100FD000FFF78AFD3046FFF721F90020208070BD21
:100FE00000010010080100102201001070B5044635
:100FF0001748007810B146F6655027E0154800788C
:10100000012802D045F6896020E0134E307890B177
:10101000FFF700F90546FFF757FD3078401E10F046
:10102000FF0030700AD0FFF75FFD2846FFF7F6F8A3
:1010300046F663500AE046F6645007E0FFF754FDB9
:101040002846FFF7EBF8FFF767FF0020208070BD10
:1010500000010010080100102201001070B50446C4
:1010600015480078012802D045F68B600CE0134843
:1010700001260088042802D845F68C6004E0104D53
:10108000287818B145F68A60208070BD00F082FF94
:101090000C4908700C4908700C4900EB400051F8ED
:1010A00020000B4908600B4908602E70FFF786FB93
:1010B00043F69920E8E70000090100104C010010F8
:1010C000080100101B0100101A0100100C2E001066
:1010D00088010010840100102DE9F0410746FFF758
:1010E00099F80446FFF7F0FC2848002505802848B9
:1010F000056028480560284805602848056028489C
:101100000581FFF7F1FC2046FFF788F8FFF782F82A
:101110000646FFF7D9FC2348046816E0FFF77AF883
:101120000646FFF7D1FCC4F8A85044F86C5F25636D
:10113000A561A582E5826562A562FFF779FD44F8A5
:10114000200FA4F134008581646AFFF7CDFC30469E
:10115000FFF764F8002CE1D1FFF75CF80646FFF7D3
:10116000B3FC1148046806E0FFF754F80646FFF7A1
:10117000ABFCA585A469FFF7B7FC3046FFF74EF836
:10118000002CF1D13D80BDE8F08100002E0100105F
:1011900040010010540100107401001004010010FF
:1011A000002E0010480100101C010010F8B5044684
:1011B0006946244800F04CFBBDF8000058BB6A4665
:1011C0000021022000F07AFBBDF8000018BBFFF7F9
:1011D00021F80746FFF778FC1B4E00253560FFF726
:1011E00083FC3846FFF71AF8184919480A6803685B
:1011F0009A4202D9B2FBF3F010B90A21B2FBF1F026
:101200006A46002100F05AFB69460E4800F0AEF92C
:10121000BDF8000008B12080F8BDFEF7FBFF0746CF
:10122000FFF752FC0B480C490560306808600B4919
:1012300001200870FFF758FC3846FEF7EFFF2580C5
:10124000F8BD0000FC300010300100109458000080
:101250008058000040010010340100103C010010D3
:10126000704700002DE9FF4F83B004465148DDE987
:101270001785DDE910970078139E934610B147F269
:101280004A1025E054B1BBF1000F0AD067B14A48BB
:10129000006886420BD246F6306019E047F2AD1086
:1012A00016E047F24F1013E046F62F6010E0129858
:1012B000B04202D346F631600AE046F27320B9F13B
:1012C000200F05D2B9F11F0F06D13C498C4203D043
:1012D000288007B0BDE8F08F204601F0CBF84FF032
:1012E000000AA5F800A05FEA887007D538460021FB
:1012F000524601E004C0491CB142FBD3129800964B
:1013000007EB8000CDE901803A465846029B0699DA
:1013100000F068FAB84202D246F62C60D8E7C4F86A
:1013200028B00699E1620499A16084F837902060A2
:101330000298E06016986762A6636060A4F83C803B
:101340000020514604EB8002401C116710F0FF00A2
:10135000F8D004F15800149900F096FC204600F0F3
:1013600033F8FEF757FF0546FFF7AEFB94F837005A
:1013700000F024FE204600F07FFE204601F058F8E1
:101380000F490888401C08800E480078012807D0C3
:10139000FFF7AAFB07B02846BDE8F04FFEF73EBFB7
:1013A000FFF7A2FB2846FEF739FF07B0BDE8F04F74
:1013B000FFF7B2BD0001001090580000482D00104A
:1013C0004C01001008010010704700002DE9F84F93
:1013D000834652480A9D1C46007816460F4610B1B7
:1013E00046F2AE100AE03EB1080009D0B1F5004F58
:1013F00006D045F6256001E046F2D520288020E0A1
:101400004FF000090CB1C4F80090FEF703FF009004
:10141000FFF75AFBDFF808812B462246D8F8000078
:101420003146583000F004FC8246288860B1380408
:101430001DD546F2B0102880FFF756FB0098FEF746
:10144000EDFE0020BDE8F88F54B1FFF7F1FB2168F5
:10145000401AD8F800108866CA6E824200D2C86668
:10146000FFF742FB0098FEF7D9FE5046EAE72D4809
:10147000007838B1FFF738FB0098FEF7CFFE46F64C
:101480006350BBE700215B460222084600F048FC9F
:10149000FFF72AFB0098FEF7C1FEFFF73DFDFEF7C0
:1014A000B9FE8246FFF710FBD8F8000090F835101F
:1014B000A1B101294FF0000728D0A6F800901CB177
:1014C000D8F80000006C206047F2D9202880FFF790
:1014D0000BFB5046FEF7A2FE3846B3E7076DB0F8A7
:1014E000540030807CB1D8F80000006C2060FFF719
:1014F0009FFB0146D8F80000026C891A8166C26E13
:101500008A4200D2C166A5F80090E0E74846A6F8F6
:10151000009004B1206046F2A910D7E70001001046
:1015200084010010220100102DE9FC411C00089DDF
:1015300016460F4680460DD0102C0BD0B4F5004F48
:1015400008D0A4F50040103804D045F62560288066
:10155000BDE8FC81FFF76CFBCDE900052346324670
:101560003946404600F0DCFFF2E7000070B5054662
:1015700012480C46007818B147F25510088070BD2B
:10158000FEF748FE0646FFF79FFA1DB10C480068BB
:10159000854208D1FFF7A8FA3046FEF73FFE47F232
:1015A0005710208070BDFFF79FFA3046FEF736FED9
:1015B00021462846BDE8704001F000B80001001047
:1015C00084010010704700002DE9F04781464B4828
:1015D00014461D460078884610B146F2AE1006E06B
:1015E000080006D0B1F5004F03D045F625601880FD
:1015F0003FE0FEF70FFE8246FFF766FA404F0026F7
:101600003868416CD9B1491E884641640CB1006C00
:101610002060FFF70DFB39680A6C801AC1F898004A
:10162000D1F89C20824201D2C1F89C00FFF75CFAFD
:101630005046FEF7F3FD2E804046BDE8F0875FEA96
:10164000084009D5FFF750FA5046FEF7E7FD04B110
:10165000266046F2B0100BE02A48007858B104B179
:101660002660FFF741FA5046FEF7D8FD46F6635074
:1016700028800020E1E700214B460722084600F0C1
:101680004FFBFFF731FA5046FEF7C8FDFFF744FC69
:10169000FEF7C0FD8046FFF717FA396891F835006C
:1016A00030B1012816D003281AD046F62E601BE070
:1016B00074B1086C2060FFF7BBFA39680A6C801AB5
:1016C000C1F89800D1F89C20824201D2C1F89C0058
:1016D0002E800AE00CB1086C206046F2A91003E0ED
:1016E00004B1266047F2D92028803868446CFFF79F
:1016F000FBF94046FEF792FD20469EE700010010F0
:10170000840100102201001070B50C000646154639
:1017100007D0B4F5004F04D045F6256010800020B6
:1017200070BDFFF785FA02462B4621463046BDE8DC
:10173000704000F0AFBF00002DE9F0470546274894
:1017400016460F4600781C4610B147F259100AE0C1
:1017500046F2D5203FB136B1FEF75CFD8146FFF77A
:10176000B3F91DB104E01880BDE8F0871C48056896
:101770004FF00008286858B195F83C00C00713D016
:10178000FFF7B2F94846FEF749FD0020696A1AE002
:10179000FFF7AAF94846FEF741FDC7F8008047F277
:1017A0005210C6F800800AE0FFF79EF94846FEF79F
:1017B00035FDC7F8008047F25410C6F8008020803D
:1017C000D2E7401C091D0A68002AFAD03860A96BCC
:1017D000081A3060A4F80080C6E70000000100107D
:1017E0008401001010B5029C02EB840222F0070273
:1017F0004FF0807442E90204144842F80C0DA2F143
:1018000008004FF012344FF0033260E80B244FF021
:1018100002328262C0E908134FF01131C161D10078
:10182000816161104161910001614FF00731C16038
:101830004FF0063181604FF005314160510040F8B2
:1018400004196FF00201016010BD00007526000050
:10185000074A127812B147F25D1004E0054A90423F
:1018600003D147F25B100880704700F069BF0000A9
:1018700000010010482D001070B5FFF7D9F90D4C8C
:101880000D4A21681368994207D0D1F88C20821A3A
:1018900041F8882F8D682A448A60C3F88C00FFF7CE
:1018A000F5F82168D1F8A820824201D2C1F8A80039
:1018B00070BD000084010010880100102DE9F04186
:1018C00006461F480D461446007810B147F27520B1
:1018D00027E01C48007810B146F6635021E045B17E
:1018E000022D06D0042D05D0082D02D045F6256026
:1018F00017E0A6B1FEF78EFC0746FFF7E5F82A468B
:10190000114D23463146286800F0BAFF208858B1AF
:10191000FFF7EAF83846BDE8F041FEF77FBC47F232
:101920007E201080BDE8F081286800F0C1FBFFF741
:10193000DBF83846FEF772FCBDE8F041FFF7ECBA81
:101940000001001022010010840100102DE9F04771
:10195000424D1646DDE908242D7815B147F2752071
:1019600077E03F4D2D7815B146F6635071E012F0E7
:101970000E0547F27E2945F6256C05D0022D03D0D1
:10198000042D05D0082D15D113B90EB901B9E0B356
:1019900032F01E0700D0012767B9C2F3001247F2E8
:1019A000792C47F278284FF47A773AB142F20F72E5
:1019B000914212D9A4F800C0BDE8F087BB4202D31F
:1019C00047F27B2045E03B2E02D947F27A2040E0E7
:1019D0003B29EFD8632802D804E0B84202D3A4F828
:1019E0000080E9E71F4A4FF4FA7CC1EB011112684D
:1019F000BCFBF2FC63445343B3FBF7F34FF4616762
:101A0000784300EB8100304400E024E000FB023624
:101A10000EB3FEF7FFFB0746FFF756F82A46124DB6
:101A200023463146286800F02BFF208830B1FFF7AD
:101A30005BF83846BDE8F047FEF7F0BB286800F0D9
:101A400037FBFFF751F83846FEF7E8FBFFF764FA7B
:101A500000202080B0E7A4F80090ADE7000100105E
:101A60002201001094580000840100100C4808B5B1
:101A70000078012813D100F01DF86A4600210948BA
:101A8000FFF742FE08490868401E086007D1074872
:101A90006A460068086000210548FFF735FE08BD6A
:101AA0000801001044300010800100107C0100107B
:101AB000FC3000107047000010B5FEF7ABFB044689
:101AC000FFF702F8074A1178491C1170FFF70CF86C
:101AD0002046FEF7A3FBFFF7C9FFBDE81040FFF764
:101AE000D9B90000000100104FF0E021401E48610C
:101AF000064A106820F07F401060086940F0050039
:101B00000861086940F002000861704720ED00E0BC
:101B100070470000094C0A4DFEF77CFB0646FEF7B5
:101B2000D3FF2068401C20602868401C2860FEF716
:101B3000DBFF3046FEF772FBEEE70000FC00001012
:101B40003001001000B50E4A89B0002111600B224F
:101B500005910691CDE907200A480B4A0B4B006816
:101B600012681B680292CDE903011F20CDE9000332
:101B70000023074A07A10C48FFF774FB09B000BD1A
:101B8000FC00001068580000645800006058000015
:101B9000151B000075432F4F532D494949204964B7
:101BA0006C65205461736B00482D0010034A0021BE
:101BB0001160034A11800180704700001401001079
:101BC00018010010F0B5174E316859B1164F398819
:101BD00059B13B8831685B1E9DB2002301F11002B0
:101BE0001C460FE045F21E7101E045F21D710180B7
:101BF000F0BDE1E802245B1C21F8084B9BB241F8E0
:101C0000044C1032AB42F4D30C604C600C81CC60BD
:101C1000064932680A603A888A80CC800C81048048
:101C2000F0BD00007858000074580000002E00102D
:101C3000F0B544890025CCB14468278966680F80D7
:101C40000AB1E168116021684160B9B14189491E5A
:101C500041810C480168216004608188491C8180B1
:101C6000C188491EC1801D803046F0BD0D8002B183
:101C7000156046F2925018800020F0BD0560458145
:101C8000E7E70000002E00100181002141818181E1
:101C90000160416070470000F0B54489DDE905E668
:101CA0000589AC4202D346F293501EE01B4DAF882B
:101CB000CFB12C687F1ED4F800C0C5F800C0AF803B
:101CC000EF887F1CBFB2EF80B5F808C0BC4500D2DA
:101CD0002F814789002557B1DB060ED403681C60AD
:101CE000046025600CE045F21D703080F0BD04609A
:101CF000012344604381256005E04368236044601C
:101D000043895B1C4381878943899F4200D2838139
:101D100061602281C4F80CE03580F0BD002E001017
:101D20002DE9F041114D07460C462868002619465A
:101D300080F8342080F8356000F066FB64B1FC6008
:101D400004F1080601223946286800F011F83946E6
:101D5000304600F057F802E02868C6870663204640
:101D60002968BDE8F04100F01BB8000084010010B4
:101D700010B5C2870024234601630EE04B6041F892
:101D8000103B641C41F8103BA4B241F80C3C21F814
:101D9000083C41F8043C41F8180C9442EED310BDC5
:101DA00038B14268C1F8B420816889688968C16126
:101DB000704791F83400022803D0072803D004A00C
:101DC00002E004A000E005A0C1F8B40070470000E4
:101DD000200000005461736B205100005461736B4C
:101DE0002053656D0000000005A2C1F8B420816891
:101DF00011B18968896800E001A1C16170470000E4
:101E00002000000030B58A68002592F8374002684B
:101E10005AB103895B1C0381936893F83730A3425E
:101E200009D85268002AF7D10DE0012202814D60E5
:101E30000D6001600BE032B1136853B1C1E90032AB
:101E40005960116030BD4D6042680A605160416068
:101E500030BD1160C1E90052016030BD70B5046B46
:101E60000646002C0ED0F58F07E0E06821460830CA
:101E700000F009F86D1EADB22034002DF5D1002020
:101E8000F087306370BD10B50268002452685AB103
:101E90000A6862B14B6873B153601A600289521EBE
:101EA00002814C600C6010BD04604460F6E74A6833
:101EB00014600260F2E754604260EFE7F8B50C4648
:101EC000054691F836100026069808294ED2DFE81C
:101ED00001F04D4D04044D4D282894F83410032989
:101EE00010D02265A4F85430206435B12046FFF7A5
:101EF000B5FF21462846FFF777FF94F83600032800
:101F000006D008E000902146284600F030F8ECE7C3
:101F1000204600F0F9FC204600F078F884F836609E
:101F200020E094F83410032910D02265A4F854302E
:101F3000206435B12046FFF791FF21462846FFF780
:101F400053FF94F83600072806D008E00090214699
:101F5000284600F00CF8ECE7204600F0D5FC042001
:101F600084F8360084F8356084F83460F8BD70B5C4
:101F70000C6B049DC98F0AE0E668864204D1C4E96F
:101F800004022383E56170BD491E89B22034002913
:101F9000F2D170BD034810B50068FEF746F9C0B233
:101FA00010BD0000F80000100020034A014642F86E
:101FB0002010401CFBD07047F80000100121C0F138
:101FC0001F008140024802680A4302607047000017
:101FD000F80000100121C0F11F0081400248026892
:101FE0008A43026070470000F80000100020064B92
:101FF000024600EB400103EB8101401C0A810A60AC
:102000004A602028F5D370470C2E001010B5044606
:1020100090F83700FFF7D2FF074994F837000978A6
:102020008842204603D1BDE8104000F025B8BDE845
:10203000104000F003B800001A01001090F83710AB
:102040000C4A01EB410102EB810100220B684BB10C
:102050000B895B1C0B810B68C0E904320A68506174
:102060000860704701230B8102614261086048608B
:10207000704700000C2E001090F837100B4A01EB4F
:10208000410102EB810100220B6843B10B895B1C0B
:102090000B8102614A684261106148607047012308
:1020A0000B81026142610860F7E700000C2E00100E
:1020B00070B5044690F83700114900EB400001EB81
:1020C0008001D4E90420002540B10B895B1E0B81FF
:1020D000026192B150616561256170BD2AB10889C4
:1020E000401E088155610A60F5E70D810D604D6065
:1020F00094F83700FFF76EFFEDE74860EBE700006C
:102100000C2E00100EB5814E814D3068440004E065
:1021100020466A460021FFF7D1FB28780128F7D135
:102120006846FEF7D9FF7B4832680168914204D9BE
:10213000B1FBF2F15FEA010B03D100680A21B0FBA9
:10214000F1FB4FF47A7842F21076FEF771FD0290BF
:10215000FEF7ACFC70490860FEF75CF80546FEF738
:10216000B3FC6E486E4C0027016821600760FEF7E3
:10217000BBFC2846FEF752F86A48236802689A4278
:1021800028D96948824202D23046012113E06748CB
:10219000824202D240460A210DE06548824202D2C4
:1021A0006420014607E06348824202D20A20414689
:1021B00001E001203146B2FBF1F15843B0FBF1F0F0
:1021C0005D49301A80B208805C490A88824203D295
:1021D000088001E058480780FFF742F80025FEF725
:1021E00019F88146FEF770FCDFF854A1DAF80040D8
:1021F000FEF77AFC4846FEF711F8B9461AE0FEF7FA
:1022000009F80746FEF760FC54F8900FC4E9009007
:10221000FEF76AFC3846FEF701F860680544FDF7F2
:10222000F9FF0746FEF750FC246AFEF75DFC3846CE
:10223000FDF7F4FF002CE2D1E5B13B48854202D224
:102240003746012013E03948854202D247460A202A
:102250000DE03748854202D26427384607E035480A
:10226000854202D20A27404601E001273046B5FBED
:10227000F0F501E000270125FDF7CCFF0190FEF706
:1022800023FCDAF80040FEF72FFC019821E0D4F897
:1022900094007843B0FBF5F080B2B04200D93046EC
:1022A000A4F88000B4F88210814201D2A4F8820020
:1022B00004F1A0026B46111D2046FFF73DFAFDF721
:1022C000A9FF8246FEF700FCD4F8B040FEF70CFCF4
:1022D0005046FDF7A3FF002CD9D11A4801780129F7
:1022E00004D180F800906846FEF7F6FEFEF7A0FCE9
:1022F0000299401A14490A68824200D208606A466C
:1023000000215846FFF7DAFA1FE700008058000066
:102310003C0100109458000004010010300100102E
:102320003801001034010010801A060000093D0039
:10233000005A62020084D7172C0100102E010010F1
:10234000480100102A0100104001001030B51D4A5C
:1023500089B0002111601C4A1F4C11601B4A11609A
:102360001B4A11701B4A1170226842B11B4A1C4D56
:1023700013682D68AB4205D246F62C6108E046F69C
:102380002B6105E0174B1D781F2D04D346F62A61FB
:10239000018009B030BD032505910691CDE90750B4
:1023A0001148126824680068CDE902020491019482
:1023B0001878009000230D4A0DA11248FEF752FF35
:1023C000E7E7000030010010380100103401001070
:1023D0003C0100102A010010845800008C580000B5
:1023E000905800007C58000088580000052100002B
:1023F00075432F4F532D494949205374617420541C
:1024000061736B008C2F001010B5044631B10A4681
:102410000146064800F004FA032000E0022084F898
:1024200036002046BDE81040FFF742BE60010010B4
:10243000074B0022C0F8AC20196829B1C0F8B010D1
:10244000C1F8AC0018607047C0F8B020FAE700008F
:1024500048010010044A00211160044A1180044A16
:102460001160018070470000480100104C0100100D
:102470004401001070B500250560C5604560056128
:1024800045618561C561044605626562A562E562D4
:1024900020A02563A060E58725642565A4F8545035
:1024A000002104F15800FFF7EFFBA566E5666567BC
:1024B000A4F87C500020A56704EB8001401C0D6748
:1024C00010F0FF00F8D06564C4F89850C4F89C5030
:1024D000A56384F87E50C4F8A450C4F8A050A58722
:1024E000A564E564A4F88050A4F88250C4F8845030
:1024F000C4F888503434FEF79BFBC4E916056567C1
:1025000025706570A5702020E07004A0A567C4E95F
:102510001F5070BD3F5461736B000000200000002D
:102520002DE9FC470446DDE90A6500201F46904678
:1025300089462880FDF76EFE8246FEF7C5FA0CB983
:102540001D48046894F8360008282BD2DFE800F014
:10255000080804040808040494F8340002280FD082
:10256000CDE900653B464246494604F15800FFF775
:1025700093FBFEF7B9FA5046BDE8FC47FDF74EBEA7
:1025800043464A46214600200096FFF797FCFEF797
:10259000ABFA5046FDF742FE38040BD4BDE8FC47C9
:1025A000FEF7BABCFEF7A0FA5046FDF737FE46F636
:1025B0002D602880BDE8FC878401001070B50D46B1
:1025C0000446FDF727FE0646FEF77EFA0021298025
:1025D00094F83600082844D2DFE800F0040404042C
:1025E0000D232D37FEF780FA3046FDF717FE47F230
:1025F0005310288011E094F87E00401E10F0FF0078
:1026000084F87E0004D184F836102046FFF7FEFCE3
:10261000FEF76AFA3046FDF701FEBDE87040FEF7AE
:102620007BBC94F87E00401E10F0FF0084F87E0012
:10263000EED1012012E094F87E00401E10F0FF0061
:1026400084F87E00E4D1022008E094F87E00401E69
:1026500010F0FF0084F87E00DAD1032084F8360001
:10266000D6E7FEF741FA3046FDF7D8FD46F62D6075
:10267000288070BD054808B50068FEF7A3FF044C2C
:102680006A4600212068FFF719F9F9E78401001074
:10269000945800002DE9F8431E4615468846044626
:1026A000FDF7B8FD8146FEF70FFA0CB92348046820
:1026B000002046F6C5572564308094F83600082877
:1026C00030D2DFE800F004040F0F04040F0F656C34
:1026D000681C1ED06D1C6564FEF706FA4846FDF7BF
:1026E0009DFD28E094F834000728F0D100231A4615
:1026F000214618460095FFF7E1FB656CFEF7F4F9FB
:102700004846FDF78BFD5FEA084014D4FEF704FC51
:1027100011E0FEF7E9F94846FDF780FD378000201B
:10272000BDE8F883FEF7E0F94846FDF777FD46F689
:102730002D60308000252846F2E70000840100105B
:102740002DE9F0410D460446FDF764FD0746FEF70E
:10275000BBF9304E30485CB93178012907D0FEF71B
:10276000C3F93846FDF75AFD45F6896047E004682D
:10277000006884420AD12948007838B1FEF7B4F9DC
:102780003846FDF74BFD46F6635038E000202880C0
:1027900094F836100120082934D2DFE801F0040D46
:1027A0001B1F21212121042184F8361084F87E008A
:1027B0002046FFF77DFC01E005210CE0FEF794F9CF
:1027C0003846FDF72BFD3078012819D1BDE8F041DE
:1027D000FEF7A2BB062184F8361006E00721FAE7CF
:1027E00094F87E00FF2803D0401C84F87E00E5E7C3
:1027F000FEF77AF93846FDF711FD47F260102880A0
:10280000BDE8F081FEF770F93846FDF707FD46F6A2
:102810002D60F4E70801001084010010220100106F
:1028200030B50368002533B98D618A64C1E907506A
:10283000016001210FE09C6C944216D3DC698B612E
:102840008A6454B1C1E907409D6CAA1A9A64D9619F
:10285000A1618188491C818030BDC1E907509C6C11
:10286000A21A9A64D9610160F3E7121B1C469B69A6
:10287000002BE0D18D618A64C1E90740E8E70000E0
:102880002DE9F0031D4FDFF8789000263C6847F2F1
:102890007E2C042A0FD0082A14D00A461E8001215B
:1028A00080F836103968611ABDE8F0030A44014621
:1028B0001448FFF7B5BF0A1B4A4501D8002AEDD1DD
:1028C000866416E0D0F84C80A4EB08058D4202D94E
:1028D0000A46A11804E04A1B4A4503D812B14144F4
:1028E000C164DBE7B5FBF1F201FB02821144C0E9F0
:1028F0001261A3F800C0BDE8F0037047500100105A
:102900000000FFFF5801001030B5D0E90613026A3D
:10291000002473B1996121B1CB618B6C856C2B4420
:102920008B64C4619188491E9180846184640462CF
:1029300030BD31B1CC618B6C856C2B448B641160E4
:10294000F0E714609480F1E72DE9F0470546FEF7C3
:102950006FF91D4E81460027346854B3A06CB84609
:10296000A84227D82D1AC4F848804FF0040A7F1CCB
:1029700094F83600BFB2012802D0052806D007E03F
:1029800084F836802046FFF741FB01E084F836A04A
:10299000A46934605CB1B0884146401EB080C4F880
:1029A0001C80A06CA84205D82D1AA164DFE7A6F808
:1029B000048002E0401BA064D7D0F780FEF738F90E
:1029C000A0EB0900BDE8F087580100102DE9F047A1
:1029D0000546FEF72DF9254E814600273468B4B32D
:1029E000A06CB846A84236D82D1AC4F848804FF0DB
:1029F000030A7F1CC4F85080BFB2A4F85480FEF7CD
:102A000017F920642046FFF729FA94F836000328C6
:102A100002D0072806D008E02046FFF7F7FA84F82E
:102A2000368002E0042084F8360084F835A084F86B
:102A30003480A4694146346054B1B088401EB080EF
:102A4000E161A06CA84206D82D1AA164D1E705E087
:102A5000A6F8048002E0401BA064C8D0F780FEF70F
:102A6000E7F8A0EB0900BDE8F08700006001001066
:102A700008B5134C134D00226B4611461046FEF765
:102A8000A3FDBDF800000028F5D1FDF7C3FB80468B
:102A9000FEF71AF820680127401C20603846FFF72F
:102AA00053FF06463846FFF791FF296830448142BC
:102AB00000D22860FEF718F84046FDF7AFFBDAE7D2
:102AC000500100105401001030B51D4A89B000219A
:102AD00011601C4A1C4B116019609180D180998053
:102AE000D9801A4B1A6842B1194C1A4D22682D68C8
:102AF000AA4205D247F2132108E047F2122105E06D
:102B0000154A15781F2D04D347F21121018009B011
:102B100030BD0B2505910691CDE9075020680F4C7B
:102B20001B682468CDE90301CDE9013410780090D9
:102B300000230B4A0BA11048FEF794FBE7E70000C7
:102B40005001001058010010600100109C58000056
:102B5000A45800009058000098580000A0580000A9
:102B6000712A000075432F4F532D4949492054695C
:102B7000636B205461736B004430001030B5244AFD
:102B800089B000211160234A244C254B1160224A50
:102B90001180244A25681B680DB12C4600E00A24E8
:102BA000B3FBF4F313601A461F4B1A601F4A1160FF
:102BB0001F4A11601F4A136843B11F4B1F4D1C6809
:102BC0002D68AC4205D247F2483108E047F2473160
:102BD00005E01B4C25781F2D04D347F246310180B8
:102BE00009B030BD0B2505910691CDE90750186855
:102BF000144B12681B68CDE90301CDE9012320784D
:102C000000900023104A11A11648FEF72BFBE7E7BE
:102C100068010010700100106C010010AC58000039
:102C2000945800007C010010800100107801001011
:102C300074010010B0580000B8580000905800000F
:102C4000A8580000B4580000692C000075432F4FAD
:102C5000532D4949492054696D6572205461736B45
:102C600000000000FC3000100EB5DFF88C80DFF8AB
:102C70008CA0DFF88C9000216B4601AA0846FEF775
:102C8000A3FC02A8FEF786F9FDF7D2FFD8F80010E2
:102C90000646491CC8F800100327DAF8004018E07F
:102CA0006846FEF777F9A0692569401EA0610CD13E
:102CB000A08C02281CD0204600F024F884F826704E
:102CC000A26812B12046E16890472C466846FEF79C
:102CD0008DF9002CE4D1FDF7ABFFD9F80020801B63
:102CE000824201D2C9F8000002A8FEF77FF9C2E7CC
:102CF000206AA061E4E70000780100107001001074
:102D0000740100100C4A10B5146800230169844254
:102D100003D1116029B14B6103E04269116101B136
:102D20004A61012180F8261003614361034801884C
:102D3000491E018010BD0000700100106C010010E0
:102D400070B514460D46064600F014F805280CD060
:102D50002946304600F072F8016804F0070221F0BD
:102D6000070111430160002070BD014870BD0000E3
:102D70000100001002460520062A15D2DFE802F005
:102D8000032B3232323406292CD9A1F10A02012A4E
:102D900028D9121F082A25D90C2904D00D2902D0C0
:102DA000093A032A01D8012070471D290FD01E2996
:102DB0000DD01F290BD01B290BD01C2909D00729A6
:102DC00003D0082901D00929EED104207047022040
:102DD0007047032070471D2904D91E29E3D01F29FD
:102DE000E1D07047002070470129FBD90429F9D0B0
:102DF0000229EED00329ECD07047000070B51446CC
:102E00000D460646FFF7B6FF052803D0012804D07B
:102E1000094870BD0848401E70BD2946304600F084
:102E20000DF8016814B121F0800101E041F080014A
:102E30000160002070BD00000200001001EB401096
:102E4000014901EB8000704700C0024070B5154693
:102E50000C4600F093F8012104F108029140C26C85
:102E6000012D4FEA447301D023B104E003B90021DE
:102E70000A4304E0002147F67C638B431A40C26496
:102E800070BD70B514460D4600F078F80123C26C91
:102E9000AB4005F007012CB1022900D200231A43F0
:102EA000C26470BD022900D2002347F67C619943B9
:102EB0000A40F5E710B50C4600F060F84168012CB7
:102EC00003D001F00301416010BD41F00801FAE7B1
:102ED00070B50C4600F052F862780121012A227880
:102EE0001E4B02F0070202EB420228D001FA02F563
:102EF00023EA050245692A404261E278012A2278E4
:102F000002F0070202EB420202F101021CD001FAB8
:102F100002F523EA050245692A404261A278012AA6
:102F2000227802F0070202EB420202F1020201FAE9
:102F300002F10ED08B4341690B40436170BD45697E
:102F400001FA02F22A43D7E7456901FA02F22A435D
:102F5000E3E742691143416170BD0000FFFF1F00BC
:102F600010B50C4600F00AF84168012C03D001F0BE
:102F70000A01416010BD41F00101FAE718B10128D2
:102F800003D0002070470248704702487047000095
:102F900000400140008001402DE9F04115460E46F9
:102FA0000746FFF7EBFF044617B1012F03D0FEE7FA
:102FB0000121202001E001214020FDF725FD012015
:102FC000FDF732FD014600203F222260606020674D
:102FD0006061A062E064206566B1012E08D1687866
:102FE00000F00301287861F39F00216F08432067F8
:102FF000BDE8F0812A787AB16A6803460546A2FBEB
:10300000010603FB016102FB0511044A0023FDF7E1
:103010009EF9401EE060EBE76868FAE740420F0067
:1030200070B51E4614460D46FFF7A8FF072D12D2B5
:10303000DFE805F00406080A0C0E100084610AE0BF
:10304000C46108E0046206E0446204E0046402E053
:10305000446400E08464026D072D02D20121A9407E
:1030600000E000210A430265002E07D1416841F0CB
:1030700002014160416801F00901416070BD10B575
:10308000FFF77CFF416841F002014160416801F0B7
:103090000901416010BD02780A430270704701299E
:1030A000017A03D001F012010172704741F0010171
:1030B000FAE7012A07D0082915D2DFE801F02D31FF
:1030C00035393D41454908290DD2DFE801F00408B2
:1030D0000D1115191D21017B41F0010102E0017B59
:1030E00041F0020101737047017B41F00401F9E7EF
:1030F000017B41F01001F5E7017B41F00801F1E7A8
:10310000017B41F02001EDE7017B41F04001E9E75F
:10311000017B41F08001E5E7017B01F0FE01E1E781
:10312000017B01F0FD01DDE7017B01F0FB01D9E747
:10313000017B01F0EF01D5E7017B01F0F701D1E759
:10314000017B01F0DF01CDE7017B01F0BF01C9E7A1
:10315000017B01F07F01C5E70078084000D0012025
:103160007047000010B5074C01212046FFF7F4FF1F
:10317000002805D02046BDE810400121FFF78BBF95
:1031800010BD00000040024010B504460121480275
:10319000FDF73AFC0020207020722073FF2121747B
:1031A000206410BD017A41F002010172017A01F040
:1031B00011010172704770B5531E02F03F0502F015
:1031C0001F04082909D2DFE801F004090E131A1FB1
:1031D000262D3B2A01D880F8205070BD3B2AFCD810
:1031E00080F8245070BD172AFCD880F8284070BDA4
:1031F000062AFCD802F0070180F8301070BD1E2BA3
:10320000FCD880F82C4070BDB3F5B77FFBD2C2F379
:103210000801818670BD0B2BFCD802F00F0180F8ED
:10322000381070BDB2F5805FFBD2C2F30B0181870D
:1032300070BD0129416803D001F00D014160704764
:1032400041F00201FAE7000000214160034A4261B7
:1032500081600722C16002600161704740420F0037
:1032600070B5044621480D46844202D1012148052B
:103270000AE01F48844202D10121001504E01D48E4
:10328000844232D101210805FDF7BEFBA8882989B7
:103290002A880843298A1143084380B22060287B8A
:1032A00000F00F0060606D690120FDF7BDFB00219B
:1032B00003464A1E02200AE04A1C4243B3FBF2F2D4
:1032C000AA4204D9491CFF2901D90021801CAA4225
:1032D000F2D82268D2B2226022684FF6FF7303EA66
:1032E00001210A432260C0B2206170BD0080084005
:1032F0000000034000C00A408160704730B50028DC
:1033000011D089B10346002405E0491C03F8015B94
:10331000641C4BB141B10D780DB19442F5D3944288
:1033200001D20021197030BD002030BD002201E023
:10333000401C521C18B103780BB18A42F8D31046D6
:1033400070470000F0B5614CD4F804014FF0000262
:10335000C1055F482ED4D4F80C11C9071AD0D4F88F
:10336000A011490632D5D4F804115A4BC90629B127
:10337000D4F8041101F01F01B3FBF1F10160D4F89E
:10338000A851ED0614D0D4F8A85105F01F05B3FBE1
:10339000F5F304E0D4F804114F4BC906E7E74360A6
:1033A000D4F8003103F001035B1CB1FBF3F153E0EF
:1033B0000023F4E7D4F88810C90507D5D4F80C1118
:1033C000C90707D0D4F8A011490622D40260426090
:1033D000826042E0D4F8881001F01F03D4F8041191
:1033E000D4F8A85111F01F01D4F8006105F01F05B1
:1033F00006F0010603F1010306F1010603D0364F82
:103400005F43B7FBF1F101600DB1334F1EE00023C4
:103410001FE0D4F8881001F01F03D4F80411D4F889
:10342000A85111F01F01D4F8006105F01F0506F046
:10343000010603F1010306F1010603D0254F5F43A6
:10344000B7FBF1F10160002DE1D0224F7B43B3FBCC
:10345000F5F3B1FBF6F143608160D4F80811C905BA
:10346000D4F808111CD511F01F0103D0042903D092
:10347000062901D0C260F0BDD4F88810D4F8082124
:1034800001F01F01D4F80C3102F01F02491CDB07C8
:1034900001D0104B00E0104B5943B1FBF2F112E0A8
:1034A0008905E7D5D4F80C11C90705D0D4F8A810C0
:1034B000084A01F01F0104E0D4F88810064A01F020
:1034C0001F01491C5143C160F0BD000000C00F4006
:1034D0000000001080969800001BB70010B501F0A6
:1034E00021FA26482021C0F8A011D0F8A0114906E1
:1034F000FBD50122C0F80C210921C0F88410C0F8C6
:103500008020AA23C0F88C305524C0F88C40D0F815
:1035100088104905FBD52321C0F8A410C0F8A020CD
:10352000C0F8AC30C0F8AC40D0F8A8104905FBD5C5
:1035300040F20111C0F8041140F20121C0F8081155
:10354000C0F800210221C0F8B411C0F8A8110C493C
:10355000C0F8C4104FF48071C0F8C811D0F8B01191
:1035600041F00301C0F8B01145F23A01016005498C
:1035700000200860BDE81040FFF7E4BE00C00F4027
:10358000DE87280408ED00E010B5094C606868B9D2
:1035900001210846FCF754FE60614FF48961012067
:1035A000FCF74EFE6060D0F844148847606810BD98
:1035B0001400001010B5002000F044F800F00E00D8
:1035C00002280FD0042803D0062806D00C280ED1DC
:1035D000BDE8104006A001F023BABDE8104000206D
:1035E00000F052B8BDE8104001A001F027BA10BDAC
:1035F000554152543000000010B5012000F022F86F
:1036000000F00E0004280DD008DC002814D0022899
:1036100012D1BDE8104009A001F02CBA062806D04E
:103620000C2809D1BDE8104004A001F015BABDE88E
:103630001040012000F028B810BD00005541525440
:103640003100000040F2CF31052810D2DFE800F051
:10365000030507090B00074806E0074804E0074890
:1036600002E0074800E007488068084070470020F3
:103670007047000000C00040000001400080094089
:1036800000C0094000400A40052811D2DFE800F0E0
:10369000030507090C00074804E0074802E0074853
:1036A00000E00748007D704706484069C0B2704797
:1036B0000020704700C00040000001400080094029
:1036C00000C0094000400A404FF0804101280878BE
:1036D00003D020F001000870704740F0010008702E
:1036E00000F00CB84FF080410128087803D020F09A
:1036F00001000870704740F00100FAE700B572B6AB
:1037000000F002F862B600BDAA21480701725521F7
:103710000172704700F018B84FF0804238B10128AC
:103720000BD1107801290CD020F0020004E01078B1
:10373000012903D020F010001070704740F01000F5
:10374000FAE740F00200F7E7C008AFF3008000217D
:103750004A1EFF2801D2FF2004E0B0F1807F02D38F
:103760006FF07F4011464FF080425060084670472E
:1037700000B5FFF7E9FF02460120FFF7A5FF10465D
:1037800000BD2DE9F8430546D0F80C01904600260F
:10379000C46B027818341F468A4206D0284601F0CE
:1037A0008FF9C5F80C01C46B1834216881B14179D7
:1037B000C06B6B464246056C0220A84750B1BDF86D
:1037C0000010206800EBC10038603046BDE8F88387
:1037D0000220FBE70120F9E72DE9F8430546D0F880
:1037E0000C0190460026C46B027824341F468A429E
:1037F00006D0284601F064F9C5F80C01C46B2434E6
:10380000216891B1218981B14179C06B6B464246F3
:10381000056C0320A84750B1BDF80010206800EBEC
:10382000C10038603046BDE8F8830220FBE7012084
:10383000F9E72DE9FC4117460D460646002401F044
:1038400051FF40BB3888022826D301A9304601F039
:1038500067FD0198417803790A0281781143491C78
:103860008AB2C17843EA0123580704D0012000EB53
:10387000D300C0B201E0C3F3C7006BB169788142E5
:103880000AD100200090A91C304600F085F910B143
:1038900001F0A6F8044600E003242046BDE8FC81C0
:1038A000F8B517460D460646002401F01BFF30BB55
:1038B0003888022824D36946304601F031FD00984B
:1038C000417803790A0281781143491C8AB2C17890
:1038D00043EA0123580704D0012000EBD300C0B213
:1038E00001E0C3F3C7005BB16978814208D1A91C2C
:1038F000304600F08CF910B101F072F8044600E097
:1039000003242046F8BD2DE9FC4117460D46064626
:10391000002401F0E7FE00BB388802281ED301A96D
:10392000304601F0FDFC0198417803790A02817864
:103930001143491C8AB2C17853EA01230ED068783A
:10394000B0EB430F0AD100200090A91C304600F0D4
:103950008EF910B101F044F8044600E0032420463B
:10396000BDE8FC81F8B517460D460646002401F077
:10397000B9FE00BB388802281CD36946304601F0E6
:10398000CFFC0098417803790A0281781143491CE1
:103990008AB2C17853EA01230CD06878B0EB430FA8
:1039A00008D1A91C304600F061FA20B101F018F8E6
:1039B000044600E003242046F8BD2DE9FC411546ED
:1039C0000E468046002401F08DFE90BB2888022818
:1039D00031D301A9404601F0A3FC019948780D7943
:1039E000020288780B7A1043401C87B2C87845EAF7
:1039F00000254879020288791043401C82B2C879B8
:103A000043EA00237078B0EB450F13D101200090FA
:103A100040460A3100F02BF940B9002000902B46B7
:103A20003A46B11C404600F022F910B100F0D8FF30
:103A3000044600E003242046BDE8FC817CB5054631
:103A40001088002405280BD148780202887810439A
:103A5000401C82B2087918B9C878FF2803D010B189
:103A6000032420467CBD00238DF80530C87801264C
:103A7000FF280DD08DF80430012301A928460096B7
:103A800000F08AF80028ECD000F0AAFF0446E8E72E
:103A9000511E06FA01F08DF80400EDE738B5054631
:103AA00010880024052802D00324204638BD487819
:103AB00002028878C91C1043401C82B201200346D0
:103AC0000090284600F0D3F80028EED000F088FFE0
:103AD0000446EAE72DE9FC410646108800250C461D
:103AE000052803D0304601F0FDFD30B301A9304672
:103AF00001F016FC607823790102A0784FF00107ED
:103B00000843401C82B20199E07843EA00234C79D3
:103B1000580703D007EBD300C0B201E0C3F3C700DE
:103B20005BB1A04209D13046891D009700F034F8FE
:103B300020B100F055FF054600E003252846BDE80A
:103B4000FC817CB5054610880024052803D0284652
:103B500001F0C8FDE8B101A9284601F0E1FB019997
:103B600048788A780B7942EA0022C878521C43EAE6
:103B70000023487992B2B0EB430F0AD101200090A4
:103B80002846891D00F073F820B100F029FF044693
:103B900000E0032420467CBD2DE9F84FD0F80C71DD
:103BA0001E469146FC6B8B4680460025DDF828A01A
:103BB000183401F050F801463878884206D0404663
:103BC00000F07EFFC8F80C01C46B1834206878B18F
:103BD000208968B1A088A9F10102E18892B28242ED
:103BE00012D3901988420FD8BAF1000F0DD102E01C
:103BF0000120BDE8F88F02200090F3B259464046FC
:103C000000F0D0F9054600E001252846F1E72DE94E
:103C1000F843D0F80C711D469046FC6B8946064669
:103C2000243401F018F801463878884206D030462E
:103C300000F046FFC6F80C01C46B24342068A0B124
:103C4000208990B1A088A8F10102E18892B2824255
:103C50000BD35019884208D803200090EBB2494694
:103C6000304600F09FF9BDE8F8830120FBE72DE91D
:103C7000F84F4FF0000ACDF800A0D0F80C811C4698
:103C80009346D8F83C600D4607460C3600F0E3FF3B
:103C9000814697F8A20610B10020BDE8F88F98F889
:103CA00000104846494507D00146384600F008FF55
:103CB000C7F80C01C66B0C363068002879D0308903
:103CC000002876D0B088F188ABF1010296B2864226
:103CD00071D3301988426ED80A9800286DD162E0FD
:103CE0006B4632464946384600F069F815F8010B34
:103CF00015F8011B41EA0021009878B382696AB384
:103D0000037C012B55D090ED050AB5EEC00AF1EE0B
:103D100010FA0FD010EE103AB3F17E5F0AD000EE29
:103D2000901AF8EE600A80EE801ABCEEC10A10EE1E
:103D3000101A89B28378062B06D0052B0FD0032BDF
:103D400017D0022B1FD02AE003899BB28B422DD8BB
:103D5000808980B2884229D311801EE029E090F842
:103D600008C0CBB2634521D3007B83421ED81370B9
:103D700013E0038909B21BB28B4217DC808900B2C1
:103D80008842E9DA12E0037A49B25BB28B420DDC79
:103D9000007B40B2884209DB117000988180761C5C
:103DA000641EB6B2A4B2002C9AD106E0022074E7D9
:103DB00001E0012071E74FF0010A50466DE72DE95F
:103DC000F8430546D0F80C0190460026C46B0278F3
:103DD0000C341F468A4206D0284600F071FEC5F812
:103DE0000C01C46B0C342168A1B1218991B14179D6
:103DF000C06B6B464246056C0020A84760B1BDF819
:103E000000002168C0EBC00001EB80003860304644
:103E1000BDE8F8830220FBE70120F9E7F8B5054685
:103E2000D0F80C0117461E460278C46B8A4205D0B2
:103E3000284600F045FEC5F80C01C46B216889B125
:103E4000218979B14179256C6B463A460120A84712
:103E500050B1BDF80000216800EB400001EBC0004C
:103E60003060F8BD0220F8BD0120F8BD2DE9F84F03
:103E70004FF0000ACDF800A0D0F80C811C46934604
:103E80000D460746D8F83C6000F0E5FE814697F8FD
:103E9000A20610B10020BDE8F88F98F8001048463F
:103EA000494506D00146384600F00AFEC7F80C0125
:103EB000C66B306800286FD03089E8B3B188F088CD
:103EC000ABF1010296B28E4268D3311981425ED9BC
:103ED00064E06B46324649463846FFF79FFF15F8C7
:103EE000010B010215F8010B0843009921B34A693F
:103EF00012B30B7B012B4FD091ED040AB5EEC00A33
:103F0000F1EE10FA0FD010EE103AB3F17E5F0AD046
:103F100000EE900AF8EE600A80EE801ABCEEC10A4C
:103F200010EE100A80B28B78062B08D0052B0ED02D
:103F3000032B11D0022B00E02EE01AD023E04B68B7
:103F4000834227DC8968814224DB10801BE04B68B8
:103F500083421FDC896813E0B1F804C003B20FFA92
:103F60008CFC844516DC098909B2814212DB13807E
:103F700009E00B79C0B25BB283420BDC097A49B22B
:103F8000814207DB1070761C641EB6B2A4B2002C0E
:103F90009FD105E002207EE701207CE74FF0010A77
:103FA000504678E72DE9FF4F85B00020DDF848B096
:103FB0000390009001901C4690460D46059800F035
:103FC0004AFE4FF0010A0AEBD40604F007090290FA
:103FD0004AE0012E04D15FEA090001D0074600E063
:103FE000082700243BE0BBF1020F03D0BBF1030F15
:103FF0002FD118E06B46424602990598FFF7C1FBA6
:104000000098B8B34168A9B3C078012833D02878A4
:104010000AFA04F210400A78E040824219D008708F
:104020000099887015E001AB424602990598FFF7A8
:10403000D3FB0198F0B14168E1B1807801281AD032
:1040400028780AFA04F210400A78E040824200D050
:10405000087008F10100641C1FFA80F8A4B2BC4289
:10406000C1D3761EB6B26D1C002EB2D1039809B032
:10407000BDE8F08FFFE70120F9E7F8B5D0F82C4351
:1040800017460026236B04F118056A46022098475C
:1040900038B1BDF80010286800EBC1003860304628
:1040A000F8BD0120F8BDF8B5D0F82C43174600261E
:1040B000236B04F124056A460320984738B1BDF804
:1040C0000010286800EBC10038603046F8BD0120C0
:1040D000F8BDF8B5144612880026052A36D14A786C
:1040E00040F2CF7713028A781A43CB78521C1D0214
:1040F0000B7992B22B435D1EBD4227D20027278049
:10410000012501F8015BB4F800C00CF1010CA4F822
:1041100000C05FEA437C03D005EBD305EDB201E0BC
:10412000C3F3C70501F8015BB4F800C00CF1010C42
:10413000A4F800C0009700F0A3F918B100F060FCEB
:10414000064604E020882844208000E0032630460C
:10415000F8BD2DE9F041144612880026052A2FD11A
:104160004A7840F2CF7713028A781A43CB78521CF0
:104170001D020B7992B22B435D1EBD4220D2002559
:104180002580022501F8015B25886D1C25805D07CF
:1041900004D0012505EBD305EDB201E0C3F3C7055B
:1041A00001F8015B27887F1C278000F08AF918B18D
:1041B00000F026FC064604E020882844208000E029
:1041C00003263046BDE8F081F8B514461288002673
:1041D000052A25D14A780D7913028A781A43521C90
:1041E0006B1E92B27C2B1BD800232380032701F87F
:1041F000017B27887F1C27806F0001F8017B2788BF
:104200007F1C278000932B4600F087F918B100F03F
:10421000F7FB064605E0208800EB4500208000E023
:1042200003263046F8BD70B5144612880026052ACC
:1042300027D14A780D7913028A781A43CB78521C19
:1042400045EA03256B1E92B27C2B1AD200232380F1
:10425000042301F8013B23885B1C23806B0001F8D9
:10426000013B23885B1C23802B4600F03BFA18B1EE
:1042700000F0C6FB064605E0208800EB45002080E4
:1042800000E00326304670BD2DE9F84381461088D2
:10429000002715460C460A2845D360782679010286
:1042A000A078237A0843401C1FFA80F8E07846EA99
:1042B000002660790102A0790843401C82B2E079AF
:1042C000711E43EA0023607A7C292BD853B3792BE3
:1042D00028D8B0EB430F25D10120009004F10A014A
:1042E000484600F01AF9A0B9002028801722227051
:1042F0002A88611C521C2A80720001F8012B2A882E
:104300003346521C2A8000904246484600F005F988
:1043100018B100F075FB074605E0288800EB460061
:10432000288000E003273846BDE8F8837CB50546C1
:104330001088002405280BD14878020288781043A1
:10434000401C82B2087918B9C878FF2803D010B190
:10435000032420467CBD00238DF80530C878012653
:10436000FF280DD08DF80430012301A928460096BE
:1043700000F086F80028ECD000F042FB0446E8E7A5
:10438000511E06FA01F08DF80400EDE738B5054638
:1043900010880024052802D00324204638BD487820
:1043A00002028878C91C1043401C82B201200346D7
:1043B0000090284600F0B1F80028EED000F020FB75
:1043C0000446EAE7F8B50646108800241546052895
:1043D00029D948780B79020288784F791043401C1C
:1043E00082B2C8784FF0010C43EA0023580703D08B
:1043F0000CEBD300C0B201E0C3F3C700A3F1010E80
:10440000BEF5F66F0FD2B8420DD13046891DCDF8FA
:1044100000C000F035F818B100F0F2FA044603E0ED
:104420000520288000E003242046F8BDF8B50646A4
:1044300010880024154606281FD348780B790202FD
:1044400088781043401C82B2C87843EA0023487938
:104450005F1E772F11D85F063F0E87420DD10120D6
:1044600000903046891D00F058F818B100F0C8FAE5
:10447000044603E00520288000E003242046F8BD20
:10448000F8B50546521ED5F82C430020069EA78B92
:10449000E48B92B2BA4212D3D718A7420FD80224A3
:1044A0003EB1012E04D1DBB22846009400F0C8F9D9
:1044B000F8BDDBB22846009400F072F9F8BD012087
:1044C000F8BD38B5D0F82C43521E92B2258D648DBC
:1044D000AA4208D3D518A54205D80324DBB200941C
:1044E00000F05EF938BD012038BDF8B5D0F82C4396
:1044F00016460025236B04F10C076A4628469847A8
:1045000048B1BDF80010386801EB410100EBC10073
:1045100030602846F8BD0120F8BD2DE9F84F0D4662
:104520004FF000090A998246CDF80090D0F82C038C
:104530001C46521E038A408A96B29E427DD332198F
:1045400082427AD84FF07E58E9B3012942D1A7E0E0
:104550006A4631465046FFF7C8FF009800286DD0E4
:10456000017B01296AD08178062909D0052904D068
:10457000032905D0022906D009E041690F7806E039
:1045800041690F8803E0416991F900108FB290ED05
:10459000040AB5EEC00AF1EE10FA0ED010EE100AC1
:1045A00040450AD000EE907AF8EE600A20EE200A2C
:1045B000BCEEC00A10EE100A87B2380A05F8010BEB
:1045C00005F8017B00E003E0761C641EB6B2A4B2DD
:1045D000002CBDD16EE06A4631465046FFF785FF9C
:1045E00015F8010B010215F8010B0843009929B3D6
:1045F0004A691AB30B7B022B58D091ED040AB5EE31
:10460000C00AF1EE10FA0ED010EE103A43450AD06F
:1046100000EE900AF8EE600A80EE801ABCEEC10A45
:1046200010EE100A80B28B78062B08D0052B0ED026
:10463000032B14D0022B21D02EE039E036E04B685A
:10464000834230DC896881422DDB118812E04B689F
:10465000834228DC8968814225DB117819E08B8848
:1046600000B21BB283421EDC098909B281421ADB07
:10467000B2F9001081420FD010800DE00B7940B2EA
:104680005BB283420FDC097A49B281420BDB92F9BB
:104690000010814200D01070761C641EB6B2A4B225
:1046A000002C98D106E00220BDE8F88F0120FBE73E
:1046B0004FF001094846F7E7F8B5D0F82C43164605
:1046C0000025236B6A460120984748B1BDF80010C9
:1046D000206801EB410100EBC10030602846F8BDC5
:1046E0000120F8BD2DE9F8434FF000088146CDF8D0
:1046F0000080D0F82C030E46521E8188C08897B2E5
:104700001D468F4248D3791981423ED944E06A461A
:1047100039464846FFF7D0FF0098C8B3017B01290E
:1047200037D08178062909D0052904D0032905D07E
:10473000022906D009E041690C7806E041690C883D
:1047400003E0416991F900108CB290ED040AB5EED6
:10475000C00AF1EE10FA0FD010EE100AB0F17E5F31
:104760000AD000EE904AF8EE600A20EE200ABCEE75
:10477000C00A10EE100A84B2200A7F1C06F8010B52
:104780006D1E06F8014BBFB2ADB2002DBFD105E0E2
:10479000FFE70120BDE8F8834FF001084046F9E744
:1047A0002DE9FF4F83B00020DDF840B04FF0010A43
:1047B00090460D4601900AEBD30603F007090090DE
:1047C00036E000202870012E04D15FEA090001D0F4
:1047D000074600E00827002425E0BBF1020F03D0C4
:1047E000BBF1030F0BD105E06A4641460398FFF782
:1047F00044FC04E06A4641460398FFF754FC0098E5
:10480000E0B14168D1B18078012817D0087820B193
:1048100029780AFA04F00143297008F10100641CA8
:104820001FFA80F8A4B2BC42D7D3761EB6B26D1C74
:10483000002EC6D1019807B0BDE8F08F0120FAE73D
:104840002DE9FF4F83B00020DDF840B04FF0010AA2
:1048500090460F4601900AEBD30503F0070900903C
:1048600036E0012D04D15FEA090001D0064600E0E0
:104870000826002427E0BBF1020F03D0BBF1030F91
:104880000BD105E06A4641460398FFF7F6FB04E0CA
:104890006A4641460398FFF706FC0098F0B141686C
:1048A000E1B18078022819D038780AFA04F2104071
:1048B0000A78E040824200D0087008F10100641CD0
:1048C0001FFA80F8A4B2B442D5D36D1EADB27F1CDE
:1048D000002DC6D1019807B0BDE8F08F0120FAE79E
:1048E000F0B58BB01746DDE910E400221E464FF00C
:1048F000030CCDE9062C0A23B4FBF3F309AD0592B2
:104900000895ADF82420CDE902340492CDE9006E7B
:104910000A463B460021FCF7A5FCBDF824000BB07D
:10492000F0BD00000CB50E4A0C48111D1268009233
:104930000968019111460B4A914204D10199A1F1F4
:104940008852113A08D00021002904D0016841F4AE
:104950007001009101600CBD0121F5E788ED00E0D8
:1049600040EF00E0210011108CB00024ADF824408D
:10497000ADF82840FCF7A8F90AA911A0FCF730F916
:10498000FCF737F809A8FCF7EFF909A80721059407
:104990000694CDE907100C4801AB4FF48072416ECC
:1049A00083E817000220009007480023074A08A167
:1049B000B838FCF757FC09A8FCF750FBFEE70000ED
:1049C0004C50433430383800B803001089090000D7
:1049D000417070205461736B2053746172740000D5
:1049E000002806D0012805D0022805D0072805D0C8
:1049F000042070470220704703207047062070474C
:104A0000002806D0012805D0022805D0072805D0A7
:104A1000042070470220704703207047062070472B
:104A200010B500F035F8002804D003490968BDE846
:104A30001040084710BD0000B401001010B500F090
:104A400027F8002804D003490968BDE8104008474A
:104A500010BD0000B801001010B500F03DF80028AE
:104A600004D003490968BDE81040084710BD0000A4
:104A70006C02001010B500F02FF8002804D0034994
:104A80000968BDE81040084710BD00007002001022
:104A900070B506460948002584680BE02846D4F81E
:104AA000EC10FBF7CBFC31462846FBF745FD18B16F
:104AB000D4F8A448002CF1D1204670BD900100101C
:104AC000D0F80801002805D002788A4202D0006C94
:104AD0000028F9D17047000070B506460948002546
:104AE00084680AE02846616EFBF7A8FC3146284638
:104AF000FBF722FD18B1D4F83C44002CF2D120463B
:104B000070BD00004802001030B500210C46B0F521
:104B1000D87F02DDA0F5D87201E0C0F5D8720C4D47
:104B200013B235F91120824201DA821A00E0121A1A
:104B300012B2934201DD13460C46491CC9B25129F9
:104B4000EFD3034952390957401A00B230BD000073
:104B50004657000002460020511E07290BD8114974
:104B6000092A08D2DFE802F00705080B0E11141716
:104B70001A00B1F904007047B1F902007047B1F9A9
:104B800000007047B1F906007047B1F90E00704798
:104B9000B1F90A007047B1F908007047B1F90C008B
:104BA000704700008818001003494843000B962105
:104BB000B0FBF1F000B2704710090500044A01286B
:104BC00004D0D078C84000F0010070479078F9E731
:104BD00068000010014600204A1E0E2A2CD8102919
:104BE0002AD2DFE801F029080A0D0F111315171951
:104BF0001B1D1F212325042100E00621022019E0AE
:104C00000221FBE70121F9E70021F7E70321F5E79E
:104C10000521F3E704210CE006210AE0022108E067
:104C2000012106E0002104E0032102E0072100E069
:104C300005210120FFF7C2BF70470000014800783E
:104C4000704700006800001010B50120FCF71EF846
:104C5000C0F3C26010BD90F8A00670470948022258
:104C60004078C0F3400141EA001102EA50021143CA
:104C700000F008021143042202EA900001431F20C1
:104C8000884370476800001030B50021421E072A93
:104C90000CD8074901EB001151E90445FFF75AFF11
:104CA00002462146284600F041F80146084630BD3C
:104CB000981800102DE9F043002687B0DFF86880CF
:104CC000354637463446E94601214046FBF70BFEA0
:104CD000012202214046FBF7DFFD0028F8D0022127
:104CE0004046FBF7D3FD494649F824004CB1012C5E
:104CF00001D1019E3546B04200D90646A84200D2F5
:104D00000546641CE4B2072CDED3012051F82020B4
:104D1000401CC0B217440728F8D3B81B401B07B08B
:104D20008008BDE8F08300000040034070B50546F0
:104D30000E4600241046FFF7E7FEB0F5C87F08DBFB
:104D4000711BA0F5C87041434FF4C86091FBF0F0AF
:104D50004419204670BD4278012191400078FBF74C
:104D60006DBF00002DE9F04786B018225B49684608
:104D7000FBF788FBFBF786FF594802224178007851
:104D8000FDF7DEFF5748022241780078FDF7D8FF93
:104D90005548022241780078FDF7D2FF6846FEF7B9
:104DA00053FA5248524C059069462046FEF758FA8D
:104DB00001212046FEF73DFA4E4E002271783078F0
:104DC000FDF7BEFF7078012505FA00F10F46307837
:104DD0000022FBF762FF39463078FBF76CFF464E46
:104DE000002271783078FDF7ABFF7078012205FA68
:104DF00000F10F463078FBF750FF39463078FBF76B
:104E00001DFF3E4E002271783078FDF799FF7078D3
:104E1000012205FA00F10F463078FBF73EFF3946D4
:104E20003078FBF70BFF4FF4AE084146012000F04D
:104E300091FBDFF8CC900120494600F08BFB4FF44A
:104E4000803A5146012000F085FB2E4E00227178F9
:104E50003078FDF775FF7078002205FA00F10F46F3
:104E60003078FBF71AFF39463078FBF724FF264EDF
:104E7000002271783078FDF763FF7078012205FA1F
:104E800000F10F463078FBF708FF39463078FBF722
:104E9000D5FE1E4E002271783078FDF751FF7078F4
:104EA000012205FA00F10D463078FBF7F6FE29469F
:104EB0003078FBF7C3FE4146022000F04BFB494629
:104EC000022000F047FB5146022000F043FBE1685E
:104ED0000029FCD006B0BDE8F08700003058000083
:104EE0000C580000085800000A580000C0C62D00E9
:104EF0000000034000580000FE570000FC5700006F
:104F00000510550006580000045800000258000023
:104F10002DE9F04100240F4D0127002255F824000F
:104F200041780078FDF70CFF55F824000122417804
:104F3000007807FA01F63146FBF7AFFE55F824007A
:104F400031460078FBF77AFE641CE4B20D2CE4D302
:104F5000BDE8F0816C0000101CB5CDE900230B46C4
:104F600000220249FFF7BCFC1CBD0000714F00008D
:104F70001FB50020DFF844800190ADF80800ADF8BF
:104F80000C004FF4007703AE002101AB02AA0846E3
:104F90000096FCF71BFA0546D8F804400BE0286899
:104FA0002168884206D100963B460822294660685F
:104FB000FCF7BAFAA468002CE5D0F0E7D0000010A6
:104FC0002DE9FC411D4614460F468046FBF75AFE6C
:104FD00000221B210120FDF7B3FE00221C2101202D
:104FE000FDF7AEFE00221D210120FDF7A9FE0022E3
:104FF0001C211046FDF7A4FE00221D211046FDF7DE
:105000009FFE002213210120FDF79AFE01221921A3
:105010000020FDF7F3FE012219210020FDF790FE8C
:105020000122D1061046FBF738FE01221607314651
:105030001046FBF732FE012251071046FBF72DFE0A
:10504000002231461046FBF728FE00224FF0C041F7
:105050001046FBF722FE002271120120FBF71DFE15
:105060000022F1100120FBF718FE4FF060510120E3
:10507000FBF7E4FD0A4E09493046FBF71AFC012212
:1050800002213046FBF7F0FB3B4600220549404633
:10509000CDE90045FFF724FCBDE8FC81400D03008D
:1050A00000400340AD5100002DE9F0474FF00008EB
:1050B0008CB047464546202102A8FBF715FAC246A8
:1050C000ADF828A0544604F10109002609F0FF00BC
:1050D00000F07CF80AE00AA9CDE900A100220A2329
:1050E00011461046FCF732FC761C36B2FFF7ACFDD9
:1050F000A04201D00A2EEEDB0020FBF7C7FDC0F373
:105100000070A04040EA080000F0FF080020FBF714
:10511000BDFDC0F34070A0403843C7B20120FBF78B
:10512000B5FDC0F3C040A0402843C5B2FFF7C2FDA3
:1051300002A941F82400FFF737FD1A4921F81400AD
:105140000FFA89F4082CBEDB174E002486F8018084
:10515000B770F57001F1100707EB0415E86828B186
:10516000601CC0B2FFF790FDE9680860641C24B2BF
:10517000082CF1DB0B4C0023903454F8230030B1A1
:10518000581CC0B2FFF726FD54F8231008705B1CB2
:105190001BB20F2BF1DBFFF761FD30700CB0BDE8E7
:1051A000F087000088180010680000100EB5002479
:1051B000ADF80840FFF778FF02A8CDE900400023D2
:1051C000012219461846FCF7C1FBF3E72DE9F04729
:1051D0004FF00067BE004FF060514FF040544FF069
:1051E00020554FF080584FF0C05909282ED2DFE8E3
:1051F00000F02D2D050B11171D232800214601203D
:10520000FBF71CFD39461CE029460120FBF716FD83
:10521000414616E031460120FBF710FD494610E0FB
:1052200049460120FBF70AFD31460AE041460120CC
:10523000FBF704FD294604E039460120FBF7FEFC9C
:105240002146BDE8F0470120FBF735BDBDE8F0473A
:105250000120FBF7F3BC00002DE9F05FFBF712FD26
:10526000254C002261782078FDF76AFD234D00224D
:1052700069782878FDF764FD214E00227178307836
:10528000FDF75EFD1F4F002279783878FDF758FD55
:1052900060784FF0010808FA00F18B46207842460A
:1052A000FBF7FBFC6878012208FA00F18A462878AF
:1052B000FBF7F3FC7078012208FA00F18946307898
:1052C000FBF7EBFC7878012208FA00F18846387881
:1052D000FBF7E3FC59462078FBF7EDFC51462878B4
:1052E000FBF7E9FC49463078FBF7E5FC41463878A6
:1052F000BDE8F05FFBF7DFBCEA570000EC570000A9
:10530000EE570000E85700004278012191400078F4
:10531000FBF7D1BC4278012191400078FBF78EBCAD
:1053200000F2A5600860704710B5FFF7F1FDFFF7C8
:1053300019FDBDE8104000F001B80000FEB52F488F
:10534000002401260068019025468DF8044001AA3A
:10535000214630460296FDF71FFE294F022257F8DC
:10536000240041780078FDF7EBFC641CE4B2062CC5
:10537000F4D30023C82219460120FDF751FE8DF811
:1053800000508DF801508DF803608DF80250694689
:105390000120FDF79DFD0224002221460120FDF79A
:1053A00070FD641CE4B2072CF6D3012400231A46D6
:1053B00021460120FDF734FE8DF800408DF80150A4
:1053C0008DF803508DF8025069460120FDF780FDED
:1053D000012221461046FDF739FD641CE4B2072C7A
:1053E000E4D30120FDF74BFE01210846FDF7B8FD8F
:1053F00001210846FDF75EFDFEBD000028580000B3
:10540000A000001010B51A4C2046FDF7BDFE204646
:10541000FDF7C8FE01212046FDF741FE01220021D3
:105420002046FDF746FE1120FBF7E5FA0022114663
:105430002046FDF7C0FE002201212046FDF7BBFEFD
:10544000002202212046FDF7B6FE0B22062120464F
:10545000FDF7B1FE40F2E17207212046FDF7ABFEF9
:1054600020460122BDE810400421FDF7A4BE000043
:10547000004002402DE9F04188B014460F468046B6
:105480001D461822134902A8FAF7FCFF02220F2139
:105490000020FDF755FC022212210020FDF750FCF0
:1054A00002A8FDF7D1FE0C4E02A93046FDF7D8FE4A
:1054B00001213046FDF7BDFEFFF7CEFE3B46002240
:1054C00006494046CDE90045FFF70AFA08B0BDE8B5
:1054D000F081000048580000008008401D55000081
:1054E00010B50C4C0C482146637809780A2263B148
:1054F000B1FBF2F302FB131104F10C02515CFDF756
:10550000FBFE6078C043607010BDB1FBF2F1014A50
:10551000921CF3E7B8000010008008400EB500258B
:105520000B4CADF80850207858B1FFF7D9FF02A80E
:105530000523CDE90050002211461046FCF706FA7B
:10554000F1E7FFF77BFB207002A80A23F1E70000D8
:10555000B8000010F8B50A0A8DF80210090C8DF891
:105560000120304D8DF800106E4601282DD0022804
:105570002AD12D4800F060F82C4800F05DF8142086
:10558000401E0028FCDC2848FFF7E5FB1420401EE5
:105590000028FCDC00242846315DFDF7ADFE641CCC
:1055A000E4B2022CF7D9E868C007FCD01F48FFF727
:1055B000D2FB3220401E0028FCDC1C4800F03CF8E6
:1055C0003220401E0028FCDCF8BD194800F034F8F9
:1055D000184800F031F81420401E0028FCDC144864
:1055E000FFF7B9FB1420401E0028FCDC00242846ED
:1055F000315DFDF781FE641CE4B2022CF7D9E86846
:10560000C007FCD00B48FFF7A6FB3220401E002845
:10561000FCDC084800F010F83220401E0028FCDCBA
:10562000F8BD0000000003400458000002580000CC
:10563000FE570000FC57000042780121914000789D
:10564000FBF739BB30B4044C2170A360C4E90302FA
:1056500030BCFDF799BF0000140000100EB5002506
:10566000ADF808504FF4FA760C48FFF753FE02AC41
:105670000023CDE90054012219461846FCF766F9CB
:105680000648FFF741FE0022CDE90054334611469B
:105690001046FCF75BF9FEF731F8E5E7E857000044
:1056A0002DE9FC410D4E80461D4614460F463046FE
:1056B000FEF730F80120FEF715F801210846FEF745
:1056C0002BF83046FEF754F83B460022044940468A
:1056D000CDE90045FFF704F9BDE8FC81809698000C
:1056E0005D56000090F8A30670474FF04070E1EE61
:1056F000100A7047202020212020201F1F1F20205B
:105700001F1F1F1F201F1F1E1E1D1F1F1E1E1D1DB2
:105710001C1D1D1D1C1C1B1D1D1C1C1B1A1B1B1ACC
:105720001917151312100E0D0C0B0D0C0B0B0B0A89
:105730000B0B0A0909080A080807060606060503EE
:105740000100F1D6C400B001C401D801ED0100028E
:10575000140228023B024F02630278028C029F026D
:10576000B302C702DB02F002030317032A033E035E
:10577000510367037B038E03A203B503C903DC0354
:10578000F103050419042C044004530469047D0446
:105790009004A404B704CA04DF04F3040605190541
:1057A0002B053D054F056205740586059905AC0579
:1057B000BF05D505E805FB050F06230636064B0693
:1057C0005F06720685069906AC06C206D406E80690
:1057D000FB060E07220736074A075D076F0781079A
:1057E0009407990792079407011F031A001B0319D6
:1057F00001120114011501170118011A0005000416
:10580000041C02050204020300080009000700004E
:105810000001000A000B020D020C00130010020927
:10582000020802070206020B00000000010000004F
:105830000700000000000000000000000000000061
:105840000000000040420F000700000000000000C0
:10585000000000000000000000000000809698009A
:10586000781D00100C00000080000000781F001060
:105870008000000064000000782100101D0000007E
:105880000A000000B82700100A00000064000000B1
:1058900040000000E803000001000000482900105B
:1058A0000C000000800000000B000000E803000076
:1058B000482B00100C00000080000000DC580000A5
:1058C000000000100003000020010000BC5900008F
:1058D00000030010183700007C010000112808E1C7
:1058E000F50580F0FA020411356CDC0201720A023F
:1058F000118012FA3BF40101112928417C020202B5
:105900000C7C0303030C7C0404040C3C0505050C0F
:10591000230E581A10041A12041A14041A16041A20
:1059200018041A1A041A1C041A1E041A20041A2233
:10593000041A24041A260423F0571AF2041AF40451
:105940001AF6041AF8041AFA04211013C0F9A4B0C4
:10595000999282F88090407924301912027802FAE4
:1059600010320423653932031A0708321023433BEF
:105970003206239D3A32171ABB18320123333832CC
:10598000051A3D18320F1AD50832021AA1180972E9
:10599000B84B2742B84BC941B84B2D44B84B8D4347
:1059A000B81A892029B84BD340B81A2D1829B81A2B
:0C59B000C50829B81A533801380000005F
:04000005000000E512
:00000001FF
