:020000040000FA
:10000000D8360010C5010000CD010000CF0100006E
:10001000D1010000D3010000D50100009EF3FFEFE5
:10002000000000000000000000000000D7010000F8
:10003000D901000000000000590500004D18000023
:10004000DF010000DF010000DF010000DF01000030
:1000500095330000DD33000021340000DF01000093
:10006000DF010000DF010000DF010000DF01000010
:10007000DF01000000000000DF010000DF010000E0
:10008000DF010000252F0000DF010000DF0100007C
:10009000DF010000DF010000DF010000DF010000E0
:1000A000DF010000DF010000DF010000DF010000D0
:1000B000DF010000DF010000DF010000DF010000C0
:1000C000DF010000DF010000DF010000DF010000B0
:1000D000DF010000DF010000DF010000DF010000A0
:1000E000DF01000000F002F800F05CF80AA090E8E0
:1000F000000C82448344AAF10107DA4501D100F0E3
:1001000051F8AFF2090EBAE80F0013F0010F18BF53
:10011000FB1A43F001031847C0560000E0560000E8
:100120000A444FF0000C10F8013B13F0070408BF1D
:1001300010F8014B1D1108BF10F8015B641E05D0BB
:1001400010F8016B641E01F8016BF9D113F0080F70
:100150001EBF10F8014BAD1C0C1B09D16D1E58BF02
:1001600001F801CBFAD505E014F8016B01F8016B39
:100170006D1EF9D59142D6D37047000000230024AC
:1001800000250026103A28BF78C1FBD8520728BFA7
:1001900030C148BF0B6070471FB505F034FA1FBD72
:1001A00010B510BD00F08AF91146FFF7F5FF04F015
:1001B00045FB00F0A8F903B4FFF7F2FF03BC00F021
:1001C000A9F900000948804709480047FEE7FEE713
:1001D000FEE7FEE7FEE7FEE7FEE7FEE7FEE7FEE7F7
:1001E00004480549054A064B70470000F5320000F7
:1001F000E5000000D82E0010D8360010D8320010CC
:10020000D832001072B6704762B67047EFF31080B4
:1002100072B6704780F31088704730BF704720BFB8
:100220007047B0FA80F0704790FAA0F0B0FA80F012
:10023000704790FAA0F0704740EA0103024630B5DB
:100240009B0710D14FF0013400E008C208C91D1B04
:100250009D4315EAC41FF8D013F0FF0102F8011BFB
:100260000DD01B0AF8E711F8013B002B02F8013B07
:1002700005D011F8013B002B02F8013BF3D130BD52
:1002800010B5203AC0F00B80B1E81850203AA0E831
:100290001850B1E81850A0E81850BFF4F5AF5FEA65
:1002A000027C24BFB1E81850A0E8185044BF18C918
:1002B00018C0BDE810405FEA827C24BF51F8043BBF
:1002C00040F8043B08BF7047D20728BF31F8023B13
:1002D00048BF11F8012B28BF20F8023B48BF00F8A7
:1002E000012B704770477047704700000048704707
:1002F000782E001070477047FFF784BFFFFFFFFFA5
:1003000053EA020C00F069802DE9F04B4FF0000633
:10031000002B1FBFB3FA83F503FA05F424FA05F6A0
:100320005E4012BF1643B2FA82F502FA05F4C5F137
:1003300020051EBF22FA05FC44EA0C04203556EACB
:10034000044C4FEA144418BF641C4FF000084FF0EF
:100350000009904271EB030C39D3002919BFB1FA9F
:1003600081F701FA07F6B0FA80F700FA07F6C7F14D
:1003700020071EBF20FA07FC46EA0C062037B6FB12
:10038000F4FCA7EB0507103F07F01F0BCBF120068D
:100390000CFA0BFB2CFA06F644BFB3460026202FBE
:1003A000A4BF5E464FF0000B5BEA060C08BF4FF09F
:1003B000010B19EB0B09ABFB027C48EB0608C01BD9
:1003C00006FB02CC0BFB03CC71EB0C01C1E70B4627
:1003D000024641464846BDE8F08B13B54FF0000099
:1003E0004FF00001AFF30080BDE81C4070474FF0B4
:1003F000000200B5134694469646203922BFA0E875
:100400000C50A0E80C50B1F12001BFF4F7AF090780
:1004100028BFA0E80C5048BF0CC05DF804EB890071
:1004200028BF40F8042B08BF704748BF20F8022BB4
:1004300011F0804F18BF00F8012B70474FF0013CBE
:1004400050F8042B51F8043B9A4221D1A2EB0C0343
:10045000934313EACC1317D150F8042B51F8043B03
:100460009A4215D1A2EB0C03934313EACC130BD1A0
:1004700050F8042B51F8043B9A4209D1A2EB0C032B
:10048000934313EACC13DBD04FF00000704700BF5A
:10049000D01A01BAB1FA81F101F0180122FA01F083
:1004A000CB40C1F12001DBB2C0B2C01A2CFA01F37B
:1004B000D11A914311EAC311E6D170477546FFF78F
:1004C00015FFAE4605006946534620F007008546F5
:1004D00018B020B5FFF784FEBDE820404FF00006BD
:1004E0004FF000074FF000084FF0000B21F007011C
:1004F000AC46ACE8C009ACE8C009ACE8C009ACE85F
:10050000C0098D4670470446AFF300802046FFF7D0
:1005100052FE000001491820ABBEFEE72600020093
:10052000224C4FF6FF7525604FF0000484F30988D4
:100530001F4C4FF0010525701E4C4FF08055256073
:1005400062B6FEE71B484FF08051016070471948C2
:100550004FF080510160704772B6EFF3098050B1DF
:100560001EF0100F08BF20ED108A734620E9F80F27
:1005700011490968086000B5104880475DF804EB30
:100580000F4810490A7802700B480F490A68026048
:100590001068B0E8F80F9E461EF0100F08BFB0ECD0
:1005A000108A80F3098862B67047000022ED00E0EF
:1005B000AC00001004ED00E028010010DD15000083
:1005C000BE000010BF0000102C01001001238B4062
:1005D000012A0BD0016811F0E06F03D0016821F00F
:1005E000E061016001689943016070470168194347
:1005F0000160704700EB8100008AC0F30B10704768
:1006000000EB81000069002A02D000F0004001E008
:1006100000F0804008B1012070470020704770B59D
:1006200005460C460121080300F0EAF80020286086
:100630004FF40016012000F0F5F8C4EB441101EB73
:1006400040004900B0FBF1F0401E46EA002028605F
:1006500070BD026822F0E0620260026842EA016155
:10066000016070472DE9F0418AB00024099404F03C
:1006700059FEFFF7CBFD00F029F90327CDE9064726
:100680000C25254805944FF08008CDE90258CDE9A6
:10069000005009AE0023214A21A108960494B838DD
:1006A00000F030FDCDE906472148019005940D206A
:1006B000CDE9025800901E480896049400231D4A74
:1006C0001DA1B83800F01EFDCDE906471F48019076
:1006D00005940E20CDE9025800901C480896049419
:1006E00000231B4A1BA1B83800F00CFDCDE90647DA
:1006F0001C48019005941720CDE902580090194834
:10070000089604940023184A18A1B83800F0FAFC9F
:100710000AB0BDE8F0810000040800104952000052
:10072000764F75747075745365745461736B000003
:10073000BC0A00109150000076496E7075745265C5
:1007400063656976655461736B000000740D001079
:1007500021540000765365676D656E745461736B48
:10076000000000002C1000109155000076576174B5
:100770006368446F67466565645461736B0000008D
:100780000EB50025029500F039F800F02DF8144957
:100790000968B0FBF1F001F071F802A800F04EFC1E
:1007A00000F076F8FFF7A7FDFFF75CFF0D4F02AEF4
:1007B0000023CDE900560F221946184600F07AFFB3
:1007C0003D7000240022CDE90056642311461046F6
:1007D00000F070FF641CE4B2112CF3D3E7E70000D3
:1007E000B057000010000010002000F01BB82928AE
:1007F00003D21030C0B200F093B8704770470000C9
:10080000074A012906D0002903D152F8C41F8143A9
:100810001160704752F8C41F014311607047000017
:1008200000C00F40002806D0012807D0022808D0B9
:10083000032809D0FEE706480068704705480068AD
:10084000704705480068704704480068704700001A
:100850000000001004000010080000100C00001040
:1008600003490969884201D9401A7047002070473E
:100870007C00001010B5FFF7C9FC04494C69FFF774
:10088000C9FC2046BDE81040FFF7EABF7C0000101D
:1008900010B5FFF7EFFF0446FFF7B8FC034A00214D
:1008A0005161FFF7B7FC204610BD00007C0000102E
:1008B00010B5FFF7ABFC04498C69FFF7ABFC204691
:1008C000BDE81040FFF7CCBF7C00001010B5074C0E
:1008D0002088401C20806088002802D100F0C4F8E5
:1008E000A0606088401C608010BD00007C0000108B
:1008F00010B50A4C6088401E80B2608000280CD180
:1009000000F0B2F8E060A168401A6169814200D24B
:100910006061A169814200D2A06110BD7C0000101D
:1009200070B53A4C4FF0E025102849D2DFE800F0CE
:100930006C6C6C6C0818286C6C6C6C6C6C6C6C3827
:10094000FFF764FC0546FFF7C1FF216841F48031E1
:100950002160FFF7CDFF2846BDE87040FFF75ABC85
:10096000FFF754FC0546FFF7B1FF216841F4003161
:100970002160FFF7BDFF2846BDE87040FFF74ABC85
:10098000FFF744FC0546FFF7A1FF216841F48021F1
:100990002160FFF7ADFF2846BDE87040FFF73ABC85
:1009A000FFF734FC0446FFF791FF296941F001018C
:1009B0002961FFF79DFF2046BDE87040FFF72ABC84
:1009C0006968491C102202EB4111C9B288421BD24E
:1009D0001038C11700EBD161C1F3471521F01F0199
:1009E000441AFFF713FC0646FFF770FF0121A140F0
:1009F000AA0002F1E022C2F80011FFF779FF3046A9
:100A0000BDE87040FFF706BC70BD000024ED00E0BB
:100A100070B505460C46002C18D0CDB110212846E3
:100A200002F054FB102816D2FFF7F0FB0646FFF742
:100A30004DFF102229460A4802F02AFBFFF758FF13
:100A40003046FFF7E7FB0020208070BD00F00AF879
:100A50000A20208070BD4FF47A70208070BD0000A5
:100A600018160010FEE700000148406870470000BB
:100A7000001000E010B50C4600F004F8002800D08B
:100A8000C46110BD01460020062905D2DFE801F04F
:100A90000305080B0E1108487047074820307047BF
:100AA0000548403070470448603070470248803045
:100AB00070470148A0307047008009200121C80319
:100AC000FFF79EBE10B5FFF7DDFF08B1406910BD0E
:100AD000002010BD70B50C461546FFF7D3FF002867
:100AE00003D01DB101682143016070BD0168A143BD
:100AF000016070BD10B50C46FFF7C4FF002800D0A0
:100B0000846110BD0EB50B49002008600A4A01211E
:100B100002A8CDE900108B0202F5806107A000F069
:100B200011F8BDF80800A0F51C51103901D0FFF7ED
:100B300099FF0EBD980000102816001048656170DE
:100B4000000000002DE9F84F0646DDE90A950F4642
:100B500090461C46FFF75AFB8246FFF7B7FE4B460E
:100B6000424639463046009400F00AF8FFF7C0FECE
:100B70005046FFF74FFB42F210702880BDE8F88F17
:100B800000980A601044401E48608A60024802686B
:100B9000CA600B61016070479800001000E0401EC1
:100BA0000028FCDC7047704770B5044600F080F800
:100BB0002E48002505702E4805702E4805702E48D9
:100BC00005602E4805602E4805702E4805702E4899
:100BD000016831B12D48006801E0401E20C10028A5
:100BE000FBD12B48057001F043F801F065F8294866
:100BF000056029480580204600F0A2FE20880028D4
:100C000032D1204600F0A8FE208800282CD12348AD
:100C10000560234805802348056023480580204659
:100C200001F092FA208800281ED1204600F054FEE0
:100C30002088002818D1204601F0D8FD20880028FF
:100C400012D1204601F0F6F9208800280CD1204668
:100C500001F028FE2088002806D100F023FEFFF7CF
:100C6000A2FF12490120087070BD0000A40000100E
:100C7000AC000010C6000010280100102C0100106C
:100C8000BE000010BF000010885700008C57000005
:100C9000F2000010B0000010B4000010C0000010FE
:100CA000C4000010C8000010CC000010AD000010FF
:100CB000054806490068096800EB8100044920F0F6
:100CC0000700086070470000885700008C5700003C
:100CD0003001001010B52248007801283ED1FFF7FE
:100CE00095FA04461F49087840B1401EC0B208700A
:100CF00048B12046BDE81040FFF78CBA2046BDE859
:100D00001040FFF787BA1848007820B12046BDE8A8
:100D10001040FFF77FBA00F0A1FF14490870144992
:100D200000EB400051F820001249086012490968A0
:100D3000884204D12046BDE81040FFF76BBA50F856
:100D4000841F491C01600D480168491C0160FFF7C0
:100D5000FEFB2046BDE81040FFF75CBA10BD000066
:100D6000AC000010A4000010C6000010BF0000106E
:100D7000D02A00102C01001028010010E8000010FB
:100D800010B517480078002829D1164800780028A7
:100D900025D1FFF73BFA044600F060FF12490870C6
:100DA000124900EB400051F8200011490860114938
:100DB0000968884204D12046BDE81040FFF72ABAEE
:100DC00050F8841F491C01600B480168491C0160F0
:100DD000FFF7B8FB2046FFF71DFABFF36F8F10BD7A
:100DE000A4000010C6000010BF000010D02A0010A0
:100DF0002C01001028010010E800001070B5044616
:100E000013480078002803D046F66250208070BD59
:100E100010480078012803D045F68960208070BD15
:100E20000D4D2878FA2803D345F20920208070BDA3
:100E3000FFF7ECF90646FFF749FD2878401C2870BB
:100E4000FFF756FD3046FFF7E5F90020208070BD22
:100E5000A4000010AC000010C600001070B50446DD
:100E600019480078002803D046F66550208070BDF0
:100E700016480078012803D045F68960208070BDAF
:100E8000134D287890B1FFF7C1F90646FFF71EFD14
:100E90002878401EC0B2287060B1FFF729FD3046A7
:100EA000FFF7B8F946F66350208070BD46F66450EF
:100EB000208070BDFFF71CFD3046FFF7ABF9FFF750
:100EC0005FFF0020208070BDA4000010AC00001067
:100ED000C600001070B5044616480078012803D0FB
:100EE00045F68B60208070BD0126134800880428D9
:100EF00003D845F68C60208070BD104D287818B15D
:100F000045F68A60208070BD00F0A8FE0C4908708C
:100F10000C4908700C4900EB400051F820000B49C7
:100F200008600B4908602E70FFF7FAFA43F6992023
:100F3000208070BDAD000010F0000010AC0000106B
:100F4000BF000010BE000010D02A00102C010010BD
:100F5000280100102DE9F0410646FFF757F9044635
:100F6000FFF7B4FC2D48002505802D4805602D486D
:100F700005602D4805602D4805602D480581FFF767
:100F8000B7FC2046FFF746F9FFF740F90746FFF7A1
:100F90009DFC28480468FFF7ABFC3846FFF73AF998
:100FA0001BE0FFF733F90746FFF790FC6C34E5636D
:100FB00025602563A561A582E5826562A562FFF7CC
:100FC00053FD20626C3C2146A1F86450D4F8B04037
:100FD000FFF78EFC3846FFF71DF9002CE1D1FFF733
:100FE00015F90746FFF772FC13480468FFF780FC09
:100FF0003846FFF70FF90CE0FFF708F90746FFF74F
:1010000065FC21468D85A469FFF772FC3846FFF721
:1010100001F9002CF0D13580BDE8F081D20000103C
:10102000E4000010F800001018010010A8000010E3
:10103000C42A0010EC000010C0000010F8B50446EF
:101040006946284800F0B4FABDF8000008B12080D5
:10105000F8BD6A460021022000F0E0FABDF8000069
:1010600008B12080F8BDFFF7D1F80746FFF72EFC46
:101070001D4E00253560FFF73BFC3846FFF7CAF8E8
:1010800000201A491A4A0B681768BB4203D908683E
:101090001268B0FBF2F018B909680A20B1FBF0F051
:1010A0006A46002100F0BAFA69460E4800F0F0F8EE
:1010B000BDF8000008B12080F8BDFFF7A7F807468B
:1010C000FFF704FC0B4805600B49306808600B49CA
:1010D00001200870FFF70CFC3846FFF79BF82580CD
:1010E000F8BD0000C02D0010D4000010B057000063
:1010F0009C570000E4000010D8000010E000001031
:10110000704700002DE9FF4F83B00446DDE91097DA
:10111000DDE91785139E934657480078002805D0CF
:1011200047F24A10288007B0BDE8F08F5CB1BBF1F0
:10113000000F0CD07FB15148006886420FD246F6AE
:1011400030602880EFE747F2AD102880EBE747F2E8
:101150004F102880E7E746F62F602880E3E71298D3
:10116000B04203D346F631602880DCE746F27320B4
:10117000B9F1200F01D32880D5E7B9F11F0F04D1B1
:101180003F498C4201D02880CDE7204600F0ECFF9B
:101190004FF0000AA5F800A008F0010008F00201D5
:1011A00008430BD05FEA887008D53846002103E079
:1011B000C0F800A0001D491CB142F9D3129807EBFA
:1011C00080000290CDE900683A465846029B069995
:1011D00000F0B6F9B84203D246F62C602880A2E7A8
:1011E000C4F828B00699E1620499A16084F83790A8
:1011F00020600298E060169860606762A663A4F8B9
:101200003C80002004EB8001C1F870A0401CC0B2FB
:101210000028F7D004F15800149900F0D3FB2046C1
:1012200000F034F8FEF7F2FF0546FFF74FFB94F8A5
:10123000370000F029FD204600F084FD204600F034
:1012400071FF10490888401C08800F480078012869
:1012500007D0FFF74DFB07B02846BDE8F04FFEF77B
:10126000D9BFFFF745FB2846FEF7D4FF07B0BDE81E
:10127000F04FFFF785BD0000A4000010AC57000040
:101280000C2A0010F0000010AC00001070470000A5
:1012900070B504460D4613480078002803D047F285
:1012A0005510288070BDFEF7B1FF0646FFF70EFB14
:1012B0001CB10D480068844208D1FFF719FB304685
:1012C000FEF7A8FF47F25710288070BDFFF710FB0C
:1012D0003046FEF79FFF29462046BDE8704000F0EB
:1012E00095BF0000A4000010280100107047000006
:1012F0002DE9F05F83468A4614461D465148007822
:10130000002805D046F2AE1028800020BDE8F09FEE
:10131000BAF1000F07D0BAF5004F04D045F62560AA
:1013200028800020F2E7FEF771FF8146FFF7CEFA32
:10133000454F00263868D0F84480B8F1000F1CD023
:10134000A8F10108C0F844800CB1006C2060FFF7E0
:101350008BFB01463868026C891AC0F89810D0F8E7
:101360009C208A4201D2C0F89C10FFF7C1FA48467F
:10137000FEF750FF2E804046C8E75FEA0A400BD5D3
:10138000FFF7B6FA4846FEF745FF04B1266046F27D
:10139000B01028800020B9E72C48007858B104B17B
:1013A0002660FFF7A5FA4846FEF734FF46F663507D
:1013B00028800020AAE700215B460722084600F0AB
:1013C00009FBFFF795FA4846FEF724FFFFF7D8FC24
:1013D000FEF71CFF8046FFF779FA396891F835006F
:1013E00078B1012820D0032825D046F62E60288029
:1013F0003868446CFFF77CFA4046FEF70BFF204646
:1014000084E77CB1086C2060FFF72EFB014638684A
:10141000026C891AC0F89810D0F89C208A4201D238
:10142000C0F89C102E80E3E70CB1086C206046F2F7
:10143000A9102880DCE704B1266047F2D920288073
:10144000D6E70000A400001028010010C60000101C
:1014500070B506460C461546002C07D0B4F5004F73
:1014600004D045F625602880002070BDFFF7FCFA07
:1014700002462B4621463046BDE8704000F042BF90
:101480002DE9F0470646884691461F462A480078CF
:10149000002804D047F259103880BDE8F08746F2A2
:1014A000D520B8F1000F09D0B9F1000F08D0FEF730
:1014B000ADFE0446FFF70AFA26B105E03880ECE7F6
:1014C0003880EAE71D4806684FF0000A306858B1D6
:1014D00096F83C00C00714D0FFF70AFA2046FEF742
:1014E00099FE0024756A1BE0FFF702FA2046FEF71A
:1014F00091FEC8F800A0C9F800A047F25210388049
:10150000CBE7FFF7F5F92046FEF784FEC8F800A008
:10151000C9F800A047F254103880BEE72D1D641CA6
:1015200028680028FAD0C8F80040B06B001BC9F842
:101530000000A7F800A0B0E7A400001028010010E8
:1015400010B5029C02EB840222F007024FF0807477
:1015500042F8044C42F8080C0C3A14481060A2F10E
:1015600034004FF0123404634FF00332C2624FF084
:1015700002328262436201624FF01131C161D100D7
:10158000816161104161910001614FF00731C160DB
:101590004FF0063181604FF005314160510040F855
:1015A00004196FF00201016010BD0000E522000087
:1015B000084A1278002A03D047F25D10088070476D
:1015C000054A904203D147F25B100880704700F053
:1015D00003BF0000A40000100C2A001070B5FFF734
:1015E00043FA0C4C0C4A21681368994206D08831A2
:1015F0004A68821A0A608D682A448A60C3F88C009F
:10160000FFF746F92168D1F8A820824201D2C1F83B
:10161000A80070BD280100102C0100102DE9F04138
:1016200006460D46144620480078002804D047F2AC
:1016300075202080BDE8F0811C48007818B146F67E
:1016400063502080F6E74DB1022D07D0042D06D05F
:10165000082D03D045F625602080EBE7A6B1FEF704
:10166000D5FD0746FFF732F92A46114D234631468C
:10167000286800F07DFF208850B1FFF739F938461F
:10168000BDE8F041FEF7C6BD47F27E202080D1E7DD
:10169000286800F075FBFFF72BF93846FEF7BAFD16
:1016A000BDE8F041FFF76CBBA4000010C6000010BD
:1016B000280100102DE9F0471646DDE908244B4DBE
:1016C0002D78002D04D047F275202080BDE8F087EA
:1016D000474D2D781DB146F663502080F6E702F0A5
:1016E0000E0547F27E2C45F6256845B1022D06D041
:1016F000042D08D0082D02D0A4F80080E6E713B925
:101700000EB901B920B132F01E0704D0012703E061
:10171000A4F800C0DAE70027012F0FD0C2F30012AF
:1017200047F2792847F278294FF47A774AB142F2A2
:101730000F7291421BD9A4F80080C7E7A4F800807B
:10174000C4E7BB4203D347F27B202080BEE73B2E99
:1017500003D947F27A202080B8E73B2902D9A4F8C0
:101760000080B3E7632807D9A4F80090AEE7B84239
:1017700002D3A4F80090A9E71E4A12684FF4FA7841
:10178000B8FBF2F843445343B3FBF7F34FF46167FC
:101790007843C1EB011100EB8100304400FB0236BD
:1017A0000EB3FEF733FD0746FFF790F82A46124DB9
:1017B00023463146286800F0DBFE218831B1FFF76F
:1017C00097F83846BDE8F047FEF724BD286800F0DA
:1017D000D7FAFFF78DF83846FEF71CFDFFF7D0FA71
:1017E0000020208072E7A4F800C06FE7A40000107A
:1017F000C6000010B05700002801001008B50D48C1
:101800000078012814D100F01FF86A4600210A4828
:10181000FFF71EFE09490868401E0860002807D12E
:101820000748006808606A4600210648FFF710FE76
:1018300008BD0000AC000010082D001024010010AD
:1018400020010010C02D00107047000010B5FEF7F9
:10185000DDFC0446FFF73AF8074A1178491C11707D
:10186000FFF746F82046FEF7D5FCFFF7C7FFBDE8B7
:101870001040FFF72FBA0000A40000104FF0E02145
:10188000401E4861064A106820F07F4010600869D9
:1018900040F005000861086940F0020008617047E7
:1018A00020ED00E070470000094C0A4DFEF7AEFC49
:1018B0000646FFF70BF82168491C21602968491C7E
:1018C0002960FFF715F83046FEF7A4FCEEE70000AC
:1018D000A0000010D400001000B589B00D4A00210E
:1018E00011600B22CDE9061208900C4A05910A48B6
:1018F0000B4B126800681B68CDE90132CDE903018A
:101900001F2000900023074A07A10C48FFF7FAFBAD
:1019100009B000BDA00000108457000080570000EF
:101920007C570000A918000075432F4F532D4949DB
:10193000492049646C65205461736B000C2A0010C7
:10194000034A00211160034A1180018070470000A2
:10195000B8000010BC000010F0B5174E3168002927
:101960000BD0164F398861B13168326810323B882C
:101970005B1E9DB2002300240FE045F21E71018022
:10198000F0BD45F21D710180F0BD0A604C600C8114
:10199000CC60103110325B1C9BB2AB42F5D30C60B3
:1019A0004C600C81CC60064932680A603A888A80B3
:1019B000CC800C810480F0BD94570000905700004B
:1019C000C42A0010018100214181818101604160B0
:1019D000704700002DE9F0410C4607461946104DAE
:1019E000286880F83420002680F8356000F082FBFB
:1019F00064B104F10806FC6001223946286800F051
:101A000011F83946304600F05DF802E02868C687D4
:101A1000066320462968BDE8F04100F017B80000D1
:101A20002801001010B5C28701630024002309E0DB
:101A30004B600B600B614B610B83CB618860203185
:101A4000641CA4B29442F3D310BD0000002809D056
:101A50004268C1F8B42000F1080109688968896802
:101A6000C161704791F83400022805D0072807D0DB
:101A700005A0C1F8B400704704A0C1F8B4007047D5
:101A800004A0C1F8B4007047200000005461736BDB
:101A9000205100005461736B2053656D00000000FD
:101AA00007A2C1F8B42000F108010968002903D099
:101AB00089688968C161704701A1C16170470000F0
:101AC0002000000030B58A6892F83740026800258F
:101AD000002A03D003895B1C03810CE001220281F0
:101AE0004D600D600160416030BD936893F8373000
:101AF000A34202D85268002AF7D132B1136853B119
:101B00000B604A605960116030BD4D6042680A60E8
:101B10005160416030BD11600D604A60016030BDB0
:101B200070B50646346B002C0ED0F58F07E0E068E8
:101B30000830214600F009F820346D1EADB2002DAA
:101B4000F5D10020F087306370BD10B50268002425
:101B50005268002A0BD00A6862B14B6873B15360B7
:101B60001A600289521E02814C600C6010BD046034
:101B70004460F6E74A6814600260F2E7546042602D
:101B8000EFE7F8B5064606980C46002594F836109F
:101B900008292AD2DFE801F02929040429292A2A60
:101BA00094F83410032910D02265A4F8543020642E
:101BB00036B12046FFF7B4FF21463046FFF770FFED
:101BC00094F83600032806D008E0009021463046FD
:101BD00000F030F8ECE7204600F012FD204600F05F
:101BE0007BF83434A57065702570F8BD94F8341016
:101BF000032910D02265A4F85430206436B1204661
:101C0000FFF78EFF21463046FFF74AFF94F8360073
:101C1000072806D008E000902146304600F00AF878
:101C2000ECE7204600F0ECFC04203434A070657032
:101C30002570F8BD70B5049D0C6BC98F0AE0E6688D
:101C4000864204D1206162612383E56170BD203446
:101C5000491E89B20029F2D170BD000010B50348B9
:101C60000068FEF7DEFAC0B210BD00009C00001054
:101C70000020044A002142F82010401C0028FAD01D
:101C8000704700009C0000100121C0F11F0081403E
:101C9000024A106808431060704700009C00001062
:101CA0000121C0F11F008140024A10688843106082
:101CB000704700009C0000100020064B002200EB43
:101CC000400103EB81010A810A604A60401C202820
:101CD000F5D37047D02A001010B5044694F83700A9
:101CE000FFF7D2FF074994F837000978884204D1FA
:101CF0002046BDE8104000F025B82046BDE8104061
:101D000000F002B8BE00001090F837100C4A01EB4A
:101D1000410102EB810100220B68002B09D00B89E5
:101D20005B1C0B810B68036142610A6850610860AB
:101D3000704701230B81026142610860486070476F
:101D4000D02A001090F837100C4A01EB410102EB49
:101D5000810100220B68002B08D00B895B1C0B81D2
:101D600002614A68426110614860704701230B813B
:101D7000026142610860486070470000D02A00108C
:101D800070B50446124994F8370000EB400001EBAF
:101D90008001606922690025002808D00B895B1E3C
:101DA0000B81026192B150616561256170BD2AB1FC
:101DB0000889401E088155610A60F5E70D810D60B4
:101DC0004D6094F83700FFF76BFFEDE74860EBE7F5
:101DD000D02A00100EB5874E874D3068440004E0CD
:101DE000204602AA0021FFF719FC28780128F7D124
:101DF00002A8FFF7AFF84FF0000A80483268016888
:101E0000914203D901683268B1FBF2FABAF1000FCE
:101E100003D100680A21B0FBF1FA4FF47A7842F25C
:101E200010774FF00009C6E07548824202D238466A
:101E3000012113E07348824202D240460A210DE09C
:101E40007148824202D26420642107E06F488242D6
:101E500002D20A20414601E001203946B2FBF1F1ED
:101E60005843B0FBF1F06A49381A80B208806949DA
:101E70000A88824204D2088002E06548A0F80090F7
:101E8000FFF73EF90025FEF7C1F90646FEF71EFDF5
:101E9000DFF884B1DBF80040FEF72AFD3046FEF79C
:101EA000B9F91BE0FEF7B2F90646FEF70FFD54F84C
:101EB000900F6060C4F80090FEF71AFD3046FEF700
:101EC000A9F960680544FEF7A1F90646FEF7FEFC95
:101ED000246AFEF70DFD3046FEF79CF9002CE1D197
:101EE000E5B14748854202D23E46012013E045480D
:101EF000854202D246460A200DE04348854202D27E
:101F00006426642007E04148854202D20A26404602
:101F100001E001263846B5FBF0F501E00026012579
:101F2000FEF774F90090FEF7D1FCDBF80040FEF7F5
:101F3000DFFC0098FEF76EF923E0D4F894007043BC
:101F4000B0FBF5F080B2B84200D93846A4F8800062
:101F5000B4F88210814201D2A4F8820004F1A002F8
:101F600002AB111D2046FFF78BFAFEF74FF98346AF
:101F7000FEF7ACFCD4F8B040FEF7BAFC5846FEF7CA
:101F800049F9002CD9D125480178012904D180F8DC
:101F9000009002A8FEF7DEFFFEF766FD01460198FD
:101FA000081A1F490A68824200D2086002AA00216A
:101FB0005046FFF733FBFEF757FD0190FEF778FC24
:101FC00018490860FEF722F90546FEF77FFC16481F
:101FD000164C01682160C0F80090FEF789FC284685
:101FE000FEF718F91248236802689A427FF645AF57
:101FF0001AE700009C570000E0000010B0570000F6
:10200000801A060000093D00005A62020084D717BA
:10201000D0000010D2000010EC000010CE00001024
:10202000E4000010A8000010D4000010DC00001034
:10203000D800001030B589B01D4A002111601D4A3A
:1020400011601D4A11601D4A11701D4A11701D4A10
:102050001368002B0AD01C4C1C4D23682D68AB4222
:1020600008D246F62C61018009B030BD46F62B61DE
:102070000180F9E7164B1D781F2D03D346F62A6120
:102080000180F1E70325CDE9061508900591114877
:10209000246812680068CDE90341CDE90120187871
:1020A000009000230C4A0DA11148FFF72BF8DBE745
:1020B000D4000010DC000010D8000010E000001078
:1020C000CE000010A0570000A8570000AC57000039
:1020D00098570000A4570000D51D000075432F4FEE
:1020E000532D4949492053746174205461736B0026
:1020F000502C001010B50446002908D00A4621468D
:10210000074800F0F9F9032084F8360002E00220C5
:1021100084F836002046BDE81040FFF731BE0000CD
:10212000040100100023C0F8AC30064A11680029F1
:1021300005D0C0F8B010C1F8AC0010607047C0F80E
:10214000B030FAE7EC000010044A00211160044AA4
:102150001180044A1160018070470000EC000010FB
:10216000F0000010E800001070B50446002525605E
:10217000E560656025616561A561E561256220A076
:10218000A0606562A562E5622563E5872564256533
:10219000A4F85450002104F15800FFF713FCA56681
:1021A000E5666567A4F87C50A567002004EB800114
:1021B0000D67401CC0B20028F8D034342561656634
:1021C000A566656084F84A502567E56625816561E6
:1021D000A561A4F84C50A4F84E5025656565FEF73E
:1021E00043FCA065E565656725706570A5702020D6
:1021F000E070A567E56704A0C4F8800070BD00002A
:102200003F5461736B0000002000000070B504466D
:102210000D46FDF7FBFF0646FEF758FB002129801F
:1022200094F83600082853D2DFE800F004040404D0
:102230000D1F2F3FFEF75CFB3046FDF7EBFF47F22B
:102240005310288040E094F87E00401EC0B284F80D
:102250007E0020B984F836102046FFF73DFDFEF7DA
:1022600047FB3046FDF7D6FF2EE094F87E00401E77
:10227000C0B284F87E0010B9012084F83600FEF761
:1022800037FB3046FDF7C6FF1EE094F87E00401E87
:10229000C0B284F87E0010B9022084F83600FEF740
:1022A00027FB3046FDF7B6FF0EE094F87E00401E97
:1022B000C0B284F87E0010B9032084F83600FEF71F
:1022C00017FB3046FDF7A6FFBDE87040FEF758BD8E
:1022D000FEF70EFB3046FDF79DFF46F62D60288089
:1022E00070BD000008B505480068FEF7FFFF044C0C
:1022F0006A4600212068FFF791F9F9E728010010EC
:10230000B05700002DE9F8430446894615461E469D
:10231000FDF77CFF0746FEF7D9FA0CB92D48046893
:1023200025640020308094F8360046F6C558082809
:1023300045D2DFE800F00404191904041919656C8A
:10234000681C07D06D1C6564FEF7D2FA3846FDF7AD
:1023500061FF3DE0FEF7CCFA3846FDF75BFFA6F8DB
:1023600000800020BDE8F88394F8340007280AD0E4
:10237000656C681C1AD06D1C6564FEF7B9FA3846A6
:10238000FDF748FF24E000231A4621461846009531
:10239000FFF7F7FB656CFEF7ABFA3846FDF73AFF3F
:1023A0005FEA094014D4FEF7EBFC11E0FEF7A0FA57
:1023B0003846FDF72FFFA6F800800020D2E7FEF791
:1023C00097FA3846FDF726FF46F62D603080002547
:1023D0002846C7E7280100102DE9F04104460D46C4
:1023E000FDF714FF0746FEF771FA404E40486CB9FE
:1023F0003178012909D0FEF77BFA3846FDF70AFF4C
:1024000045F689602880BDE8F08104680068844250
:102410000BD13848007840B1FEF76AFA3846FDF72C
:10242000F9FE46F663502880EDE70020288094F8F6
:1024300036100120082950D2DFE801F004121D28CF
:1024400033333333042184F8361084F87E00204679
:10245000FFF796FCFEF74CFA3846FDF7DBFE2CE062
:10246000052184F8361084F87E00FEF741FA3846DC
:10247000FDF7D0FE21E0062184F8361084F87E00B6
:10248000FEF736FA3846FDF7C5FE16E0072184F858
:10249000361084F87E00FEF72BFA3846FDF7BAFEB8
:1024A0000BE094F87E00FF280ED0401C84F87E00DC
:1024B000FEF71EFA3846FDF7ADFE30780128A2D1AE
:1024C000BDE8F041FEF75CBCFEF712FA3846FDF7B6
:1024D000A1FE47F26010288095E7FEF709FA38461A
:1024E000FDF798FE46F62D6028808CE7AC000010C2
:1024F00028010010C600001030B503680025002B2D
:1025000001D01C4629E08A648D61CD6108620160BA
:102510000121818030BD9C6C94421BD3DC6964B185
:102520008A64CC618B6108629D6CAA1A9A64D96135
:10253000A1618188491C818030BD8A64CD618B6135
:1025400008629C6CA21A9A64D96101608188491C56
:10255000818030BD121B1C469B69002BDBD18A6435
:10256000CC618D610862A1618188491C818030BD88
:102570002DE9F003DFF87CC0DCF80040DFF878904C
:10258000002747F27E28042A10D0082A19D00A46CC
:102590001F80012180F83610DCF80010611ABDE8B8
:1025A000F0030A4401461548FFF7A6BF0A1B4A4537
:1025B00001D8002AECD18764A3F80080BDE8F003BD
:1025C0007047C56C661B8E4203D90A462144C1641C
:1025D000DEE78A1B4A4503D812B12944C164D7E714
:1025E000B6FBF1F201FB02521144C1648764A3F807
:1025F0000080E3E7F40000100000FFFFFC00001083
:1026000030B5026AC36981690024002B0ED099613C
:1026100021B1CB618B6C856C2B448B64C461918838
:10262000491E918084618464046230BD61B1CC61D3
:102630008B6C856C2B448B6411609188491E918052
:1026400084618464046230BD146094808464046294
:1026500030BD00002DE9F0470546FEF705FA81463A
:1026600000271F4E34686CB3A06CB846A84203D84C
:102670002D1AC4F8488028E0401BA06425E07F1C88
:10268000BFB294F83600012802D0052806D008E031
:1026900084F836802046FFF71FFB02E0042084F810
:1026A0003600A46934605CB1B088401EB080C4F8C4
:1026B0001C80A06CA84206D82D1AC4F8488004E0FB
:1026C000A6F8048004E0401BA064A06C0028D6D0CB
:1026D000F780FEF7C9F9A0EB0900BDE8F08700001C
:1026E000FC0000102DE9F0470546FEF7BDF98146D4
:1026F0000027274E3468D4B3A06CB846A84203D84C
:102700002D1AC4F8488038E0401BA06435E07F1CD7
:10271000BFB2C4F85080A4F85480FEF7A5F9206435
:102720002046FFF7FDF994F83600032802D0072869
:1027300006D008E02046FFF7CFFA84F8368002E0A2
:10274000042084F83600032084F8350084F83480AF
:10275000A469346064B1B088401EB080C4F81C80A5
:10276000A06CA84207D82D1AC4F8488005E007E0FD
:10277000A6F8048004E0401BA064A06C0028C6D02A
:10278000F780FEF771F9A0EB0900BDE8F0870000C3
:102790000401001008B5134D00226B461146104687
:1027A000FEF7A6FDBDF800000028F5D1FDF72EFDCF
:1027B0000646FEF78BF801240B490868401C0860A8
:1027C0002046FFF747FF07462046FFF78BFF3844B8
:1027D0002968814200D22860FEF78AF83046FDF76A
:1027E00019FDD9E7F8000010F400001030B589B0E9
:1027F0001D4A002111601D4A11601D4B1960918016
:10280000D1809980D9801B4B1A68002A0AD01A4CB3
:102810001A4D22682D68AA4208D247F2132101807E
:1028200009B030BD47F212210180F9E7144A15784A
:102830001F2D03D347F211210180F1E70B25CDE9CC
:1028400006150591089020680E4C1B682468CDE998
:102850000134CDE903011078009000230A4A0BA14E
:102860000F48FEF74FFCDBE7F4000010FC000010FF
:1028700004010010B8570000C0570000AC5700001A
:10288000B4570000BC5700009527000075432F4F38
:10289000532D494949205469636B205461736B007F
:1028A000082D001030B589B0274A00211160274A51
:1028B0001160274A1180274B274C284A1D68002D9C
:1028C00005D024681B68B4FBF3F3136004E02368AD
:1028D0000A24B3FBF4F31360214B12681A60214AF7
:1028E0001160214A1160214A136853B1204C214DD7
:1028F00023682D68AB4208D247F24831018009B005
:1029000030BD47F247310180F9E71B4B1D781F2D81
:1029100003D347F246310180F1E70B25CDE90615D7
:10292000059108902068154C12682468CDE90124AF
:10293000CDE90301187800900023114A11A117482E
:10294000FEF7E0FBDBE700000C01001014010010B3
:1029500010010010C8570000B057000020010010FF
:10296000240100101C01001018010010CC570000B9
:10297000D4570000AC570000C4570000D0570000E7
:10298000AD29000075432F4F532D49494920546903
:102990006D6572205461736B00000000C02D001043
:1029A00008B56846FEF72AFA08BD00001CB51F4EA0
:1029B000DFF87C801F4F002101AB6A460846FEF716
:1029C00097FCFFF7EDFFFEF74FF881463068401C9B
:1029D0003060D8F8004019E001A8FEF70FFA256929
:1029E000A069401EA06168B9A08C02281BD02046B7
:1029F00000F022F8032084F82600A26812B12046D5
:102A0000E16890472C4601A8FEF728FA002CE3D194
:102A1000FEF72AF8A0EB09003968814200D238603D
:102A200000F028F8C7E7206AA061E6E71C01001063
:102A3000140100101801001010B50C4A00230169A0
:102A40001468844203D1116029B14B6103E04269EB
:102A5000116101B14A61012180F8261003614361CF
:102A600003480188491E018010BD000014010010B8
:102A70001001001008B56846FEF7F0F908BD000027
:102A800070B505460E4614463146284600F014F847
:102A900005280CD03146284600F07EF8016821F068
:102AA000070104F0070211430160002070BD0148D6
:102AB00070BD00000100001002460520062A0ED25B
:102AC000DFE802F0032E3838383A062906D9A1F19A
:102AD0000A02012A02D9121F082A01D800207047D1
:102AE0000C2905D00D2903D0A1F11702032A01D822
:102AF000012070471D290FD01E290DD01F290BD092
:102B00001B290BD01C2909D0072903D0082901D083
:102B10000929EED104207047022070470320704736
:102B20001D2901D8002070471E2901D01F29FAD184
:102B30000120704700207047012907D9042905D0DA
:102B4000022901D00329F6D10320704700207047E5
:102B500070B505460E46144631462846FFF7ACFFD1
:102B6000052803D0012804D00A4870BD0948401E3A
:102B700070BD3146284600F00FF824B1016821F0FD
:102B80008001016003E0016841F0800101600020E4
:102B900070BD00000200001001EB4010014901EB84
:102BA0008000704700C0024070B50C46154600F02A
:102BB000ABF8012104F108039940012D03D0C26C48
:102BC000630707D007E0C26C630700D100210A4306
:102BD000C26470BD002147F67C638B431A40C26417
:102BE00070BD70B50C46154600F08EF80123A34069
:102BF00004F0070135B1C26C022900D200231A4348
:102C0000C26470BDC26C022900D2002347F67C6109
:102C100099430A40C26470BD10B50C4600F074F8C8
:102C2000012C04D0416801F00301416010BD4168EE
:102C300041F00801416010BD70B50C4600F064F829
:102C400062780121274B012A2AD0227802F007025C
:102C500002EB420201FA02F523EA050245692A4025
:102C60004261E278012A26D0227802F0070202EBC4
:102C70004202521C01FA02F523EA050245692A4084
:102C80004261A278012A22D0227802F0070202EBE8
:102C90004202921C91408B4341690B40436170BDDD
:102CA0002278456902F0070202EB420201FA02F2C1
:102CB0002A434261D5E72278456902F0070202EB18
:102CC0004202521C01FA02F22A434261D9E72278F9
:102CD00002F0070202EB4202921C9140426911434A
:102CE000416170BDFFFF1F0010B50C4600F00CF8ED
:102CF000012C04D0416801F00A01416010BD416817
:102D000041F00101416010BD002803D0012803D02B
:102D1000002070470148704701487047004001405B
:102D2000008001402DE9F0410546884617462846B7
:102D3000FFF7EAFF044615B1012D05D0FEE701219A
:102D40002020FDF75DFD03E001214020FDF758FD47
:102D50000120FDF767FD054600263F2020606660E4
:102D600026676661A662E6642665B8F1000F0DD09D
:102D7000B8F1010F08D1787800F00301387861F3D9
:102D80009F00216F08432067BDE8F081387870B15B
:102D90007968A1FB050306FB053201FB0621064A03
:102DA0000023FDF7ADFA05466D1EE560ECE7786897
:102DB000401EE060E8E7000040420F0070B50D469D
:102DC00014461E46FFF7A0FF072D12D2DFE805F0DC
:102DD0000406080A0C0E100084610AE0C46108E0D1
:102DE000046206E0446204E0046402E0446400E03B
:102DF0008464026D072D02D20121A94000E0002168
:102E00000A430265002E07D1416841F0020141608A
:102E1000416801F00901416070BD10B5FFF774FF12
:102E2000416841F002014160416801F009014160DF
:102E300010BD02780A4302707047012904D0017A5C
:102E400001F0120101727047017A41F00101017233
:102E50007047012A07D0082911D2DFE801F0343980
:102E60003E43484D5257082909D2DFE801F00409D2
:102E70000E13181D2227017B41F0010101737047D9
:102E8000017B41F0020101737047017B41F00401B5
:102E900001737047017B41F0100101737047017BA2
:102EA00041F0080101737047017B41F0200101737B
:102EB0007047017B41F0400101737047017B41F095
:102EC000800101737047017B01F0FE0101737047BF
:102ED000017B01F0FD0101737047017B01F0FB01F3
:102EE00001737047017B01F0EF0101737047017BB3
:102EF00001F0F70101737047017B01F0DF010173FD
:102F00007047017B01F0BF0101737047017B01F045
:102F10007F01017370470078084201D0012070479B
:102F20000020704710B5074C01212046FFF7F3FF42
:102F3000002805D02046BDE810400121FFF779BFE9
:102F400010BD00000040024010B5044601214802B7
:102F5000FDF756FC0020207020722073FF212174A1
:102F6000206410BD017A41F002010172017A01F082
:102F700011010172704770B5531E02F03F0402F058
:102F80001F05082909D2DFE801F004090E131A1FF2
:102F9000262D3B2A01D880F8204070BD3B2AFCD862
:102FA00080F8244070BD172AFCD880F8285070BDE6
:102FB000062AFCD802F0070180F8301070BD1E2BE5
:102FC000FCD880F82C5070BDB3F5B77FFBD2C2F3AC
:102FD0000801818670BD0B2BFCD802F00F0180F830
:102FE000381070BDB2F5805FFBD2C2F30B01818750
:102FF00070BD012904D0416801F00D0141607047A6
:10300000416841F0020141607047000000214160C9
:103010008160034A426107220260C160016170471A
:1030200040420F0070B505460C461548854204D154
:1030300001214805FDF7E4FB0EE01248854204D16A
:1030400001210015FDF7DCFB06E00F48854216D193
:1030500001210805FDF7D4FBA088218922880843B7
:10306000218A1143084380B22860207B00F00F00C2
:10307000686028466169BDE8704001F00FBD70BD11
:10308000008008400000034000C00A408160704793
:1030900030B5002803D021B10346002407E000200A
:1030A00030BD002030BD03F8015B491C641C23B116
:1030B00019B10D780DB19442F5D32BB121B19442E1
:1030C000F0D20021197030BD002030BD002201E097
:1030D000401C521C18B103780BB18A42F8D3104639
:1030E00070470000F0B57F4DD5F804014FF00002A5
:1030F000C1057D4853D4D5F80C11C90707D0D5F8C0
:10310000A011490627D4026042608260A0E0D5F891
:103110000411764BC9061AD0D5F8041101F01F012D
:10312000B3FBF1F10160D5F8A841E40611D0D5F860
:10313000A84104F01F04B3FBF4F34360D5F8003159
:1031400003F001035B1CB1FBF3F1816080E000211F
:10315000E8E70023F1E7D5F80411654BC9061AD05A
:10316000D5F8041101F01F01B3FBF1F10160D5F8AE
:10317000A841E40611D0D5F8A84104F01F04B3FB20
:10318000F4F34360D5F8003103F001035B1CB1FB9D
:10319000F3F181605CE00021E8E70023F1E7D5F876
:1031A0008810C90503D402604260826050E0D5F8FF
:1031B0000C11C90707D0D5F8A011490628D4026020
:1031C0004260826044E055F8881F01F01F035B1CD9
:1031D000E96F01F01F01D5F8204104F01F04AE6F24
:1031E000883D06F00106761C71B1404F5F43B7FB86
:1031F000F1F1016054B13D4F7B43B3FBF4F3436005
:10320000B1FBF6F1816023E00021F2E70023F6E74D
:1032100055F8881F01F01F035B1CE96F01F01F01C7
:10322000D5F8204104F01F04AE6F883D06F001067A
:10323000761CE1B12E4F5F43B7FBF1F10160C4B1E1
:103240002B4F7B43B3FBF4F34360B1FBF6F181609A
:10325000D5F80811C90528D5D5F8081111F01F01B6
:1032600009D0042909D0062907D0C260F0BD002189
:10327000E4E70023E8E7C260F0BD903555F8081C8C
:1032800001F01F01491CAA6F02F01F02EB6FDB0760
:1032900005D0174B5943B1FBF2F1C160F0BD134BA0
:1032A0005943B1FBF2F1C160F0BDD5F808118905B1
:1032B00015D5D5F80C11C90708D0D5F8A8100C4AB7
:1032C00001F01F01491C5143C160F0BDD5F88810C1
:1032D000064A01F01F01491C5143C160F0BDC260A4
:1032E000F0BD000000C00F4000000010001BB70040
:1032F0008096980010B501F07BFA23482021C0F891
:10330000A011D0F8A0114906FBD501228030C0F8E9
:103310008C20092141600260AA24C4605523C36047
:103320008038D0F888104905FBD52321A0304160B2
:103330000260C460C360A038D0F8A8104905FBD56E
:103340008C3040F20111816740F20121C167426770
:103350000221C0F82811C0F81C110C4981634FF4F8
:103360008071C0F83C11D0F8241141F00301C0F87D
:10337000241145F23A0140F88C1C054900200860F0
:10338000BDE81040FFF7AEBE00C00F40DE87280446
:1033900008ED00E010B5084C0021204600F012F8BE
:1033A000002807D00021204600F008F8BDE81040B2
:1033B00002F0CEB810BD00000000094001228A4092
:1033C00002607047006801228A40D1B2084000289C
:1033D00001D00120704700207047000010B5002088
:1033E00000F044F800F00E0002280FD0042803D0AB
:1033F000062806D00C280ED1BDE8104006A001F02A
:1034000079BABDE81040002000F05AB8BDE810407D
:1034100001A001F07DBA10BD5541525430000000AA
:1034200010B5012000F022F800F00E0004280DD0A5
:1034300008DC002814D0022812D1BDE8104009A0F1
:1034400001F082BA062806D00C2809D1BDE8104048
:1034500004A001F06BBABDE81040012000F030B8C4
:1034600010BD0000554152543100000040F2CF31F0
:10347000052818D2DFE800F003070B0F13000B48F4
:103480008068084070470A488068084070470948CB
:1034900080680840704708488068084070470748BF
:1034A00080680840704700207047000000C000405E
:1034B000000001400080094000C0094000400A406F
:1034C000052814D2DFE800F00306090C0F000948B4
:1034D000007D70470848007D70470848007D7047B0
:1034E0000748007D704707484069C0B27047002018
:1034F0007047000000C0004000000140008009400B
:1035000000C0094000400A404FF08041012804D02B
:10351000087820F0010008707047087840F001003A
:10352000087000F00EB84FF08041012804D00878F0
:1035300020F0010008707047087840F00100087022
:10354000704700B572B600F002F862B600BDAA215D
:103550004807017255210172704700F01EB84FF004
:103560008042002808D0012805D1012910D0107808
:1035700020F0020010707047012904D0107820F06C
:10358000100010707047107840F0100010707047F5
:10359000107840F0020010707047C008AFF3008050
:1035A00000214A1EFF2802D2FF20114605E0B0F19B
:1035B000807F02D36FF07F4011464FF08042506011
:1035C0000846704700B5FFF7E8FF02460120FFF705
:1035D0009BFF104600BD2DE9F843054690461E4668
:1035E0000027D5F80C01C46B183402788A4206D043
:1035F000284601F0D1F9C5F80C01C46B18342168D4
:1036000081B14179C06B6B464246856B0220A84769
:1036100050B1BDF80010206800EBC10030603846A2
:10362000BDE8F8830220FBE70120F9E72DE9F84324
:10363000054690461E460027D5F80C01C46B24347D
:1036400002788A4206D0284601F0A6F9C5F80C0196
:10365000C46B2434216891B1218981B14179C06B57
:103660006B464246856B0320A84750B1BDF8001059
:10367000206800EBC10030603846BDE8F8830220C6
:10368000FBE70120F9E72DE9FC4106460D46174608
:103690000024304601F0B4FF40BB3888022828D30C
:1036A00001A9304601F0CCFD019B587800029978C1
:1036B0000143491C8AB2D87800021B79034358079A
:1036C00004D0012000EBD300C0B201E0C3F3C70077
:1036D0006BB1697881420AD100200090A91C304664
:1036E00000F097F910B101F0E1F8044602E003247C
:1036F00000E003242046BDE8FC81F8B506460D46EF
:1037000017460024304601F07BFF30BB3888022882
:1037100026D36946304601F093FD009B587801029C
:1037200098780843401C82B2D87800021B79034382
:10373000580704D0012000EBD300C0B201E0C3F36E
:10374000C7005BB16978814208D1A91C304600F0FE
:103750009FF910B101F0AAF8044602E0032400E04A
:1037600003242046F8BD2DE9FC4106460D461746C8
:103770000024304601F044FF00BB3888022820D3E3
:1037800001A9304601F05CFD019B58780102987850
:103790000843401C82B2D87800021B79034373B1FE
:1037A0006878B0EB430F0AD100200090A91C304686
:1037B00000F0A2F910B101F079F8044602E0032408
:1037C00000E003242046BDE8FC81F8B506460D461E
:1037D00017460024304601F013FF00BB388802284A
:1037E0001ED36946304601F02BFD009B587801023C
:1037F00098780843401C82B2D87800021B790343B2
:1038000063B16878B0EB430F08D1A91C304600F0D3
:1038100080FA20B101F04AF8044602E0032400E0F7
:1038200003242046F8BD2DE9FC4180460E4615468E
:103830000024404601F0E4FE90BB2888022831D3E2
:1038400001A9404601F0FCFC019948780202887801
:103850001043401C87B2C87800020D7905434879AF
:10386000020288791043401C82B2C87900020B7AA8
:1038700003437078B0EB450F13D1012000900A315B
:10388000404600F039F938B9002000902B463A46FE
:10389000B11C404600F030F910B101F007F80446C1
:1038A00000E003242046BDE8FC817CB505460024E9
:1038B0001088052802D0032420467CBD48780202E7
:1038C00088781043401C82B2087918B9C878FF285C
:1038D00002D008B10324EFE700238DF80530C97842
:1038E0000126FF290DD08DF80430012301A92846B7
:1038F000009600F08EF80028DED000F0D7FF0446D6
:10390000DAE7511E06FA01F08DF80400EDE738B54C
:10391000054600241088052802D00324204638BD1F
:103920004878020288781043401C82B20120034686
:103930000090C91C284600F0DFF80028EED000F007
:10394000B5FF0446EAE72DE9FC4106460C46002592
:103950001088052803D0304601F052FE40B301A97B
:10396000304601F06DFC60780002A1780143491CEB
:103970008AB2E07800022379034301994C79580711
:103980004FF0010703D007EBD300C0B201E0C3F34F
:10399000C7005BB1A04209D1891D3046009700F0F5
:1039A00038F830B100F082FF054602E0032500E060
:1039B00003252846BDE8FC817CB505460024108817
:1039C000052803D0284601F01BFEF8B101A92846BE
:1039D00001F036FC0199487800028A780243521CB3
:1039E00092B2C87800020B7903434879B0EB430FD9
:1039F0000AD101200090891D284600F07DF830B1E1
:103A000000F054FF044602E0032400E003242046B3
:103A10007CBD2DE9F84F0746DDF828908A4693468D
:103A200098460025D7F80C61F46B1834384601F03D
:103A3000C4F801463078884206D0384600F0ACFF22
:103A4000C7F80C01C46B1834206888B1208978B19C
:103A5000A088E188ABF1010B1FFA8BF2824214D3EC
:103A600002EB0800884210D8B9F1000F0ED102E035
:103A70000120BDE8F88F0220009008F0FF035146B6
:103A8000384600F0EBF9054600E001252846F0E74E
:103A90002DE9F8430646884691461F46D6F80C5154
:103AA000EC6B2434304601F088F8014628788842CF
:103AB00006D0304600F070FFC6F80C01C46B243409
:103AC0002068A8B1208998B1A088E188A9F10109EE
:103AD0001FFA89F282420DD3D01988420AD80320F6
:103AE0000090FBB24146304600F0B8F9BDE8F883DB
:103AF0000120FBE70120F9E72DE9F84F07460D46C5
:103B000092461C464FF0000900200090D7F80CB1F7
:103B1000DBF83C600C36384601F04FF8804697F8E9
:103B2000A20610B10020BDE8F88F9BF800004045C8
:103B300007D04146384600F02FFFC7F80C01C66B8E
:103B40000C36306880B1308970B1B088F188AAF144
:103B5000010A1FFA8AF686427FD3301988427CD840
:103B60000A9800287BD170E00120DCE76B463246E2
:103B70004146384600F075F8287800026978AD1C97
:103B80000143009888B382697AB3037C012B62D029
:103B900090ED050AB5EEC00AF1EE10FA0FD010EE66
:103BA000103AB3F17E5F0AD000EE901AF8EE600A88
:103BB00080EE801ABCEEC10A10EE101A89B283782A
:103BC000062B06D0052B13D0032B1FD0022B2CD095
:103BD00037E003899BB28B4208D8808980B2884243
:103BE00004D31180009881802BE034E002209AE712
:103BF00090F808C0CBB2634506D3007B834203D85C
:103C00001370009881801CE002208CE709B20389C0
:103C10001BB28B4207DC808900B2884203DB118033
:103C2000009881800DE002207DE749B2037A5BB203
:103C30008B420EDC007B40B288420ADB1170009898
:103C40008180761CB6B2641EA4B2002C8ED106E030
:103C500003E0022067E7012065E74FF001094846CD
:103C600061E72DE9F843054690461E460027D5F842
:103C70000C01C46B0C3402788A4206D0284600F04E
:103C80008BFEC5F80C01C46B0C342168A1B12189ED
:103C900091B14179C06B6B464246856B0020A847C5
:103CA00060B1BDF800002168C0EBC00001EB8000EE
:103CB00030603846BDE8F8830220FBE70120F9E7D1
:103CC000F8B5054617461E46D5F80C01C46B0278B8
:103CD0008A4205D0284600F05FFEC5F80C01C46B8F
:103CE000216891B1218981B14179C06B6B463A4617
:103CF000856B0120A84750B1BDF80000216800EB9A
:103D0000400001EBC0003060F8BD0220F8BD01208A
:103D1000F8BD2DE9F84F07460D4692461C464FF078
:103D2000000900200090D7F80CB1DBF83C60384661
:103D300000F043FF804697F8A20610B10020BDE8CE
:103D4000F88F9BF80000404506D04146384600F009
:103D500023FEC7F80C01C66B306868B1308958B1D2
:103D6000B088F188AAF1010A1FFA8AF6864271D357
:103D70003019884267D96DE00120E0E76B46324692
:103D800041463846FFF79CFF287801026878AD1C51
:103D90000843009979B34A696AB30B7B012B57D06A
:103DA00091ED040AB5EEC00AF1EE10FA0FD010EE54
:103DB000103AB3F17E5F0AD000EE900AF8EE600A86
:103DC00080EE801ABCEEC10A10EE100A80B28B7829
:103DD000062B06D0052B0FD0032B17D0022B24D097
:103DE0002DE04B68834204DC8968814201DB10804E
:103DF00025E00220A3E72BE04B68834204DC8968BE
:103E0000814201DB10701AE0022098E703B2B1F89A
:103E100004C00FFA8CFC844505DC098909B2814293
:103E200001DB13800BE0022089E7C0B20B795BB2A3
:103E300083420BDC097A49B2814207DB1070761CA1
:103E4000B6B2641EA4B2002C98D105E0022076E739
:103E5000012074E74FF00109484670E72DE9FF4F54
:103E600085B00D46DDF848B090461C460020049011
:103E700003900290059800F0A0FE01904FF0010A17
:103E80000AEBD40604F007094EE0012E04D1B9F183
:103E9000000F01D04F4600E0082700243FE0BBF1AF
:103EA000020F03D0BBF1030F33D11CE003AB42463A
:103EB00001990598FFF78FFB039880B1416871B1B4
:103EC000C07801280BD028780AFA04F21040E040AC
:103ED0000A7882421DD008700399887019E0012089
:103EE00009B0BDE8F08F02AB424601990598FFF793
:103EF0009DFB0298E0B14168D1B18078012817D0CC
:103F000028780AFA04F21040E0400A78824200D091
:103F1000087008F101081FFA88F8641CA4B2BC42BA
:103F2000BDD3761EB6B26D1C002EAED10498D7E775
:103F30000120D5E7F8B516460027D0F82C4304F148
:103F40001805236B6A460220984738B1BDF8001067
:103F5000286800EBC10030603846F8BD0120F8BD8C
:103F6000F8B516460027D0F82C4304F12405236B3E
:103F70006A460320984738B1BDF80010286800EB66
:103F8000C10030603846F8BD0120F8BDF8B50746DD
:103F9000144600262088052802D003263046F8BDA6
:103FA000487800028A780243521C92B2C878000214
:103FB0000B790343581E40F2CF75A84224D24FF02C
:103FC000000CA4F800C0012001F8010B25886D1C2D
:103FD00025805D0703D000EBD300C5B201E0C3F339
:103FE000C70501F8015B2088401C20803846CDF8C9
:103FF00000C000F0B6F918B100F06AFC0646CDE743
:10400000208828442080C9E70326C7E72DE9F0412E
:104010000746144600262088052803D0032630468C
:10402000BDE8F0814878020288781043401C82B2D3
:10403000C87800020B790343581E40F2CF75A8429E
:1040400021D200202080022001F8010B2088401C92
:104050002080580704D0012000EBD300C5B201E056
:10406000C3F3C70501F8015B2088401C2080384657
:1040700000F098F918B100F02BFC0646CFE7208835
:1040800028442080CBE70326C9E7F8B50746144645
:1040900000262088052802D003263046F8BD48783F
:1040A000020288781043401C82B20D79681E7C2879
:1040B0001BD800232380032008702088401C208008
:1040C00068004870891C2088401C208000932B4683
:1040D000384600F093F918B100F0FAFB0646DCE729
:1040E000208800EB45002080D7E70326D5E72DE99F
:1040F000F0410746144600262088052803D00326F1
:104100003046BDE8F0814878020288781043401CB0
:1041100082B2C87800020D790543681E7C281AD245
:1041200000202080042008702088401C2080680027
:104130004870891C2088401C20802B46384600F09F
:1041400052FA18B100F0C4FB0646D9E7208800EB0C
:1041500045002080D4E70326D2E72DE9F8438146C5
:104160000C461546002728880A2845D360780102A6
:10417000A0780843401C1FFA80F8E07800022679F6
:10418000064360790102A0790843401C82B2E079BD
:104190000002237A0343607A711E7C292BD853B323
:1041A000792B28D8B0EB430F25D10120009004F1E2
:1041B0000A01484600F022F9C0B9214600222A80AF
:1041C000172008702888401C288070004870891CBF
:1041D0002888401C2880009233464246484600F01A
:1041E0000DF918B9298801EB4601298010B100F0BA
:1041F0006FFB074600E003273846BDE8F8837CB52F
:10420000054600241088052802D0032420467CBDE2
:104210004878020288781043401C82B2087918B9A5
:10422000C878FF2802D008B10324EFE700238DF8F7
:104230000530C9780126FF290DD08DF804300123FF
:1042400001A92846009600F08CF80028DED000F086
:104250003FFB0446DAE7511E06FA01F08DF8040030
:10426000EDE738B5054600241088052802D0032460
:10427000204638BD4878020288781043401C82B23C
:10428000012003460090C91C284600F0B7F800281A
:10429000EED000F01DFB0446EAE72DE9F84307469F
:1042A00015460024288805282BD9487802028878EA
:1042B0001043401C82B2C87800020B7903434E7948
:1042C00058074FF0010C03D00CEBD300C0B201E053
:1042D000C3F3C700A3F10108B8F5F66F0FD2B042DF
:1042E0000DD1891D3846CDF800C000F03AF818B15C
:1042F00000F0EEFA044605E00520288002E00324E1
:1043000000E003242046BDE8F883F8B506461546CC
:1043100000242888062821D3487802028878104390
:10432000401C82B2C87800020B79034348795F1EB3
:10433000772F11D85F063F0E87420DD101200090E4
:10434000891D304600F05AF818B100F0C1FA044651
:1043500005E00520288002E0032400E00324204635
:10436000F8BDF8B50546069E0020D5F82C43A78B6E
:10437000E48B521E92B2BA4212D3D718A7420FD87A
:1043800002243EB1012E04D1DBB22846009400F095
:10439000DEF9F8BDDBB22846009400F088F9F8BDDC
:1043A0000120F8BD38B5D0F82C43258D648D521E00
:1043B00092B2AA4208D3D518A54205D80324DBB28D
:1043C000009400F074F938BD012038BDF8B51646E8
:1043D0000027D0F82C4304F10C05236B6A4600201B
:1043E000984748B1BDF80010286801EB410100EB87
:1043F000C10030603846F8BD0120F8BD2DE9F84F06
:104400000E460A9982461D464FF000090020009092
:10441000DAF82C03038A408A521E97B29F427DD35A
:104420007A1982427AD84FF07E58E9B3012944D1F3
:10443000B8E06A4639465046FFF7C8FF0098A0B377
:10444000017B01293AD08178062906D0052907D0B9
:10445000032908D0022909D00CE041690C8809E041
:1044600041690C7806E041690C8803E0416991F9E3
:1044700000108CB290ED040AB5EEC00AF1EE10FA0D
:104480000ED010EE100A40450AD000EE904AF8EE29
:10449000600A20EE200ABCEEC00A10EE100A84B2B8
:1044A000200A3070747001E005E007E0B61C7F1C44
:1044B000BFB26D1EADB2002DBBD17CE00120BDE8C6
:1044C000F88F6A4639465046FFF780FF3078000281
:1044D0007278B61C0243009C8CB3606978B3217B70
:1044E000022964D094ED040AB5EEC00AF1EE10FA88
:1044F0000ED010EE101A41450AD000EE902AF8EEC8
:10450000600A80EE801ABCEEC10A10EE101A8AB260
:10451000A178062908D0052914D000E049E0032934
:104520001DD002292CD039E06168914208DCA168D5
:10453000914205DB0188914230D002802EE036E0C6
:104540000220BCE76168914207DCA168914204DB6C
:104550000178914222D0027020E00220AFE711B230
:10456000A28812B28A4209DC228912B28A4205DB91
:10457000B0F900208A4211D001800FE002209EE7AE
:1045800051B2227952B28A420FDC227A52B28A4266
:104590000BDB90F900208A4200D001707F1CBFB273
:1045A0006D1EADB2002D8CD105E0022087E7012001
:1045B00085E74FF00109484681E7F8B51546002622
:1045C000D0F82C436A460120236B984748B1BDF8C8
:1045D0000010206801EB410100EBC100286030466B
:1045E000F8BD0120F8BD2DE9F84F82460F461E4662
:1045F0004FF0000900200090DAF82C038188C08871
:10460000521E1FFA82F888454DD308EB06018142FD
:1046100042D948E06A4641465046FFF7CEFF009A2D
:10462000EAB3107B01283BD09578062D06D0052DE6
:1046300007D0032D08D0022D09D00CE05069048862
:1046400009E05069047806E05069048803E0506985
:1046500090F9000084B292ED040AB5EEC00AF1EEC2
:1046600010FA0FD010EE100AB0F17E5F0AD000EE03
:10467000904AF8EE600A20EE200ABCEEC00A10EE66
:10468000100A84B2200A38707C70BF1C08F101083F
:104690001FFA88F8761EB6B2002EBBD105E0FFE700
:1046A0000120BDE8F88F4FF001094846F9E72DE9F0
:1046B000FF4F83B00D46DDF840A0904600200290E9
:1046C00001904FF0010B0BEBD30603F0070936E026
:1046D00000202870012E04D1B9F1000F01D04F46FF
:1046E00000E00827002425E0BAF1020F03D0BAF158
:1046F000030F0BD105E001AA41460398FFF71AFC0E
:1047000004E001AA41460398FFF72AFC0198E0B1B2
:104710004168D1B18078012817D0087820B1287875
:104720000BFA04F10843287008F101081FFA88F811
:10473000641CA4B2BC42D7D3761EB6B26D1C002E48
:10474000C6D1029807B0BDE8F08F0120FAE72DE945
:10475000FF4F83B00F46DDF840A090460020029046
:1047600001904FF0010B0BEBD30503F0070936E086
:10477000012D04D1B9F1000F01D04E4600E008260A
:10478000002427E0BAF1020F03D0BAF1030F0BD1D6
:1047900005E001AA41460398FFF7CCFB04E001AA1B
:1047A00041460398FFF7DCFB0198F0B14168E1B1A5
:1047B0008078022819D038780BFA04F21040E040D3
:1047C0000A78824200D0087008F101081FFA88F8C0
:1047D000641CA4B2B442D5D36D1EADB27F1C002DB3
:1047E000C6D1029807B0BDE8F08F0120FAE70000BB
:1047F0000EB50F480F490A1D096801911168009113
:104800000D4A0199914204D10099A1F18852113ABF
:104810000BD00021002907D001680291029941F4D0
:1048200070010291029901600EBD0121F2E70000C2
:1048300088ED00E040EF00E0210011108CB0002472
:104840000B940A94FCF75EF90AA910A0FCF7E0F8B3
:10485000FBF752FD0BA8FCF7A7F90BA8072108905E
:10486000CDE906410B48059401AB4FF48072416ECF
:1048700017C30220009007480023074A07A1B83851
:10488000FCF740FC0BA8FCF725FBFEE74C5043343B
:10489000303838004C030010810700004170702050
:1048A0005461736B2053746172740000002807D048
:1048B000012807D0022807D0072807D00420704716
:1048C0000020704702207047032070470620704781
:1048D000002807D0012807D0022807D0072807D0D2
:1048E0000420704700207047022070470320704763
:1048F0000620704710B500F035F8002804D00349B1
:104900000968BDE81040084710BD000058010010BC
:1049100010B500F027F8002804D003490968BDE865
:104920001040084710BD00005C01001010B500F0F9
:104930003FF8002804D003490968BDE81040084743
:1049400010BD00000802001010B500F031F800287A
:1049500004D003490968BDE81040084710BD0000B5
:104960000C02001070B5064600250A4884680BE06A
:104970002846D4F8EC10FBF75FFC31462846FBF7DD
:104980005DFD28B1D4F8A448002CF1D1204670BDBB
:10499000204670BD34010010D0F80801002804D171
:1049A000704702788A42FBD0006C0028F9D170472A
:1049B00070B5064600250A4884680AE02846616EFC
:1049C000FBF73AFC31462846FBF738FD28B1D4F80E
:1049D0003C44002CF2D1204670BD204670BD000042
:1049E000E401001030B500210024B0F5D87F03DDCC
:1049F000A0F5D87213B202E0C0F5D87213B20C4D14
:104A000035F91120824202DA821A12B201E0121A3A
:104A100012B2934201DD13460C46491CC9B251291A
:104A2000EED3034952390957401A00B230BD000095
:104A30006256000002460020511E07290BD811497A
:104A4000092A08D2DFE802F00705080B0E11141737
:104A50001A00B1F904007047B1F902007047B1F9CA
:104A600000007047B1F906007047B1F90E007047B9
:104A7000B1F90A007047B1F908007047B1F90C00AC
:104A8000704700002C12001003494843000B962188
:104A9000B0FBF1F000B270471009050070B5054693
:104AA0000E460120FBF7BEFE01460022541E0223E3
:104AB0000AE0501C5843B1FBF0F4B44204D9521C34
:104AC000FF2A01D900229B1CB442F2D82868C0B248
:104AD00028602868D1B240EA01202860D8B2286155
:104AE00070BD0000064A012804D0D078C84000F00C
:104AF000010070479078C84000F001007047000046
:104B000011000010014600204A1E0E2A47D8102925
:104B100045D2DFE801F044080C1014181C202428AA
:104B20002C3034383C4004210220FFF7DBBF062143
:104B30000220FFF7D7BF02210846FFF7D3BF0121AC
:104B40000220FFF7CFBF00210220FFF7CBBF0321D8
:104B50000220FFF7C7BF05210220FFF7C3BF0421D2
:104B60000120FFF7BFBF06210120FFF7BBBF0221D5
:104B70000120FFF7B7BF01210846FFF7B3BF0021AF
:104B80000120FFF7AFBF03210120FFF7ABBF0721D3
:104B90000120FFF7A7BF05210120FFF7A3BF704742
:104BA00001480078704700001100001010B5012086
:104BB000FBF788FFC0F3C26010BD90F8A0067047F5
:104BC00009484078C0F3400141EA001100F00402B6
:104BD00041EA520100F00802114300F0100041EADE
:104BE00090011F20884370471100001070B50346E4
:104BF00000205A1E072A0ED8074800EB021045680D
:104C000004681846FFF716FF024621462846BDE80D
:104C1000704000F03DB870BD3C1200102DE9F0432B
:104C200087B00025002600270024DFF86090E846C2
:104C300001214846FBF70DFD012202214846FBF702
:104C4000DFFC0028F8D002214846FBF7D3FC48F8E7
:104C500024004CB1012C01D1019D019EA84200D934
:104C60000546B04200D20646641CE4B2072CDFD3EE
:104C7000012058F820100F44401CC0B20728F8D378
:104C8000781B801B07B08008BDE8F083004003401C
:104C900070B504460E4610460025FFF7A3FEB0F59A
:104CA000C87F08DB311BA0F5C87041434FF4C860D2
:104CB00091FBF0F00519284670BD42780121914022
:104CC0000078FBF7D7BE00002DE9F04786B0182228
:104CD0005B496846FBF7D4FAFBF7F0FE594802221D
:104CE00041780078FDF7CCFE5748022241780078E1
:104CF000FDF7C6FE5548022241780078FDF7C0FE58
:104D00006846FEF783F952480590524C69462046A2
:104D1000FEF788F901212046FEF76BF94E4E00227E
:104D200071783078FDF7ACFE7078012505FA00F156
:104D30000F4630780022FBF7CDFE39463078FBF77E
:104D4000D9FE464E002271783078FDF799FE7078D2
:104D5000012205FA00F10F463078FBF7BBFE394619
:104D60003078FBF787FE3E4E002271783078FDF7F1
:104D700087FE7078012205FA00F10F463078FBF7C4
:104D8000A9FE39463078FBF775FE4FF4AE07394679
:104D9000012000F06BFBDFF8CC800120414600F0E1
:104DA00065FB4FF480394946012000F05FFB2E4E31
:104DB000002271783078FDF763FE7078002205FAE2
:104DC00000F18A463078FBF785FE51463078FBF7D4
:104DD00091FE264E002271783078FDF751FE7078F2
:104DE000012205FA00F18A463078FBF773FE51463E
:104DF0003078FBF73FFE1E4E002271783078FDF7C9
:104E00003FFE7078012205FA00F10D463078FBF77D
:104E100061FE29463078FBF72DFE3946022000F06E
:104E200025FB4146022000F021FB4946022000F00C
:104E30001DFBE1680029FCD006B0BDE8F08700004A
:104E40004C57000028570000245700002657000048
:104E5000C0C62D00000003401C5700001A57000078
:104E60001857000005105500225700002057000079
:104E70001E5700002DE9F04100240F4D01270022AC
:104E800055F8240041780078FDF7FAFD55F8240024
:104E9000417807FA01F6007801223146FBF71AFE45
:104EA00055F8240031460078FBF7E4FD641CE4B2B9
:104EB0000D2CE4D3BDE8F0811800001010B5FBF70D
:104EC000FDFD00221B210120FDF7DAFD00221C213F
:104ED0000120FDF7D5FD00221D210120FDF7D0FDA9
:104EE00000221C211046FDF7CBFD00221D2110469B
:104EF000FDF7C6FD002213210120FDF7C1FD0122AF
:104F000019210020FDF724FE012219210020FDF7C0
:104F1000B7FD0122D1061046FBF7DCFD0122140784
:104F200021461046FBF7D6FD012251071046FBF73C
:104F3000D1FD002221461046FBF7CCFD00224FF0A8
:104F4000C0411046FBF7C6FD002261120120FBF7AD
:104F5000C1FD0022E1100120FBF7BCFD4FF06051C4
:104F60000120FBF787FD074C05492046FBF757FB5F
:104F700020460122BDE810400221FBF727BB0000BC
:104F8000400D0300004003402DE9F0478CB000269F
:104F90000027B046202104A8FBF729FAB146CDF836
:104FA0000C9000240025601C8246C0B200F081F8FD
:104FB0000AE003A8CDE9009000220A23114610461A
:104FC000FCF778FB6D1C2DB2FFF7F0FDA04201D07D
:104FD0000A2DEEDB0020FBF775FDC0F30070A0404A
:104FE0003043C6B20020FBF76DFDC0F34070A04017
:104FF0003843C7B20120FBF765FDC0F3C040A040B5
:1050000040EA080000F0FF08FFF708FE04A941F895
:105010002400FFF739FD1C4921F814000FFA8AF427
:10502000082CBFDBDFF8649089F8016089F8027012
:1050300089F80380002401F1100606EB0415E868E6
:1050400028B1601CC0B2FFF7D1FDE9680860641C9C
:1050500024B2082CF1DB00240B4D903555F82400C8
:1050600030B1601CC0B2FFF74DFD55F82410087038
:10507000641C24B20F2CF1DBFFF7A2FD89F80000BD
:105080000CB0BDE8F08700002C12001011000010D9
:105090000EB500240294FFF711FFFFF775FF02A879
:1050A000CDE900400023012219461846FCF702FB17
:1050B000F3E72DE9F0474FF00067BE004FF0605175
:1050C0004FF040544FF020554FF080584FF0C059EA
:1050D00009284CD2DFE800F04B050A141E28323CA8
:1050E0004600BDE8F0470120FBF7C4BC2146012083
:1050F000FBF7C0FC3946BDE8F0470120FBF7FABCDE
:1051000029460120FBF7B6FC4146BDE8F0470120E7
:10511000FBF7F0BC31460120FBF7ACFC4946BDE88B
:10512000F0470120FBF7E6BC49460120FBF7A2FC53
:105130003146BDE8F0470120FBF7DCBC41460120C9
:10514000FBF798FC2946BDE8F0470120FBF7D2BCED
:1051500039460120FBF78EFC2146BDE8F0470120CF
:10516000FBF7C8BCBDE8F0470120FBF7C3BCBDE8B6
:10517000F0470120FBF77EBC2DE9F05FFBF79EFCBA
:10518000254C002261782078FDF77AFC234D00221F
:1051900069782878FDF774FC214E00227178307808
:1051A000FDF76EFC1F4F002279783878FDF768FC18
:1051B00060784FF0010808FA00F920784246494625
:1051C000FBF788FC6878012208FA00FA2878514633
:1051D000FBF780FC7078012208FA00FB3078594612
:1051E000FBF778FC7878012208FA00F83878414615
:1051F000FBF770FC49462078FBF77CFC5146287889
:10520000FBF778FC59463078FBF774FC4146387858
:10521000BDE8F05FFBF76EBC0657000008570000C2
:105220000A5700000457000042780121914000789D
:10523000FBF760BC4278012191400078FBF71ABC73
:1052400000F2A5600860704710B5FFF713FEFFF786
:105250003BFDBDE8104000F001B80000FEB50024A1
:105260002E480068019000258DF804500126029612
:1052700001AA00210120FDF755FD294F022257F810
:10528000240041780078FDF7FBFB641CE4B2062C97
:10529000F4D30023C82219460120FDF78FFD8DF8B5
:1052A00000508DF801508DF803608DF8025069466A
:1052B0000120FDF7C1FC0224002221460120FDF758
:1052C00090FC641CE4B2072CF6D3012400231A4698
:1052D00021460120FDF772FD8DF800408DF8015048
:1052E0008DF803508DF8025069460120FDF7A4FCAB
:1052F000012221461046FDF757FC641CE4B2072C3E
:10530000E4D30120FDF789FD01210846FDF7ECFCFF
:1053100001210846FDF780FCFEBD00004457000057
:105320004C00001010B51A4C2046FDF70DFE20462B
:10533000FDF718FE01212046FDF77FFD0122002127
:105340002046FDF786FD1120FBF751FA0022114699
:105350002046FDF710FE002201212046FDF70BFE3E
:10536000002202212046FDF706FE0B2206212046E0
:10537000FDF701FE40F2E17207212046FDF7FBFD3B
:1053800020460122BDE810400421FDF7F4BD0000D5
:105390000040024010B586B018220E496846FAF760
:1053A0006FFF02220F210020FDF76AFB022212216B
:1053B0000020FDF765FB6846FDF728FE064C6946B0
:1053C0002046FDF72FFE01212046FDF712FE06B014
:1053D00010BD0000645700000080084010B50E4C5E
:1053E0000A22214663780D480978002B0CD0B1FBC6
:1053F000F2F302FB131104F10C02515CFDF746FEBF
:105400006078C043607010BDB1FBF2F1024A921C9B
:10541000515CFDF73BFEF3E764000010008008409C
:105420000EB500240294FFF7A7FEFFF7B3FF0E4D61
:10543000287858B1FFF7D2FF02A8CDE9004000223A
:10544000052311461046FCF735F9F1E7FFF7A8FBF5
:10545000287002A8CDE9004000220A231146104618
:10546000FCF728F9E4E7000064000010F8B58DF8B7
:1054700002100A0A8DF80120090C8DF800102C4D3D
:105480006E4601282AD0022851D12A4800F05AF845
:10549000294800F057F81420FBF780FB2548FFF758
:1054A0000CFC1420FBF77AFB00242846315DFDF745
:1054B000EDFD641CE4B2022CF7D9E968C807FCD002
:1054C0001D48FFF7FAFB3220FBF768FB1A4800F093
:1054D00039F8BDE8F8403220FBF760BB174800F010
:1054E00031F8174800F02EF81420FBF757FB13484B
:1054F000FFF7E3FB1420FBF751FB00242846315D46
:10550000FDF7C4FD641CE4B2022CF7D9E968C807B2
:10551000FCD00B48FFF7D1FB3220FBF73FFB0848DC
:1055200000F010F8BDE8F8403220FBF737BBF8BDBB
:1055300000000340205700001E5700001A570000CB
:10554000185700004278012191400078FBF7D2BA49
:1055500070B500250D4E06EB0514A088401E80B2E4
:10556000A08068B9E16809B1A0688847607801281F
:1055700001D018B104E06088A08001E00020207014
:105580006D1C2DB2322DE6DB70BD0000F81200104C
:105590000EB50024029400F01FF84FF4FA760D487F
:1055A000FFF748FE002302AD012219461846CDE957
:1055B0000045FCF77FF80748FFF736FE0022334628
:1055C00011461046CDE90045FCF774F8FDF7B9FF28
:1055D000E5E700000457000010B5084C2046FDF731
:1055E000BCFF0120FDF79FFF01210846FDF7B7FF33
:1055F0002046BDE81040FDF7E5BF0000809698000A
:1056000090F8A30670474FF04070E1EE100A704723
:10561000202020212020201F1F1F20201F1F1F1F90
:10562000201F1F1E1E1D1F1F1E1E1D1D1C1D1D1D9C
:105630001C1C1B1D1D1C1C1B1A1B1B1A19171513C8
:1056400012100E0D0C0B0D0C0B0B0B0A0B0B0A0999
:1056500009080A0808070606060605030100F1D630
:10566000C400B001C401D801ED01000214022802F7
:105670003B024F02630278028C029F02B302C70210
:10568000DB02F002030317032A033E0351036703FF
:105690007B038E03A203B503C903DC03F1030504F6
:1056A00019042C044004530469047D049004A404E8
:1056B000B704CA04DF04F304060519052B053D05EC
:1056C0004F056205740586059905AC05BF05D5052E
:1056D000E805FB050F06230636064B065F06720635
:1056E00085069906AC06C206D406E806FB060E0738
:1056F000220736074A075D076F0781079407990756
:1057000092079407011F031A001B031901120114C9
:10571000011501170118011A00050004041C0205F7
:105720000204020300080009000700000001000A4B
:10573000000B020D020C0013001002090208020700
:105740000206020B0000000001000000070000003C
:105750000000000000000000000000000000000049
:1057600040420F00070000000000000000000000A1
:105770000000000000000000809698003C1A001015
:105780000C000000800000003C1C001080000000A5
:10579000640000003C1E00101D0000000A00000014
:1057A0007C2400100A00000064000000400000009B
:1057B000E8030000010000000C2600100C000000AF
:1057C000800000000B000000E80300000C2800101F
:1057D0000C00000080000000F857000000000010DE
:1057E0009402000020010000B45800009402001050
:1057F000443400007C010000112808E1F50580F028
:10580000FA020411666CDC020101232A571A2C04E7
:105810001A2E041A30041A32041A34041A36041ADE
:1058200038041A3A041A3C041A3E041A40041A4274
:10583000041A0C041A0E041A10041A12041A14047E
:105840001A1604211013C0F9A4B0999282F880901E
:10585000407924301912027802EA10320423CB373F
:1058600032031A670829FB23B93932061A0F0832A6
:1058700017232738320123873632051AAB10320F2F
:105880001A472032021AFB18096AB04BEF40B01ACF
:105890008B0829B04B0B43B04B6342B04B5B41B01C
:1058A0004B8D3FB01AFF1029B01A9B2029B01A0D5A
:0458B0003801380083
:04000005000000E512
:00000001FF
