:020000040000FA
:10000000E0650010CD010000D5010000D70100001F
:10001000D9010000DB010000DD0100009EF3FFEFCD
:10002000000000000000000000000000DF010000F0
:10003000E101000000000000110800003D22000066
:10004000E7010000E7010000E7010000E701000010
:10005000E7010000A5400000E9400000E7010000C2
:10006000E7010000E7010000E7010000E7010000F0
:10007000E701000000000000E7010000E7010000C8
:10008000E7010000B9390000E7010000E7010000C6
:10009000E7010000E7010000E7010000E7010000C0
:1000A000E7010000E7010000E7010000E7010000B0
:1000B000E7010000E7010000E7010000E7010000A0
:1000C000E7010000E7010000E7010000E701000090
:1000D000E7010000E7010000E7010000E701000080
:1000E000E701000000F002F800F060F80AA090E8D4
:1000F000000C82448344AAF10107DA4501D100F0E3
:1001000055F8AFF2090EBAE80F0013F0010F18BF4F
:10011000FB1A43F001031847A8AA0000C8AA000070
:100120000A444FF0000C10F8013B13F0070408BF1D
:1001300010F8014B1D1108BF10F8015B641E05D0BB
:1001400010F8016B641E01F8016BF9D113F0080F70
:100150001EBF10F8014BAD1C0C1B09D16D1E58BF02
:1001600001F801CBFAD505E014F8016B01F8016B39
:100170006D1EF9D59142D6D37047000000230024AC
:1001800000250026103A28BF78C1FBD8520728BFA7
:1001900030C148BF0B6070471FB50AF0F5FB9DE802
:1001A000030000F03FFA1FBD10B510BD00F096FA35
:1001B0001146FFF7F1FF05F0EBFC00F0B4FA03B4D1
:1001C000FFF7F2FF03BC00F0E1FA000009488047A6
:1001D00009480047FEE7FEE7FEE7FEE7FEE7FEE729
:1001E000FEE7FEE7FEE7FEE704480549054A064B41
:1001F00070470000693F0000E5000000E05D00106E
:10020000E0650010E0610010E061001072B6704718
:1002100062B67047EFF3108072B6704780F31088B3
:10022000704730BF704720BF7047B0FA80F070470A
:1002300090FAA0F0B0FA80F0704790FAA0F0704702
:1002400070B5064600F056F8056806F10B0020F080
:100250000704B4429CBF002070BD2B466A68BAB147
:100260001068A04210D304F1080188423CBF5068D6
:10027000586007D35168101941601168091B01606B
:1002800058601460101D70BD13465268002AE7D1F3
:100290002146284600F0B2F90028DED170BD70B5C5
:1002A0000446051F00F026F80068002C14BF4468BF
:1002B00070BD002C18BFAC423CBF20466468F8D328
:1002C00001680A18AA4218BF456003D12A6805468A
:1002D0001144016028684119A1421CBF6C6070BDC7
:1002E0006168696021680844286070BD7047704784
:1002F0007047000000487047845D0010FFFFFFFF5B
:1003000053EA020C00F069802DE9F04B4FF0000633
:10031000002B1FBFB3FA83F503FA05F424FA05F6A0
:100320005E4012BF1643B2FA82F502FA05F4C5F137
:1003300020051EBF22FA05FC44EA0C04203556EACB
:10034000044C4FEA144418BF641C4FF000084FF0EF
:100350000009904271EB030C39D3002919BFB1FA9F
:1003600081F701FA07F6B0FA80F700FA07F6C7F14D
:1003700020071EBF20FA07FC46EA0C062037B6FB12
:10038000F4FCA7EB0507103F07F01F0BCBF120068D
:100390000CFA0BFB2CFA06F644BFB3460026202FBE
:1003A000A4BF5E464FF0000B5BEA060C08BF4FF09F
:1003B000010B19EB0B09ABFB027C48EB0608C01BD9
:1003C00006FB02CC0BFB03CC71EB0C01C1E70B4627
:1003D000024641464846BDE8F08B13B54FF0000099
:1003E0004FF00001AFF30080BDE81C40704740EAC9
:1003F0000103024630B59B0710D14FF0013400E0F5
:1004000008C208C91D1B9D4315EAC41FF8D013F08C
:10041000FF0102F8011B0DD01B0AF8E711F8013BA0
:10042000002B02F8013B05D011F8013B002B02F82C
:10043000013BF3D130BD032A40F2308010F0030CB1
:1004400000F0158011F8013BBCF1020F624498BF27
:1004500011F801CB00F8013B38BF11F8013BA2F1C4
:10046000040298BF00F801CB38BF00F8013B11F03F
:10047000030300F02580083AC0F0088051F8043BDF
:10048000083A51F804CBA0E80810F5E7121D5CBF4C
:1004900051F8043B40F8043BAFF30080D20724BF7F
:1004A00011F8013B11F801CB48BF11F8012B24BF13
:1004B00000F8013B00F801CB48BF00F8012B704762
:1004C00010B5203AC0F00B80B1E81850203AA0E8EF
:1004D0001850B1E81850A0E81850BFF4F5AF5FEA23
:1004E000027C24BFB1E81850A0E8185044BF18C9D6
:1004F00018C0BDE810405FEA827C24BF51F8043B7D
:1005000040F8043B08BF7047D20728BF31F8023BD0
:1005100048BF11F8012B28BF20F8023B48BF00F864
:10052000012B70474FF0000200B5134694469646E3
:10053000203922BFA0E80C50A0E80C50B1F12001F6
:10054000BFF4F7AF090728BFA0E80C5048BF0CC0A4
:100550005DF804EB890028BF40F8042B08BF704702
:1005600048BF20F8022B11F0804F18BF00F8012B74
:10057000704700004FF0013C50F8042B51F8043B49
:100580009A4221D1A2EB0C03934313EACC1317D167
:1005900050F8042B51F8043B9A4215D1A2EB0C03FE
:1005A000934313EACC130BD150F8042B51F8043BBE
:1005B0009A4209D1A2EB0C03934313EACC13DBD08C
:1005C0004FF00000704700BFD01A01BAB1FA81F1B4
:1005D00001F0180122FA01F0CB40C1F12001DBB299
:1005E000C0B2C01A2CFA01F3D11A914311EAC31117
:1005F000E6D17047704770477047704738B504467A
:100600000A4600206946AFF30080002808BF38BDC5
:1006100002460099204600F03FF8012038BD012035
:1006200000F054B8F8B5AFF30080054600200C4642
:10063000102000BF0646A819A0420DD932466946CF
:100640000020AFF30080070008BF00F03FF80098DB
:10065000A04218BF0546C419FFF74CFE05600746C7
:10066000F01D20F007004619284600F00AF8B442B1
:1006700008BFF8BDA21B31463868BDE8F84000F05D
:100680000BB800210160C0E90110704710207047CD
:10069000004870477C5D0010034640688C46002887
:1006A00018BF88423CBF03464068F8D31868184416
:1006B000884207D00CF1030020F00700001D411A0A
:1006C000521A0146081D0A60FFF7E9BD10B500F097
:1006D00035F8BDE8104000F02CB870477546FFF7BC
:1006E000D7FFAE4605006946534620F00700854611
:1006F00018B020B5FFF778FDBDE820404FF00006A8
:100700004FF000074FF000084FF0000B21F00701F9
:10071000AC46ACE8C009ACE8C009ACE8C009ACE83C
:10072000C0098D4670470446AFF300802046FFF7AE
:1007300046FD002801D000F029B8704710B5012807
:1007400005D0002103A000F027F8012010BD09A169
:10075000F8E7000053494752544D454D3A204F7534
:1007600074206F662068656170206D656D6F7279A9
:10077000000000003A2048656170206D656D6F7261
:100780007920636F72727570746564000149182076
:10079000ABBEFEE72600020070B505460C460A20F7
:1007A00000E06D1C00F011F835B128780028F8D170
:1007B00002E0641C00F009F814B120780028F8D198
:1007C000BDE870400A20AFF3008008B569468DF897
:1007D00000000320ABBE08BD224C4FF6FF7525601C
:1007E0004FF0000484F309881F4C4FF00105257079
:1007F0001E4C4FF08055256062B6FEE71B484FF057
:1008000080510160704719484FF080510160704776
:1008100072B6EFF3098050B11EF0100F08BF20ED43
:10082000108A734620E9F80F11490968086000B57D
:10083000104880475DF804EB0F4810490A780270B1
:100840000B480F490A6802601068B0E8F80F9E462E
:100850001EF0100F08BFB0EC108A80F3098862B652
:100860007047000022ED00E03801001004ED00E0C8
:10087000B8010010651D00004A0100104B01001076
:10088000BC01001001238B400168012A0AD011F03D
:10089000E06F03D0016821F0E061016001689943D5
:1008A000016070471943FBE700EB8100008AC0F349
:1008B0000B10704700EB8100006912B100F000409E
:1008C00001E000F08040002800D00120704770B5A2
:1008D0000C4605460121080300F0CEF800202860F0
:1008E0004FF40016012000F0D7F8C4EB441101EBDF
:1008F00040004900B0FBF1F0401E46EA00202860AD
:1009000070BD026822F0E0620260026842EA0161A2
:100910000160704710B50C20FFF792FC040003D073
:1009200000F0F8F9204610BD002010BD10B507F00A
:100930007DFFFFF76FFC044600F020F907F008FF89
:10094000184A80230421A2F1B80007F0E9F8164AFA
:1009500080230521A2F1B80008F0B6F8134A8023DD
:100960000821A2F1B80007F005F8114A80230721F9
:10097000A2F1B80006F0FEFF0E4AA0230C21A2F15E
:10098000B80008F0DDF90C4A80230D21A2F1B8006F
:1009900009F0F4FD00F002F92046BDE81040FFF731
:1009A0003DBC00000C090010C40B00107C0E0010B0
:1009B00034110010EC130010241700100EB500269F
:1009C000ADF8086000F056F800F048F812490968E0
:1009D000B0FBF1F001F04AFC02A800F05DFE00F06F
:1009E000AFF8FFF7A3FF0D4F02AD0023CDE900657F
:1009F0000F221946184601F01FFA3E70002400220B
:100A0000CDE9006564231146104601F015FA641C17
:100A1000E4B2112CF3D3E7E734AB00001000001070
:100A200010B5064C206830B900F00AF841F2706148
:100A3000206009588847206810BD0000640000103D
:100A400010B541F27460FFF7FBFB002803D041F2C0
:100A50007061014A0A5010BD19610000002000F0C9
:100A60001BB8FFF7D3BB292803D21030C0B200F067
:100A7000ADB8704770470000064A012906D000292A
:100A800003D152F8C41F81431160704752F8C41F4C
:100A90000143F9E700C00F4030B1012806D0022819
:100AA00006D0032806D0FEE7044804E0044802E02C
:100AB000044800E00448006870470000000000108F
:100AC00004000010080000100C00001010B50446CF
:100AD00003F044F90448C4F850010448E0600448B5
:100AE000C4F8540110BD000069740000BD7300001B
:100AF000A574000010B54FF4BC70FFF7A1FB040013
:100B000003D0FFF7E3FF204610BD002010BD00001A
:100B100003490969884201D9401A7047002070478B
:100B20000801001010B5FFF775FB04494C69FFF789
:100B300075FB2046BDE81040FFF7EABF0801001032
:100B400010B5FFF7EFFF0446FFF764FB034A0021EF
:100B50005161FFF763FB204610BD00000801001043
:100B600010B5FFF757FB04498C69FFF757FB204688
:100B7000BDE81040FFF7CCBF0801001010B5064CCF
:100B80002088401C2080608810B900F0ABF8A0607D
:100B90006088401C608010BD0801001010B50A4C30
:100BA0006088401E0004000C60800CD100F09AF8B0
:100BB000E060A168401A6169814200D26061A16968
:100BC000814200D2A06110BD0801001070B5304C08
:100BD0004FF0E025102835D2DFE800F0585858587B
:100BE00008111E585858585858585827FFF712FBE4
:100BF0000546FFF7C3FF206840F4803007E0FFF7A9
:100C000009FB0546FFF7BAFF206840F4003020607A
:100C1000FFF7C4FF284635E0FFF7FCFA0546FFF76B
:100C2000ADFF206840F48020F1E7FFF7F3FA0446B7
:100C3000FFF7A4FF286940F001002861FFF7AEFF2D
:100C400020461FE069681022491C02EB4111C9B21D
:100C500088421BD21038C11700EBD161C1F3471491
:100C600021F01F01451AFFF7D5FA0646FFF786FF68
:100C70000120A840A10001F1E021C1F80001FFF727
:100C80008DFF3046BDE87040FFF7C8BA70BD000068
:100C900024ED00E070B50C00054616D0B5B110216A
:100CA00003F07EF8102814D2FFF7B4FA0646FFF7D7
:100CB00065FF10222946094803F05AF8FFF76EFF36
:100CC0003046FFF7ABFA002005E0FEE70A20088077
:100CD00070BD4FF47A70208070BD00000C41001090
:100CE000FEE700000148406870470000001000E087
:100CF0000C20FFF7A5BA000010B54FF4AC70FFF759
:100D00009FFA002802D00249C0F8501110BD00001F
:100D10001DA60000704700002DE9F04F354C164627
:100D20004FF0A057DDF824903546276001F03F07CB
:100D3000044667F39F144FF40017C7F884404FF040
:100D4000080A4FF0090B4FF00A0E43B1012B09D0EE
:100D5000C7F880E08407002C3BD1002437E0C7F8B7
:100D600080A0FAE7C7F880B0C407F4E79BB3D7F8D0
:100D70008CC0012B36D042F804CB001DDFF874C0C4
:100D800080B2ACF1080CDCF800804FEA98685FEAAA
:100D9000C878F8D0DFF85CC04FF08068CCF80080ED
:100DA000402813D3A9F1010C64450FD20020491C3F
:100DB00089B201F03F08844668F39F1CC7F884C0DD
:100DC000A3B1012B14D0F446C7F880C0641C4C4575
:100DD000CCD3BDE8F08FFFE7D7F88CC006F801CB85
:100DE000401CCBE725F802CB801CC7E7D446EBE7D5
:100DF000DC46E9E7E80F200010B50446FFF78AFF5C
:100E0000054860640548E060054820610548606168
:100E10000548A06110BD0000157A0000DF7A0000CF
:100E2000037B0000C97A0000B37A000010B54820A7
:100E3000FFF706FA040003D0FFF7DEFF204610BDDF
:100E4000002010BD10B50C4600F004F8002800D0BA
:100E5000C46110BD01460020062905D2DFE801F07B
:100E60000305080B0E1108487047074820307047EB
:100E70000548403070470448603070470248803071
:100E800070470148A0307047008009200121C80345
:100E9000FFF7F2BD10B5FFF7DDFF002800D0406975
:100EA00010BD70B515460C46FFF7D4FF002805D0DD
:100EB00001680DB1214300E0A143016070BD10B590
:100EC0000C46FFF7C7FF002800D0846110BD00006A
:100ED0000EB50B4900200B4A0860012002A9CDE99C
:100EE0000001830202F5806107A000F011F8BDF84F
:100EF0000800A0F51C51103901D0FFF7F1FE0EBD1E
:100F0000240100101C4100104865617000000000C1
:100F10002DE9F84F1C46DDE90A5A164688468146F7
:100F2000FFF778F90746FFF729FE2B463246414680
:100F30004846009400F00CF8FFF730FE3846FFF703
:100F40006DF942F21071AAF80010BDE8F88F0000A8
:100F500000981044401EC1E9002003488A600268DE
:100F6000C1E90323016070472401001010B5044655
:100F7000FFF7D0FE0548C4F8F0050548E0600548D5
:100F800020610548C4F8F40510BD00000D7F000085
:100F9000C7860000C1860000AD86000010B54FF482
:100FA000BF60FFF74DF9040003D0FFF7DFFF2046D5
:100FB00010BD002010BD000010B50446FFF7AAFECA
:100FC0000149216210BD0000DF86000010B5242019
:100FD000FFF736F9040003D0FFF7EEFF204610BDFF
:100FE000002010BD7047000070B5044600F080F886
:100FF0002E48002505702E4805702E4805702E4895
:1010000005602E4805602E4805702E4805702E4854
:10101000016831B12D48006801E020C1401E002860
:10102000FBD12B48057001F087FB01F0A7FB294895
:10103000056029480580204601F07AF920880028BB
:1010400032D1204601F080F9208800282CD1234895
:101050000560234805802348056023480580204615
:1010600001F014FE208800281ED1204601F02CF942
:101070002088002818D1204602F042F92088002854
:1010800012D1204601F07EFD208800280CD1204698
:1010900002F09EF92088002806D101F0FBF8FFF746
:1010A000A1FF12490120087070BD0000300100103E
:1010B0003801001052010010B8010010BC010010EE
:1010C0004A0100104B0100100CAB000010AB0000F7
:1010D0007E0100103C010010400100104C01001086
:1010E0005001001054010010580100103901001087
:1010F000054806490068096800EB8100044920F0B2
:1011000007000860704700000CAB000010AB000047
:10111000C0010010184810B5007801282BD1FFF746
:1011200079F816490446087800B3401E10F0FF0015
:1011300008701BD112480078C0B901F0F3FA1149C8
:101140000870114900EB400051F820000F49086079
:101150000F490968884209D050F8841F491C016072
:101160000C480168491C0160FFF74DFB2046BDE8B3
:101170001040FFF753B810BD3801001030010010C7
:10118000520100104B010010C4550010BC010010AA
:10119000B801001074010010174810B5007800283D
:1011A00029D116480078002825D1FFF733F80446E6
:1011B00001F0B8FA12490870124900EB400051F8EA
:1011C00020001149086011490968884204D120466D
:1011D000BDE81040FFF722B850F8841F491C016099
:1011E0000B480168491C0160FFF708FB2046FFF728
:1011F00015F8BFF36F8F10BD3001001052010010C1
:101200004B010010C4550010BC010010B8010010C3
:101210007401001070B504461148007810B146F60C
:1012200062501BE00F480078012802D045F6896023
:1012300014E00D4D2878FA2802D345F209200DE07C
:10124000FEF7E8FF0646FFF799FC2878401C287057
:10125000FFF7A4FC3046FEF7E1FF0020208070BDC0
:1012600030010010380100105201001070B5044622
:101270001748007810B146F6655027E01548007809
:10128000012802D045F6896020E0134E307890B1F5
:10129000FEF7C0FF0546FFF771FC3078401E10F0E6
:1012A000FF0030700AD0FFF779FC2846FEF7B6FF42
:1012B00046F663500AE046F6645007E0FFF76EFC1E
:1012C0002846FEF7ABFFFFF767FF0020208070BDC8
:1012D0003001001038010010520100102DE9F041DA
:1012E0000446164816460F4600781D4610B142F6D1
:1012F000E16020E0ECB1FEF78DFF8046FFF73EFC99
:10130000266200260E486662C4E9000704F1080060
:1013100001F03AF9204601F0BDFA0A490888401C5C
:101320000880FFF73BFC4046FEF778FF2E80BDE8C3
:10133000F08145F6C3501880F9E700003001001035
:1013400053454D41580100102DE9F04706464B48E2
:1013500088B01C460078109D9046894610B146F230
:10136000AE100AE03EB1100009D0B2F5004F06D031
:1013700045F6256001E045F6C35028805CE0404911
:101380003068884202D045F6C450F6E7FEF742FFC7
:101390008246FFF7F3FB306A002760B1401E3062DF
:1013A0000CB1706A2060346AFFF7F8FB5046FEF714
:1013B00035FF2F805AE05FEA08400BD504B1276063
:1013C000346AFFF7EBFB5046FEF728FF46F2B010F9
:1013D00028804BE02B48007848B104B12760FFF724
:1013E000DDFB5046FEF71AFF46F66350C5E74B4655
:1013F00006223146684601F055F8FFF7CFFB50460C
:10140000FEF70CFFFFF7C8FEFEF704FF8046FFF76C
:10141000B5FB1D48016891F8350088B1012814D04A
:10142000022825D0032816D046F62E602880FFF724
:10143000B5FB4046FEF7F2FE002008B0BDE8F0879D
:101440000CB1086C20602F800AE00CB1086C2060A1
:1014500046F2A91003E004B1276047F2D9202880A2
:10146000346AFFF79BFB4046FEF7D8FE2046E4E7D0
:101470000CB1086C206045F6C250F0E73001001056
:1014800053454D4152010010B801001070B50C4693
:10149000060015460CD074B1B4F5007F0BD0B4F53E
:1014A000004F08D0B4F5024F05D045F6256008E09E
:1014B00045F6C35005E009493068884204D045F636
:1014C000C4501080002070BDFFF70CFC02462B4674
:1014D00021463046BDE8704001F0EEB953454D411C
:1014E0002DE9F041044616480E461546007810B125
:1014F00046F6C65006E044B112492068884207D03B
:1015000045F6C4501080BDE8F08145F6C350F9E7B8
:1015100000202880FEF77EFE0746FFF72FFB206A9B
:1015200058B9A06848B147F25F102880FFF736FB32
:101530003846BDE8F041FEF771BE2662F6E70000CE
:101540003001001053454D4170B5044615480078F0
:10155000012802D045F68B600CE013480126008874
:10156000042802D845F68C6004E0104D287818B1A4
:1015700045F68A60208070BD01F0D4F80C490870EF
:101580000C4908700C4900EB400051F820000B4951
:1015900008600B4908602E70FFF71EF943F699208A
:1015A000E8E70000390100107C010010380100104C
:1015B0004B0100104A010010C4550010BC0100107E
:1015C000B80100102DE9F0410746FEF723FE04465E
:1015D000FFF7D4FA284800250580284805602848E8
:1015E0000560284805602848056028480581FFF700
:1015F000D5FA2046FEF712FEFEF70CFE0646FFF770
:10160000BDFA2348046816E0FEF704FE0646FFF71D
:10161000B5FAC4F8A85044F86C5F2563A561A582AB
:10162000E5826562A562FFF75DFB44F8200FA4F137
:1016300034008581646AFFF7B1FA3046FEF7EEFDAB
:10164000002CE1D1FEF7E6FD0646FFF797FA1148B8
:10165000046806E0FEF7DEFD0646FFF78FFAA58573
:10166000A469FFF79BFA3046FEF7D8FD002CF1D1B4
:101670003D80BDE8F08100005E01001070010010A7
:1016800084010010A801001034010010B8550010AA
:10169000780100104C010010F8B504466946244852
:1016A00000F04CFBBDF8000058BB6A460021022048
:1016B00000F07AFBBDF8000018BBFEF7ABFD074653
:1016C000FFF75CFA1B4E00253560FFF767FA3846D6
:1016D000FEF7A4FD184919480A6803689A4202D91E
:1016E000B2FBF3F010B90A21B2FBF1F06A46002117
:1016F00000F05AFB69460E4800F0AEF9BDF8000054
:1017000008B12080F8BDFEF785FD0746FFF736FAE1
:101710000B480C490560306808600B4901200870CF
:10172000FFF73CFA3846FEF779FD2580F8BD00004A
:10173000B45800106001001034AB000020AB000072
:1017400070010010640100106C010010704700006F
:101750002DE9FF4F83B004465148DDE91785DDE9E7
:1017600010970078139E934610B147F24A1025E077
:1017700054B1BBF1000F0AD067B14A4800688642F5
:101780000BD246F6306019E047F2AD1016E047F292
:101790004F1013E046F62F6010E01298B04202D3CB
:1017A00046F631600AE046F27320B9F1200F05D207
:1017B000B9F11F0F06D13C498C4203D0288007B0F5
:1017C000BDE8F08F204601F071FA4FF0000AA5F84D
:1017D00000A05FEA887007D538460021524601E034
:1017E00004C0491CB142FBD31298009607EB80005D
:1017F000CDE901803A465846029B069900F068FA06
:10180000B84202D246F62C60D8E7C4F828B0069950
:10181000E1620499A16084F8379020600298E0604A
:1018200016986762A6636060A4F83C800020514669
:1018300004EB8002401C116710F0FF00F8D004F1A7
:101840005800149900F0E2FD204600F033F8FEF74E
:10185000E1FC0546FFF792F994F8370000F076FFB7
:10186000204600F0D1FF204601F0FEF90F4908881C
:10187000401C08800E480078012807D0FFF78EF939
:1018800007B02846BDE8F04FFEF7C8BCFFF786F961
:101890002846FEF7C3FC07B0BDE8F04FFFF77CBC5D
:1018A0003001001030AB0000005500107C0100102A
:1018B00038010010704700002DE9F84F8346524868
:1018C0000A9D1C46007816460F4610B146F2AE102F
:1018D0000AE03EB1080009D0B1F5004F06D045F648
:1018E000256001E046F2D520288020E04FF0000975
:1018F0000CB1C4F80090FEF78DFC0090FFF73EF9A4
:10190000DFF808812B462246D8F8000031465830CF
:1019100000F050FD8246288860B138041DD546F29B
:10192000B0102880FFF73AF90098FEF777FC002006
:10193000BDE8F88F54B1FFF7D5F92168401AD8F8FF
:1019400000108866CA6E824200D2C866FFF726F988
:101950000098FEF763FC5046EAE72D48007838B15E
:10196000FFF71CF90098FEF759FC46F66350BBE7F9
:1019700000215B460222084600F094FDFFF70EF9B5
:101980000098FEF74BFCFFF707FCFEF743FC82468E
:10199000FFF7F4F8D8F8000090F83510A1B101294C
:1019A0004FF0000728D0A6F800901CB1D8F800002E
:1019B000006C206047F2D9202880FFF7EFF85046EE
:1019C000FEF72CFC3846B3E7076DB0F854003080C2
:1019D0007CB1D8F80000006C2060FFF783F9014665
:1019E000D8F80000026C891A8166C26E8A4200D261
:1019F000C166A5F80090E0E74846A6F8009004B15B
:101A0000206046F2A910D7E730010010B80100109D
:101A1000520100102DE9FC411C00089D16460F469E
:101A200080460DD0102C0BD0B4F5004F08D0A4F593
:101A30000040103804D045F625602880BDE8FC81C0
:101A4000FFF750F9CDE900052346324639464046B6
:101A500001F082F9F2E7000070B5054612480C4625
:101A6000007818B147F25510088070BDFEF7D2FB20
:101A70000646FFF783F81DB10C480068854208D17F
:101A8000FFF78CF83046FEF7C9FB47F2571020806D
:101A900070BDFFF783F83046FEF7C0FB21462846AD
:101AA000BDE8704001F0A6B930010010B801001087
:101AB000704700002DE9F04781464B4814461D460B
:101AC0000078884610B146F2AE1006E0080006D055
:101AD000B1F5004F03D045F6256018803FE0FEF7D2
:101AE00099FB8246FFF74AF8404F00263868416C60
:101AF000D9B1491E884641640CB1006C2060FFF7E3
:101B0000F1F839680A6C801AC1F89800D1F89C2065
:101B1000824201D2C1F89C00FFF740F85046FEF720
:101B20007DFB2E804046BDE8F0875FEA084009D57E
:101B3000FFF734F85046FEF771FB04B1266046F219
:101B4000B0100BE02A48007858B104B12660FFF7C6
:101B500025F85046FEF762FB46F6635028800020C9
:101B6000E1E700214B460722084600F09BFCFFF707
:101B700015F85046FEF752FBFFF70EFBFEF74AFB47
:101B80008046FEF7FBFF396891F8350030B1012837
:101B900016D003281AD046F62E601BE074B1086CEC
:101BA0002060FFF79FF839680A6C801AC1F8980026
:101BB000D1F89C20824201D2C1F89C002E800AE01C
:101BC0000CB1086C206046F2A91003E004B1266055
:101BD00047F2D92028803868446CFEF7DFFF404682
:101BE000FEF71CFB20469EE730010010B8010010F4
:101BF0005201001070B50C000646154607D0B4F52A
:101C0000004F04D045F625601080002070BDFFF71E
:101C100069F802462B4621463046BDE8704001F087
:101C200055B900002DE9F0470546274816460F46EE
:101C300000781C4610B147F259100AE046F2D52050
:101C40003FB136B1FEF7E6FA8146FEF797FF1DB1C8
:101C500004E01880BDE8F0871C4805684FF00008D4
:101C6000286858B195F83C00C00713D0FEF796FFDE
:101C70004846FEF7D3FA0020696A1AE0FEF78EFFA5
:101C80004846FEF7CBFAC7F8008047F25210C6F874
:101C900000800AE0FEF782FF4846FEF7BFFAC7F869
:101CA000008047F25410C6F800802080D2E7401C24
:101CB000091D0A68002AFAD03860A96B081A30603A
:101CC000A4F80080C6E7000030010010B801001041
:101CD00010B5029C02EB840222F007024FF08074E0
:101CE00042E90204144842F80C0DA2F108004FF03A
:101CF00012344FF0033260E80B244FF0023282625C
:101D0000C0E908134FF01131C161D1008161611048
:101D10004161910001614FF00731C1604FF0063120
:101D200081604FF005314160510040F804196FF0B7
:101D30000201016010BD0000AD2E0000074A1278BC
:101D400012B147F25D1004E0054A904203D147F218
:101D50005B100880704701F00FB9000030010010DF
:101D60000055001070B5FEF7BDFF0D4C0D4A2168FF
:101D70001368994207D0D1F88C20821A41F8882F35
:101D80008D682A448A60C3F88C00FEF7D9FE21686A
:101D9000D1F8A820824201D2C1F8A80070BD00008D
:101DA000B8010010BC0100102DE9F04106461F48A3
:101DB0000D461446007810B147F2752027E01C4804
:101DC000007810B146F6635021E045B1022D06D0EF
:101DD000042D05D0082D02D045F6256017E0A6B1E8
:101DE000FEF718FA0746FEF7C9FE2A46114D2346AC
:101DF0003146286801F060F9208858B1FEF7CEFE20
:101E00003846BDE8F041FEF709BA47F27E2010805F
:101E1000BDE8F081286800F013FDFEF7BFFE3846EC
:101E2000FEF7FCF9BDE8F041FFF7B6B9300100104C
:101E300052010010B80100102DE9F047424D16463E
:101E4000DDE908242D7815B147F2752077E03F4D84
:101E50002D7815B146F6635071E012F00E0547F289
:101E60007E2945F6256C05D0022D03D0042D05D022
:101E7000082D15D113B90EB901B9E0B332F01E0720
:101E800000D0012767B9C2F3001247F2792C47F25C
:101E900078284FF47A773AB142F20F72914212D910
:101EA000A4F800C0BDE8F087BB4202D347F27B2014
:101EB00045E03B2E02D947F27A2040E03B29EFD89B
:101EC000632802D804E0B84202D3A4F80080E9E70E
:101ED0001F4A4FF4FA7CC1EB01111268BCFBF2FC03
:101EE00063445343B3FBF7F34FF46167784300EB6C
:101EF0008100304400E024E000FB02360EB3FEF720
:101F000089F90746FEF73AFE2A46124D2346314626
:101F1000286801F0D1F8208830B1FEF73FFE38463E
:101F2000BDE8F047FEF77AB9286800F089FCFEF7B3
:101F300035FE3846FEF772F9FFF72EF900202080B3
:101F4000B0E7A4F80090ADE7300100105201001096
:101F500034AB0000B80100100C4808B50078012827
:101F600013D100F01DF86A4600210948FFF742FE30
:101F700008490868401E086007D107486A4600689B
:101F8000086000210548FFF735FE08BD3801001044
:101F9000FC570010B4010010B0010010B45800103C
:101FA000704700002DE9F84F04462B48DDE90A98F8
:101FB00000780D9D1E4617468B4610B147F2433000
:101FC00021E044B14846B9F1010F12D0022805D0F2
:101FD00045F6256017E045F6C35014E01EB15FEAF0
:101FE000080003D006E047F240300CE047F24A30E8
:101FF00009E037B1DFF864A09AF80000012805D0A5
:1020000007E047F23F302880BDE8F88F6846FFF7C9
:1020100001F9012084F82600E7610027A761104834
:102020002662C4E9000BA4F82490C4F808800C9838
:10203000C4E903072046676101F0BCF90949088833
:10204000401C08809AF80000012802D16846FFF77A
:102050000DF92F80D8E70000300100103801001082
:10206000544D5220A401001038B5044625480D46B1
:10207000007810B147F243300BE044B122492068A8
:10208000884208D045F6C4502880002038BD47F269
:1020900042300880F9E76846FFF7BCF894F826005C
:1020A00030B30021012809D0022804D0032805D02C
:1020B00047F241301EE0E069A06111E0022084F89F
:1020C0002600E06900B9206A104AA061104B106830
:1020D00048B1C4E90401446114601888401C1880A8
:1020E0002980012408E02161616101201460F6E784
:1020F00047F23D30288000246846FFF7B7F82046B5
:1021000038BD000030010010544D5220A0010010D5
:102110009C01001038B5054615480C46007810B1F2
:1021200047F243300BE045B112492868884208D095
:1021300045F6C4502080002038BD47F24230088068
:10214000F9E76846FFF766F895F8265045B1012D86
:1021500006D0022D04D0032D02D047F2413000E01A
:10216000002020806846FFF781F8284638BD00002F
:1021700030010010544D5220F8B505462D48174641
:102180000E4600781C4610B147F2433009E035B1E5
:1021900029492868884206D045F6C45001E047F234
:1021A000423018801EE06846FFF734F895F82600A4
:1021B00088B3012830D0022804D003282CD047F25D
:1021C00041302FE00020208030001FD047F24436FD
:1021D000032809D004280ED06846FFF747F845F6D3
:1021E000256020800020F8BD284601F0B5F9AA68D6
:1021F00052B1E96805E0284601F0AEF9AA681AB1C3
:1022000039462846904704E0268002E0284601F03F
:10221000A3F9012408E003E047F249302080F8E701
:1022200047F23D30208000246846FFF71FF8204623
:10223000F8BD000030010010544D522010B5FDF7DC
:10224000E9FF0446FEF79AFC074A1178491C117011
:10225000FEF7A4FC2046FDF7E1FFFFF77DFEBDE899
:102260001040FEF757BF0000300100104FF0E02192
:10227000401E4861064A106820F07F4010600869DF
:1022800040F005000861086940F0020008617047ED
:1022900020ED00E070470000094C0A4DFDF7BAFF41
:1022A0000646FEF76BFC2068401C20602868401C36
:1022B0002860FEF773FC3046FDF7B0FFEEE7000044
:1022C0002C0100106001001000B50E4A89B00021F9
:1022D00011600B2205910691CDE907200A480B4AAF
:1022E0000B4B006812681B680292CDE903011F20A6
:1022F000CDE900030023074A07A10C48FFF728FA9D
:1023000009B000BD2C01001008AB000004AB0000B8
:1023100000AB00009922000075432F4F532D49490F
:10232000492049646C65205461736B0000550010AE
:10233000034A00211160034A1180018070470000A8
:102340004401001048010010F0B5174E316859B132
:10235000164F398859B13B8831685B1E9DB2002306
:1023600001F110021C460FE045F21E7101E045F23A
:102370001D710180F0BDE1E802245B1C21F8084BCF
:102380009BB241F8044C1032AB42F4D30C604C6069
:102390000C81CC60064932680A603A888A80CC8019
:1023A0000C810480F0BD000018AB000014AB0000ED
:1023B000B8550010F0B544890025CCB14468278990
:1023C00066680F800AB1E168116021684160B9B1A7
:1023D0004189491E41810C4801682160046081885F
:1023E000491C8180C188491EC1801D803046F0BDD6
:1023F0000D8002B1156046F2925018800020F0BDA9
:1024000005604581E7E70000B85500100181002113
:10241000418181810160416070470000F0B54489CD
:10242000DDE905E60589AC4202D346F293501EE091
:102430001B4DAF88CFB12C687F1ED4F800C0C5F803
:1024400000C0AF80EF887F1CBFB2EF80B5F808C036
:10245000BC4500D22F814789002557B1DB060ED439
:1024600003681C60046025600CE045F21D7030803C
:10247000F0BD0460012344604381256005E04368AA
:102480002360446043895B1C4381878943899F4261
:1024900000D2838161602281C4F80CE03580F0BDF8
:1024A000B85500102DE9F041114D07460C4628683B
:1024B0000026194680F8342080F8356000F0C0FB13
:1024C00064B1FC6004F1080601223946286800F076
:1024D00011F83946304600F05CF802E02868C687FB
:1024E000066320462968BDE8F04100F01BB80000F3
:1024F000B801001010B5C2870024234601630EE026
:102500004B6041F8103B641C41F8103BA4B241F809
:102510000C3C21F8083C41F8043C41F8180C94426A
:10252000EED310BD38B14268C1F8B4208168896823
:102530008968C161704791F83400022803D00728E8
:1025400003D004A002E004A000E005A0C1F8B4009C
:1025500070470000200000005461736B20510000A0
:102560005461736B2053656D0000000005A2C1F833
:10257000B420816811B18968896800E001A1C16156
:1025800070470000200000000021016041600181CF
:10259000704730B58A68002592F8374002685AB112
:1025A00003895B1C0381936893F83730A34209D8F1
:1025B0005268002AF7D10DE0012202814D600D60C2
:1025C00001600BE032B1136853B1C1E900325960C8
:1025D000116030BD4D6042680A605160416030BD9D
:1025E0001160C1E90052016030BD70B5046B064650
:1025F000002C0ED0F58F07E0E0682146083000F08F
:1026000009F86D1EADB22034002DF5D10020F08701
:10261000306370BD10B50268002452685AB10A6870
:1026200062B14B6873B153601A600289521E028115
:102630004C600C6010BD04604460F6E74A681460AA
:102640000260F2E754604260EFE7F8B50C460546D9
:1026500091F836100026069808294ED2DFE801F0DE
:102660004D4D04044D4D282894F83410032910D002
:102670002265A4F85430206435B12046FFF7B5FF39
:1026800021462846FFF772FF94F83600032806D04B
:1026900008E000902146284600F030F8ECE720469C
:1026A00000F04EFD204600F079F884F8366020E016
:1026B00094F83410032910D02265A4F85430206413
:1026C00035B12046FFF791FF21462846FFF74EFF20
:1026D00094F83600072806D008E0009021462846E6
:1026E00000F00CF8ECE7204600F02AFD042084F806
:1026F000360084F8356084F83460F8BD70B50C6B32
:10270000049DC98F0AE0E668864204D1C4E9040248
:102710002383E56170BD491E89B220340029F2D1BE
:1027200070BD0000034810B50068FDF77EFDC0B223
:1027300010BD0000280100100020034A014642F8A5
:102740002010401CFBD07047280100100121C0F16F
:102750001F008140024802680A430260704700007F
:10276000280100100121C0F11F00814002480268C9
:102770008A43026070470000280100100020064BC9
:10278000024600EB400103EB8101401C0A810A6014
:102790004A602028F5D37047C455001010B5044690
:1027A00090F83700FFF7D2FF074994F8370009780F
:1027B0008842204603D1BDE8104000F025B8BDE8AE
:1027C000104000F003B800004A01001090F83710E4
:1027D0000C4A01EB410102EB810100220B684BB175
:1027E0000B895B1C0B810B68C0E904320A685061DD
:1027F0000860704701230B810261426108604860F4
:1028000070470000C455001090F837100B4A01EBD8
:10281000410102EB810100220B6843B10B895B1C73
:102820000B8102614A684261106148607047012370
:102830000B81026142610860F7E70000C455001097
:1028400070B5044690F83700114900EB400001EBE9
:102850008001D4E90420002540B10B895B1E0B8167
:10286000026192B150616561256170BD2AB108892C
:10287000401E088155610A60F5E70D810D604D60CD
:1028800094F83700FFF76EFFEDE74860EBE70000D4
:10289000C45500100023074A05A14361C1611168B6
:1028A00019B181614861106070478361FBE70000E6
:1028B00020000000540100102DE9F84F1E469046FC
:1028C0000F460546FDF7A6FC8246FEF757F9AC68B1
:1028D0004FF00009C4B92C6A601C0CD0641CC5E917
:1028E0000848FEF75BF95046FDF798FCA6F8009003
:1028F0002046BDE8F88FFEF751F95046FDF78EFCF3
:1029000046F6C550308017E0A168646800231A4677
:102910002846CDF80080FFF798FEB80501D5002CB9
:10292000F2D1FEF73BF95046FDF778FC380401D4AC
:10293000FEF732FCA6F800900020DAE70EB5814ED3
:10294000814D3068440004E020466A460021FFF7CC
:102950002BFA28780128F7D16846FEF733FE7B482A
:1029600032680168914204D9B1FBF2F15FEA010BD0
:1029700003D100680A21B0FBF1FB4FF47A7842F2F0
:102980001076FEF7AFF90290FEF7EAF8704908609A
:10299000FDF740FC0546FEF7F1F86E486E4C002747
:1029A000016821600760FEF7F9F82846FDF736FC5C
:1029B0006A48236802689A4228D96948824202D24A
:1029C0003046012113E06748824202D240460A2184
:1029D0000DE06548824202D26420014607E0634868
:1029E000824202D20A20414601E001203146B2FB78
:1029F000F1F15843B0FBF1F05D49301A80B2088024
:102A00005C490A88824203D2088001E05848078066
:102A1000FEF79CFE0025FDF7FDFB8146FEF7AEF8B4
:102A2000DFF854A1DAF80040FEF7B8F84846FDF7A1
:102A3000F5FBB9461AE0FDF7EDFB0746FEF79EF8F9
:102A400054F8900FC4E90090FEF7A8F83846FDF757
:102A5000E5FB60680544FDF7DDFB0746FEF78EF8F1
:102A6000246AFEF79BF83846FDF7D8FB002CE2D12C
:102A7000E5B13B48854202D23746012013E0394890
:102A8000854202D247460A200DE03748854202D2ED
:102A90006427384607E03548854202D20A27404677
:102AA00001E001273046B5FBF0F501E000270125E4
:102AB000FDF7B0FB0190FEF761F8DAF80040FEF791
:102AC0006DF8019821E0D4F894007843B0FBF5F05C
:102AD00080B2B04200D93046A4F88000B4F8821029
:102AE000814201D2A4F8820004F1A0026B46111DBC
:102AF0002046FFF797F8FDF78DFB8246FEF73EF87C
:102B0000D4F8B040FEF74AF85046FDF787FB002C9A
:102B1000D9D11A480178012904D180F8009068467B
:102B2000FEF750FDFEF7DEF80299401A14490A68D4
:102B3000824200D208606A4600215846FFF734F905
:102B40001FE7000020AB00006C01001034AB000058
:102B500034010010600100106801001064010010D1
:102B6000801A060000093D00005A62020084D7174F
:102B70005C0100105E010010780100105A01001085
:102B80007001001030B51D4A89B0002111601C4A47
:102B90001F4C11601B4A11601B4A11701B4A1170B7
:102BA000226842B11B4A1C4D13682D68AB4205D206
:102BB00046F62C6108E046F62B6105E0174B1D78C0
:102BC0001F2D04D346F62A61018009B030BD0325CC
:102BD00005910691CDE907501148126824680068F4
:102BE000CDE90202049101941878009000230D4A67
:102BF0000DA11248FEF7ACFDE7E7000060010010F0
:102C000068010010640100106C0100105A010010EE
:102C100024AB00002CAB000030AB00001CAB00006C
:102C200028AB00003D29000075432F4F532D494923
:102C3000492053746174205461736B004457001031
:102C400010B5044631B10A460146064800F004FAC0
:102C5000032000E0022084F836002046BDE8104042
:102C6000FFF7EEBD90010010074B0022C0F8AC202A
:102C7000196829B1C0F8B010C1F8AC0018607047ED
:102C8000C0F8B020FAE7000078010010044A0021E3
:102C90001160044A1180044A1160018070470000ED
:102CA000780100107C0100107401001070B500253F
:102CB0000560C5604560056145618561C561044683
:102CC00005626562A562E56220A02563A060E587D4
:102CD00025642565A4F85450002104F15800FFF73D
:102CE00095FBA566E5666567A4F87C500020A5679E
:102CF00004EB8001401C0D6710F0FF00F8D0656404
:102D0000C4F89850C4F89C50A56384F87E50C4F869
:102D1000A450C4F8A050A587A564E564A4F8805029
:102D2000A4F88250C4F88450C4F888503434FDF7B5
:102D3000D9FFC4E91605656725706570A570202068
:102D4000E07004A0A567C4E91F5070BD3F546173D3
:102D50006B000000200000002DE9FC470446DDE97F
:102D60000A6500201F46904689462880FDF752FAE2
:102D70008246FDF703FF0CB91D48046894F836003D
:102D800008282BD2DFE800F008080404080804042F
:102D900094F8340002280FD0CDE900653B46424646
:102DA000494604F15800FFF739FBFDF7F7FE50469E
:102DB000BDE8FC47FDF732BA43464A4621460020AB
:102DC0000096FFF742FCFDF7E9FE5046FDF726FAB4
:102DD00038040BD4BDE8FC47FEF7DEB9FDF7DEFE94
:102DE0005046FDF71BFA46F62D602880BDE8FC87AB
:102DF000B801001070B50D460446FDF70BFA064603
:102E0000FDF7BCFE0021298094F83600082844D242
:102E1000DFE800F0040404040D232D37FDF7BEFEA7
:102E20003046FDF7FBF947F25310288011E094F883
:102E30007E00401E10F0FF0084F87E0004D184F86C
:102E400036102046FFF7AAFCFDF7A8FE3046FDF736
:102E5000E5F9BDE87040FEF79FB994F87E00401E8A
:102E600010F0FF0084F87E00EED1012012E094F80B
:102E70007E00401E10F0FF0084F87E00E4D10220A6
:102E800008E094F87E00401E10F0FF0084F87E00F9
:102E9000DAD1032084F83600D6E7FDF77FFE30460E
:102EA000FDF7BCF946F62D60288070BD054808B5D1
:102EB0000068FEF7FDFD044C6A4600212068FEF71D
:102EC00073FFF9E7B801001034AB00002DE9F843B7
:102ED0001E46154688460446FDF79CF98146FDF7D7
:102EE0004DFE0CB923480468002046F6C5572564FA
:102EF000308094F83600082830D2DFE800F004046F
:102F00000F0F04040F0F656C681C1ED06D1C6564E8
:102F1000FDF744FE4846FDF781F928E094F83400B7
:102F20000728F0D100231A46214618460095FFF7DE
:102F30008CFB656CFDF732FE4846FDF76FF95FEAE2
:102F4000084014D4FEF728F911E0FDF727FE4846A3
:102F5000FDF764F937800020BDE8F883FDF71EFE19
:102F60004846FDF75BF946F62D603080002528467F
:102F7000F2E70000B80100102DE9F0410D460446CB
:102F8000FDF748F90746FDF7F9FD304E30485CB9CA
:102F90003178012907D0FDF701FE3846FDF73EF9EB
:102FA00045F6896047E00468006884420AD12948F0
:102FB000007838B1FDF7F2FD3846FDF72FF946F6F7
:102FC000635038E00020288094F83610012008294A
:102FD00034D2DFE801F0040D1B1F2121212104213F
:102FE00084F8361084F87E002046FFF729FC01E0C3
:102FF00005210CE0FDF7D2FD3846FDF70FF93078DA
:10300000012819D1BDE8F041FEF7C6B8062184F8C1
:10301000361006E00721FAE794F87E00FF2803D077
:10302000401C84F87E00E5E7FDF7B8FD3846FDF763
:10303000F5F847F260102880BDE8F081FDF7AEFD9D
:103040003846FDF7EBF846F62D60F4E7380100103E
:10305000B80100105201001030B50368002533B9E3
:103060008D618A64C1E90750016001210FE09C6C09
:10307000944216D3DC698B618A6454B1C1E907407C
:103080009D6CAA1A9A64D961A1618188491C8180CA
:1030900030BDC1E907509C6CA21A9A64D9610160E5
:1030A000F3E7121B1C469B69002BE0D18D618A64FB
:1030B000C1E90740E8E700002DE9F0031D4FDFF804
:1030C000789000263C6847F27E2C042A0FD0082A0C
:1030D00014D00A461E80012180F836103968611A22
:1030E000BDE8F0030A4401461448FFF7B5BF0A1BC8
:1030F0004A4501D8002AEDD1866416E0D0F84C800C
:10310000A4EB08058D4202D90A46A11804E04A1B27
:103110004A4503D812B14144C164DBE7B5FBF1F283
:1031200001FB02821144C0E91261A3F800C0BDE8AE
:10313000F0037047800100100000FFFF88010010BD
:1031400030B5D0E90613026A002473B1996121B148
:10315000CB618B6C856C2B448B64C4619188491E58
:10316000918084618464046230BD31B1CC618B6C28
:10317000856C2B448B641160F0E714609480F1E758
:103180002DE9F0470546FDF7ADFD1D4E81460027B0
:10319000346854B3A06CB846A84227D82D1AC4F896
:1031A00048804FF0040A7F1C94F83600BFB2012813
:1031B00002D0052806D007E084F836802046FFF7C5
:1031C000EDFA01E084F836A0A46934605CB1B088FF
:1031D0004146401EB080C4F81C80A06CA84205D8AF
:1031E0002D1AA164DFE7A6F8048002E0401BA0646A
:1031F000D7D0F780FDF776FDA0EB0900BDE8F0879A
:10320000880100102DE9F0470546FDF76BFD254EBE
:10321000814600273468B4B3A06CB846A84236D8BB
:103220002D1AC4F848804FF0030A7F1CC4F8508060
:10323000BFB2A4F85480FDF755FD20642046FFF787
:10324000D4F994F83600032802D0072806D008E005
:103250002046FFF7A3FA84F8368002E0042084F8C1
:10326000360084F835A084F83480A469414634607F
:1032700054B1B088401EB080E161A06CA84206D86D
:103280002D1AA164D1E705E0A6F8048002E0401BF6
:10329000A064C8D0F780FDF725FDA0EB0900BDE8CC
:1032A000F08700009001001008B5134C134D002268
:1032B0006B4611461046FEF7FDFBBDF800000028E6
:1032C000F5D1FCF7A7FF8046FDF758FC20680127E1
:1032D000401C20603846FFF753FF06463846FFF78C
:1032E00091FF29683044814200D22860FDF756FCE6
:1032F0004046FCF793FFDAE78001001084010010DC
:1033000030B51D4A89B0002111601C4A1C4B116068
:1033100019609180D1809980D9801A4B1A6842B186
:10332000194C1A4D22682D68AA4205D247F2132182
:1033300008E047F2122105E0154A15781F2D04D345
:1033400047F21121018009B030BD0B25059106918E
:10335000CDE9075020680F4C1B682468CDE90301B4
:10336000CDE901341078009000230B4A0BA11048DE
:10337000FEF7EEF9E7E70000800100108801001079
:10338000900100103CAB000044AB000030AB0000EB
:1033900038AB000040AB0000A932000075432F4F4E
:1033A000532D494949205469636B205461736B0064
:1033B000FC570010054B00228262196819B1C162E6
:1033C000886218607047C262FBE700009801001035
:1033D00030B5244A89B000211160234A244C254B82
:1033E0001160224A1180244A25681B680DB12C46C1
:1033F00000E00A24B3FBF4F313601A461F4B1A6073
:103400001F4A11601F4A11601F4A136843B11F4BC6
:103410001F4D1C682D68AC4205D247F2483108E0C8
:1034200047F2473105E01B4C25781F2D04D347F2A6
:103430004631018009B030BD0B2505910691CDE9DB
:1034400007501868144B12681B68CDE90301CDE9D9
:103450000123207800900023104A11A11648FEF79E
:1034600077F9E7E798010010A00100109C01001017
:103470004CAB000034AB0000B0010010B4010010F0
:10348000AC010010A801001050AB000058AB0000C8
:1034900030AB000048AB000054AB0000BD3400006E
:1034A00075432F4F532D4949492054696D6572204A
:1034B0005461736B00000000B45800100EB5DFF8C3
:1034C0008C80DFF88CA0DFF88C9000216B4601AA7D
:1034D0000846FEF7EFFA02A8FDF79CFEFDF702FC96
:1034E000D8F800100646491CC8F800100327DAF87F
:1034F000004018E06846FDF78DFEA0692569401E72
:10350000A0610CD1A08C02281CD0204600F024F829
:1035100084F82670A26812B12046E16890472C46D4
:103520006846FDF7A3FE002CE4D1FDF7DBFBD9F8DC
:103530000020801B824201D2C9F8000002A8FDF7DA
:1035400095FEC2E7206AA061E4E70000AC0100102C
:10355000A0010010A80100100C4A10B51468002347
:103560000169844203D1116029B14B6103E04269D2
:10357000116101B14A61012180F8261003614361A4
:1035800003480188491E018010BD0000A001001001
:103590009C01001070B514460D46064600F014F864
:1035A00005280CD02946304600F072F8016804F076
:1035B000070221F0070111430160002070BD01489E
:1035C00070BD00000100001002460520062A15D239
:1035D000DFE802F0032B3232323406292CD9A1F174
:1035E0000A02012A28D9121F082A25D90C2904D039
:1035F0000D2902D0093A032A01D8012070471D295C
:103600000FD01E290DD01F290BD01B290BD01C2930
:1036100009D0072903D0082901D00929EED10420B7
:10362000704702207047032070471D2904D91E29C6
:10363000E3D01F29E1D07047002070470129FBD952
:103640000429F9D00229EED00329ECD070470000FC
:1036500070B514460D460646FFF7B6FF052803D0A1
:10366000012804D0094870BD0848401E70BD294695
:10367000304600F00DF8016814B121F0800101E03E
:1036800041F080010160002070BD000002000010C8
:1036900001EB4010014901EB8000704700C002407F
:1036A00070B515460C4600F093F8012104F10802AC
:1036B0009140C26C012D4FEA447301D023B104E064
:1036C00003B900210A4304E0002147F67C638B43E1
:1036D0001A40C26470BD70B514460D4600F078F80B
:1036E0000123C26CAB4005F007012CB1022900D2C6
:1036F00000231A43C26470BD022900D2002347F69A
:103700007C6199430A40F5E710B50C4600F060F87B
:103710004168012C03D001F00301416010BD41F06C
:103720000801FAE770B50C4600F052F86278012102
:10373000012A22781E4B02F0070202EB420228D037
:1037400001FA02F523EA050245692A404261E2785E
:10375000012A227802F0070202EB420202F1010282
:103760001CD001FA02F523EA050245692A404261AC
:10377000A278012A227802F0070202EB420202F14B
:10378000020201FA02F10ED08B4341690B40436102
:1037900070BD456901FA02F22A43D7E7456901FA8B
:1037A00002F22A43E3E742691143416170BD000020
:1037B000FFFF1F0010B50C4600F00AF84168012C0D
:1037C00003D001F00A01416010BD41F00101FAE7A8
:1037D00018B1012803D00020704702487047024802
:1037E0007047000000400140008001402DE9F04199
:1037F00015460E460746FFF7EBFF044617B1012FAB
:1038000003D0FEE70121202001E001214020FDF747
:1038100033F90120FDF740F9014600203F222260E4
:10382000606020676061A062E064206566B1012E7F
:1038300008D1687800F00301287861F39F00216FB8
:1038400008432067BDE8F0812A787AB16A680346A8
:103850000546A2FB010603FB016102FB0511044AB8
:103860000023FCF74DFD401EE060EBE76868FAE7D7
:1038700040420F0070B51E4614460D46FFF7A8FFE4
:10388000072D12D2DFE805F00406080A0C0E10001E
:1038900084610AE0C46108E0046206E0446204E076
:1038A000046402E0446400E08464026D072D02D2E7
:1038B0000121A94000E000210A430265002E07D142
:1038C000416841F002014160416801F00901416035
:1038D00070BD10B5FFF77CFF416841F00201416007
:1038E000416801F00901416010BD02780A4302708D
:1038F00070470129017A03D001F01201017270476B
:1039000041F00101FAE7012A07D0082915D2DFE8C2
:1039100001F02D3135393D41454908290DD2DFE807
:1039200001F004080D1115191D21017B41F0010161
:1039300002E0017B41F0020101737047017B41F01D
:103940000401F9E7017B41F01001F5E7017B41F04B
:103950000801F1E7017B41F02001EDE7017B41F037
:103960004001E9E7017B41F08001E5E7017B01F0DF
:10397000FE01E1E7017B01F0FD01DDE7017B01F0E4
:10398000FB01D9E7017B01F0EF01D5E7017B01F0F5
:10399000F701D1E7017B01F0DF01CDE7017B01F009
:1039A000BF01C9E7017B01F07F01C5E7007808404E
:1039B00000D001207047000010B5074C01212046BF
:1039C000FFF7F4FF002805D02046BDE81040012194
:1039D000FFF78BBF10BD00000040024010B5044649
:1039E00001214802FDF748F8002020702072207362
:1039F000FF212174206410BD017A41F0020101729F
:103A0000017A01F011010172704770B5531E02F086
:103A10003F0502F01F04082909D2DFE801F004097C
:103A20000E131A1F262D3B2A01D880F8205070BD96
:103A30003B2AFCD880F8245070BD172AFCD880F8A7
:103A4000284070BD062AFCD802F0070180F830102B
:103A500070BD1E2BFCD880F82C4070BDB3F5B77F2D
:103A6000FBD2C2F30801818670BD0B2BFCD802F09B
:103A70000F0180F8381070BDB2F5805FFBD2C2F341
:103A80000B01818770BD00002DE9F041884600EBF5
:103A900040012148154600EBC104E16A01F0030032
:103AA00002280BD0A06A626A801A401E01D5226AE1
:103AB0001044854202DD89072BD005464DB300270F
:103AC000A06A616A461A761E01D5206A0644D4E9C6
:103AD0000801411AB14201DC616A461AAE4200DBBC
:103AE0002E46616AE069324608444146FCF7A3FC71
:103AF000606A3744B044AD1B30446062606A216A3A
:103B0000884201D100206062002DD9D13846BDE83D
:103B1000F0810020FBE70000C40100102DE9F04116
:103B200098B0804607A8029040200026CDE9030601
:103B3000CDE9056815460C4614F8011B002974D020
:103B4000252908D002A800F061FC05980028F3DAC6
:103B500018B0BDE8F0810020217823291BD02B2943
:103B600016D02D290ED030290FD000222178A1F1B6
:103B700030030A2B13D202EB820201EB4202303AED
:103B8000641CF3E740F0010007E040F0020004E0AD
:103B900040F0040001E040F00800641CDCE7002372
:103BA000CFB22E2F0BD114F8011FA1F130070A2F2D
:103BB00005D203EB830301EB4303303BF3E76C29AE
:103BC0000DD068290BD070294AD00BDC252914D0E0
:103BD00058292BD063290CD0642911D112E014F894
:103BE000011BECE773292CD0752916D0782907D151
:103BF0001CE02868011D2960017802A800F006FC7D
:103C0000641CA2E729680F1D2F600968CDE9002018
:103C10000A2202A800F02DFBF2E729680F1D2F6091
:103C20000968CDE900200A2207E023E029680F1D7A
:103C30002F600968CDE90020102202A800F07AFB6D
:103C4000DEE72868011D2960076817F8011B0029B5
:103C5000D6D002A800F0DAFB05980028F5DACFE705
:103C60002868011D296001680820CDE90006034687
:103C70001022E2E7059800287FF76AAF049820B188
:103C8000024607A94046FFF7FFFEDDE9041008449D
:103C900005905DE70129416803D001F00D01416005
:103CA000704741F00201FAE700214160034A426196
:103CB00081600722C16002600161704740420F00CD
:103CC00070B5044621480D46844202D101214805C1
:103CD0000AE01F48844202D10121001504E01D487A
:103CE000844232D101210805FCF7C6FEA888298943
:103CF0002A880843298A1143084380B22060287B20
:103D000000F00F0060606D690120FCF7C5FE002126
:103D100003464A1E02200AE04A1C4243B3FBF2F269
:103D2000AA4204D9491CFF2901D90021801CAA42BA
:103D3000F2D82268D2B2226022684FF6FF7303EAFB
:103D400001210A432260C0B2206170BD008008409A
:103D50000000034000C00A408160704710B504466F
:103D6000FCF7D8FF0149C4F84C1110BD8D8C000040
:103D700030B5002811D089B10346002405E0491C64
:103D800003F8015B641C4BB141B10D780DB1944255
:103D9000F5D3944201D20021197030BD002030BD0E
:103DA000002201E0401C521C18B103780BB18A427A
:103DB000F8D31046704710B50C20FCF741FA040008
:103DC00003D0FCF7A7FF204610BD002010BD000067
:103DD000F0B5614CD4F804014FF00002C1055F4812
:103DE0002ED4D4F80C11C9071AD0D4F8A011490662
:103DF00032D5D4F804115A4BC90629B1D4F80411AC
:103E000001F01F01B3FBF1F10160D4F8A851ED06F8
:103E100014D0D4F8A85105F01F05B3FBF5F304E066
:103E2000D4F804114F4BC906E7E74360D4F80031DA
:103E300003F001035B1CB1FBF3F153E00023F4E753
:103E4000D4F88810C90507D5D4F80C11C90707D0D4
:103E5000D4F8A011490622D402604260826042E098
:103E6000D4F8881001F01F03D4F80411D4F8A85135
:103E700011F01F01D4F8006105F01F0506F00106DE
:103E800003F1010306F1010603D0364F5F43B7FB90
:103E9000F1F101600DB1334F1EE000231FE0D4F8B3
:103EA000881001F01F03D4F80411D4F8A85111F0C0
:103EB0001F01D4F8006105F01F0506F0010603F1AB
:103EC000010306F1010603D0254F5F43B7FBF1F173
:103ED0000160002DE1D0224F7B43B3FBF5F3B1FB32
:103EE000F6F143608160D4F80811C905D4F80811CF
:103EF0001CD511F01F0103D0042903D0062901D0DD
:103F0000C260F0BDD4F88810D4F8082101F01F0178
:103F1000D4F80C3102F01F02491CDB0701D0104B12
:103F200000E0104B5943B1FBF2F112E08905E7D5EF
:103F3000D4F80C11C90705D0D4F8A810084A01F02C
:103F40001F0104E0D4F88810064A01F01F01491C43
:103F50005143C160F0BD000000C00F4000000010E0
:103F600080969800001BB70010B501F0EFFD2648C1
:103F70002021C0F8A011D0F8A0114906FBD50122DC
:103F8000C0F80C210921C0F88410C0F88020AA23B1
:103F9000C0F88C305524C0F88C40D0F88810490502
:103FA000FBD52321C0F8A410C0F8A020C0F8AC3085
:103FB000C0F8AC40D0F8A8104905FBD540F201117B
:103FC000C0F8041140F20121C0F80811C0F8002126
:103FD0000221C0F8B411C0F8A8110C49C0F8C410EF
:103FE0004FF48071C0F8C811D0F8B01141F003014E
:103FF000C0F8B01145F23A0101600549002008609F
:10400000BDE81040FFF7E4BE00C00F40DE87280483
:1040100008ED00E010B5054C606828B900F012F812
:104020006060D0F83C148847606810BD1400001030
:1040300010B50446FCF76EFE0149C4F83C1410BDEF
:10404000B596000010B54FF48860FCF7F9F804004D
:1040500003D0FFF7EDFF204610BD002010BD00008B
:1040600010B50446FFF77AFE0448C4F8500104482E
:10407000E0600448C4F8540110BD000001A4000031
:1040800095A2000051A4000010B54FF4CC70FCF7CD
:10409000D7F8040003D0FFF7E3FF204610BD00204F
:1040A00010BD000010B5002000F044F800F00E0034
:1040B00002280FD0042803D0062806D00C280ED1E1
:1040C000BDE8104006A001F0CBBDBDE810400020C7
:1040D00000F052B8BDE8104001A001F0CFBD10BD06
:1040E000554152543000000010B5012000F022F874
:1040F00000F00E0004280DD008DC002814D002289F
:1041000012D1BDE8104009A001F0D4BD062806D0A8
:104110000C2809D1BDE8104004A001F0BDBDBDE8E8
:104120001040012000F028B810BD00005541525445
:104130003100000040F2CF31052810D2DFE800F056
:10414000030507090B00074806E0074804E0074895
:1041500002E0074800E007488068084070470020F8
:104160007047000000C0004000000140008009408E
:1041700000C0094000400A40052811D2DFE800F0E5
:10418000030507090C00074804E0074802E0074858
:1041900000E00748007D704706484069C0B270479C
:1041A0000020704700C0004000000140008009402E
:1041B00000C0094000400A404FF0804101280878C3
:1041C00003D020F001000870704740F00100087033
:1041D00000F00CB84FF080410128087803D020F09F
:1041E00001000870704740F00100FAE700B572B6B0
:1041F00000F002F862B600BDAA21480701725521FD
:104200000172704700F018B84FF0804238B10128B1
:104210000BD1107801290CD020F0020004E01078B6
:10422000012903D020F010001070704740F01000FA
:10423000FAE740F00200F7E7C008AFF30080002182
:104240004A1EFF2801D2FF2004E0B0F1807F02D394
:104250006FF07F4011464FF0804250600846704733
:1042600000B5FFF7E9FF02460120FFF7A5FF104662
:1042700000BD2DE9FC5F0E008046DDE90C47C6F16C
:10428000000099469246834600D40846012502E084
:10429000B0FBFAF06D1C5045FAD2A94500D94D4645
:1042A00024B1002E01DB780700D5641EB80702D5C3
:1042B000B9F1000F10D0F8070ED16CB12046641E82
:1042C000A84209D92021404600F0A0F8D8F80C00F7
:1042D0000028F2DABDE8FC9F002E02DA5E462D21AE
:1042E00002E0780707D52B21404600F08FF8D8F878
:1042F0000C000028EEDB07F00300022810D1B9F112
:10430000000F0DD164B12046641EA84208D93021A7
:10431000404600F07BF8D8F80C000028F2DAD9E724
:10432000CDE900474B4652463146404600F002F880
:10433000D0E700002DE9F84F8246DDE90A4B012560
:1043400099461746884608462E4602E0B0FBF7F02D
:10435000761CB842FAD2B14500D94E465FEACB701E
:104360001AD1CCB15FEA8B7002D5B9F1000F02D03F
:10437000202000900AE03020FBE75046009900F032
:1043800045F8DAF80C0000283BDB2CB12046641E0F
:10439000B042F2D800E07D43B8FBF5F0B84201D35B
:1043A000012000E000204A46A9F10109012A01DDAF
:1043B000012100E000210843EDD1DFF84C90B8FB6B
:1043C000F5F000FB158819F80010504600F01EF8B3
:1043D000DAF80C00002803DBB5FBF7F5002DEED171
:1043E0005FEACB700DD0002C0BD02046641EB0428B
:1043F00007D92021504600F009F8DAF80C0000280F
:10440000F1DABDE8F88F00005CAB000010B504469F
:10441000D4E90130421C934205DB23681954A260A1
:10442000E068401CE060D4E90102824209D12168C1
:104430002069FFF729FBA168884203D04FF0FF30C5
:10444000E06010BD0020A06010BD2DE9F8430546D6
:10445000D0F80C0190460026C46B027818341F4631
:104460008A4206D0284601F053FCC5F80C01C46B03
:104470001834216881B14179C06B6B464246856B27
:104480000220A84750B1BDF80010206800EBC10021
:1044900038603046BDE8F8830220FBE70120F9E7E9
:1044A0002DE9F8430546D0F80C0190460026C46B70
:1044B000027824341F468A4206D0284601F028FCA0
:1044C000C5F80C01C46B2434216891B1218981B1F4
:1044D0004179C06B6B464246856B0320A84750B1BB
:1044E000BDF80010206800EBC10038603046BDE820
:1044F000F8830220FBE70120F9E72DE9FC4117468C
:104500000D460646002406F023F940BB38880228F1
:1045100026D301A9304603F0DAFC019841780379EB
:104520000A0281781143491C8AB2C17843EA012307
:10453000580704D0012000EBD300C0B201E0C3F360
:10454000C7006BB1697881420AD100200090A91C94
:10455000304600F085F910B101F062FB044600E03E
:1045600003242046BDE8FC81F8B517460D460646F3
:10457000002406F0EDF830BB3888022824D36946C1
:10458000304603F0A4FC0098417803790A02817850
:104590001143491C8AB2C17843EA0123580704D069
:1045A000012000EBD300C0B201E0C3F3C7005BB150
:1045B0006978814208D1A91C304600F08CF910B10D
:1045C00001F02EFB044600E003242046F8BD2DE94F
:1045D000FC4117460D460646002406F0B9F800BB1C
:1045E000388802281ED301A9304603F070FC0198D8
:1045F000417803790A0281781143491C8AB2C17853
:1046000053EA01230ED06878B0EB430F0AD10020A3
:104610000090A91C304600F08EF910B101F000FBAB
:10462000044600E003242046BDE8FC81F8B51746A7
:104630000D460646002406F08BF800BB3888022899
:104640001CD36946304603F042FC00984178037958
:104650000A0281781143491C8AB2C17853EA0123C6
:104660000CD06878B0EB430F08D1A91C304600F09D
:1046700061FA20B101F0D4FA044600E00324204698
:10468000F8BD2DE9FC4115460E468046002406F093
:104690005FF890BB2888022831D301A9404603F077
:1046A00016FC019948780D79020288780B7A10433C
:1046B000401C87B2C87845EA00254879020288790B
:1046C0001043401C82B2C87943EA00237078B0EBF3
:1046D000450F13D10120009040460A3100F02BF91C
:1046E00040B9002000902B463A46B11C404600F0ED
:1046F00022F910B101F094FA044600E003242046A8
:10470000BDE8FC817CB505461088002405280BD146
:104710004878020288781043401C82B2087918B9A0
:10472000C878FF2803D010B1032420467CBD0023A5
:104730008DF80530C8780126FF280DD08DF804309B
:10474000012301A92846009600F08AF80028ECD041
:1047500001F066FA0446E8E7511E06FA01F08DF80A
:104760000400EDE738B5054610880024052802D07E
:104770000324204638BD487802028878C91C1043BB
:10478000401C82B2012003460090284600F0D3F876
:104790000028EED001F044FA0446EAE72DE9FC4196
:1047A0000646108800250C46052803D0304605F043
:1047B000CFFF30B301A9304603F089FB607823793D
:1047C0000102A0784FF001070843401C82B2019912
:1047D000E07843EA00234C79580703D007EBD30075
:1047E000C0B201E0C3F3C7005BB1A04209D13046BB
:1047F000891D009700F034F820B101F011FA054648
:1048000000E003252846BDE8FC817CB505461088FC
:104810000024052803D0284605F09AFFE8B101A935
:10482000284603F054FB019948788A780B7942EACC
:104830000022C878521C43EA0023487992B2B0EBB8
:10484000430F0AD1012000902846891D00F073F81B
:1048500020B101F0E5F9044600E0032420467CBDC8
:104860002DE9F84FD0F80C711E469146FC6B8B4633
:1048700080460025DDF828A0183401F080FB0146B1
:104880003878884206D0404601F042FAC8F80C0158
:10489000C46B1834206878B1208968B1A088A9F168
:1048A0000102E18892B2824212D3901988420FD855
:1048B000BAF1000F0DD102E00120BDE8F88F02200F
:1048C0000090F3B25946404600F052FC054600E025
:1048D00001252846F1E72DE9F843D0F80C711D4673
:1048E0009046FC6B89460646243401F048FB01469D
:1048F0003878884206D0304601F00AFAC6F80C0132
:10490000C46B24342068A0B1208990B1A088A8F19C
:104910000102E18892B282420BD35019884208D832
:1049200003200090EBB24946304600F021FCBDE880
:10493000F8830120FBE72DE9F84F4FF0000ACDF88E
:1049400000A0D0F80C811C469346D8F83C600D4678
:1049500007460C3601F013FB814697F8A20610B10A
:104960000020BDE8F88F98F800104846494507D068
:104970000146384601F0CCF9C7F80C01C66B0C367D
:104980003068002879D03089002876D0B088F18846
:10499000ABF1010296B2864271D3301988426ED8CB
:1049A0000A9800286DD162E06B4632464946384687
:1049B00000F069F815F8010B15F8011B41EA002118
:1049C000009878B382696AB3037C012B55D090EDCF
:1049D000050AB5EEC00AF1EE10FA0FD010EE103A4B
:1049E000B3F17E5F0AD000EE901AF8EE600A80EE16
:1049F000801ABCEEC10A10EE101A89B28378062B19
:104A000006D0052B0FD0032B17D0022B1FD02AE086
:104A100003899BB28B422DD8808980B2884229D3EA
:104A200011801EE029E090F808C0CBB2634521D385
:104A3000007B83421ED8137013E0038909B21BB2B6
:104A40008B4217DC808900B28842E9DA12E0037AEF
:104A500049B25BB28B420DDC007B40B2884209DB7D
:104A6000117000988180761C641EB6B2A4B2002C2E
:104A70009AD106E0022074E701E0012071E74FF0CF
:104A8000010A50466DE72DE9F8430546D0F80C01C0
:104A900090460026C46B02780C341F468A4206D02A
:104AA000284601F035F9C5F80C01C46B0C342168B7
:104AB000A1B1218991B14179C06B6B464246856BAA
:104AC0000020A84760B1BDF800002168C0EBC0001D
:104AD00001EB800038603046BDE8F8830220FBE738
:104AE0000120F9E7F8B50546D0F80C0117461E4637
:104AF0000278C46B8A4205D0284601F009F9C5F84E
:104B00000C01C46B216889B1218979B14179A56B08
:104B10006B463A460120A84750B1BDF80000216815
:104B200000EB400001EBC0003060F8BD0220F8BD92
:104B30000120F8BD2DE9F84F4FF0000ACDF800A094
:104B4000D0F80C811C4693460D460746D8F83C60C9
:104B500001F015FA814697F8A20610B10020BDE8D1
:104B6000F88F98F800104846494506D00146384667
:104B700001F0CEF8C7F80C01C66B306800286FD082
:104B80003089E8B3B188F088ABF1010296B28E4269
:104B900068D3311981425ED964E06B46324649469A
:104BA0003846FFF79FFF15F8010B010215F8010BBE
:104BB0000843009921B34A6912B30B7B012B4FD0F4
:104BC00091ED040AB5EEC00AF1EE10FA0FD010EE26
:104BD000103AB3F17E5F0AD000EE900AF8EE600A58
:104BE00080EE801ABCEEC10A10EE100A80B28B78FB
:104BF000062B08D0052B0ED0032B11D0022B00E082
:104C00002EE01AD023E04B68834227DC896881427A
:104C100024DB10801BE04B6883421FDC896813E0B3
:104C2000B1F804C003B20FFA8CFC844516DC098984
:104C300009B2814212DB138009E00B79C0B25BB28A
:104C400083420BDC097A49B2814207DB1070761C83
:104C5000641EB6B2A4B2002C9FD105E002207EE70C
:104C600001207CE74FF0010A504678E7F8B504468A
:104C7000F03016460F46427806991D46BA4202D8D1
:104C80008078B84201D20220F8BD084605F063FDE5
:104C9000E0B16946204603F01AF93946204603F090
:104CA0001AF9009804210170310A41708670290AAE
:104CB000C17005710521204603F010F90821204636
:104CC00005F01DFD204600F0BEFAF8BD0520F8BD38
:104CD0002DE9F84307468946F0301D46DDE90861B5
:104CE0004378002490464B4502D882784A4502D248
:104CF0000220BDE8F883084605F02DFDD0B16946D5
:104D0000384603F0E4F84946384603F0E4F80098E2
:104D1000102100F8011B4FEA182100F8011B290A95
:104D200000F8018B00F8031B690000F8025C00F832
:104D3000011C0DE00520DCE736F81400010A00989C
:104D400000F8011B16F81410641C00F8011BA4B233
:104D50000090A542F0D8062000EB450081B238460D
:104D600003F0BCF86946384603F0B1F8082138462C
:104D700005F0C5FC384600F066FABAE72DE9F34FB6
:104D800081B04FF000090198CA46C846D0F80C011E
:104D90004C460178C76B0298814207D001460198C2
:104DA00000F0B6FF0199C1F80C01C76B386828B153
:104DB000388918B100264FF0320B47E00220BDE8D9
:104DC000FE8F386806EB460100EBC1050AF10101D0
:104DD0002888884211D04CB1CDF800B0DDE901013E
:104DE00023464246FFF742FF81460024287B0128E4
:104DF00018D00124B5F8008005E064B3287B0128B1
:104E000005D0641CA4B23889401EB0420AD14CB10E
:104E1000CDF800B0DDE9010123464246FFF726FF49
:104E200081460024FD20B0EB840F0BD8CDF800B0F4
:104E3000DDE9010123464246FFF718FFB5F800807F
:104E400081460124B5F800A0761CB6B23889B0427C
:104E5000B7D84846B3E7297B0129E3D08046D0E79D
:104E60002DE9F74FADF5C06D00200090DDF800068C
:104E70004FF0000B5D46D0F80C015E46D846C16B82
:104E800001F10C090178DDF8040681420BD00146DE
:104E9000DDF8000600F03CFFDDF80016C1F80C015B
:104EA000C06B00F10C09D9F8000060B1B9F8080036
:104EB00048B10DF20461AD4806C900F0A5FE002717
:104EC0000DF57F7A4BE102200DF20C6DBDE8F08FFD
:104ED000D9F80000C7EBC70110EB810459D0A069D5
:104EE000002856D0217C022953D0A178022974D001
:104EF00003294FD0052923D006294AD194ED050A6C
:104F0000008810EE101AB1F17E5F0AD000EE900A10
:104F1000F8EE600A20EE200ABCEEC00A10EE100A7D
:104F200080B2A188814202D1DDF8081689BB2189AF
:104F300089B281427CD8A18989B2814270D277E05E
:104F400094ED050A007810EE101AB1F17E5F0AD0D8
:104F500000EE900AF8EE600A20EE200ABCEEC00ACD
:104F600010EE100AC0B2A188814202D1DDF8081605
:104F700079B9218989B281425AD8A18989B28142FD
:104F800056D32AF8150002A8211D40F825106D1CE3
:104F9000ADB24DE094ED050AB0F9000010EE101A24
:104FA000B1F17E5F0AD000EE900AF8EEE00A20EE42
:104FB000200ABDEEC00A10EE100A00B2B4F90410C7
:104FC000814202D1DDF8081689BB218909B28142EC
:104FD0002EDCA18909B221E0FFE794ED050A90F9E2
:104FE000000010EE101AB1F17E5F0AD000EE900AB8
:104FF000F8EEE00A20EE200ABDEEC00A10EE100A1C
:1050000040B2A18849B2814202D1DDF8081671B9D7
:10501000217A49B281420BDC217B49B2814207DB14
:105020002AF8150002A9201D41F82500AFE7FFE787
:10503000761CB6B2012D07D1B8F1010F04D020883B
:10504000A8464646CDF8F80521880BF101008142BB
:105050004ED0EDB3012E4CD9AB46AE424FF03200EC
:1050600013D1CDE900A00DF5C060ABF1010503C877
:10507000ABB2DDF8F825FFF72BFE01250090208864
:105080002E46A846CDF8F8050DE0CDE900A00DF5B7
:10509000C0605B4603C8DDF8F825FFF719FE002560
:1050A0002E46A8460090DDF8000605F025FB2028D6
:1050B00012D1584602AA514601EB400333F8023C94
:1050C00002EB800C5CF804CCACF80030401E00E031
:1050D00041E00004000CEFD10AEB4B0030F8020C69
:1050E000ADF8FC0302A800EB8B0050F8040C029012
:1050F0008DB3AE4208D1B9F80800401EB84203D0C3
:10510000FD20B0EB850F26D83220CDE900A00DF5AB
:10511000C060AB4603C85B46DDF8F825FFF7D8FD55
:10512000002500902E46A846DDF8000605F0E4FABA
:10513000202810D1584602AA514601EB400333F80B
:10514000023C02EB800C5CF804CCACF80030401E52
:105150000004000CF1D1B4F800B07F1CBFB2B9F864
:105160000800B8423FF6B4AE0098ADE678AB000058
:105170002DE9FF4F85B00020DDF848B00390009086
:1051800001901C4690460D46059800F0F8FE4FF041
:10519000010A0AEBD40604F0070902904AE0012E46
:1051A00004D15FEA090001D0074600E00827002487
:1051B0003BE0BBF1020F03D0BBF1030F2FD118E08E
:1051C0006B46424602990598FFF73FF90098B8B33D
:1051D0004168A9B3C078012833D028780AFA04F2CC
:1051E00010400A78E040824219D008700099887017
:1051F00015E001AB424602990598FFF751F9019875
:10520000F0B14168E1B1807801281AD028780AFA13
:1052100004F210400A78E040824200D0087008F1A1
:105220000100641C1FFA80F8A4B2BC42C1D3761EF0
:10523000B6B26D1C002EB2D1039809B0BDE8F08F54
:10524000FFE70120F9E7FEB50026044602A800901A
:1052500004F198000196ADF80860354601AB32467E
:1052600031460746FCF770F802AA00213846FCF7E1
:1052700037F994F8E90080B1B4F8941020290CD0E3
:10528000402905D0802905D0B1F5807F05D103E004
:10529000042502E0032500E0062584F8E96028469D
:1052A000FEBDF8B5D0F82C4317460026236B04F159
:1052B00018056A460220984738B1BDF800102868E2
:1052C00000EBC10038603046F8BD0120F8BDF8B5EC
:1052D000D0F82C4317460026236B04F124056A46B8
:1052E0000320984738B1BDF80010286800EBC100D2
:1052F00038603046F8BD0120F8BDF8B51446128874
:105300000026052A36D14A7840F2CF7713028A78F0
:105310001A43CB78521C1D020B7992B22B435D1EAF
:10532000BD4227D200272780012501F8015BB4F890
:1053300000C00CF1010CA4F800C05FEA437C03D06C
:1053400005EBD305EDB201E0C3F3C70501F8015B3E
:10535000B4F800C00CF1010CA4F800C0009700F0F4
:10536000A3F918B100F06CFC064604E0208828443C
:10537000208000E003263046F8BD2DE9F0411446B8
:1053800012880026052A2FD14A7840F2CF771302DF
:105390008A781A43CB78521C1D020B7992B22B43A8
:1053A0005D1EBD4220D200252580022501F8015B4B
:1053B00025886D1C25805D0704D0012505EBD305EC
:1053C000EDB201E0C3F3C70501F8015B27887F1C3C
:1053D000278000F08AF918B100F032FC064604E09C
:1053E00020882844208000E003263046BDE8F08174
:1053F000F8B5144612880026052A25D14A780D7979
:1054000013028A781A43521C6B1E92B27C2B1BD853
:1054100000232380032701F8017B27887F1C278036
:105420006F0001F8017B27887F1C278000932B46A3
:1054300000F087F918B100F003FC064605E020886B
:1054400000EB4500208000E003263046F8BD70B533
:10545000144612880026052A27D14A780D791302AE
:105460008A781A43CB78521C45EA03256B1E92B208
:105470007C2B1AD200232380042301F8013B2388CC
:105480005B1C23806B0001F8013B23885B1C23809D
:105490002B4600F03BFA18B100F0D2FB064605E0BF
:1054A000208800EB4500208000E00326304670BDD8
:1054B0002DE9F84381461088002715460C460A2836
:1054C00045D3607826790102A078237A0843401CEE
:1054D0001FFA80F8E07846EA002660790102A07998
:1054E0000843401C82B2E079711E43EA0023607ACF
:1054F0007C292BD853B3792B28D8B0EB430F25D177
:105500000120009004F10A01484600F01AF9A0B900
:1055100000202880172222702A88611C521C2A80B1
:10552000720001F8012B2A883346521C2A80009011
:105530004246484600F005F918B100F081FB0746E5
:1055400005E0288800EB4600288000E00327384665
:10555000BDE8F8837CB505461088002405280BD1EA
:105560004878020288781043401C82B2087918B942
:10557000C878FF2803D010B1032420467CBD002347
:105580008DF80530C8780126FF280DD08DF804303D
:10559000012301A92846009600F086F80028ECD0E7
:1055A00000F04EFB0446E8E7511E06FA01F08DF8C4
:1055B0000400EDE738B5054610880024052802D020
:1055C0000324204638BD487802028878C91C10435D
:1055D000401C82B2012003460090284600F0B1F83A
:1055E0000028EED000F02CFB0446EAE7F8B50646AA
:1055F000108800241546052829D948780B7902021D
:1056000088784F791043401C82B2C8784FF0010C63
:1056100043EA0023580703D00CEBD300C0B201E0EB
:10562000C3F3C700A3F1010EBEF5F66F0FD2B84267
:105630000DD13046891DCDF800C000F035F818B105
:1056400000F0FEFA044603E00520288000E0032471
:105650002046F8BDF8B506461088002415460628F1
:105660001FD348780B79020288781043401C82B21D
:10567000C87843EA002348795F1E772F11D85F0668
:105680003F0E87420DD1012000903046891D00F069
:1056900058F818B100F0D4FA044603E00520288039
:1056A00000E003242046F8BDF8B50546521ED5F8A3
:1056B0002C430020069EA78BE48B92B2BA4212D3F1
:1056C000D718A7420FD802243EB1012E04D1DBB275
:1056D0002846009400F0C8F9F8BDDBB228460094D3
:1056E00000F072F9F8BD0120F8BD38B5D0F82C43B0
:1056F000521E92B2258D648DAA4208D3D518A542B8
:1057000005D80324DBB2009400F05EF938BD012017
:1057100038BDF8B5D0F82C4316460025236B04F1AC
:105720000C076A462846984748B1BDF8001038680B
:1057300001EB410100EBC10030602846F8BD0120BB
:10574000F8BD2DE9F84F0D464FF000090A99824641
:10575000CDF80090D0F82C031C46521E038A408AD4
:1057600096B29E427DD3321982427AD84FF07E584B
:10577000E9B3012942D1A7E06A4631465046FFF716
:10578000C8FF009800286DD0017B01296AD081787C
:10579000062909D0052904D0032905D0022906D0FD
:1057A00009E041690F7806E041690F8803E041692B
:1057B00091F900108FB290ED040AB5EEC00AF1EE37
:1057C00010FA0ED010EE100A40450AD000EE907A82
:1057D000F8EE600A20EE200ABCEEC00A10EE100AB5
:1057E00087B2380A05F8010B05F8017B00E003E0F9
:1057F000761C641EB6B2A4B2002CBDD16EE06A461F
:1058000031465046FFF785FF15F8010B010215F8E8
:10581000010B0843009929B34A691AB30B7B022B89
:1058200058D091ED040AB5EEC00AF1EE10FA0ED090
:1058300010EE103A43450AD000EE900AF8EE600AE6
:1058400080EE801ABCEEC10A10EE100A80B28B788E
:10585000062B08D0052B0ED0032B14D0022B21D001
:105860002EE039E036E04B68834230DC89688142C3
:105870002DDB118812E04B68834228DC8968814265
:1058800025DB117819E08B8800B21BB283421EDC45
:10589000098909B281421ADBB2F9001081420FD0A6
:1058A00010800DE00B7940B25BB283420FDC097AC5
:1058B00049B281420BDB92F90010814200D0107096
:1058C000761C641EB6B2A4B2002C98D106E0022069
:1058D000BDE8F88F0120FBE74FF001094846F7E7E4
:1058E000F8B5D0F82C4316460025236B6A460120F4
:1058F000984748B1BDF80010206801EB410100EB6A
:10590000C10030602846F8BD0120F8BD2DE9F843FC
:105910004FF000088146CDF80080D0F82C030E46E9
:10592000521E8188C08897B21D468F4248D379198C
:1059300081423ED944E06A4639464846FFF7D0FFE7
:105940000098C8B3017B012937D08178062909D096
:10595000052904D0032905D0022906D009E04169B0
:105960000C7806E041690C8803E0416991F9001068
:105970008CB290ED040AB5EEC00AF1EE10FA0FD029
:1059800010EE100AB0F17E5F0AD000EE904AF8EEF9
:10599000600A20EE200ABCEEC00A10EE100A84B2A3
:1059A000200A7F1C06F8010B6D1E06F8014BBFB2E2
:1059B000ADB2002DBFD105E0FFE70120BDE8F883BF
:1059C0004FF001084046F9E72DE9FF4F83B0002072
:1059D000DDF840B04FF0010A90460D4601900AEB09
:1059E000D30603F00709009036E000202870012E4E
:1059F00004D15FEA090001D0074600E0082700242F
:105A000025E0BBF1020F03D0BBF1030F0BD105E082
:105A10006A4641460398FFF744FC04E06A46414663
:105A20000398FFF754FC0098E0B14168D1B1807849
:105A3000012817D0087820B129780AFA04F0014328
:105A4000297008F10100641C1FFA80F8A4B2BC425E
:105A5000D7D3761EB6B26D1C002EC6D1019807B002
:105A6000BDE8F08F0120FAE72DE9FF4F83B0002059
:105A7000DDF840B04FF0010A90460F4601900AEB66
:105A8000D30503F00709009036E0012D04D15FEA49
:105A9000090001D0064600E00826002427E0BBF1FB
:105AA000020F03D0BBF1030F0BD105E06A4641465C
:105AB0000398FFF7F6FB04E06A4641460398FFF7B8
:105AC00006FC0098F0B14168E1B18078022819D055
:105AD00038780AFA04F210400A78E040824200D096
